{"contracts/USDTgPriceOracle.sol":{"USDTgSimplePriceOracle":{"abi":[{"inputs":[{"internalType":"int256","name":"initialPrice","type":"int256"}],"stateMutability":"nonpayable","type":"constructor"},{"inputs":[],"name":"decimals","outputs":[{"internalType":"uint8","name":"","type":"uint8"}],"stateMutability":"pure","type":"function"},{"inputs":[],"name":"getPrice","outputs":[{"internalType":"int256","name":"","type":"int256"}],"stateMutability":"view","type":"function"},{"inputs":[],"name":"latestRoundData","outputs":[{"internalType":"uint80","name":"roundId","type":"uint80"},{"internalType":"int256","name":"answer","type":"int256"},{"internalType":"uint256","name":"startedAt","type":"uint256"},{"internalType":"uint256","name":"updatedAt","type":"uint256"},{"internalType":"uint80","name":"answeredInRound","type":"uint80"}],"stateMutability":"view","type":"function"},{"inputs":[{"internalType":"int256","name":"newPrice","type":"int256"}],"name":"setPrice","outputs":[],"stateMutability":"nonpayable","type":"function"}],"evm":{"bytecode":{"linkReferences":{},"object":"608060405234801561001057600080fd5b506040516101ba3803806101ba83398101604081905261002f91610037565b600055610050565b60006020828403121561004957600080fd5b5051919050565b61015b8061005f6000396000f3fe608060405234801561001057600080fd5b506004361061004c5760003560e01c8063313ce5671461005157806398d5fdca14610065578063f7a3080614610076578063feaf968c1461008b575b600080fd5b604051600881526020015b60405180910390f35b60005460405190815260200161005c565b61008961008436600461010c565b6100ba565b005b60008054604080518381526020810192909252429082018190526060820152608081019190915260a00161005c565b600081136101075760405162461bcd60e51b81526020600482015260166024820152755072696365206d75737420626520706f73697469766560501b604482015260640160405180910390fd5b600055565b60006020828403121561011e57600080fd5b503591905056fea26469706673582212203490aab9e5464352f8f95e700708e1fdb18c58e373ecc75ba6622ec3143595be64736f6c63430008140033","opcodes":"PUSH1 0x80 PUSH1 0x40 MSTORE CALLVALUE DUP1 ISZERO PUSH2 0x10 JUMPI PUSH1 0x0 DUP1 REVERT JUMPDEST POP PUSH1 0x40 MLOAD PUSH2 0x1BA CODESIZE SUB DUP1 PUSH2 0x1BA DUP4 CODECOPY DUP2 ADD PUSH1 0x40 DUP2 SWAP1 MSTORE PUSH2 0x2F SWAP2 PUSH2 0x37 JUMP JUMPDEST PUSH1 0x0 SSTORE PUSH2 0x50 JUMP JUMPDEST PUSH1 0x0 PUSH1 0x20 DUP3 DUP5 SUB SLT ISZERO PUSH2 0x49 JUMPI PUSH1 0x0 DUP1 REVERT JUMPDEST POP MLOAD SWAP2 SWAP1 POP JUMP JUMPDEST PUSH2 0x15B DUP1 PUSH2 0x5F PUSH1 0x0 CODECOPY PUSH1 0x0 RETURN INVALID PUSH1 0x80 PUSH1 0x40 MSTORE CALLVALUE DUP1 ISZERO PUSH2 0x10 JUMPI PUSH1 0x0 DUP1 REVERT JUMPDEST POP PUSH1 0x4 CALLDATASIZE LT PUSH2 0x4C JUMPI PUSH1 0x0 CALLDATALOAD PUSH1 0xE0 SHR DUP1 PUSH4 0x313CE567 EQ PUSH2 0x51 JUMPI DUP1 PUSH4 0x98D5FDCA EQ PUSH2 0x65 JUMPI DUP1 PUSH4 0xF7A30806 EQ PUSH2 0x76 JUMPI DUP1 PUSH4 0xFEAF968C EQ PUSH2 0x8B JUMPI JUMPDEST PUSH1 0x0 DUP1 REVERT JUMPDEST PUSH1 0x40 MLOAD PUSH1 0x8 DUP2 MSTORE PUSH1 0x20 ADD JUMPDEST PUSH1 0x40 MLOAD DUP1 SWAP2 SUB SWAP1 RETURN JUMPDEST PUSH1 0x0 SLOAD PUSH1 0x40 MLOAD SWAP1 DUP2 MSTORE PUSH1 0x20 ADD PUSH2 0x5C JUMP JUMPDEST PUSH2 0x89 PUSH2 0x84 CALLDATASIZE PUSH1 0x4 PUSH2 0x10C JUMP JUMPDEST PUSH2 0xBA JUMP JUMPDEST STOP JUMPDEST PUSH1 0x0 DUP1 SLOAD PUSH1 0x40 DUP1 MLOAD DUP4 DUP2 MSTORE PUSH1 0x20 DUP2 ADD SWAP3 SWAP1 SWAP3 MSTORE TIMESTAMP SWAP1 DUP3 ADD DUP2 SWAP1 MSTORE PUSH1 0x60 DUP3 ADD MSTORE PUSH1 0x80 DUP2 ADD SWAP2 SWAP1 SWAP2 MSTORE PUSH1 0xA0 ADD PUSH2 0x5C JUMP JUMPDEST PUSH1 0x0 DUP2 SGT PUSH2 0x107 JUMPI PUSH1 0x40 MLOAD PUSH3 0x461BCD PUSH1 0xE5 SHL DUP2 MSTORE PUSH1 0x20 PUSH1 0x4 DUP3 ADD MSTORE PUSH1 0x16 PUSH1 0x24 DUP3 ADD MSTORE PUSH22 0x5072696365206D75737420626520706F736974697665 PUSH1 0x50 SHL PUSH1 0x44 DUP3 ADD MSTORE PUSH1 0x64 ADD PUSH1 0x40 MLOAD DUP1 SWAP2 SUB SWAP1 REVERT JUMPDEST PUSH1 0x0 SSTORE JUMP JUMPDEST PUSH1 0x0 PUSH1 0x20 DUP3 DUP5 SUB SLT ISZERO PUSH2 0x11E JUMPI PUSH1 0x0 DUP1 REVERT JUMPDEST POP CALLDATALOAD SWAP2 SWAP1 POP JUMP INVALID LOG2 PUSH5 0x6970667358 0x22 SLT KECCAK256 CALLVALUE SWAP1 0xAA 0xB9 0xE5 CHAINID NUMBER MSTORE 0xF8 0xF9 0x5E PUSH17 0x708E1FDB18C58E373ECC75BA6622EC314 CALLDATALOAD SWAP6 0xBE PUSH5 0x736F6C6343 STOP ADDMOD EQ STOP CALLER "},"methodIdentifiers":{"decimals()":"313ce567","getPrice()":"98d5fdca","latestRoundData()":"feaf968c","setPrice(int256)":"f7a30806"}}}}}