{"contracts/USDCgTokenTRC20.sol":{"USDCgTokenTRC20":{"abi":[{"inputs":[],"stateMutability":"nonpayable","type":"constructor"},{"anonymous":false,"inputs":[{"indexed":true,"internalType":"address","name":"owner","type":"address"},{"indexed":true,"internalType":"address","name":"spender","type":"address"},{"indexed":false,"internalType":"uint256","name":"value","type":"uint256"}],"name":"Approval","type":"event"},{"anonymous":false,"inputs":[{"indexed":true,"internalType":"address","name":"account","type":"address"},{"indexed":false,"internalType":"bool","name":"blacklisted","type":"bool"}],"name":"BlacklistUpdated","type":"event"},{"anonymous":false,"inputs":[{"indexed":false,"internalType":"string","name":"cooldownType","type":"string"},{"indexed":false,"internalType":"uint256","name":"newCooldown","type":"uint256"}],"name":"CooldownUpdated","type":"event"},{"anonymous":false,"inputs":[{"indexed":false,"internalType":"uint256","name":"newPrice","type":"uint256"}],"name":"FixedUSDPriceUpdated","type":"event"},{"anonymous":false,"inputs":[{"indexed":false,"internalType":"uint256","name":"newMaxSupply","type":"uint256"}],"name":"MaxSupplyUpdated","type":"event"},{"anonymous":false,"inputs":[{"indexed":false,"internalType":"address","name":"account","type":"address"}],"name":"Paused","type":"event"},{"anonymous":false,"inputs":[{"indexed":false,"internalType":"uint256","name":"timestamp","type":"uint256"},{"indexed":false,"internalType":"uint256","name":"fallbackPrice","type":"uint256"}],"name":"PriceFeedFallbackUsed","type":"event"},{"anonymous":false,"inputs":[{"indexed":true,"internalType":"bytes32","name":"role","type":"bytes32"},{"indexed":true,"internalType":"bytes32","name":"previousAdminRole","type":"bytes32"},{"indexed":true,"internalType":"bytes32","name":"newAdminRole","type":"bytes32"}],"name":"RoleAdminChanged","type":"event"},{"anonymous":false,"inputs":[{"indexed":true,"internalType":"bytes32","name":"role","type":"bytes32"},{"indexed":true,"internalType":"address","name":"account","type":"address"},{"indexed":true,"internalType":"address","name":"sender","type":"address"}],"name":"RoleGranted","type":"event"},{"anonymous":false,"inputs":[{"indexed":true,"internalType":"bytes32","name":"role","type":"bytes32"},{"indexed":true,"internalType":"address","name":"account","type":"address"},{"indexed":true,"internalType":"address","name":"sender","type":"address"}],"name":"RoleRevoked","type":"event"},{"anonymous":false,"inputs":[],"name":"SupplyFrozen","type":"event"},{"anonymous":false,"inputs":[{"indexed":false,"internalType":"uint256","name":"newDelay","type":"uint256"}],"name":"TimelockDelayUpdated","type":"event"},{"anonymous":false,"inputs":[{"indexed":true,"internalType":"bytes32","name":"id","type":"bytes32"},{"indexed":true,"internalType":"address","name":"target","type":"address"},{"indexed":false,"internalType":"uint256","name":"value","type":"uint256"},{"indexed":false,"internalType":"bytes","name":"data","type":"bytes"},{"indexed":false,"internalType":"bytes32","name":"predecessor","type":"bytes32"},{"indexed":false,"internalType":"bytes32","name":"salt","type":"bytes32"}],"name":"TimelockOperationScheduled","type":"event"},{"anonymous":false,"inputs":[{"indexed":true,"internalType":"address","name":"to","type":"address"},{"indexed":false,"internalType":"uint256","name":"amount","type":"uint256"}],"name":"TokensMinted","type":"event"},{"anonymous":false,"inputs":[{"indexed":true,"internalType":"address","name":"from","type":"address"},{"indexed":true,"internalType":"address","name":"to","type":"address"},{"indexed":false,"internalType":"uint256","name":"value","type":"uint256"}],"name":"Transfer","type":"event"},{"anonymous":false,"inputs":[{"indexed":true,"internalType":"address","name":"oldWallet","type":"address"},{"indexed":true,"internalType":"address","name":"newWallet","type":"address"}],"name":"TreasuryWalletUpdated","type":"event"},{"anonymous":false,"inputs":[{"indexed":false,"internalType":"address","name":"account","type":"address"}],"name":"Unpaused","type":"event"},{"anonymous":false,"inputs":[{"indexed":true,"internalType":"address","name":"account","type":"address"},{"indexed":false,"internalType":"bool","name":"whitelisted","type":"bool"}],"name":"WhitelistUpdated","type":"event"},{"stateMutability":"payable","type":"fallback"},{"inputs":[],"name":"ADMIN_ROLE","outputs":[{"internalType":"bytes32","name":"","type":"bytes32"}],"stateMutability":"view","type":"function"},{"inputs":[],"name":"DEFAULT_ADMIN_ROLE","outputs":[{"internalType":"bytes32","name":"","type":"bytes32"}],"stateMutability":"view","type":"function"},{"inputs":[],"name":"FEE_DENOMINATOR","outputs":[{"internalType":"uint256","name":"","type":"uint256"}],"stateMutability":"view","type":"function"},{"inputs":[],"name":"FEE_MANAGER_ROLE","outputs":[{"internalType":"bytes32","name":"","type":"bytes32"}],"stateMutability":"view","type":"function"},{"inputs":[],"name":"FEE_PERCENTAGE","outputs":[{"internalType":"uint256","name":"","type":"uint256"}],"stateMutability":"view","type":"function"},{"inputs":[],"name":"MAX_COOLDOWN","outputs":[{"internalType":"uint256","name":"","type":"uint256"}],"stateMutability":"view","type":"function"},{"inputs":[],"name":"MINTER_ROLE","outputs":[{"internalType":"bytes32","name":"","type":"bytes32"}],"stateMutability":"view","type":"function"},{"inputs":[],"name":"MIN_COOLDOWN","outputs":[{"internalType":"uint256","name":"","type":"uint256"}],"stateMutability":"view","type":"function"},{"inputs":[],"name":"MIN_PRICE","outputs":[{"internalType":"uint256","name":"","type":"uint256"}],"stateMutability":"view","type":"function"},{"inputs":[],"name":"PAUSER_ROLE","outputs":[{"internalType":"bytes32","name":"","type":"bytes32"}],"stateMutability":"view","type":"function"},{"inputs":[],"name":"PRICE_PRECISION","outputs":[{"internalType":"uint256","name":"","type":"uint256"}],"stateMutability":"view","type":"function"},{"inputs":[],"name":"TIMELOCK_ADMIN_ROLE","outputs":[{"internalType":"bytes32","name":"","type":"bytes32"}],"stateMutability":"view","type":"function"},{"inputs":[{"internalType":"address","name":"_account","type":"address"}],"name":"addToBlacklist","outputs":[],"stateMutability":"nonpayable","type":"function"},{"inputs":[{"internalType":"address","name":"_account","type":"address"}],"name":"addToWhitelist","outputs":[],"stateMutability":"nonpayable","type":"function"},{"inputs":[{"internalType":"address","name":"owner","type":"address"},{"internalType":"address","name":"spender","type":"address"}],"name":"allowance","outputs":[{"internalType":"uint256","name":"","type":"uint256"}],"stateMutability":"view","type":"function"},{"inputs":[{"internalType":"address","name":"spender","type":"address"},{"internalType":"uint256","name":"amount","type":"uint256"}],"name":"approve","outputs":[{"internalType":"bool","name":"","type":"bool"}],"stateMutability":"nonpayable","type":"function"},{"inputs":[{"internalType":"address","name":"account","type":"address"}],"name":"balanceOf","outputs":[{"internalType":"uint256","name":"","type":"uint256"}],"stateMutability":"view","type":"function"},{"inputs":[{"internalType":"address","name":"","type":"address"}],"name":"blacklist","outputs":[{"internalType":"bool","name":"","type":"bool"}],"stateMutability":"view","type":"function"},{"inputs":[],"name":"decimals","outputs":[{"internalType":"uint8","name":"","type":"uint8"}],"stateMutability":"view","type":"function"},{"inputs":[{"internalType":"address","name":"spender","type":"address"},{"internalType":"uint256","name":"subtractedValue","type":"uint256"}],"name":"decreaseAllowance","outputs":[{"internalType":"bool","name":"","type":"bool"}],"stateMutability":"nonpayable","type":"function"},{"inputs":[],"name":"feeWallet","outputs":[{"internalType":"address","name":"","type":"address"}],"stateMutability":"view","type":"function"},{"inputs":[],"name":"fixedUSDPrice","outputs":[{"internalType":"uint256","name":"","type":"uint256"}],"stateMutability":"view","type":"function"},{"inputs":[],"name":"freezeMaxSupply","outputs":[],"stateMutability":"nonpayable","type":"function"},{"inputs":[],"name":"getLatestPrice","outputs":[{"internalType":"uint256","name":"","type":"uint256"}],"stateMutability":"view","type":"function"},{"inputs":[{"internalType":"bytes32","name":"role","type":"bytes32"}],"name":"getRoleAdmin","outputs":[{"internalType":"bytes32","name":"","type":"bytes32"}],"stateMutability":"view","type":"function"},{"inputs":[{"internalType":"bytes32","name":"role","type":"bytes32"},{"internalType":"address","name":"account","type":"address"}],"name":"grantRole","outputs":[],"stateMutability":"nonpayable","type":"function"},{"inputs":[{"internalType":"bytes32","name":"role","type":"bytes32"},{"internalType":"address","name":"account","type":"address"}],"name":"hasRole","outputs":[{"internalType":"bool","name":"","type":"bool"}],"stateMutability":"view","type":"function"},{"inputs":[{"internalType":"address","name":"spender","type":"address"},{"internalType":"uint256","name":"addedValue","type":"uint256"}],"name":"increaseAllowance","outputs":[{"internalType":"bool","name":"","type":"bool"}],"stateMutability":"nonpayable","type":"function"},{"inputs":[{"internalType":"address","name":"_feeWallet","type":"address"},{"internalType":"address","name":"_usdtAddress","type":"address"},{"internalType":"address","name":"_usdcAddress","type":"address"},{"internalType":"address","name":"_router","type":"address"},{"internalType":"address","name":"_priceFeed","type":"address"},{"internalType":"address","name":"_multisigWallet","type":"address"}],"name":"initialize","outputs":[],"stateMutability":"nonpayable","type":"function"},{"inputs":[],"name":"justMoneyRouter","outputs":[{"internalType":"contract IJustMoneyRouter","name":"","type":"address"}],"stateMutability":"view","type":"function"},{"inputs":[],"name":"lastMintTimestamp","outputs":[{"internalType":"uint256","name":"","type":"uint256"}],"stateMutability":"view","type":"function"},{"inputs":[],"name":"lastPriceUpdateTimestamp","outputs":[{"internalType":"uint256","name":"","type":"uint256"}],"stateMutability":"view","type":"function"},{"inputs":[],"name":"latestAnswer","outputs":[{"internalType":"int256","name":"","type":"int256"}],"stateMutability":"view","type":"function"},{"inputs":[{"internalType":"uint256","name":"tokenAmount","type":"uint256"}],"name":"liveUSDValue","outputs":[{"internalType":"uint256","name":"","type":"uint256"}],"stateMutability":"view","type":"function"},{"inputs":[],"name":"maxSupply","outputs":[{"internalType":"uint256","name":"","type":"uint256"}],"stateMutability":"view","type":"function"},{"inputs":[],"name":"maxSupplyFrozen","outputs":[{"internalType":"bool","name":"","type":"bool"}],"stateMutability":"view","type":"function"},{"inputs":[{"internalType":"address","name":"to","type":"address"},{"internalType":"uint256","name":"amount","type":"uint256"}],"name":"mint","outputs":[],"stateMutability":"nonpayable","type":"function"},{"inputs":[],"name":"mintCooldown","outputs":[{"internalType":"uint256","name":"","type":"uint256"}],"stateMutability":"view","type":"function"},{"inputs":[],"name":"multisigWallet","outputs":[{"internalType":"address","name":"","type":"address"}],"stateMutability":"view","type":"function"},{"inputs":[],"name":"name","outputs":[{"internalType":"string","name":"","type":"string"}],"stateMutability":"view","type":"function"},{"inputs":[],"name":"pause","outputs":[],"stateMutability":"nonpayable","type":"function"},{"inputs":[],"name":"paused","outputs":[{"internalType":"bool","name":"","type":"bool"}],"stateMutability":"view","type":"function"},{"inputs":[],"name":"priceFeed","outputs":[{"internalType":"contract AggregatorV3Interface","name":"","type":"address"}],"stateMutability":"view","type":"function"},{"inputs":[],"name":"priceUpdateCooldown","outputs":[{"internalType":"uint256","name":"","type":"uint256"}],"stateMutability":"view","type":"function"},{"inputs":[{"internalType":"address","name":"_account","type":"address"}],"name":"removeFromBlacklist","outputs":[],"stateMutability":"nonpayable","type":"function"},{"inputs":[{"internalType":"address","name":"_account","type":"address"}],"name":"removeFromWhitelist","outputs":[],"stateMutability":"nonpayable","type":"function"},{"inputs":[{"internalType":"bytes32","name":"role","type":"bytes32"},{"internalType":"address","name":"account","type":"address"}],"name":"renounceRole","outputs":[],"stateMutability":"nonpayable","type":"function"},{"inputs":[{"internalType":"bytes32","name":"role","type":"bytes32"},{"internalType":"address","name":"account","type":"address"}],"name":"revokeRole","outputs":[],"stateMutability":"nonpayable","type":"function"},{"inputs":[{"internalType":"bytes32","name":"salt","type":"bytes32"}],"name":"scheduleFreezeMaxSupply","outputs":[],"stateMutability":"nonpayable","type":"function"},{"inputs":[{"internalType":"uint256","name":"newPrice","type":"uint256"},{"internalType":"bytes32","name":"salt","type":"bytes32"}],"name":"scheduleSetFixedUSDPrice","outputs":[],"stateMutability":"nonpayable","type":"function"},{"inputs":[{"internalType":"uint256","name":"newMaxSupply","type":"uint256"},{"internalType":"bytes32","name":"salt","type":"bytes32"}],"name":"scheduleSetMaxSupply","outputs":[],"stateMutability":"nonpayable","type":"function"},{"inputs":[{"internalType":"uint256","name":"newPrice","type":"uint256"}],"name":"setFixedUSDPrice","outputs":[],"stateMutability":"nonpayable","type":"function"},{"inputs":[{"internalType":"uint256","name":"newMaxSupply","type":"uint256"}],"name":"setMaxSupply","outputs":[],"stateMutability":"nonpayable","type":"function"},{"inputs":[{"internalType":"uint256","name":"newCooldown","type":"uint256"}],"name":"setMintCooldown","outputs":[],"stateMutability":"nonpayable","type":"function"},{"inputs":[{"internalType":"uint256","name":"newCooldown","type":"uint256"}],"name":"setPriceUpdateCooldown","outputs":[],"stateMutability":"nonpayable","type":"function"},{"inputs":[{"internalType":"address","name":"_wallet","type":"address"}],"name":"setTreasuryWallet","outputs":[],"stateMutability":"nonpayable","type":"function"},{"inputs":[{"internalType":"bytes4","name":"interfaceId","type":"bytes4"}],"name":"supportsInterface","outputs":[{"internalType":"bool","name":"","type":"bool"}],"stateMutability":"view","type":"function"},{"inputs":[],"name":"symbol","outputs":[{"internalType":"string","name":"","type":"string"}],"stateMutability":"view","type":"function"},{"inputs":[],"name":"timelock","outputs":[{"internalType":"contract TimelockController","name":"","type":"address"}],"stateMutability":"view","type":"function"},{"inputs":[],"name":"timelockDelay","outputs":[{"internalType":"uint256","name":"","type":"uint256"}],"stateMutability":"view","type":"function"},{"inputs":[],"name":"totalSupply","outputs":[{"internalType":"uint256","name":"","type":"uint256"}],"stateMutability":"view","type":"function"},{"inputs":[{"internalType":"address","name":"recipient","type":"address"},{"internalType":"uint256","name":"amount","type":"uint256"}],"name":"transfer","outputs":[{"internalType":"bool","name":"","type":"bool"}],"stateMutability":"nonpayable","type":"function"},{"inputs":[{"internalType":"address","name":"sender","type":"address"},{"internalType":"address","name":"recipient","type":"address"},{"internalType":"uint256","name":"amount","type":"uint256"}],"name":"transferFrom","outputs":[{"internalType":"bool","name":"","type":"bool"}],"stateMutability":"nonpayable","type":"function"},{"inputs":[],"name":"treasuryWallet","outputs":[{"internalType":"address","name":"","type":"address"}],"stateMutability":"view","type":"function"},{"inputs":[],"name":"unpause","outputs":[],"stateMutability":"nonpayable","type":"function"},{"inputs":[{"internalType":"uint256","name":"newDelay","type":"uint256"}],"name":"updateTimelockDelay","outputs":[],"stateMutability":"nonpayable","type":"function"},{"inputs":[{"internalType":"uint256","name":"tokenAmount","type":"uint256"}],"name":"usdValue","outputs":[{"internalType":"uint256","name":"","type":"uint256"}],"stateMutability":"view","type":"function"},{"inputs":[],"name":"usdcAddress","outputs":[{"internalType":"address","name":"","type":"address"}],"stateMutability":"view","type":"function"},{"inputs":[],"name":"usdtAddress","outputs":[{"internalType":"address","name":"","type":"address"}],"stateMutability":"view","type":"function"},{"inputs":[{"internalType":"address","name":"","type":"address"}],"name":"whitelist","outputs":[{"internalType":"bool","name":"","type":"bool"}],"stateMutability":"view","type":"function"},{"stateMutability":"payable","type":"receive"}],"evm":{"bytecode":{"linkReferences":{},"object":"6080604052600d805460ff60a01b1916600360a11b17905567016345785d8a0000600e55600f805460ff191690556305f5e100601155603c60158190556017553480156200004c57600080fd5b506040518060400160405280600f81526020016e10da5c98db1951dd585c99081554d1608a1b81525060405180604001604052806005815260200164555344436760d81b8152508160039081620000a4919062000267565b506004620000b3828262000267565b50506006805460ff19169055506001600755620000f17fa49807205ce4d355092ef5a8a18f56e8913cf4a201fbe287825b095693c21775336200010e565b600f8054610100600160a81b031916336101000217905562000333565b6200011a82826200011e565b5050565b60008281526005602090815260408083206001600160a01b038516845290915290205460ff166200011a5760008281526005602090815260408083206001600160a01b03851684529091529020805460ff191660011790556200017e3390565b6001600160a01b0316816001600160a01b0316837f2f8788117e7eff1d82e926ec794901d17c78024a50270940304540a733656f0d60405160405180910390a45050565b634e487b7160e01b600052604160045260246000fd5b600181811c90821680620001ed57607f821691505b6020821081036200020e57634e487b7160e01b600052602260045260246000fd5b50919050565b601f8211156200026257600081815260208120601f850160051c810160208610156200023d5750805b601f850160051c820191505b818110156200025e5782815560010162000249565b5050505b505050565b81516001600160401b03811115620002835762000283620001c2565b6200029b81620002948454620001d8565b8462000214565b602080601f831160018114620002d35760008415620002ba5750858301515b600019600386901b1c1916600185901b1785556200025e565b600085815260208120601f198616915b828110156200030457888601518255948401946001909101908401620002e3565b5085821015620003235787850151600019600388901b60f8161c191681555b5050505050600190811b01905550565b615f4e80620003436000396000f3fe608060405260043610620003de5760003560e01c806375b238fc11620001ff578063ad9f20a6116200011b578063d73792a911620000a9578063d73792a91462000cd5578063dd62ed3e1462000cec578063e43252d71462000d11578063e63ab1e91462000d36578063eef09bad1462000d5b578063f25f4b561462000d73578063f384702f1462000d95578063f714cb441462000db1578063f9f92be41462000dc9576200043b565b8063ad9f20a61462000bb1578063b377f5691462000bca578063cbca75cb1462000be2578063cc2a9a5b1462000c07578063cdc45c061462000c2c578063d33219b41462000c51578063d53913931462000c73578063d547741f1462000c98578063d5abeb011462000cbd576200043b565b806391d14854116200019957806391d148541462000a7e57806395082d251462000aa357806395d89b411462000abd5780639ab4a4451462000ad55780639b19251a1462000af7578063a217fddf1462000b2b578063a457c2d71462000b42578063a8602fea1462000b67578063a9059cbb1462000b8c576200043b565b806375b238fc146200098c5780638456cb5914620009b15780638ab1d68114620009c95780638b41d35f14620009ee5780638e15f4731462000a075780638e52d9d31462000a1f5780638e80ff5d1462000a445780639075becf1462000a5c576200043b565b80633281ee7111620002fb57806350d25bcd116200028957806350d25bcd1462000848578063537df3b6146200086057806358ce469b14620008855780635c975abb14620008aa5780635d9cdbe814620008c45780636f6556ac14620008e95780636f8b44b0146200090b57806370a082311462000930578063741bef1a146200096a576200043b565b80633281ee711462000706578063344a681e146200072b57806336568abe14620007505780633950935114620007755780633f4ba83a146200079a57806340c10f1914620007b257806344337ea114620007d7578063453d105f14620007fc5780634626402b1462000821576200043b565b80630d3cf6fc11620003795780630d3cf6fc14620005d65780631674460714620005fb57806318160ddd14620006135780632000d430146200062a57806323b1f8e4146200064257806323b872dd146200065a578063248a9ca3146200067f5780632f2ff15d14620006b3578063313ce56714620006d8576200043b565b80620b46f8146200048457806301ffc9a714620004ae57806302d4545714620004e4578063039f091c146200051557806305db2f41146200052d57806306b4ec48146200056357806306fdde03146200058a578063095ea7b314620005b1576200043b565b366200043b5760405162461bcd60e51b815260206004820152602160248201527f44697265637420545258207472616e7366657273206e6f7420616363657074656044820152601960fa1b60648201526084015b60405180910390fd5b60405162461bcd60e51b815260206004820152601f60248201527f46616c6c6261636b2066756e6374696f6e206e6f74207065726d697474656400604482015260640162000432565b3480156200049157600080fd5b506200049b600181565b6040519081526020015b60405180910390f35b348015620004bb57600080fd5b50620004d3620004cd36600462003433565b62000dfd565b6040519015158152602001620004a5565b348015620004f157600080fd5b50600b5462000506906001600160a01b031681565b604051620004a591906200345f565b3480156200052257600080fd5b506200049b60175481565b3480156200053a57600080fd5b506200049b7f6c0757dc3e6b28b2580c03fd9e96c274acf4f99d91fbec9b418fa1d70604ff1c81565b3480156200057057600080fd5b50620005886200058236600462003473565b62000e35565b005b3480156200059757600080fd5b50620005a26200103c565b604051620004a59190620034ea565b348015620005be57600080fd5b50620004d3620005d03660046200351c565b6200104d565b348015620005e357600080fd5b506200049b60008051602062005e9983398151915281565b3480156200060857600080fd5b506200058862001067565b3480156200062057600080fd5b506002546200049b565b3480156200063757600080fd5b506200049b60155481565b3480156200064f57600080fd5b506200049b60165481565b3480156200066757600080fd5b50620004d36200067936600462003549565b62001101565b3480156200068c57600080fd5b506200049b6200069e3660046200358a565b60009081526005602052604090206001015490565b348015620006c057600080fd5b5062000588620006d2366004620035a4565b620011da565b348015620006e557600080fd5b50600d54600160a01b900460ff1660405160ff9091168152602001620004a5565b3480156200071357600080fd5b5062000588620007253660046200358a565b62001208565b3480156200073857600080fd5b50620005886200074a3660046200358a565b620012b6565b3480156200075d57600080fd5b50620005886200076f366004620035a4565b6200135b565b3480156200078257600080fd5b50620004d3620007943660046200351c565b620013dd565b348015620007a757600080fd5b506200058862001405565b348015620007bf57600080fd5b5062000588620007d13660046200351c565b6200142d565b348015620007e457600080fd5b5062000588620007f6366004620035d3565b62001732565b3480156200080957600080fd5b506200049b6200081b3660046200358a565b62001836565b3480156200082e57600080fd5b50600f54620005069061010090046001600160a01b031681565b3480156200085557600080fd5b506200049b6200186e565b3480156200086d57600080fd5b50620005886200087f366004620035d3565b6200187a565b3480156200089257600080fd5b5062000588620008a436600462003473565b6200196a565b348015620008b757600080fd5b5060065460ff16620004d3565b348015620008d157600080fd5b5062000588620008e33660046200358a565b62001a04565b348015620008f657600080fd5b50600c5462000506906001600160a01b031681565b3480156200091857600080fd5b50620005886200092a3660046200358a565b62001bf0565b3480156200093d57600080fd5b506200049b6200094f366004620035d3565b6001600160a01b031660009081526020819052604090205490565b3480156200097757600080fd5b50600d5462000506906001600160a01b031681565b3480156200099957600080fd5b506200049b60008051602062005ef983398151915281565b348015620009be57600080fd5b506200058862001d27565b348015620009d657600080fd5b5062000588620009e8366004620035d3565b62001d4c565b348015620009fb57600080fd5b506200049b6201518081565b34801562000a1457600080fd5b506200049b62001e3c565b34801562000a2c57600080fd5b506200058862000a3e3660046200358a565b62001f02565b34801562000a5157600080fd5b506200049b60145481565b34801562000a6957600080fd5b5060085462000506906001600160a01b031681565b34801562000a8b57600080fd5b50620004d362000a9d366004620035a4565b62001ff6565b34801562000ab057600080fd5b506200049b6305f5e10081565b34801562000aca57600080fd5b50620005a262002021565b34801562000ae257600080fd5b50600a5462000506906001600160a01b031681565b34801562000b0457600080fd5b50620004d362000b16366004620035d3565b60136020526000908152604090205460ff1681565b34801562000b3857600080fd5b506200049b600081565b34801562000b4f57600080fd5b50620004d362000b613660046200351c565b6200202d565b34801562000b7457600080fd5b506200058862000b86366004620035d3565b620020b9565b34801562000b9957600080fd5b50620004d362000bab3660046200351c565b62002158565b34801562000bbe57600080fd5b506200049b620f424081565b34801562000bd757600080fd5b506200049b60115481565b34801562000bef57600080fd5b506200049b62000c013660046200358a565b620021d9565b34801562000c1457600080fd5b506200058862000c26366004620035f1565b6200221b565b34801562000c3957600080fd5b506200058862000c4b3660046200358a565b620026cc565b34801562000c5e57600080fd5b5060105462000506906001600160a01b031681565b34801562000c8057600080fd5b506200049b60008051602062005ed983398151915281565b34801562000ca557600080fd5b506200058862000cb7366004620035a4565b62002802565b34801562000cca57600080fd5b506200049b600e5481565b34801562000ce257600080fd5b506200049b606481565b34801562000cf957600080fd5b506200049b62000d0b36600462003672565b6200282b565b34801562000d1e57600080fd5b506200058862000d30366004620035d3565b62002856565b34801562000d4357600080fd5b506200049b60008051602062005eb983398151915281565b34801562000d6857600080fd5b506200049b62002953565b34801562000d8057600080fd5b5060095462000506906001600160a01b031681565b34801562000da257600080fd5b50600f54620004d39060ff1681565b34801562000dbe57600080fd5b506200049b61012c81565b34801562000dd657600080fd5b50620004d362000de8366004620035d3565b60126020526000908152604090205460ff1681565b60006001600160e01b03198216637965db0b60e01b148062000e2f57506301ffc9a760e01b6001600160e01b03198316145b92915050565b60008051602062005ef983398151915262000e5081620029c4565b60008360405160240162000e6691815260200190565b60408051601f198184030181529181526020820180516001600160e01b03166306f8b44b60e41b1790526010549051638065657f60e01b81529192506000916001600160a01b0390911690638065657f9062000ecf9030908590879082908b90600401620036a1565b602060405180830381865afa15801562000eed573d6000803e3d6000fd5b505050506040513d601f19601f8201168201806040525081019062000f139190620036de565b6010546040805163793d064960e11b815290519293506001600160a01b03909116916301d5062a913091600091879183918b91889163f27a0c929160048083019260209291908290030181865afa15801562000f73573d6000803e3d6000fd5b505050506040513d601f19601f8201168201806040525081019062000f999190620036de565b6040518763ffffffff1660e01b815260040162000fbc96959493929190620036f8565b600060405180830381600087803b15801562000fd757600080fd5b505af115801562000fec573d6000803e3d6000fd5b50506040513092508391507fdc5403c65537cfcfac6c555554373c7c7558b8d931ad256056712e94366aa62a906200102d90600090879082908b906200373f565b60405180910390a35050505050565b606062001048620029d0565b905090565b6000336200105d81858562002a6a565b5060019392505050565b60008051602062005ef98339815191526200108281620029c4565b600f5460ff1615620010c85760405162461bcd60e51b815260206004820152600e60248201526d20b63932b0b23c90333937bd32b760911b604482015260640162000432565b600f805460ff191660011790556040517fd87fd8bf05bc559633953df4700f4561a93f0d9d554514647f7bbe5cb334edd090600090a150565b3360008181526012602052604081205490919060ff1615620011375760405162461bcd60e51b815260040162000432906200376d565b6001600160a01b038516600090815260126020526040902054859060ff1615620011755760405162461bcd60e51b815260040162000432906200376d565b6001600160a01b038516600090815260126020526040902054859060ff1615620011b35760405162461bcd60e51b815260040162000432906200376d565b620011c087878762002b92565b620011cd87338762002c3c565b5060019695505050505050565b600082815260056020526040902060010154620011f781620029c4565b62001203838362002cbd565b505050565b60008051602062005ef98339815191526200122381620029c4565b8161012c81101580156200123a5750620151808111155b620012595760405162461bcd60e51b815260040162000432906200379d565b60178390556040805181815260059181019190915264707269636560d81b6060820152602081018490527fe150ae9e3b22a5374d8f19e5fe8fdeda39e961587672a97caaee45e814b0c1ba906080015b60405180910390a1505050565b60008051602062005ef9833981519152620012d181620029c4565b8161012c8110158015620012e85750620151808111155b620013075760405162461bcd60e51b815260040162000432906200379d565b601583905560408051818152600491810191909152631b5a5b9d60e21b6060820152602081018490527fe150ae9e3b22a5374d8f19e5fe8fdeda39e961587672a97caaee45e814b0c1ba90608001620012a9565b6001600160a01b0381163314620013cd5760405162461bcd60e51b815260206004820152602f60248201527f416363657373436f6e74726f6c3a2063616e206f6e6c792072656e6f756e636560448201526e103937b632b9903337b91039b2b63360891b606482015260840162000432565b620013d9828262002d47565b5050565b6000336200105d818585620013f383836200282b565b620013ff9190620037e3565b62002a6a565b60008051602062005eb98339815191526200142081620029c4565b6200142a62002db1565b50565b6200143762002e01565b6200144162002e4b565b3360008181526012602052604090205460ff1615620014745760405162461bcd60e51b815260040162000432906200376d565b60008051602062005ed98339815191526200148f81620029c4565b60008311620014ef5760405162461bcd60e51b815260206004820152602560248201527f4d696e7420616d6f756e74206d7573742062652067726561746572207468616e604482015264207a65726f60d81b606482015260840162000432565b333214620015385760405162461bcd60e51b815260206004820152601560248201527410dbdb9d1c9858dd1cc818d85b9b9bdd081b5a5b9d605a1b604482015260640162000432565b601554601454620015499162002ea6565b421015620015915760405162461bcd60e51b81526020600482015260146024820152734d696e7420636f6f6c646f776e2061637469766560601b604482015260640162000432565b6001600160a01b038416620015e05760405162461bcd60e51b81526020600482015260146024820152734d696e7420746f207a65726f206164647265737360601b604482015260640162000432565b6001600160a01b03841660009081526013602052604090205460ff16620016465760405162461bcd60e51b8152602060048201526019602482015278149958da5c1a595b9d081b9bdd081dda1a5d195b1a5cdd1959603a1b604482015260640162000432565b600d5460009062001670906200166890600160a01b900460ff16600a620038f6565b859062002eb4565b9050600e546200168b826200168460025490565b9062002ea6565b1115620016d05760405162461bcd60e51b815260206004820152601260248201527145786365656473206d617820737570706c7960701b604482015260640162000432565b42601455620016e0858262002ec2565b846001600160a01b03167f3f2c9d57c068687834f0de942a9babb9e5acab57d516d3480a3c16ee165a4273826040516200171c91815260200190565b60405180910390a2505050620013d96001600755565b60008051602062005ef98339815191526200174d81620029c4565b6001600160a01b038216620017765760405162461bcd60e51b8152600401620004329062003907565b6001600160a01b03821660009081526012602052604090205460ff1615620017d75760405162461bcd60e51b8152602060048201526013602482015272105b1c9958591e48189b1858dadb1a5cdd1959606a1b604482015260640162000432565b6001600160a01b038216600081815260126020908152604091829020805460ff1916600190811790915591519182527f6a12b3df6cba4203bd7fd06b816789f87de8c594299aed5717ae070fac781bac91015b60405180910390a25050565b600d5460009062000e2f906200185890600160a01b900460ff16600a620038f6565b60115462001867908562002eb4565b9062002f85565b60006200104862001e3c565b60008051602062005ef98339815191526200189581620029c4565b6001600160a01b038216620018be5760405162461bcd60e51b8152600401620004329062003907565b6001600160a01b03821660009081526012602052604090205460ff166200191a5760405162461bcd60e51b815260206004820152600f60248201526e139bdd08189b1858dadb1a5cdd1959608a1b604482015260640162000432565b6001600160a01b0382166000818152601260209081526040808320805460ff19169055519182527f6a12b3df6cba4203bd7fd06b816789f87de8c594299aed5717ae070fac781bac91016200182a565b60008051602062005ef98339815191526200198581620029c4565b6000836040516024016200199b91815260200190565b60408051601f198184030181529181526020820180516001600160e01b03166366e22e0360e11b1790526010549051638065657f60e01b81529192506000916001600160a01b0390911690638065657f9062000ecf9030908590879082908b90600401620036a1565b60008051602062005ef983398151915262001a1f81620029c4565b6040805160048082526024820183526020820180516001600160e01b0316631674460760e01b1790526010549251638065657f60e01b815291926000926001600160a01b0390911691638065657f9162001a849130918691889183918c9101620036a1565b602060405180830381865afa15801562001aa2573d6000803e3d6000fd5b505050506040513d601f19601f8201168201806040525081019062001ac89190620036de565b6010546040805163793d064960e11b815290519293506001600160a01b03909116916301d5062a913091600091879183918b91889163f27a0c929160048083019260209291908290030181865afa15801562001b28573d6000803e3d6000fd5b505050506040513d601f19601f8201168201806040525081019062001b4e9190620036de565b6040518763ffffffff1660e01b815260040162001b7196959493929190620036f8565b600060405180830381600087803b15801562001b8c57600080fd5b505af115801562001ba1573d6000803e3d6000fd5b50506040513092508391507fdc5403c65537cfcfac6c555554373c7c7558b8d931ad256056712e94366aa62a9062001be290600090879082908b906200373f565b60405180910390a350505050565b60008051602062005ef983398151915262001c0b81620029c4565b600f5460ff161562001c575760405162461bcd60e51b815260206004820152601460248201527326b0bc1039bab838363c9034b990333937bd32b760611b604482015260640162000432565b60025482101562001cba5760405162461bcd60e51b815260206004820152602660248201527f4e6577206d617820737570706c79206d757374206265203e3d20746f74616c20604482015265737570706c7960d01b606482015260840162000432565b600f5461010090046001600160a01b031662001cea5760405162461bcd60e51b8152600401620004329062003930565b600e8290556040518281527f7810bd47de260c3e9ee10061cf438099dd12256c79485f12f94dbccc981e806c906020015b60405180910390a15050565b60008051602062005eb983398151915262001d4281620029c4565b6200142a62002f93565b60008051602062005ef983398151915262001d6781620029c4565b6001600160a01b03821662001d905760405162461bcd60e51b8152600401620004329062003907565b6001600160a01b03821660009081526013602052604090205460ff1662001dec5760405162461bcd60e51b815260206004820152600f60248201526e139bdd081dda1a5d195b1a5cdd1959608a1b604482015260640162000432565b6001600160a01b0382166000818152601360209081526040808320805460ff19169055519182527ff93f9a76c1bf3444d22400a00cb9fe990e6abe9dbb333fda48859cfee864543d91016200182a565b600d5460408051633fabe5a360e21b815290516000926001600160a01b03169163feaf968c9160048083019260a09291908290030181865afa92505050801562001ea5575060408051601f3d908101601f1916820190925262001ea2918101906200397c565b60015b62001eb1575060115490565b6000841362001ef85760405162461bcd60e51b8152602060048201526012602482015271125b9d985b1a59081c1c9a58d9481999595960721b604482015260640162000432565b5091949350505050565b60008051602062005e9983398151915262001f1d81620029c4565b6201518082101562001f645760405162461bcd60e51b815260206004820152600f60248201526e11195b185e481d1bdbc81cda1bdc9d608a1b604482015260640162000432565b6010546040516364d6235360e01b8152600481018490526001600160a01b03909116906364d6235390602401600060405180830381600087803b15801562001fab57600080fd5b505af115801562001fc0573d6000803e3d6000fd5b505050507fedd2c15cb1225ce15cf67efa55cea2672bfea32d9d9cbf34716bd04b76194b538260405162001d1b91815260200190565b60009182526005602090815260408084206001600160a01b0393909316845291905290205460ff1690565b60606200104862002fd3565b600033816200203d82866200282b565b9050838110156200209f5760405162461bcd60e51b815260206004820152602560248201527f45524332303a2064656372656173656420616c6c6f77616e63652062656c6f77604482015264207a65726f60d81b606482015260840162000432565b620020ae828686840362002a6a565b506001949350505050565b60008051602062005ef9833981519152620020d481620029c4565b6001600160a01b038216620020fd5760405162461bcd60e51b8152600401620004329062003907565b600f80546001600160a01b03848116610100818102610100600160a81b031985161790945560405193909204169182907fa982575859d7ad2f390dc12b23f7dab8bbda047f9d0140ac68344b27bf34bfb490600090a3505050565b3360008181526012602052604081205490919060ff16156200218e5760405162461bcd60e51b815260040162000432906200376d565b6001600160a01b038416600090815260126020526040902054849060ff1615620021cc5760405162461bcd60e51b815260040162000432906200376d565b620020ae33868662002b92565b600080620021e662001e3c565b600d5490915062002214906200220890600160a01b900460ff16600a620038f6565b62001867838662002eb4565b9392505050565b60008051602062005ef98339815191526200223681620029c4565b60185460ff1615620022815760405162461bcd60e51b8152602060048201526013602482015272105b1c9958591e481a5b9a5d1a585b1a5e9959606a1b604482015260640162000432565b6001600160a01b038716620022d65760405162461bcd60e51b815260206004820152601a6024820152794665652077616c6c6574206973207a65726f206164647265737360301b604482015260640162000432565b6001600160a01b0382166200232e5760405162461bcd60e51b815260206004820152601f60248201527f4d756c74697369672077616c6c6574206973207a65726f206164647265737300604482015260640162000432565b6001600160a01b038616620023865760405162461bcd60e51b815260206004820152601c60248201527f555344542061646472657373206973207a65726f206164647265737300000000604482015260640162000432565b6001600160a01b038516620023de5760405162461bcd60e51b815260206004820152601c60248201527f555344432061646472657373206973207a65726f206164647265737300000000604482015260640162000432565b6001600160a01b038416620024365760405162461bcd60e51b815260206004820152601e60248201527f526f757465722061646472657373206973207a65726f20616464726573730000604482015260640162000432565b6001600160a01b0383166200248b5760405162461bcd60e51b815260206004820152601a60248201527950726963652066656564206973207a65726f206164647265737360301b604482015260640162000432565b600980546001600160a01b03199081166001600160a01b038a811691909117909255600880548216858416179055600a80548216898416179055600b80548216888416179055600c80548216878416179055600d80549091169185169190911790556040805160018082528183019092526000916020808301908036833750506040805160018082528183019092529293506000929150602080830190803683370190505090503382600081518110620025495762002549620039e7565b60200260200101906001600160a01b031690816001600160a01b0316815250503381600081518110620025805762002580620039e7565b60200260200101906001600160a01b031690816001600160a01b0316815250506202a300828233604051620025b59062003425565b620025c4949392919062003a43565b604051809103906000f080158015620025e1573d6000803e3d6000fd5b50601080546001600160a01b0319166001600160a01b039290921691821790556200260f9060009062002fe4565b601054620026379060008051602062005ef9833981519152906001600160a01b031662002fe4565b6200265260008051602062005ed98339815191523362002fe4565b6200267e7f6c0757dc3e6b28b2580c03fd9e96c274acf4f99d91fbec9b418fa1d70604ff1c3362002fe4565b6200269960008051602062005eb98339815191523362002fe4565b620026b460008051602062005e998339815191523362002fe4565b50506018805460ff1916600117905550505050505050565b620026d662002e01565b60008051602062005ef9833981519152620026f181620029c4565b620f4240821015620027365760405162461bcd60e51b815260206004820152600d60248201526c507269636520746f6f206c6f7760981b604482015260640162000432565b600f5461010090046001600160a01b0316620027665760405162461bcd60e51b8152600401620004329062003930565b601754601654620027779162002ea6565b421015620027c85760405162461bcd60e51b815260206004820152601c60248201527f50726963652075706461746520636f6f6c646f776e2061637469766500000000604482015260640162000432565b4260165560118290556040518281527f5b5342fbbec47a69c0ba4286f4f2907b43cf46121eb4987f7618af6dd021f2419060200162001d1b565b6000828152600560205260409020600101546200281f81620029c4565b62001203838362002d47565b6001600160a01b03918216600090815260016020908152604080832093909416825291909152205490565b60008051602062005ef98339815191526200287181620029c4565b6001600160a01b0382166200289a5760405162461bcd60e51b8152600401620004329062003907565b6001600160a01b03821660009081526013602052604090205460ff1615620028fb5760405162461bcd60e51b8152602060048201526013602482015272105b1c9958591e481dda1a5d195b1a5cdd1959606a1b604482015260640162000432565b6001600160a01b038216600081815260136020908152604091829020805460ff1916600190811790915591519182527ff93f9a76c1bf3444d22400a00cb9fe990e6abe9dbb333fda48859cfee864543d91016200182a565b6010546040805163793d064960e11b815290516000926001600160a01b03169163f27a0c929160048083019260209291908290030181865afa1580156200299e573d6000803e3d6000fd5b505050506040513d601f19601f82011682018060405250810190620010489190620036de565b6200142a813362002ff0565b606060038054620029e19062003a8c565b80601f016020809104026020016040519081016040528092919081815260200182805462002a0f9062003a8c565b801562002a605780601f1062002a345761010080835404028352916020019162002a60565b820191906000526020600020905b81548152906001019060200180831162002a4257829003601f168201915b5050505050905090565b6001600160a01b03831662002ace5760405162461bcd60e51b8152602060048201526024808201527f45524332303a20617070726f76652066726f6d20746865207a65726f206164646044820152637265737360e01b606482015260840162000432565b6001600160a01b03821662002b315760405162461bcd60e51b815260206004820152602260248201527f45524332303a20617070726f766520746f20746865207a65726f206164647265604482015261737360f01b606482015260840162000432565b6001600160a01b0383811660008181526001602090815260408083209487168084529482529182902085905590518481527f8c5be1e5ebec7d5bd14f71427d1e84f3dd0314c0f7b2291e5b200ac8c7c3b925910160405180910390a3505050565b62002b9c62002e01565b60075460020362002be65760405162461bcd60e51b81526020600482015260136024820152721499595b9d1c985b98de4819195d1958dd1959606a1b604482015260640162000432565b600062002bfb60646200186784600162002eb4565b9050600062002c0b838362003054565b60095490915062002c289086906001600160a01b03168462003062565b62002c3585858362003062565b5050505050565b600062002c4a84846200282b565b9050600019811462002cb7578181101562002ca85760405162461bcd60e51b815260206004820152601d60248201527f45524332303a20696e73756666696369656e7420616c6c6f77616e6365000000604482015260640162000432565b62002cb7848484840362002a6a565b50505050565b62002cc9828262001ff6565b620013d95760008281526005602090815260408083206001600160a01b03851684529091529020805460ff1916600117905562002d033390565b6001600160a01b0316816001600160a01b0316837f2f8788117e7eff1d82e926ec794901d17c78024a50270940304540a733656f0d60405160405180910390a45050565b62002d53828262001ff6565b15620013d95760008281526005602090815260408083206001600160a01b0385168085529252808320805460ff1916905551339285917ff6391f5c32d9c69d2a47ea670b442974b53935d1edc7fd64eb21e047a839171b9190a45050565b62002dbb6200320d565b6006805460ff191690557f5db9ee0a495bf2e6ff9c91a7834c1ba4fdd244a5e8aa4e537bd38aeae4b073aa335b60405162002df791906200345f565b60405180910390a1565b60065460ff161562002e495760405162461bcd60e51b815260206004820152601060248201526f14185d5cd8589b194e881c185d5cd95960821b604482015260640162000432565b565b60026007540362002e9f5760405162461bcd60e51b815260206004820152601f60248201527f5265656e7472616e637947756172643a207265656e7472616e742063616c6c00604482015260640162000432565b6002600755565b6000620022148284620037e3565b600062002214828462003ac8565b6001600160a01b03821662002f1a5760405162461bcd60e51b815260206004820152601f60248201527f45524332303a206d696e7420746f20746865207a65726f206164647265737300604482015260640162000432565b806002600082825462002f2e9190620037e3565b90915550506001600160a01b038216600081815260208181526040808320805486019055518481527fddf252ad1be2c89b69c2b068fc378daa952ba7f163c4a11628f55a4df523b3ef910160405180910390a35050565b600062002214828462003ae2565b62002f9d62002e01565b6006805460ff191660011790557f62e78cea01bee320cd4e420270b5ea74000d11b0c9f74754ebdbfc544b05a25862002de83390565b606060048054620029e19062003a8c565b620013d9828262002cbd565b62002ffc828262001ff6565b620013d9576200300c8162003258565b620030198360206200326b565b6040516020016200302c92919062003b05565b60408051601f198184030181529082905262461bcd60e51b82526200043291600401620034ea565b600062002214828462003b78565b6001600160a01b038316620030c85760405162461bcd60e51b815260206004820152602560248201527f45524332303a207472616e736665722066726f6d20746865207a65726f206164604482015264647265737360d81b606482015260840162000432565b6001600160a01b0382166200312c5760405162461bcd60e51b815260206004820152602360248201527f45524332303a207472616e7366657220746f20746865207a65726f206164647260448201526265737360e81b606482015260840162000432565b6001600160a01b03831660009081526020819052604090205481811015620031a65760405162461bcd60e51b815260206004820152602660248201527f45524332303a207472616e7366657220616d6f756e7420657863656564732062604482015265616c616e636560d01b606482015260840162000432565b6001600160a01b03848116600081815260208181526040808320878703905593871680835291849020805487019055925185815290927fddf252ad1be2c89b69c2b068fc378daa952ba7f163c4a11628f55a4df523b3ef910160405180910390a362002cb7565b60065460ff1662002e495760405162461bcd60e51b815260206004820152601460248201527314185d5cd8589b194e881b9bdd081c185d5cd95960621b604482015260640162000432565b606062000e2f6001600160a01b03831660145b606060006200327c83600262003ac8565b62003289906002620037e3565b67ffffffffffffffff811115620032a457620032a4620039d1565b6040519080825280601f01601f191660200182016040528015620032cf576020820181803683370190505b509050600360fc1b81600081518110620032ed57620032ed620039e7565b60200101906001600160f81b031916908160001a905350600f60fb1b816001815181106200331f576200331f620039e7565b60200101906001600160f81b031916908160001a90535060006200334584600262003ac8565b62003352906001620037e3565b90505b6001811115620033d4576f181899199a1a9b1b9c1cb0b131b232b360811b85600f16601081106200338a576200338a620039e7565b1a60f81b828281518110620033a357620033a3620039e7565b60200101906001600160f81b031916908160001a90535060049490941c93620033cc8162003b8e565b905062003355565b508315620022145760405162461bcd60e51b815260206004820181905260248201527f537472696e67733a20686578206c656e67746820696e73756666696369656e74604482015260640162000432565b6122f08062003ba983390190565b6000602082840312156200344657600080fd5b81356001600160e01b0319811681146200221457600080fd5b6001600160a01b0391909116815260200190565b600080604083850312156200348757600080fd5b50508035926020909101359150565b60005b83811015620034b357818101518382015260200162003499565b50506000910152565b60008151808452620034d681602086016020860162003496565b601f01601f19169290920160200192915050565b602081526000620022146020830184620034bc565b80356001600160a01b03811681146200351757600080fd5b919050565b600080604083850312156200353057600080fd5b6200353b83620034ff565b946020939093013593505050565b6000806000606084860312156200355f57600080fd5b6200356a84620034ff565b92506200357a60208501620034ff565b9150604084013590509250925092565b6000602082840312156200359d57600080fd5b5035919050565b60008060408385031215620035b857600080fd5b82359150620035ca60208401620034ff565b90509250929050565b600060208284031215620035e657600080fd5b6200221482620034ff565b60008060008060008060c087890312156200360b57600080fd5b6200361687620034ff565b95506200362660208801620034ff565b94506200363660408801620034ff565b93506200364660608801620034ff565b92506200365660808801620034ff565b91506200366660a08801620034ff565b90509295509295509295565b600080604083850312156200368657600080fd5b6200369183620034ff565b9150620035ca60208401620034ff565b60018060a01b038616815284602082015260a060408201526000620036ca60a0830186620034bc565b606083019490945250608001529392505050565b600060208284031215620036f157600080fd5b5051919050565b60018060a01b038716815285602082015260c0604082015260006200372160c0830187620034bc565b606083019590955250608081019290925260a0909101529392505050565b8481526080602082015260006200375a6080830186620034bc565b6040830194909452506060015292915050565b6020808252601690820152751058d8dbdd5b9d081a5cc8189b1858dadb1a5cdd195960521b604082015260600190565b602080825260169082015275436f6f6c646f776e206f7574206f6620626f756e647360501b604082015260600190565b634e487b7160e01b600052601160045260246000fd5b8082018082111562000e2f5762000e2f620037cd565b600181815b808511156200383a5781600019048211156200381e576200381e620037cd565b808516156200382c57918102915b93841c9390800290620037fe565b509250929050565b600082620038535750600162000e2f565b81620038625750600062000e2f565b81600181146200387b57600281146200388657620038a6565b600191505062000e2f565b60ff8411156200389a576200389a620037cd565b50506001821b62000e2f565b5060208310610133831016604e8410600b8410161715620038cb575081810a62000e2f565b620038d78383620037f9565b8060001904821115620038ee57620038ee620037cd565b029392505050565b60006200221460ff84168362003842565b6020808252600f908201526e496e76616c6964206164647265737360881b604082015260600190565b602080825260179082015276151c99585cdd5c9e481dd85b1b195d081b9bdd081cd95d604a1b604082015260600190565b805169ffffffffffffffffffff811681146200351757600080fd5b600080600080600060a086880312156200399557600080fd5b620039a08662003961565b9450602086015193506040860151925060608601519150620039c56080870162003961565b90509295509295909350565b634e487b7160e01b600052604160045260246000fd5b634e487b7160e01b600052603260045260246000fd5b600081518084526020808501945080840160005b8381101562003a385781516001600160a01b03168752958201959082019060010162003a11565b509495945050505050565b84815260806020820152600062003a5e6080830186620039fd565b828103604084015262003a728186620039fd565b91505060018060a01b038316606083015295945050505050565b600181811c9082168062003aa157607f821691505b60208210810362003ac257634e487b7160e01b600052602260045260246000fd5b50919050565b808202811582820484141762000e2f5762000e2f620037cd565b60008262003b0057634e487b7160e01b600052601260045260246000fd5b500490565b76020b1b1b2b9b9a1b7b73a3937b61d1030b1b1b7bab73a1604d1b81526000835162003b3981601785016020880162003496565b7001034b99036b4b9b9b4b733903937b6329607d1b601791840191820152835162003b6c81602884016020880162003496565b01602801949350505050565b8181038181111562000e2f5762000e2f620037cd565b60008162003ba05762003ba0620037cd565b50600019019056fe60806040523480156200001157600080fd5b50604051620022f0380380620022f0833981016040819052620000349162000408565b6200004f60008051602062002270833981519152806200022d565b6200007960008051602062002290833981519152600080516020620022708339815191526200022d565b620000a3600080516020620022b0833981519152600080516020620022708339815191526200022d565b620000cd600080516020620022d0833981519152600080516020620022708339815191526200022d565b620000e8600080516020620022708339815191523062000278565b6001600160a01b03811615620001135762000113600080516020620022708339815191528262000278565b60005b835181101562000199576200015d600080516020620022908339815191528583815181106200014957620001496200048f565b60200260200101516200027860201b60201c565b62000186600080516020620022d08339815191528583815181106200014957620001496200048f565b6200019181620004a5565b905062000116565b5060005b8251811015620001e357620001d0600080516020620022b08339815191528483815181106200014957620001496200048f565b620001db81620004a5565b90506200019d565b5060028490556040805160008152602081018690527f11c24f4ead16507c69ac467fbd5e4eed5fb5c699626d2cc6d66421df253886d5910160405180910390a150505050620004cd565b600082815260208190526040808220600101805490849055905190918391839186917fbd79b86ffe0ab8e8776151514217cd7cacd52c909f66475c3af44e129f0b00ff9190a4505050565b62000284828262000288565b5050565b6000828152602081815260408083206001600160a01b038516845290915290205460ff1662000284576000828152602081815260408083206001600160a01b03851684529091529020805460ff19166001179055620002e43390565b6001600160a01b0316816001600160a01b0316837f2f8788117e7eff1d82e926ec794901d17c78024a50270940304540a733656f0d60405160405180910390a45050565b634e487b7160e01b600052604160045260246000fd5b80516001600160a01b03811681146200035657600080fd5b919050565b600082601f8301126200036d57600080fd5b815160206001600160401b03808311156200038c576200038c62000328565b8260051b604051601f19603f83011681018181108482111715620003b457620003b462000328565b604052938452858101830193838101925087851115620003d357600080fd5b83870191505b84821015620003fd57620003ed826200033e565b83529183019190830190620003d9565b979650505050505050565b600080600080608085870312156200041f57600080fd5b845160208601519094506001600160401b03808211156200043f57600080fd5b6200044d888389016200035b565b945060408701519150808211156200046457600080fd5b5062000473878288016200035b565b92505062000484606086016200033e565b905092959194509250565b634e487b7160e01b600052603260045260246000fd5b600060018201620004c657634e487b7160e01b600052601160045260246000fd5b5060010190565b611d9380620004dd6000396000f3fe60806040526004361061015b5760003560e01c80638065657f116100bc5780638065657f1461039a5780638f2a0bb0146103ba5780638f61f4f5146103da57806391d14854146103fc578063a217fddf1461041c578063b08e51c014610431578063b1c5f42714610465578063bc197c8114610485578063c4d252f5146104b1578063d45c4435146104d1578063d547741f146104fe578063e38335e51461051e578063f23a6e6114610531578063f27a0c921461055d57600080fd5b806301d5062a1461016757806301ffc9a71461018957806307bd0265146101be5780630d3cf6fc146101ee578063134008d31461022257806313bc9f2014610235578063150b7a0214610255578063248a9ca3146102995780632ab0f529146102c95780632f2ff15d146102fa57806331d507501461031a57806336568abe1461033a578063584b153e1461035a57806364d623531461037a57600080fd5b3661016257005b600080fd5b34801561017357600080fd5b50610187610182366004611376565b610572565b005b34801561019557600080fd5b506101a96101a43660046113ea565b610636565b60405190151581526020015b60405180910390f35b3480156101ca57600080fd5b506101e0600080516020611d3e83398151915281565b6040519081526020016101b5565b3480156101fa57600080fd5b506101e07f5f58e3a2316349923ce3780f8d587db2d72378aed66a8261c916544fa6846ca581565b610187610230366004611414565b610661565b34801561024157600080fd5b506101a961025036600461147f565b610704565b34801561026157600080fd5b5061028061027036600461154d565b630a85bd0160e11b949350505050565b6040516001600160e01b031990911681526020016101b5565b3480156102a557600080fd5b506101e06102b436600461147f565b60009081526020819052604090206001015490565b3480156102d557600080fd5b506101a96102e436600461147f565b6000908152600160208190526040909120541490565b34801561030657600080fd5b506101876103153660046115b4565b61072a565b34801561032657600080fd5b506101a961033536600461147f565b610754565b34801561034657600080fd5b506101876103553660046115b4565b61076d565b34801561036657600080fd5b506101a961037536600461147f565b6107f0565b34801561038657600080fd5b5061018761039536600461147f565b610806565b3480156103a657600080fd5b506101e06103b5366004611414565b6108aa565b3480156103c657600080fd5b506101876103d5366004611624565b6108e9565b3480156103e657600080fd5b506101e0600080516020611d1e83398151915281565b34801561040857600080fd5b506101a96104173660046115b4565b610a6a565b34801561042857600080fd5b506101e0600081565b34801561043d57600080fd5b506101e07ffd643c72710c63c0180259aba6b2d05451e3591a24e58b62239378085726f78381565b34801561047157600080fd5b506101e06104803660046116d5565b610a93565b34801561049157600080fd5b506102806104a03660046117fc565b63bc197c8160e01b95945050505050565b3480156104bd57600080fd5b506101876104cc36600461147f565b610ad8565b3480156104dd57600080fd5b506101e06104ec36600461147f565b60009081526001602052604090205490565b34801561050a57600080fd5b506101876105193660046115b4565b610bad565b61018761052c3660046116d5565b610bd2565b34801561053d57600080fd5b5061028061054c3660046118a5565b63f23a6e6160e01b95945050505050565b34801561056957600080fd5b506002546101e0565b600080516020611d1e83398151915261058a81610d4a565b600061059a8989898989896108aa565b90506105a68184610d57565b6000817f4cf4410cc57040e44862ef0f45f3dd5a5e02db8eb8add648d4b0e236f1d07dca8b8b8b8b8b8a6040516105e296959493929190611932565b60405180910390a3831561062b57807f20fda5fd27a1ea7bf5b9567f143ac5470bb059374a27e8f67cb44f946f6d03878560405161062291815260200190565b60405180910390a25b505050505050505050565b60006001600160e01b03198216630271189760e51b148061065b575061065b82610e46565b92915050565b600080516020611d3e83398151915261067b816000610a6a565b610689576106898133610e7b565b60006106998888888888886108aa565b90506106a58185610ed4565b6106b188888888610f70565b6000817fc2617efa69bab66782fa219543714338489c4e9e178271560a91b82c3f612b588a8a8a8a6040516106e9949392919061196f565b60405180910390a36106fa81611043565b5050505050505050565b6000818152600160205260408120546001811180156107235750428111155b9392505050565b60008281526020819052604090206001015461074581610d4a565b61074f838361107c565b505050565b60008181526001602052604081205481905b1192915050565b6001600160a01b03811633146107e25760405162461bcd60e51b815260206004820152602f60248201527f416363657373436f6e74726f6c3a2063616e206f6e6c792072656e6f756e636560448201526e103937b632b9903337b91039b2b63360891b60648201526084015b60405180910390fd5b6107ec8282611100565b5050565b6000818152600160208190526040822054610766565b3330146108695760405162461bcd60e51b815260206004820152602b60248201527f54696d656c6f636b436f6e74726f6c6c65723a2063616c6c6572206d7573742060448201526a62652074696d656c6f636b60a81b60648201526084016107d9565b60025460408051918252602082018390527f11c24f4ead16507c69ac467fbd5e4eed5fb5c699626d2cc6d66421df253886d5910160405180910390a1600255565b60008686868686866040516020016108c796959493929190611932565b6040516020818303038152906040528051906020012090509695505050505050565b600080516020611d1e83398151915261090181610d4a565b8887146109205760405162461bcd60e51b81526004016107d9906119a1565b88851461093f5760405162461bcd60e51b81526004016107d9906119a1565b60006109518b8b8b8b8b8b8b8b610a93565b905061095d8184610d57565b60005b8a811015610a1b5780827f4cf4410cc57040e44862ef0f45f3dd5a5e02db8eb8add648d4b0e236f1d07dca8e8e8581811061099d5761099d6119e4565b90506020020160208101906109b291906119fa565b8d8d868181106109c4576109c46119e4565b905060200201358c8c878181106109dd576109dd6119e4565b90506020028101906109ef9190611a15565b8c8b604051610a0396959493929190611932565b60405180910390a3610a1481611a71565b9050610960565b508315610a5d57807f20fda5fd27a1ea7bf5b9567f143ac5470bb059374a27e8f67cb44f946f6d038785604051610a5491815260200190565b60405180910390a25b5050505050505050505050565b6000918252602082815260408084206001600160a01b0393909316845291905290205460ff1690565b60008888888888888888604051602001610ab4989796959493929190611b1b565b60405160208183030381529060405280519060200120905098975050505050505050565b7ffd643c72710c63c0180259aba6b2d05451e3591a24e58b62239378085726f783610b0281610d4a565b610b0b826107f0565b610b715760405162461bcd60e51b815260206004820152603160248201527f54696d656c6f636b436f6e74726f6c6c65723a206f7065726174696f6e2063616044820152701b9b9bdd0818994818d85b98d95b1b1959607a1b60648201526084016107d9565b6000828152600160205260408082208290555183917fbaa1eb22f2a492ba1a5fea61b8df4d27c6c8b5f3971e63bb58fa14ff72eedb7091a25050565b600082815260208190526040902060010154610bc881610d4a565b61074f8383611100565b600080516020611d3e833981519152610bec816000610a6a565b610bfa57610bfa8133610e7b565b878614610c195760405162461bcd60e51b81526004016107d9906119a1565b878414610c385760405162461bcd60e51b81526004016107d9906119a1565b6000610c4a8a8a8a8a8a8a8a8a610a93565b9050610c568185610ed4565b60005b89811015610d345760008b8b83818110610c7557610c756119e4565b9050602002016020810190610c8a91906119fa565b905060008a8a84818110610ca057610ca06119e4565b9050602002013590503660008a8a86818110610cbe57610cbe6119e4565b9050602002810190610cd09190611a15565b91509150610ce084848484610f70565b84867fc2617efa69bab66782fa219543714338489c4e9e178271560a91b82c3f612b5886868686604051610d17949392919061196f565b60405180910390a35050505080610d2d90611a71565b9050610c59565b50610d3e81611043565b50505050505050505050565b610d548133610e7b565b50565b610d6082610754565b15610dc55760405162461bcd60e51b815260206004820152602f60248201527f54696d656c6f636b436f6e74726f6c6c65723a206f7065726174696f6e20616c60448201526e1c9958591e481cd8da19591d5b1959608a1b60648201526084016107d9565b600254811015610e265760405162461bcd60e51b815260206004820152602660248201527f54696d656c6f636b436f6e74726f6c6c65723a20696e73756666696369656e746044820152652064656c617960d01b60648201526084016107d9565b610e308142611bbc565b6000928352600160205260409092209190915550565b60006001600160e01b03198216637965db0b60e01b148061065b57506301ffc9a760e01b6001600160e01b031983161461065b565b610e858282610a6a565b6107ec57610e9281611165565b610e9d836020611177565b604051602001610eae929190611bf3565b60408051601f198184030181529082905262461bcd60e51b82526107d991600401611c62565b610edd82610704565b610ef95760405162461bcd60e51b81526004016107d990611c95565b801580610f155750600081815260016020819052604090912054145b6107ec5760405162461bcd60e51b815260206004820152602660248201527f54696d656c6f636b436f6e74726f6c6c65723a206d697373696e6720646570656044820152656e64656e637960d01b60648201526084016107d9565b6000846001600160a01b0316848484604051610f8d929190611cdf565b60006040518083038185875af1925050503d8060008114610fca576040519150601f19603f3d011682016040523d82523d6000602084013e610fcf565b606091505b505090508061103c5760405162461bcd60e51b815260206004820152603360248201527f54696d656c6f636b436f6e74726f6c6c65723a20756e6465726c79696e6720746044820152721c985b9cd858dd1a5bdb881c995d995c9d1959606a1b60648201526084016107d9565b5050505050565b61104c81610704565b6110685760405162461bcd60e51b81526004016107d990611c95565b600090815260016020819052604090912055565b6110868282610a6a565b6107ec576000828152602081815260408083206001600160a01b03851684529091529020805460ff191660011790556110bc3390565b6001600160a01b0316816001600160a01b0316837f2f8788117e7eff1d82e926ec794901d17c78024a50270940304540a733656f0d60405160405180910390a45050565b61110a8282610a6a565b156107ec576000828152602081815260408083206001600160a01b0385168085529252808320805460ff1916905551339285917ff6391f5c32d9c69d2a47ea670b442974b53935d1edc7fd64eb21e047a839171b9190a45050565b606061065b6001600160a01b03831660145b60606000611186836002611cef565b611191906002611bbc565b6001600160401b038111156111a8576111a8611498565b6040519080825280601f01601f1916602001820160405280156111d2576020820181803683370190505b509050600360fc1b816000815181106111ed576111ed6119e4565b60200101906001600160f81b031916908160001a905350600f60fb1b8160018151811061121c5761121c6119e4565b60200101906001600160f81b031916908160001a9053506000611240846002611cef565b61124b906001611bbc565b90505b60018111156112c3576f181899199a1a9b1b9c1cb0b131b232b360811b85600f166010811061127f5761127f6119e4565b1a60f81b828281518110611295576112956119e4565b60200101906001600160f81b031916908160001a90535060049490941c936112bc81611d06565b905061124e565b5083156107235760405162461bcd60e51b815260206004820181905260248201527f537472696e67733a20686578206c656e67746820696e73756666696369656e7460448201526064016107d9565b80356001600160a01b038116811461132957600080fd5b919050565b60008083601f84011261134057600080fd5b5081356001600160401b0381111561135757600080fd5b60208301915083602082850101111561136f57600080fd5b9250929050565b600080600080600080600060c0888a03121561139157600080fd5b61139a88611312565b96506020880135955060408801356001600160401b038111156113bc57600080fd5b6113c88a828b0161132e565b989b979a50986060810135976080820135975060a09091013595509350505050565b6000602082840312156113fc57600080fd5b81356001600160e01b03198116811461072357600080fd5b60008060008060008060a0878903121561142d57600080fd5b61143687611312565b95506020870135945060408701356001600160401b0381111561145857600080fd5b61146489828a0161132e565b979a9699509760608101359660809091013595509350505050565b60006020828403121561149157600080fd5b5035919050565b634e487b7160e01b600052604160045260246000fd5b604051601f8201601f191681016001600160401b03811182821017156114d6576114d6611498565b604052919050565b600082601f8301126114ef57600080fd5b81356001600160401b0381111561150857611508611498565b61151b601f8201601f19166020016114ae565b81815284602083860101111561153057600080fd5b816020850160208301376000918101602001919091529392505050565b6000806000806080858703121561156357600080fd5b61156c85611312565b935061157a60208601611312565b92506040850135915060608501356001600160401b0381111561159c57600080fd5b6115a8878288016114de565b91505092959194509250565b600080604083850312156115c757600080fd5b823591506115d760208401611312565b90509250929050565b60008083601f8401126115f257600080fd5b5081356001600160401b0381111561160957600080fd5b6020830191508360208260051b850101111561136f57600080fd5b600080600080600080600080600060c08a8c03121561164257600080fd5b89356001600160401b038082111561165957600080fd5b6116658d838e016115e0565b909b50995060208c013591508082111561167e57600080fd5b61168a8d838e016115e0565b909950975060408c01359150808211156116a357600080fd5b506116b08c828d016115e0565b9a9d999c50979a969997986060880135976080810135975060a0013595509350505050565b60008060008060008060008060a0898b0312156116f157600080fd5b88356001600160401b038082111561170857600080fd5b6117148c838d016115e0565b909a50985060208b013591508082111561172d57600080fd5b6117398c838d016115e0565b909850965060408b013591508082111561175257600080fd5b5061175f8b828c016115e0565b999c989b509699959896976060870135966080013595509350505050565b600082601f83011261178e57600080fd5b813560206001600160401b038211156117a9576117a9611498565b8160051b6117b88282016114ae565b92835284810182019282810190878511156117d257600080fd5b83870192505b848310156117f1578235825291830191908301906117d8565b979650505050505050565b600080600080600060a0868803121561181457600080fd5b61181d86611312565b945061182b60208701611312565b935060408601356001600160401b038082111561184757600080fd5b61185389838a0161177d565b9450606088013591508082111561186957600080fd5b61187589838a0161177d565b9350608088013591508082111561188b57600080fd5b50611898888289016114de565b9150509295509295909350565b600080600080600060a086880312156118bd57600080fd5b6118c686611312565b94506118d460208701611312565b9350604086013592506060860135915060808601356001600160401b038111156118fd57600080fd5b611898888289016114de565b81835281816020850137506000828201602090810191909152601f909101601f19169091010190565b60018060a01b038716815285602082015260a06040820152600061195a60a083018688611909565b60608301949094525060800152949350505050565b60018060a01b0385168152836020820152606060408201526000611997606083018486611909565b9695505050505050565b60208082526023908201527f54696d656c6f636b436f6e74726f6c6c65723a206c656e677468206d69736d616040820152620e8c6d60eb1b606082015260800190565b634e487b7160e01b600052603260045260246000fd5b600060208284031215611a0c57600080fd5b61072382611312565b6000808335601e19843603018112611a2c57600080fd5b8301803591506001600160401b03821115611a4657600080fd5b60200191503681900382131561136f57600080fd5b634e487b7160e01b600052601160045260246000fd5b600060018201611a8357611a83611a5b565b5060010190565b81835260006020808501808196508560051b810191508460005b87811015611b0e5782840389528135601e19883603018112611ac557600080fd5b870185810190356001600160401b03811115611ae057600080fd5b803603821315611aef57600080fd5b611afa868284611909565b9a87019a9550505090840190600101611aa4565b5091979650505050505050565b60a0808252810188905260008960c08301825b8b811015611b5c576001600160a01b03611b4784611312565b16825260209283019290910190600101611b2e565b5083810360208501528881526001600160fb1b03891115611b7c57600080fd5b8860051b9150818a60208301370182810360209081016040850152611ba49082018789611a8a565b60608401959095525050608001529695505050505050565b8082018082111561065b5761065b611a5b565b60005b83811015611bea578181015183820152602001611bd2565b50506000910152565b76020b1b1b2b9b9a1b7b73a3937b61d1030b1b1b7bab73a1604d1b815260008351611c25816017850160208801611bcf565b7001034b99036b4b9b9b4b733903937b6329607d1b6017918401918201528351611c56816028840160208801611bcf565b01602801949350505050565b6020815260008251806020840152611c81816040850160208701611bcf565b601f01601f19169190910160400192915050565b6020808252602a908201527f54696d656c6f636b436f6e74726f6c6c65723a206f7065726174696f6e206973604082015269206e6f7420726561647960b01b606082015260800190565b8183823760009101908152919050565b808202811582820484141761065b5761065b611a5b565b600081611d1557611d15611a5b565b50600019019056feb09aa5aeb3702cfd50b6b62bc4532604938f21248a27a1d5ca736082b6819cc1d8aa0f3194971a2a116679f7c2090f6939c8d4e01a2a8d7e41d55e5351469e63a26469706673582212202808f51406eb1fa3c3d17bb673219a6658602723b96ab3e10960d1825d6b9f3264736f6c634300081400335f58e3a2316349923ce3780f8d587db2d72378aed66a8261c916544fa6846ca5b09aa5aeb3702cfd50b6b62bc4532604938f21248a27a1d5ca736082b6819cc1d8aa0f3194971a2a116679f7c2090f6939c8d4e01a2a8d7e41d55e5351469e63fd643c72710c63c0180259aba6b2d05451e3591a24e58b62239378085726f7835f58e3a2316349923ce3780f8d587db2d72378aed66a8261c916544fa6846ca565d7a28e3265b37a6474929f336521b332c1681b933f6cb9f3376673440d862a9f2df0fed2c77648de5860a4cc508cd0818c85b8b8a1ab4ceeef8d981c8956a6a49807205ce4d355092ef5a8a18f56e8913cf4a201fbe287825b095693c21775a264697066735822122036b43fe6873f9b5cf220021b3112f3eeb2c634c9fc034b1e9abc6023269f2e0064736f6c63430008140033","opcodes":"PUSH1 0x80 PUSH1 0x40 MSTORE PUSH1 0xD DUP1 SLOAD PUSH1 0xFF PUSH1 0xA0 SHL NOT AND PUSH1 0x3 PUSH1 0xA1 SHL OR SWAP1 SSTORE PUSH8 0x16345785D8A0000 PUSH1 0xE SSTORE PUSH1 0xF DUP1 SLOAD PUSH1 0xFF NOT AND SWAP1 SSTORE PUSH4 0x5F5E100 PUSH1 0x11 SSTORE PUSH1 0x3C PUSH1 0x15 DUP2 SWAP1 SSTORE PUSH1 0x17 SSTORE CALLVALUE DUP1 ISZERO PUSH3 0x4C JUMPI PUSH1 0x0 DUP1 REVERT JUMPDEST POP PUSH1 0x40 MLOAD DUP1 PUSH1 0x40 ADD PUSH1 0x40 MSTORE DUP1 PUSH1 0xF DUP2 MSTORE PUSH1 0x20 ADD PUSH15 0x10DA5C98DB1951DD585C99081554D1 PUSH1 0x8A SHL DUP2 MSTORE POP PUSH1 0x40 MLOAD DUP1 PUSH1 0x40 ADD PUSH1 0x40 MSTORE DUP1 PUSH1 0x5 DUP2 MSTORE PUSH1 0x20 ADD PUSH5 0x5553444367 PUSH1 0xD8 SHL DUP2 MSTORE POP DUP2 PUSH1 0x3 SWAP1 DUP2 PUSH3 0xA4 SWAP2 SWAP1 PUSH3 0x267 JUMP JUMPDEST POP PUSH1 0x4 PUSH3 0xB3 DUP3 DUP3 PUSH3 0x267 JUMP JUMPDEST POP POP PUSH1 0x6 DUP1 SLOAD PUSH1 0xFF NOT AND SWAP1 SSTORE POP PUSH1 0x1 PUSH1 0x7 SSTORE PUSH3 0xF1 PUSH32 0xA49807205CE4D355092EF5A8A18F56E8913CF4A201FBE287825B095693C21775 CALLER PUSH3 0x10E JUMP JUMPDEST PUSH1 0xF DUP1 SLOAD PUSH2 0x100 PUSH1 0x1 PUSH1 0xA8 SHL SUB NOT AND CALLER PUSH2 0x100 MUL OR SWAP1 SSTORE PUSH3 0x333 JUMP JUMPDEST PUSH3 0x11A DUP3 DUP3 PUSH3 0x11E JUMP JUMPDEST POP POP JUMP JUMPDEST PUSH1 0x0 DUP3 DUP2 MSTORE PUSH1 0x5 PUSH1 0x20 SWAP1 DUP2 MSTORE PUSH1 0x40 DUP1 DUP4 KECCAK256 PUSH1 0x1 PUSH1 0x1 PUSH1 0xA0 SHL SUB DUP6 AND DUP5 MSTORE SWAP1 SWAP2 MSTORE SWAP1 KECCAK256 SLOAD PUSH1 0xFF AND PUSH3 0x11A JUMPI PUSH1 0x0 DUP3 DUP2 MSTORE PUSH1 0x5 PUSH1 0x20 SWAP1 DUP2 MSTORE PUSH1 0x40 DUP1 DUP4 KECCAK256 PUSH1 0x1 PUSH1 0x1 PUSH1 0xA0 SHL SUB DUP6 AND DUP5 MSTORE SWAP1 SWAP2 MSTORE SWAP1 KECCAK256 DUP1 SLOAD PUSH1 0xFF NOT AND PUSH1 0x1 OR SWAP1 SSTORE PUSH3 0x17E CALLER SWAP1 JUMP JUMPDEST PUSH1 0x1 PUSH1 0x1 PUSH1 0xA0 SHL SUB AND DUP2 PUSH1 0x1 PUSH1 0x1 PUSH1 0xA0 SHL SUB AND DUP4 PUSH32 0x2F8788117E7EFF1D82E926EC794901D17C78024A50270940304540A733656F0D PUSH1 0x40 MLOAD PUSH1 0x40 MLOAD DUP1 SWAP2 SUB SWAP1 LOG4 POP POP JUMP JUMPDEST PUSH4 0x4E487B71 PUSH1 0xE0 SHL PUSH1 0x0 MSTORE PUSH1 0x41 PUSH1 0x4 MSTORE PUSH1 0x24 PUSH1 0x0 REVERT JUMPDEST PUSH1 0x1 DUP2 DUP2 SHR SWAP1 DUP3 AND DUP1 PUSH3 0x1ED JUMPI PUSH1 0x7F DUP3 AND SWAP2 POP JUMPDEST PUSH1 0x20 DUP3 LT DUP2 SUB PUSH3 0x20E JUMPI PUSH4 0x4E487B71 PUSH1 0xE0 SHL PUSH1 0x0 MSTORE PUSH1 0x22 PUSH1 0x4 MSTORE PUSH1 0x24 PUSH1 0x0 REVERT JUMPDEST POP SWAP2 SWAP1 POP JUMP JUMPDEST PUSH1 0x1F DUP3 GT ISZERO PUSH3 0x262 JUMPI PUSH1 0x0 DUP2 DUP2 MSTORE PUSH1 0x20 DUP2 KECCAK256 PUSH1 0x1F DUP6 ADD PUSH1 0x5 SHR DUP2 ADD PUSH1 0x20 DUP7 LT ISZERO PUSH3 0x23D JUMPI POP DUP1 JUMPDEST PUSH1 0x1F DUP6 ADD PUSH1 0x5 SHR DUP3 ADD SWAP2 POP JUMPDEST DUP2 DUP2 LT ISZERO PUSH3 0x25E JUMPI DUP3 DUP2 SSTORE PUSH1 0x1 ADD PUSH3 0x249 JUMP JUMPDEST POP POP POP JUMPDEST POP POP POP JUMP JUMPDEST DUP2 MLOAD PUSH1 0x1 PUSH1 0x1 PUSH1 0x40 SHL SUB DUP2 GT ISZERO PUSH3 0x283 JUMPI PUSH3 0x283 PUSH3 0x1C2 JUMP JUMPDEST PUSH3 0x29B DUP2 PUSH3 0x294 DUP5 SLOAD PUSH3 0x1D8 JUMP JUMPDEST DUP5 PUSH3 0x214 JUMP JUMPDEST PUSH1 0x20 DUP1 PUSH1 0x1F DUP4 GT PUSH1 0x1 DUP2 EQ PUSH3 0x2D3 JUMPI PUSH1 0x0 DUP5 ISZERO PUSH3 0x2BA JUMPI POP DUP6 DUP4 ADD MLOAD JUMPDEST PUSH1 0x0 NOT PUSH1 0x3 DUP7 SWAP1 SHL SHR NOT AND PUSH1 0x1 DUP6 SWAP1 SHL OR DUP6 SSTORE PUSH3 0x25E JUMP JUMPDEST PUSH1 0x0 DUP6 DUP2 MSTORE PUSH1 0x20 DUP2 KECCAK256 PUSH1 0x1F NOT DUP7 AND SWAP2 JUMPDEST DUP3 DUP2 LT ISZERO PUSH3 0x304 JUMPI DUP9 DUP7 ADD MLOAD DUP3 SSTORE SWAP5 DUP5 ADD SWAP5 PUSH1 0x1 SWAP1 SWAP2 ADD SWAP1 DUP5 ADD PUSH3 0x2E3 JUMP JUMPDEST POP DUP6 DUP3 LT ISZERO PUSH3 0x323 JUMPI DUP8 DUP6 ADD MLOAD PUSH1 0x0 NOT PUSH1 0x3 DUP9 SWAP1 SHL PUSH1 0xF8 AND SHR NOT AND DUP2 SSTORE JUMPDEST POP POP POP POP POP PUSH1 0x1 SWAP1 DUP2 SHL ADD SWAP1 SSTORE POP JUMP JUMPDEST PUSH2 0x5F4E DUP1 PUSH3 0x343 PUSH1 0x0 CODECOPY PUSH1 0x0 RETURN INVALID PUSH1 0x80 PUSH1 0x40 MSTORE PUSH1 0x4 CALLDATASIZE LT PUSH3 0x3DE JUMPI PUSH1 0x0 CALLDATALOAD PUSH1 0xE0 SHR DUP1 PUSH4 0x75B238FC GT PUSH3 0x1FF JUMPI DUP1 PUSH4 0xAD9F20A6 GT PUSH3 0x11B JUMPI DUP1 PUSH4 0xD73792A9 GT PUSH3 0xA9 JUMPI DUP1 PUSH4 0xD73792A9 EQ PUSH3 0xCD5 JUMPI DUP1 PUSH4 0xDD62ED3E EQ PUSH3 0xCEC JUMPI DUP1 PUSH4 0xE43252D7 EQ PUSH3 0xD11 JUMPI DUP1 PUSH4 0xE63AB1E9 EQ PUSH3 0xD36 JUMPI DUP1 PUSH4 0xEEF09BAD EQ PUSH3 0xD5B JUMPI DUP1 PUSH4 0xF25F4B56 EQ PUSH3 0xD73 JUMPI DUP1 PUSH4 0xF384702F EQ PUSH3 0xD95 JUMPI DUP1 PUSH4 0xF714CB44 EQ PUSH3 0xDB1 JUMPI DUP1 PUSH4 0xF9F92BE4 EQ PUSH3 0xDC9 JUMPI PUSH3 0x43B JUMP JUMPDEST DUP1 PUSH4 0xAD9F20A6 EQ PUSH3 0xBB1 JUMPI DUP1 PUSH4 0xB377F569 EQ PUSH3 0xBCA JUMPI DUP1 PUSH4 0xCBCA75CB EQ PUSH3 0xBE2 JUMPI DUP1 PUSH4 0xCC2A9A5B EQ PUSH3 0xC07 JUMPI DUP1 PUSH4 0xCDC45C06 EQ PUSH3 0xC2C JUMPI DUP1 PUSH4 0xD33219B4 EQ PUSH3 0xC51 JUMPI DUP1 PUSH4 0xD5391393 EQ PUSH3 0xC73 JUMPI DUP1 PUSH4 0xD547741F EQ PUSH3 0xC98 JUMPI DUP1 PUSH4 0xD5ABEB01 EQ PUSH3 0xCBD JUMPI PUSH3 0x43B JUMP JUMPDEST DUP1 PUSH4 0x91D14854 GT PUSH3 0x199 JUMPI DUP1 PUSH4 0x91D14854 EQ PUSH3 0xA7E JUMPI DUP1 PUSH4 0x95082D25 EQ PUSH3 0xAA3 JUMPI DUP1 PUSH4 0x95D89B41 EQ PUSH3 0xABD JUMPI DUP1 PUSH4 0x9AB4A445 EQ PUSH3 0xAD5 JUMPI DUP1 PUSH4 0x9B19251A EQ PUSH3 0xAF7 JUMPI DUP1 PUSH4 0xA217FDDF EQ PUSH3 0xB2B JUMPI DUP1 PUSH4 0xA457C2D7 EQ PUSH3 0xB42 JUMPI DUP1 PUSH4 0xA8602FEA EQ PUSH3 0xB67 JUMPI DUP1 PUSH4 0xA9059CBB EQ PUSH3 0xB8C JUMPI PUSH3 0x43B JUMP JUMPDEST DUP1 PUSH4 0x75B238FC EQ PUSH3 0x98C JUMPI DUP1 PUSH4 0x8456CB59 EQ PUSH3 0x9B1 JUMPI DUP1 PUSH4 0x8AB1D681 EQ PUSH3 0x9C9 JUMPI DUP1 PUSH4 0x8B41D35F EQ PUSH3 0x9EE JUMPI DUP1 PUSH4 0x8E15F473 EQ PUSH3 0xA07 JUMPI DUP1 PUSH4 0x8E52D9D3 EQ PUSH3 0xA1F JUMPI DUP1 PUSH4 0x8E80FF5D EQ PUSH3 0xA44 JUMPI DUP1 PUSH4 0x9075BECF EQ PUSH3 0xA5C JUMPI PUSH3 0x43B JUMP JUMPDEST DUP1 PUSH4 0x3281EE71 GT PUSH3 0x2FB JUMPI DUP1 PUSH4 0x50D25BCD GT PUSH3 0x289 JUMPI DUP1 PUSH4 0x50D25BCD EQ PUSH3 0x848 JUMPI DUP1 PUSH4 0x537DF3B6 EQ PUSH3 0x860 JUMPI DUP1 PUSH4 0x58CE469B EQ PUSH3 0x885 JUMPI DUP1 PUSH4 0x5C975ABB EQ PUSH3 0x8AA JUMPI DUP1 PUSH4 0x5D9CDBE8 EQ PUSH3 0x8C4 JUMPI DUP1 PUSH4 0x6F6556AC EQ PUSH3 0x8E9 JUMPI DUP1 PUSH4 0x6F8B44B0 EQ PUSH3 0x90B JUMPI DUP1 PUSH4 0x70A08231 EQ PUSH3 0x930 JUMPI DUP1 PUSH4 0x741BEF1A EQ PUSH3 0x96A JUMPI PUSH3 0x43B JUMP JUMPDEST DUP1 PUSH4 0x3281EE71 EQ PUSH3 0x706 JUMPI DUP1 PUSH4 0x344A681E EQ PUSH3 0x72B JUMPI DUP1 PUSH4 0x36568ABE EQ PUSH3 0x750 JUMPI DUP1 PUSH4 0x39509351 EQ PUSH3 0x775 JUMPI DUP1 PUSH4 0x3F4BA83A EQ PUSH3 0x79A JUMPI DUP1 PUSH4 0x40C10F19 EQ PUSH3 0x7B2 JUMPI DUP1 PUSH4 0x44337EA1 EQ PUSH3 0x7D7 JUMPI DUP1 PUSH4 0x453D105F EQ PUSH3 0x7FC JUMPI DUP1 PUSH4 0x4626402B EQ PUSH3 0x821 JUMPI PUSH3 0x43B JUMP JUMPDEST DUP1 PUSH4 0xD3CF6FC GT PUSH3 0x379 JUMPI DUP1 PUSH4 0xD3CF6FC EQ PUSH3 0x5D6 JUMPI DUP1 PUSH4 0x16744607 EQ PUSH3 0x5FB JUMPI DUP1 PUSH4 0x18160DDD EQ PUSH3 0x613 JUMPI DUP1 PUSH4 0x2000D430 EQ PUSH3 0x62A JUMPI DUP1 PUSH4 0x23B1F8E4 EQ PUSH3 0x642 JUMPI DUP1 PUSH4 0x23B872DD EQ PUSH3 0x65A JUMPI DUP1 PUSH4 0x248A9CA3 EQ PUSH3 0x67F JUMPI DUP1 PUSH4 0x2F2FF15D EQ PUSH3 0x6B3 JUMPI DUP1 PUSH4 0x313CE567 EQ PUSH3 0x6D8 JUMPI PUSH3 0x43B JUMP JUMPDEST DUP1 PUSH3 0xB46F8 EQ PUSH3 0x484 JUMPI DUP1 PUSH4 0x1FFC9A7 EQ PUSH3 0x4AE JUMPI DUP1 PUSH4 0x2D45457 EQ PUSH3 0x4E4 JUMPI DUP1 PUSH4 0x39F091C EQ PUSH3 0x515 JUMPI DUP1 PUSH4 0x5DB2F41 EQ PUSH3 0x52D JUMPI DUP1 PUSH4 0x6B4EC48 EQ PUSH3 0x563 JUMPI DUP1 PUSH4 0x6FDDE03 EQ PUSH3 0x58A JUMPI DUP1 PUSH4 0x95EA7B3 EQ PUSH3 0x5B1 JUMPI PUSH3 0x43B JUMP JUMPDEST CALLDATASIZE PUSH3 0x43B JUMPI PUSH1 0x40 MLOAD PUSH3 0x461BCD PUSH1 0xE5 SHL DUP2 MSTORE PUSH1 0x20 PUSH1 0x4 DUP3 ADD MSTORE PUSH1 0x21 PUSH1 0x24 DUP3 ADD MSTORE PUSH32 0x44697265637420545258207472616E7366657273206E6F742061636365707465 PUSH1 0x44 DUP3 ADD MSTORE PUSH1 0x19 PUSH1 0xFA SHL PUSH1 0x64 DUP3 ADD MSTORE PUSH1 0x84 ADD JUMPDEST PUSH1 0x40 MLOAD DUP1 SWAP2 SUB SWAP1 REVERT JUMPDEST PUSH1 0x40 MLOAD PUSH3 0x461BCD PUSH1 0xE5 SHL DUP2 MSTORE PUSH1 0x20 PUSH1 0x4 DUP3 ADD MSTORE PUSH1 0x1F PUSH1 0x24 DUP3 ADD MSTORE PUSH32 0x46616C6C6261636B2066756E6374696F6E206E6F74207065726D697474656400 PUSH1 0x44 DUP3 ADD MSTORE PUSH1 0x64 ADD PUSH3 0x432 JUMP JUMPDEST CALLVALUE DUP1 ISZERO PUSH3 0x491 JUMPI PUSH1 0x0 DUP1 REVERT JUMPDEST POP PUSH3 0x49B PUSH1 0x1 DUP2 JUMP JUMPDEST PUSH1 0x40 MLOAD SWAP1 DUP2 MSTORE PUSH1 0x20 ADD JUMPDEST PUSH1 0x40 MLOAD DUP1 SWAP2 SUB SWAP1 RETURN JUMPDEST CALLVALUE DUP1 ISZERO PUSH3 0x4BB JUMPI PUSH1 0x0 DUP1 REVERT JUMPDEST POP PUSH3 0x4D3 PUSH3 0x4CD CALLDATASIZE PUSH1 0x4 PUSH3 0x3433 JUMP JUMPDEST PUSH3 0xDFD JUMP JUMPDEST PUSH1 0x40 MLOAD SWAP1 ISZERO ISZERO DUP2 MSTORE PUSH1 0x20 ADD PUSH3 0x4A5 JUMP JUMPDEST CALLVALUE DUP1 ISZERO PUSH3 0x4F1 JUMPI PUSH1 0x0 DUP1 REVERT JUMPDEST POP PUSH1 0xB SLOAD PUSH3 0x506 SWAP1 PUSH1 0x1 PUSH1 0x1 PUSH1 0xA0 SHL SUB AND DUP2 JUMP JUMPDEST PUSH1 0x40 MLOAD PUSH3 0x4A5 SWAP2 SWAP1 PUSH3 0x345F JUMP JUMPDEST CALLVALUE DUP1 ISZERO PUSH3 0x522 JUMPI PUSH1 0x0 DUP1 REVERT JUMPDEST POP PUSH3 0x49B PUSH1 0x17 SLOAD DUP2 JUMP JUMPDEST CALLVALUE DUP1 ISZERO PUSH3 0x53A JUMPI PUSH1 0x0 DUP1 REVERT JUMPDEST POP PUSH3 0x49B PUSH32 0x6C0757DC3E6B28B2580C03FD9E96C274ACF4F99D91FBEC9B418FA1D70604FF1C DUP2 JUMP JUMPDEST CALLVALUE DUP1 ISZERO PUSH3 0x570 JUMPI PUSH1 0x0 DUP1 REVERT JUMPDEST POP PUSH3 0x588 PUSH3 0x582 CALLDATASIZE PUSH1 0x4 PUSH3 0x3473 JUMP JUMPDEST PUSH3 0xE35 JUMP JUMPDEST STOP JUMPDEST CALLVALUE DUP1 ISZERO PUSH3 0x597 JUMPI PUSH1 0x0 DUP1 REVERT JUMPDEST POP PUSH3 0x5A2 PUSH3 0x103C JUMP JUMPDEST PUSH1 0x40 MLOAD PUSH3 0x4A5 SWAP2 SWAP1 PUSH3 0x34EA JUMP JUMPDEST CALLVALUE DUP1 ISZERO PUSH3 0x5BE JUMPI PUSH1 0x0 DUP1 REVERT JUMPDEST POP PUSH3 0x4D3 PUSH3 0x5D0 CALLDATASIZE PUSH1 0x4 PUSH3 0x351C JUMP JUMPDEST PUSH3 0x104D JUMP JUMPDEST CALLVALUE DUP1 ISZERO PUSH3 0x5E3 JUMPI PUSH1 0x0 DUP1 REVERT JUMPDEST POP PUSH3 0x49B PUSH1 0x0 DUP1 MLOAD PUSH1 0x20 PUSH3 0x5E99 DUP4 CODECOPY DUP2 MLOAD SWAP2 MSTORE DUP2 JUMP JUMPDEST CALLVALUE DUP1 ISZERO PUSH3 0x608 JUMPI PUSH1 0x0 DUP1 REVERT JUMPDEST POP PUSH3 0x588 PUSH3 0x1067 JUMP JUMPDEST CALLVALUE DUP1 ISZERO PUSH3 0x620 JUMPI PUSH1 0x0 DUP1 REVERT JUMPDEST POP PUSH1 0x2 SLOAD PUSH3 0x49B JUMP JUMPDEST CALLVALUE DUP1 ISZERO PUSH3 0x637 JUMPI PUSH1 0x0 DUP1 REVERT JUMPDEST POP PUSH3 0x49B PUSH1 0x15 SLOAD DUP2 JUMP JUMPDEST CALLVALUE DUP1 ISZERO PUSH3 0x64F JUMPI PUSH1 0x0 DUP1 REVERT JUMPDEST POP PUSH3 0x49B PUSH1 0x16 SLOAD DUP2 JUMP JUMPDEST CALLVALUE DUP1 ISZERO PUSH3 0x667 JUMPI PUSH1 0x0 DUP1 REVERT JUMPDEST POP PUSH3 0x4D3 PUSH3 0x679 CALLDATASIZE PUSH1 0x4 PUSH3 0x3549 JUMP JUMPDEST PUSH3 0x1101 JUMP JUMPDEST CALLVALUE DUP1 ISZERO PUSH3 0x68C JUMPI PUSH1 0x0 DUP1 REVERT JUMPDEST POP PUSH3 0x49B PUSH3 0x69E CALLDATASIZE PUSH1 0x4 PUSH3 0x358A JUMP JUMPDEST PUSH1 0x0 SWAP1 DUP2 MSTORE PUSH1 0x5 PUSH1 0x20 MSTORE PUSH1 0x40 SWAP1 KECCAK256 PUSH1 0x1 ADD SLOAD SWAP1 JUMP JUMPDEST CALLVALUE DUP1 ISZERO PUSH3 0x6C0 JUMPI PUSH1 0x0 DUP1 REVERT JUMPDEST POP PUSH3 0x588 PUSH3 0x6D2 CALLDATASIZE PUSH1 0x4 PUSH3 0x35A4 JUMP JUMPDEST PUSH3 0x11DA JUMP JUMPDEST CALLVALUE DUP1 ISZERO PUSH3 0x6E5 JUMPI PUSH1 0x0 DUP1 REVERT JUMPDEST POP PUSH1 0xD SLOAD PUSH1 0x1 PUSH1 0xA0 SHL SWAP1 DIV PUSH1 0xFF AND PUSH1 0x40 MLOAD PUSH1 0xFF SWAP1 SWAP2 AND DUP2 MSTORE PUSH1 0x20 ADD PUSH3 0x4A5 JUMP JUMPDEST CALLVALUE DUP1 ISZERO PUSH3 0x713 JUMPI PUSH1 0x0 DUP1 REVERT JUMPDEST POP PUSH3 0x588 PUSH3 0x725 CALLDATASIZE PUSH1 0x4 PUSH3 0x358A JUMP JUMPDEST PUSH3 0x1208 JUMP JUMPDEST CALLVALUE DUP1 ISZERO PUSH3 0x738 JUMPI PUSH1 0x0 DUP1 REVERT JUMPDEST POP PUSH3 0x588 PUSH3 0x74A CALLDATASIZE PUSH1 0x4 PUSH3 0x358A JUMP JUMPDEST PUSH3 0x12B6 JUMP JUMPDEST CALLVALUE DUP1 ISZERO PUSH3 0x75D JUMPI PUSH1 0x0 DUP1 REVERT JUMPDEST POP PUSH3 0x588 PUSH3 0x76F CALLDATASIZE PUSH1 0x4 PUSH3 0x35A4 JUMP JUMPDEST PUSH3 0x135B JUMP JUMPDEST CALLVALUE DUP1 ISZERO PUSH3 0x782 JUMPI PUSH1 0x0 DUP1 REVERT JUMPDEST POP PUSH3 0x4D3 PUSH3 0x794 CALLDATASIZE PUSH1 0x4 PUSH3 0x351C JUMP JUMPDEST PUSH3 0x13DD JUMP JUMPDEST CALLVALUE DUP1 ISZERO PUSH3 0x7A7 JUMPI PUSH1 0x0 DUP1 REVERT JUMPDEST POP PUSH3 0x588 PUSH3 0x1405 JUMP JUMPDEST CALLVALUE DUP1 ISZERO PUSH3 0x7BF JUMPI PUSH1 0x0 DUP1 REVERT JUMPDEST POP PUSH3 0x588 PUSH3 0x7D1 CALLDATASIZE PUSH1 0x4 PUSH3 0x351C JUMP JUMPDEST PUSH3 0x142D JUMP JUMPDEST CALLVALUE DUP1 ISZERO PUSH3 0x7E4 JUMPI PUSH1 0x0 DUP1 REVERT JUMPDEST POP PUSH3 0x588 PUSH3 0x7F6 CALLDATASIZE PUSH1 0x4 PUSH3 0x35D3 JUMP JUMPDEST PUSH3 0x1732 JUMP JUMPDEST CALLVALUE DUP1 ISZERO PUSH3 0x809 JUMPI PUSH1 0x0 DUP1 REVERT JUMPDEST POP PUSH3 0x49B PUSH3 0x81B CALLDATASIZE PUSH1 0x4 PUSH3 0x358A JUMP JUMPDEST PUSH3 0x1836 JUMP JUMPDEST CALLVALUE DUP1 ISZERO PUSH3 0x82E JUMPI PUSH1 0x0 DUP1 REVERT JUMPDEST POP PUSH1 0xF SLOAD PUSH3 0x506 SWAP1 PUSH2 0x100 SWAP1 DIV PUSH1 0x1 PUSH1 0x1 PUSH1 0xA0 SHL SUB AND DUP2 JUMP JUMPDEST CALLVALUE DUP1 ISZERO PUSH3 0x855 JUMPI PUSH1 0x0 DUP1 REVERT JUMPDEST POP PUSH3 0x49B PUSH3 0x186E JUMP JUMPDEST CALLVALUE DUP1 ISZERO PUSH3 0x86D JUMPI PUSH1 0x0 DUP1 REVERT JUMPDEST POP PUSH3 0x588 PUSH3 0x87F CALLDATASIZE PUSH1 0x4 PUSH3 0x35D3 JUMP JUMPDEST PUSH3 0x187A JUMP JUMPDEST CALLVALUE DUP1 ISZERO PUSH3 0x892 JUMPI PUSH1 0x0 DUP1 REVERT JUMPDEST POP PUSH3 0x588 PUSH3 0x8A4 CALLDATASIZE PUSH1 0x4 PUSH3 0x3473 JUMP JUMPDEST PUSH3 0x196A JUMP JUMPDEST CALLVALUE DUP1 ISZERO PUSH3 0x8B7 JUMPI PUSH1 0x0 DUP1 REVERT JUMPDEST POP PUSH1 0x6 SLOAD PUSH1 0xFF AND PUSH3 0x4D3 JUMP JUMPDEST CALLVALUE DUP1 ISZERO PUSH3 0x8D1 JUMPI PUSH1 0x0 DUP1 REVERT JUMPDEST POP PUSH3 0x588 PUSH3 0x8E3 CALLDATASIZE PUSH1 0x4 PUSH3 0x358A JUMP JUMPDEST PUSH3 0x1A04 JUMP JUMPDEST CALLVALUE DUP1 ISZERO PUSH3 0x8F6 JUMPI PUSH1 0x0 DUP1 REVERT JUMPDEST POP PUSH1 0xC SLOAD PUSH3 0x506 SWAP1 PUSH1 0x1 PUSH1 0x1 PUSH1 0xA0 SHL SUB AND DUP2 JUMP JUMPDEST CALLVALUE DUP1 ISZERO PUSH3 0x918 JUMPI PUSH1 0x0 DUP1 REVERT JUMPDEST POP PUSH3 0x588 PUSH3 0x92A CALLDATASIZE PUSH1 0x4 PUSH3 0x358A JUMP JUMPDEST PUSH3 0x1BF0 JUMP JUMPDEST CALLVALUE DUP1 ISZERO PUSH3 0x93D JUMPI PUSH1 0x0 DUP1 REVERT JUMPDEST POP PUSH3 0x49B PUSH3 0x94F CALLDATASIZE PUSH1 0x4 PUSH3 0x35D3 JUMP JUMPDEST PUSH1 0x1 PUSH1 0x1 PUSH1 0xA0 SHL SUB AND PUSH1 0x0 SWAP1 DUP2 MSTORE PUSH1 0x20 DUP2 SWAP1 MSTORE PUSH1 0x40 SWAP1 KECCAK256 SLOAD SWAP1 JUMP JUMPDEST CALLVALUE DUP1 ISZERO PUSH3 0x977 JUMPI PUSH1 0x0 DUP1 REVERT JUMPDEST POP PUSH1 0xD SLOAD PUSH3 0x506 SWAP1 PUSH1 0x1 PUSH1 0x1 PUSH1 0xA0 SHL SUB AND DUP2 JUMP JUMPDEST CALLVALUE DUP1 ISZERO PUSH3 0x999 JUMPI PUSH1 0x0 DUP1 REVERT JUMPDEST POP PUSH3 0x49B PUSH1 0x0 DUP1 MLOAD PUSH1 0x20 PUSH3 0x5EF9 DUP4 CODECOPY DUP2 MLOAD SWAP2 MSTORE DUP2 JUMP JUMPDEST CALLVALUE DUP1 ISZERO PUSH3 0x9BE JUMPI PUSH1 0x0 DUP1 REVERT JUMPDEST POP PUSH3 0x588 PUSH3 0x1D27 JUMP JUMPDEST CALLVALUE DUP1 ISZERO PUSH3 0x9D6 JUMPI PUSH1 0x0 DUP1 REVERT JUMPDEST POP PUSH3 0x588 PUSH3 0x9E8 CALLDATASIZE PUSH1 0x4 PUSH3 0x35D3 JUMP JUMPDEST PUSH3 0x1D4C JUMP JUMPDEST CALLVALUE DUP1 ISZERO PUSH3 0x9FB JUMPI PUSH1 0x0 DUP1 REVERT JUMPDEST POP PUSH3 0x49B PUSH3 0x15180 DUP2 JUMP JUMPDEST CALLVALUE DUP1 ISZERO PUSH3 0xA14 JUMPI PUSH1 0x0 DUP1 REVERT JUMPDEST POP PUSH3 0x49B PUSH3 0x1E3C JUMP JUMPDEST CALLVALUE DUP1 ISZERO PUSH3 0xA2C JUMPI PUSH1 0x0 DUP1 REVERT JUMPDEST POP PUSH3 0x588 PUSH3 0xA3E CALLDATASIZE PUSH1 0x4 PUSH3 0x358A JUMP JUMPDEST PUSH3 0x1F02 JUMP JUMPDEST CALLVALUE DUP1 ISZERO PUSH3 0xA51 JUMPI PUSH1 0x0 DUP1 REVERT JUMPDEST POP PUSH3 0x49B PUSH1 0x14 SLOAD DUP2 JUMP JUMPDEST CALLVALUE DUP1 ISZERO PUSH3 0xA69 JUMPI PUSH1 0x0 DUP1 REVERT JUMPDEST POP PUSH1 0x8 SLOAD PUSH3 0x506 SWAP1 PUSH1 0x1 PUSH1 0x1 PUSH1 0xA0 SHL SUB AND DUP2 JUMP JUMPDEST CALLVALUE DUP1 ISZERO PUSH3 0xA8B JUMPI PUSH1 0x0 DUP1 REVERT JUMPDEST POP PUSH3 0x4D3 PUSH3 0xA9D CALLDATASIZE PUSH1 0x4 PUSH3 0x35A4 JUMP JUMPDEST PUSH3 0x1FF6 JUMP JUMPDEST CALLVALUE DUP1 ISZERO PUSH3 0xAB0 JUMPI PUSH1 0x0 DUP1 REVERT JUMPDEST POP PUSH3 0x49B PUSH4 0x5F5E100 DUP2 JUMP JUMPDEST CALLVALUE DUP1 ISZERO PUSH3 0xACA JUMPI PUSH1 0x0 DUP1 REVERT JUMPDEST POP PUSH3 0x5A2 PUSH3 0x2021 JUMP JUMPDEST CALLVALUE DUP1 ISZERO PUSH3 0xAE2 JUMPI PUSH1 0x0 DUP1 REVERT JUMPDEST POP PUSH1 0xA SLOAD PUSH3 0x506 SWAP1 PUSH1 0x1 PUSH1 0x1 PUSH1 0xA0 SHL SUB AND DUP2 JUMP JUMPDEST CALLVALUE DUP1 ISZERO PUSH3 0xB04 JUMPI PUSH1 0x0 DUP1 REVERT JUMPDEST POP PUSH3 0x4D3 PUSH3 0xB16 CALLDATASIZE PUSH1 0x4 PUSH3 0x35D3 JUMP JUMPDEST PUSH1 0x13 PUSH1 0x20 MSTORE PUSH1 0x0 SWAP1 DUP2 MSTORE PUSH1 0x40 SWAP1 KECCAK256 SLOAD PUSH1 0xFF AND DUP2 JUMP JUMPDEST CALLVALUE DUP1 ISZERO PUSH3 0xB38 JUMPI PUSH1 0x0 DUP1 REVERT JUMPDEST POP PUSH3 0x49B PUSH1 0x0 DUP2 JUMP JUMPDEST CALLVALUE DUP1 ISZERO PUSH3 0xB4F JUMPI PUSH1 0x0 DUP1 REVERT JUMPDEST POP PUSH3 0x4D3 PUSH3 0xB61 CALLDATASIZE PUSH1 0x4 PUSH3 0x351C JUMP JUMPDEST PUSH3 0x202D JUMP JUMPDEST CALLVALUE DUP1 ISZERO PUSH3 0xB74 JUMPI PUSH1 0x0 DUP1 REVERT JUMPDEST POP PUSH3 0x588 PUSH3 0xB86 CALLDATASIZE PUSH1 0x4 PUSH3 0x35D3 JUMP JUMPDEST PUSH3 0x20B9 JUMP JUMPDEST CALLVALUE DUP1 ISZERO PUSH3 0xB99 JUMPI PUSH1 0x0 DUP1 REVERT JUMPDEST POP PUSH3 0x4D3 PUSH3 0xBAB CALLDATASIZE PUSH1 0x4 PUSH3 0x351C JUMP JUMPDEST PUSH3 0x2158 JUMP JUMPDEST CALLVALUE DUP1 ISZERO PUSH3 0xBBE JUMPI PUSH1 0x0 DUP1 REVERT JUMPDEST POP PUSH3 0x49B PUSH3 0xF4240 DUP2 JUMP JUMPDEST CALLVALUE DUP1 ISZERO PUSH3 0xBD7 JUMPI PUSH1 0x0 DUP1 REVERT JUMPDEST POP PUSH3 0x49B PUSH1 0x11 SLOAD DUP2 JUMP JUMPDEST CALLVALUE DUP1 ISZERO PUSH3 0xBEF JUMPI PUSH1 0x0 DUP1 REVERT JUMPDEST POP PUSH3 0x49B PUSH3 0xC01 CALLDATASIZE PUSH1 0x4 PUSH3 0x358A JUMP JUMPDEST PUSH3 0x21D9 JUMP JUMPDEST CALLVALUE DUP1 ISZERO PUSH3 0xC14 JUMPI PUSH1 0x0 DUP1 REVERT JUMPDEST POP PUSH3 0x588 PUSH3 0xC26 CALLDATASIZE PUSH1 0x4 PUSH3 0x35F1 JUMP JUMPDEST PUSH3 0x221B JUMP JUMPDEST CALLVALUE DUP1 ISZERO PUSH3 0xC39 JUMPI PUSH1 0x0 DUP1 REVERT JUMPDEST POP PUSH3 0x588 PUSH3 0xC4B CALLDATASIZE PUSH1 0x4 PUSH3 0x358A JUMP JUMPDEST PUSH3 0x26CC JUMP JUMPDEST CALLVALUE DUP1 ISZERO PUSH3 0xC5E JUMPI PUSH1 0x0 DUP1 REVERT JUMPDEST POP PUSH1 0x10 SLOAD PUSH3 0x506 SWAP1 PUSH1 0x1 PUSH1 0x1 PUSH1 0xA0 SHL SUB AND DUP2 JUMP JUMPDEST CALLVALUE DUP1 ISZERO PUSH3 0xC80 JUMPI PUSH1 0x0 DUP1 REVERT JUMPDEST POP PUSH3 0x49B PUSH1 0x0 DUP1 MLOAD PUSH1 0x20 PUSH3 0x5ED9 DUP4 CODECOPY DUP2 MLOAD SWAP2 MSTORE DUP2 JUMP JUMPDEST CALLVALUE DUP1 ISZERO PUSH3 0xCA5 JUMPI PUSH1 0x0 DUP1 REVERT JUMPDEST POP PUSH3 0x588 PUSH3 0xCB7 CALLDATASIZE PUSH1 0x4 PUSH3 0x35A4 JUMP JUMPDEST PUSH3 0x2802 JUMP JUMPDEST CALLVALUE DUP1 ISZERO PUSH3 0xCCA JUMPI PUSH1 0x0 DUP1 REVERT JUMPDEST POP PUSH3 0x49B PUSH1 0xE SLOAD DUP2 JUMP JUMPDEST CALLVALUE DUP1 ISZERO PUSH3 0xCE2 JUMPI PUSH1 0x0 DUP1 REVERT JUMPDEST POP PUSH3 0x49B PUSH1 0x64 DUP2 JUMP JUMPDEST CALLVALUE DUP1 ISZERO PUSH3 0xCF9 JUMPI PUSH1 0x0 DUP1 REVERT JUMPDEST POP PUSH3 0x49B PUSH3 0xD0B CALLDATASIZE PUSH1 0x4 PUSH3 0x3672 JUMP JUMPDEST PUSH3 0x282B JUMP JUMPDEST CALLVALUE DUP1 ISZERO PUSH3 0xD1E JUMPI PUSH1 0x0 DUP1 REVERT JUMPDEST POP PUSH3 0x588 PUSH3 0xD30 CALLDATASIZE PUSH1 0x4 PUSH3 0x35D3 JUMP JUMPDEST PUSH3 0x2856 JUMP JUMPDEST CALLVALUE DUP1 ISZERO PUSH3 0xD43 JUMPI PUSH1 0x0 DUP1 REVERT JUMPDEST POP PUSH3 0x49B PUSH1 0x0 DUP1 MLOAD PUSH1 0x20 PUSH3 0x5EB9 DUP4 CODECOPY DUP2 MLOAD SWAP2 MSTORE DUP2 JUMP JUMPDEST CALLVALUE DUP1 ISZERO PUSH3 0xD68 JUMPI PUSH1 0x0 DUP1 REVERT JUMPDEST POP PUSH3 0x49B PUSH3 0x2953 JUMP JUMPDEST CALLVALUE DUP1 ISZERO PUSH3 0xD80 JUMPI PUSH1 0x0 DUP1 REVERT JUMPDEST POP PUSH1 0x9 SLOAD PUSH3 0x506 SWAP1 PUSH1 0x1 PUSH1 0x1 PUSH1 0xA0 SHL SUB AND DUP2 JUMP JUMPDEST CALLVALUE DUP1 ISZERO PUSH3 0xDA2 JUMPI PUSH1 0x0 DUP1 REVERT JUMPDEST POP PUSH1 0xF SLOAD PUSH3 0x4D3 SWAP1 PUSH1 0xFF AND DUP2 JUMP JUMPDEST CALLVALUE DUP1 ISZERO PUSH3 0xDBE JUMPI PUSH1 0x0 DUP1 REVERT JUMPDEST POP PUSH3 0x49B PUSH2 0x12C DUP2 JUMP JUMPDEST CALLVALUE DUP1 ISZERO PUSH3 0xDD6 JUMPI PUSH1 0x0 DUP1 REVERT JUMPDEST POP PUSH3 0x4D3 PUSH3 0xDE8 CALLDATASIZE PUSH1 0x4 PUSH3 0x35D3 JUMP JUMPDEST PUSH1 0x12 PUSH1 0x20 MSTORE PUSH1 0x0 SWAP1 DUP2 MSTORE PUSH1 0x40 SWAP1 KECCAK256 SLOAD PUSH1 0xFF AND DUP2 JUMP JUMPDEST PUSH1 0x0 PUSH1 0x1 PUSH1 0x1 PUSH1 0xE0 SHL SUB NOT DUP3 AND PUSH4 0x7965DB0B PUSH1 0xE0 SHL EQ DUP1 PUSH3 0xE2F JUMPI POP PUSH4 0x1FFC9A7 PUSH1 0xE0 SHL PUSH1 0x1 PUSH1 0x1 PUSH1 0xE0 SHL SUB NOT DUP4 AND EQ JUMPDEST SWAP3 SWAP2 POP POP JUMP JUMPDEST PUSH1 0x0 DUP1 MLOAD PUSH1 0x20 PUSH3 0x5EF9 DUP4 CODECOPY DUP2 MLOAD SWAP2 MSTORE PUSH3 0xE50 DUP2 PUSH3 0x29C4 JUMP JUMPDEST PUSH1 0x0 DUP4 PUSH1 0x40 MLOAD PUSH1 0x24 ADD PUSH3 0xE66 SWAP2 DUP2 MSTORE PUSH1 0x20 ADD SWAP1 JUMP JUMPDEST PUSH1 0x40 DUP1 MLOAD PUSH1 0x1F NOT DUP2 DUP5 SUB ADD DUP2 MSTORE SWAP2 DUP2 MSTORE PUSH1 0x20 DUP3 ADD DUP1 MLOAD PUSH1 0x1 PUSH1 0x1 PUSH1 0xE0 SHL SUB AND PUSH4 0x6F8B44B PUSH1 0xE4 SHL OR SWAP1 MSTORE PUSH1 0x10 SLOAD SWAP1 MLOAD PUSH4 0x8065657F PUSH1 0xE0 SHL DUP2 MSTORE SWAP2 SWAP3 POP PUSH1 0x0 SWAP2 PUSH1 0x1 PUSH1 0x1 PUSH1 0xA0 SHL SUB SWAP1 SWAP2 AND SWAP1 PUSH4 0x8065657F SWAP1 PUSH3 0xECF SWAP1 ADDRESS SWAP1 DUP6 SWAP1 DUP8 SWAP1 DUP3 SWAP1 DUP12 SWAP1 PUSH1 0x4 ADD PUSH3 0x36A1 JUMP JUMPDEST PUSH1 0x20 PUSH1 0x40 MLOAD DUP1 DUP4 SUB DUP2 DUP7 GAS STATICCALL ISZERO DUP1 ISZERO PUSH3 0xEED JUMPI RETURNDATASIZE PUSH1 0x0 DUP1 RETURNDATACOPY RETURNDATASIZE PUSH1 0x0 REVERT JUMPDEST POP POP POP POP PUSH1 0x40 MLOAD RETURNDATASIZE PUSH1 0x1F NOT PUSH1 0x1F DUP3 ADD AND DUP3 ADD DUP1 PUSH1 0x40 MSTORE POP DUP2 ADD SWAP1 PUSH3 0xF13 SWAP2 SWAP1 PUSH3 0x36DE JUMP JUMPDEST PUSH1 0x10 SLOAD PUSH1 0x40 DUP1 MLOAD PUSH4 0x793D0649 PUSH1 0xE1 SHL DUP2 MSTORE SWAP1 MLOAD SWAP3 SWAP4 POP PUSH1 0x1 PUSH1 0x1 PUSH1 0xA0 SHL SUB SWAP1 SWAP2 AND SWAP2 PUSH4 0x1D5062A SWAP2 ADDRESS SWAP2 PUSH1 0x0 SWAP2 DUP8 SWAP2 DUP4 SWAP2 DUP12 SWAP2 DUP9 SWAP2 PUSH4 0xF27A0C92 SWAP2 PUSH1 0x4 DUP1 DUP4 ADD SWAP3 PUSH1 0x20 SWAP3 SWAP2 SWAP1 DUP3 SWAP1 SUB ADD DUP2 DUP7 GAS STATICCALL ISZERO DUP1 ISZERO PUSH3 0xF73 JUMPI RETURNDATASIZE PUSH1 0x0 DUP1 RETURNDATACOPY RETURNDATASIZE PUSH1 0x0 REVERT JUMPDEST POP POP POP POP PUSH1 0x40 MLOAD RETURNDATASIZE PUSH1 0x1F NOT PUSH1 0x1F DUP3 ADD AND DUP3 ADD DUP1 PUSH1 0x40 MSTORE POP DUP2 ADD SWAP1 PUSH3 0xF99 SWAP2 SWAP1 PUSH3 0x36DE JUMP JUMPDEST PUSH1 0x40 MLOAD DUP8 PUSH4 0xFFFFFFFF AND PUSH1 0xE0 SHL DUP2 MSTORE PUSH1 0x4 ADD PUSH3 0xFBC SWAP7 SWAP6 SWAP5 SWAP4 SWAP3 SWAP2 SWAP1 PUSH3 0x36F8 JUMP JUMPDEST PUSH1 0x0 PUSH1 0x40 MLOAD DUP1 DUP4 SUB DUP2 PUSH1 0x0 DUP8 DUP1 EXTCODESIZE ISZERO DUP1 ISZERO PUSH3 0xFD7 JUMPI PUSH1 0x0 DUP1 REVERT JUMPDEST POP GAS CALL ISZERO DUP1 ISZERO PUSH3 0xFEC JUMPI RETURNDATASIZE PUSH1 0x0 DUP1 RETURNDATACOPY RETURNDATASIZE PUSH1 0x0 REVERT JUMPDEST POP POP PUSH1 0x40 MLOAD ADDRESS SWAP3 POP DUP4 SWAP2 POP PUSH32 0xDC5403C65537CFCFAC6C555554373C7C7558B8D931AD256056712E94366AA62A SWAP1 PUSH3 0x102D SWAP1 PUSH1 0x0 SWAP1 DUP8 SWAP1 DUP3 SWAP1 DUP12 SWAP1 PUSH3 0x373F JUMP JUMPDEST PUSH1 0x40 MLOAD DUP1 SWAP2 SUB SWAP1 LOG3 POP POP POP POP POP JUMP JUMPDEST PUSH1 0x60 PUSH3 0x1048 PUSH3 0x29D0 JUMP JUMPDEST SWAP1 POP SWAP1 JUMP JUMPDEST PUSH1 0x0 CALLER PUSH3 0x105D DUP2 DUP6 DUP6 PUSH3 0x2A6A JUMP JUMPDEST POP PUSH1 0x1 SWAP4 SWAP3 POP POP POP JUMP JUMPDEST PUSH1 0x0 DUP1 MLOAD PUSH1 0x20 PUSH3 0x5EF9 DUP4 CODECOPY DUP2 MLOAD SWAP2 MSTORE PUSH3 0x1082 DUP2 PUSH3 0x29C4 JUMP JUMPDEST PUSH1 0xF SLOAD PUSH1 0xFF AND ISZERO PUSH3 0x10C8 JUMPI PUSH1 0x40 MLOAD PUSH3 0x461BCD PUSH1 0xE5 SHL DUP2 MSTORE PUSH1 0x20 PUSH1 0x4 DUP3 ADD MSTORE PUSH1 0xE PUSH1 0x24 DUP3 ADD MSTORE PUSH14 0x20B63932B0B23C90333937BD32B7 PUSH1 0x91 SHL PUSH1 0x44 DUP3 ADD MSTORE PUSH1 0x64 ADD PUSH3 0x432 JUMP JUMPDEST PUSH1 0xF DUP1 SLOAD PUSH1 0xFF NOT AND PUSH1 0x1 OR SWAP1 SSTORE PUSH1 0x40 MLOAD PUSH32 0xD87FD8BF05BC559633953DF4700F4561A93F0D9D554514647F7BBE5CB334EDD0 SWAP1 PUSH1 0x0 SWAP1 LOG1 POP JUMP JUMPDEST CALLER PUSH1 0x0 DUP2 DUP2 MSTORE PUSH1 0x12 PUSH1 0x20 MSTORE PUSH1 0x40 DUP2 KECCAK256 SLOAD SWAP1 SWAP2 SWAP1 PUSH1 0xFF AND ISZERO PUSH3 0x1137 JUMPI PUSH1 0x40 MLOAD PUSH3 0x461BCD PUSH1 0xE5 SHL DUP2 MSTORE PUSH1 0x4 ADD PUSH3 0x432 SWAP1 PUSH3 0x376D JUMP JUMPDEST PUSH1 0x1 PUSH1 0x1 PUSH1 0xA0 SHL SUB DUP6 AND PUSH1 0x0 SWAP1 DUP2 MSTORE PUSH1 0x12 PUSH1 0x20 MSTORE PUSH1 0x40 SWAP1 KECCAK256 SLOAD DUP6 SWAP1 PUSH1 0xFF AND ISZERO PUSH3 0x1175 JUMPI PUSH1 0x40 MLOAD PUSH3 0x461BCD PUSH1 0xE5 SHL DUP2 MSTORE PUSH1 0x4 ADD PUSH3 0x432 SWAP1 PUSH3 0x376D JUMP JUMPDEST PUSH1 0x1 PUSH1 0x1 PUSH1 0xA0 SHL SUB DUP6 AND PUSH1 0x0 SWAP1 DUP2 MSTORE PUSH1 0x12 PUSH1 0x20 MSTORE PUSH1 0x40 SWAP1 KECCAK256 SLOAD DUP6 SWAP1 PUSH1 0xFF AND ISZERO PUSH3 0x11B3 JUMPI PUSH1 0x40 MLOAD PUSH3 0x461BCD PUSH1 0xE5 SHL DUP2 MSTORE PUSH1 0x4 ADD PUSH3 0x432 SWAP1 PUSH3 0x376D JUMP JUMPDEST PUSH3 0x11C0 DUP8 DUP8 DUP8 PUSH3 0x2B92 JUMP JUMPDEST PUSH3 0x11CD DUP8 CALLER DUP8 PUSH3 0x2C3C JUMP JUMPDEST POP PUSH1 0x1 SWAP7 SWAP6 POP POP POP POP POP POP JUMP JUMPDEST PUSH1 0x0 DUP3 DUP2 MSTORE PUSH1 0x5 PUSH1 0x20 MSTORE PUSH1 0x40 SWAP1 KECCAK256 PUSH1 0x1 ADD SLOAD PUSH3 0x11F7 DUP2 PUSH3 0x29C4 JUMP JUMPDEST PUSH3 0x1203 DUP4 DUP4 PUSH3 0x2CBD JUMP JUMPDEST POP POP POP JUMP JUMPDEST PUSH1 0x0 DUP1 MLOAD PUSH1 0x20 PUSH3 0x5EF9 DUP4 CODECOPY DUP2 MLOAD SWAP2 MSTORE PUSH3 0x1223 DUP2 PUSH3 0x29C4 JUMP JUMPDEST DUP2 PUSH2 0x12C DUP2 LT ISZERO DUP1 ISZERO PUSH3 0x123A JUMPI POP PUSH3 0x15180 DUP2 GT ISZERO JUMPDEST PUSH3 0x1259 JUMPI PUSH1 0x40 MLOAD PUSH3 0x461BCD PUSH1 0xE5 SHL DUP2 MSTORE PUSH1 0x4 ADD PUSH3 0x432 SWAP1 PUSH3 0x379D JUMP JUMPDEST PUSH1 0x17 DUP4 SWAP1 SSTORE PUSH1 0x40 DUP1 MLOAD DUP2 DUP2 MSTORE PUSH1 0x5 SWAP2 DUP2 ADD SWAP2 SWAP1 SWAP2 MSTORE PUSH5 0x7072696365 PUSH1 0xD8 SHL PUSH1 0x60 DUP3 ADD MSTORE PUSH1 0x20 DUP2 ADD DUP5 SWAP1 MSTORE PUSH32 0xE150AE9E3B22A5374D8F19E5FE8FDEDA39E961587672A97CAAEE45E814B0C1BA SWAP1 PUSH1 0x80 ADD JUMPDEST PUSH1 0x40 MLOAD DUP1 SWAP2 SUB SWAP1 LOG1 POP POP POP JUMP JUMPDEST PUSH1 0x0 DUP1 MLOAD PUSH1 0x20 PUSH3 0x5EF9 DUP4 CODECOPY DUP2 MLOAD SWAP2 MSTORE PUSH3 0x12D1 DUP2 PUSH3 0x29C4 JUMP JUMPDEST DUP2 PUSH2 0x12C DUP2 LT ISZERO DUP1 ISZERO PUSH3 0x12E8 JUMPI POP PUSH3 0x15180 DUP2 GT ISZERO JUMPDEST PUSH3 0x1307 JUMPI PUSH1 0x40 MLOAD PUSH3 0x461BCD PUSH1 0xE5 SHL DUP2 MSTORE PUSH1 0x4 ADD PUSH3 0x432 SWAP1 PUSH3 0x379D JUMP JUMPDEST PUSH1 0x15 DUP4 SWAP1 SSTORE PUSH1 0x40 DUP1 MLOAD DUP2 DUP2 MSTORE PUSH1 0x4 SWAP2 DUP2 ADD SWAP2 SWAP1 SWAP2 MSTORE PUSH4 0x1B5A5B9D PUSH1 0xE2 SHL PUSH1 0x60 DUP3 ADD MSTORE PUSH1 0x20 DUP2 ADD DUP5 SWAP1 MSTORE PUSH32 0xE150AE9E3B22A5374D8F19E5FE8FDEDA39E961587672A97CAAEE45E814B0C1BA SWAP1 PUSH1 0x80 ADD PUSH3 0x12A9 JUMP JUMPDEST PUSH1 0x1 PUSH1 0x1 PUSH1 0xA0 SHL SUB DUP2 AND CALLER EQ PUSH3 0x13CD JUMPI PUSH1 0x40 MLOAD PUSH3 0x461BCD PUSH1 0xE5 SHL DUP2 MSTORE PUSH1 0x20 PUSH1 0x4 DUP3 ADD MSTORE PUSH1 0x2F PUSH1 0x24 DUP3 ADD MSTORE PUSH32 0x416363657373436F6E74726F6C3A2063616E206F6E6C792072656E6F756E6365 PUSH1 0x44 DUP3 ADD MSTORE PUSH15 0x103937B632B9903337B91039B2B633 PUSH1 0x89 SHL PUSH1 0x64 DUP3 ADD MSTORE PUSH1 0x84 ADD PUSH3 0x432 JUMP JUMPDEST PUSH3 0x13D9 DUP3 DUP3 PUSH3 0x2D47 JUMP JUMPDEST POP POP JUMP JUMPDEST PUSH1 0x0 CALLER PUSH3 0x105D DUP2 DUP6 DUP6 PUSH3 0x13F3 DUP4 DUP4 PUSH3 0x282B JUMP JUMPDEST PUSH3 0x13FF SWAP2 SWAP1 PUSH3 0x37E3 JUMP JUMPDEST PUSH3 0x2A6A JUMP JUMPDEST PUSH1 0x0 DUP1 MLOAD PUSH1 0x20 PUSH3 0x5EB9 DUP4 CODECOPY DUP2 MLOAD SWAP2 MSTORE PUSH3 0x1420 DUP2 PUSH3 0x29C4 JUMP JUMPDEST PUSH3 0x142A PUSH3 0x2DB1 JUMP JUMPDEST POP JUMP JUMPDEST PUSH3 0x1437 PUSH3 0x2E01 JUMP JUMPDEST PUSH3 0x1441 PUSH3 0x2E4B JUMP JUMPDEST CALLER PUSH1 0x0 DUP2 DUP2 MSTORE PUSH1 0x12 PUSH1 0x20 MSTORE PUSH1 0x40 SWAP1 KECCAK256 SLOAD PUSH1 0xFF AND ISZERO PUSH3 0x1474 JUMPI PUSH1 0x40 MLOAD PUSH3 0x461BCD PUSH1 0xE5 SHL DUP2 MSTORE PUSH1 0x4 ADD PUSH3 0x432 SWAP1 PUSH3 0x376D JUMP JUMPDEST PUSH1 0x0 DUP1 MLOAD PUSH1 0x20 PUSH3 0x5ED9 DUP4 CODECOPY DUP2 MLOAD SWAP2 MSTORE PUSH3 0x148F DUP2 PUSH3 0x29C4 JUMP JUMPDEST PUSH1 0x0 DUP4 GT PUSH3 0x14EF JUMPI PUSH1 0x40 MLOAD PUSH3 0x461BCD PUSH1 0xE5 SHL DUP2 MSTORE PUSH1 0x20 PUSH1 0x4 DUP3 ADD MSTORE PUSH1 0x25 PUSH1 0x24 DUP3 ADD MSTORE PUSH32 0x4D696E7420616D6F756E74206D7573742062652067726561746572207468616E PUSH1 0x44 DUP3 ADD MSTORE PUSH5 0x207A65726F PUSH1 0xD8 SHL PUSH1 0x64 DUP3 ADD MSTORE PUSH1 0x84 ADD PUSH3 0x432 JUMP JUMPDEST CALLER ORIGIN EQ PUSH3 0x1538 JUMPI PUSH1 0x40 MLOAD PUSH3 0x461BCD PUSH1 0xE5 SHL DUP2 MSTORE PUSH1 0x20 PUSH1 0x4 DUP3 ADD MSTORE PUSH1 0x15 PUSH1 0x24 DUP3 ADD MSTORE PUSH21 0x10DBDB9D1C9858DD1CC818D85B9B9BDD081B5A5B9D PUSH1 0x5A SHL PUSH1 0x44 DUP3 ADD MSTORE PUSH1 0x64 ADD PUSH3 0x432 JUMP JUMPDEST PUSH1 0x15 SLOAD PUSH1 0x14 SLOAD PUSH3 0x1549 SWAP2 PUSH3 0x2EA6 JUMP JUMPDEST TIMESTAMP LT ISZERO PUSH3 0x1591 JUMPI PUSH1 0x40 MLOAD PUSH3 0x461BCD PUSH1 0xE5 SHL DUP2 MSTORE PUSH1 0x20 PUSH1 0x4 DUP3 ADD MSTORE PUSH1 0x14 PUSH1 0x24 DUP3 ADD MSTORE PUSH20 0x4D696E7420636F6F6C646F776E20616374697665 PUSH1 0x60 SHL PUSH1 0x44 DUP3 ADD MSTORE PUSH1 0x64 ADD PUSH3 0x432 JUMP JUMPDEST PUSH1 0x1 PUSH1 0x1 PUSH1 0xA0 SHL SUB DUP5 AND PUSH3 0x15E0 JUMPI PUSH1 0x40 MLOAD PUSH3 0x461BCD PUSH1 0xE5 SHL DUP2 MSTORE PUSH1 0x20 PUSH1 0x4 DUP3 ADD MSTORE PUSH1 0x14 PUSH1 0x24 DUP3 ADD MSTORE PUSH20 0x4D696E7420746F207A65726F2061646472657373 PUSH1 0x60 SHL PUSH1 0x44 DUP3 ADD MSTORE PUSH1 0x64 ADD PUSH3 0x432 JUMP JUMPDEST PUSH1 0x1 PUSH1 0x1 PUSH1 0xA0 SHL SUB DUP5 AND PUSH1 0x0 SWAP1 DUP2 MSTORE PUSH1 0x13 PUSH1 0x20 MSTORE PUSH1 0x40 SWAP1 KECCAK256 SLOAD PUSH1 0xFF AND PUSH3 0x1646 JUMPI PUSH1 0x40 MLOAD PUSH3 0x461BCD PUSH1 0xE5 SHL DUP2 MSTORE PUSH1 0x20 PUSH1 0x4 DUP3 ADD MSTORE PUSH1 0x19 PUSH1 0x24 DUP3 ADD MSTORE PUSH25 0x149958DA5C1A595B9D081B9BDD081DDA1A5D195B1A5CDD1959 PUSH1 0x3A SHL PUSH1 0x44 DUP3 ADD MSTORE PUSH1 0x64 ADD PUSH3 0x432 JUMP JUMPDEST PUSH1 0xD SLOAD PUSH1 0x0 SWAP1 PUSH3 0x1670 SWAP1 PUSH3 0x1668 SWAP1 PUSH1 0x1 PUSH1 0xA0 SHL SWAP1 DIV PUSH1 0xFF AND PUSH1 0xA PUSH3 0x38F6 JUMP JUMPDEST DUP6 SWAP1 PUSH3 0x2EB4 JUMP JUMPDEST SWAP1 POP PUSH1 0xE SLOAD PUSH3 0x168B DUP3 PUSH3 0x1684 PUSH1 0x2 SLOAD SWAP1 JUMP JUMPDEST SWAP1 PUSH3 0x2EA6 JUMP JUMPDEST GT ISZERO PUSH3 0x16D0 JUMPI PUSH1 0x40 MLOAD PUSH3 0x461BCD PUSH1 0xE5 SHL DUP2 MSTORE PUSH1 0x20 PUSH1 0x4 DUP3 ADD MSTORE PUSH1 0x12 PUSH1 0x24 DUP3 ADD MSTORE PUSH18 0x45786365656473206D617820737570706C79 PUSH1 0x70 SHL PUSH1 0x44 DUP3 ADD MSTORE PUSH1 0x64 ADD PUSH3 0x432 JUMP JUMPDEST TIMESTAMP PUSH1 0x14 SSTORE PUSH3 0x16E0 DUP6 DUP3 PUSH3 0x2EC2 JUMP JUMPDEST DUP5 PUSH1 0x1 PUSH1 0x1 PUSH1 0xA0 SHL SUB AND PUSH32 0x3F2C9D57C068687834F0DE942A9BABB9E5ACAB57D516D3480A3C16EE165A4273 DUP3 PUSH1 0x40 MLOAD PUSH3 0x171C SWAP2 DUP2 MSTORE PUSH1 0x20 ADD SWAP1 JUMP JUMPDEST PUSH1 0x40 MLOAD DUP1 SWAP2 SUB SWAP1 LOG2 POP POP POP PUSH3 0x13D9 PUSH1 0x1 PUSH1 0x7 SSTORE JUMP JUMPDEST PUSH1 0x0 DUP1 MLOAD PUSH1 0x20 PUSH3 0x5EF9 DUP4 CODECOPY DUP2 MLOAD SWAP2 MSTORE PUSH3 0x174D DUP2 PUSH3 0x29C4 JUMP JUMPDEST PUSH1 0x1 PUSH1 0x1 PUSH1 0xA0 SHL SUB DUP3 AND PUSH3 0x1776 JUMPI PUSH1 0x40 MLOAD PUSH3 0x461BCD PUSH1 0xE5 SHL DUP2 MSTORE PUSH1 0x4 ADD PUSH3 0x432 SWAP1 PUSH3 0x3907 JUMP JUMPDEST PUSH1 0x1 PUSH1 0x1 PUSH1 0xA0 SHL SUB DUP3 AND PUSH1 0x0 SWAP1 DUP2 MSTORE PUSH1 0x12 PUSH1 0x20 MSTORE PUSH1 0x40 SWAP1 KECCAK256 SLOAD PUSH1 0xFF AND ISZERO PUSH3 0x17D7 JUMPI PUSH1 0x40 MLOAD PUSH3 0x461BCD PUSH1 0xE5 SHL DUP2 MSTORE PUSH1 0x20 PUSH1 0x4 DUP3 ADD MSTORE PUSH1 0x13 PUSH1 0x24 DUP3 ADD MSTORE PUSH19 0x105B1C9958591E48189B1858DADB1A5CDD1959 PUSH1 0x6A SHL PUSH1 0x44 DUP3 ADD MSTORE PUSH1 0x64 ADD PUSH3 0x432 JUMP JUMPDEST PUSH1 0x1 PUSH1 0x1 PUSH1 0xA0 SHL SUB DUP3 AND PUSH1 0x0 DUP2 DUP2 MSTORE PUSH1 0x12 PUSH1 0x20 SWAP1 DUP2 MSTORE PUSH1 0x40 SWAP2 DUP3 SWAP1 KECCAK256 DUP1 SLOAD PUSH1 0xFF NOT AND PUSH1 0x1 SWAP1 DUP2 OR SWAP1 SWAP2 SSTORE SWAP2 MLOAD SWAP2 DUP3 MSTORE PUSH32 0x6A12B3DF6CBA4203BD7FD06B816789F87DE8C594299AED5717AE070FAC781BAC SWAP2 ADD JUMPDEST PUSH1 0x40 MLOAD DUP1 SWAP2 SUB SWAP1 LOG2 POP POP JUMP JUMPDEST PUSH1 0xD SLOAD PUSH1 0x0 SWAP1 PUSH3 0xE2F SWAP1 PUSH3 0x1858 SWAP1 PUSH1 0x1 PUSH1 0xA0 SHL SWAP1 DIV PUSH1 0xFF AND PUSH1 0xA PUSH3 0x38F6 JUMP JUMPDEST PUSH1 0x11 SLOAD PUSH3 0x1867 SWAP1 DUP6 PUSH3 0x2EB4 JUMP JUMPDEST SWAP1 PUSH3 0x2F85 JUMP JUMPDEST PUSH1 0x0 PUSH3 0x1048 PUSH3 0x1E3C JUMP JUMPDEST PUSH1 0x0 DUP1 MLOAD PUSH1 0x20 PUSH3 0x5EF9 DUP4 CODECOPY DUP2 MLOAD SWAP2 MSTORE PUSH3 0x1895 DUP2 PUSH3 0x29C4 JUMP JUMPDEST PUSH1 0x1 PUSH1 0x1 PUSH1 0xA0 SHL SUB DUP3 AND PUSH3 0x18BE JUMPI PUSH1 0x40 MLOAD PUSH3 0x461BCD PUSH1 0xE5 SHL DUP2 MSTORE PUSH1 0x4 ADD PUSH3 0x432 SWAP1 PUSH3 0x3907 JUMP JUMPDEST PUSH1 0x1 PUSH1 0x1 PUSH1 0xA0 SHL SUB DUP3 AND PUSH1 0x0 SWAP1 DUP2 MSTORE PUSH1 0x12 PUSH1 0x20 MSTORE PUSH1 0x40 SWAP1 KECCAK256 SLOAD PUSH1 0xFF AND PUSH3 0x191A JUMPI PUSH1 0x40 MLOAD PUSH3 0x461BCD PUSH1 0xE5 SHL DUP2 MSTORE PUSH1 0x20 PUSH1 0x4 DUP3 ADD MSTORE PUSH1 0xF PUSH1 0x24 DUP3 ADD MSTORE PUSH15 0x139BDD08189B1858DADB1A5CDD1959 PUSH1 0x8A SHL PUSH1 0x44 DUP3 ADD MSTORE PUSH1 0x64 ADD PUSH3 0x432 JUMP JUMPDEST PUSH1 0x1 PUSH1 0x1 PUSH1 0xA0 SHL SUB DUP3 AND PUSH1 0x0 DUP2 DUP2 MSTORE PUSH1 0x12 PUSH1 0x20 SWAP1 DUP2 MSTORE PUSH1 0x40 DUP1 DUP4 KECCAK256 DUP1 SLOAD PUSH1 0xFF NOT AND SWAP1 SSTORE MLOAD SWAP2 DUP3 MSTORE PUSH32 0x6A12B3DF6CBA4203BD7FD06B816789F87DE8C594299AED5717AE070FAC781BAC SWAP2 ADD PUSH3 0x182A JUMP JUMPDEST PUSH1 0x0 DUP1 MLOAD PUSH1 0x20 PUSH3 0x5EF9 DUP4 CODECOPY DUP2 MLOAD SWAP2 MSTORE PUSH3 0x1985 DUP2 PUSH3 0x29C4 JUMP JUMPDEST PUSH1 0x0 DUP4 PUSH1 0x40 MLOAD PUSH1 0x24 ADD PUSH3 0x199B SWAP2 DUP2 MSTORE PUSH1 0x20 ADD SWAP1 JUMP JUMPDEST PUSH1 0x40 DUP1 MLOAD PUSH1 0x1F NOT DUP2 DUP5 SUB ADD DUP2 MSTORE SWAP2 DUP2 MSTORE PUSH1 0x20 DUP3 ADD DUP1 MLOAD PUSH1 0x1 PUSH1 0x1 PUSH1 0xE0 SHL SUB AND PUSH4 0x66E22E03 PUSH1 0xE1 SHL OR SWAP1 MSTORE PUSH1 0x10 SLOAD SWAP1 MLOAD PUSH4 0x8065657F PUSH1 0xE0 SHL DUP2 MSTORE SWAP2 SWAP3 POP PUSH1 0x0 SWAP2 PUSH1 0x1 PUSH1 0x1 PUSH1 0xA0 SHL SUB SWAP1 SWAP2 AND SWAP1 PUSH4 0x8065657F SWAP1 PUSH3 0xECF SWAP1 ADDRESS SWAP1 DUP6 SWAP1 DUP8 SWAP1 DUP3 SWAP1 DUP12 SWAP1 PUSH1 0x4 ADD PUSH3 0x36A1 JUMP JUMPDEST PUSH1 0x0 DUP1 MLOAD PUSH1 0x20 PUSH3 0x5EF9 DUP4 CODECOPY DUP2 MLOAD SWAP2 MSTORE PUSH3 0x1A1F DUP2 PUSH3 0x29C4 JUMP JUMPDEST PUSH1 0x40 DUP1 MLOAD PUSH1 0x4 DUP1 DUP3 MSTORE PUSH1 0x24 DUP3 ADD DUP4 MSTORE PUSH1 0x20 DUP3 ADD DUP1 MLOAD PUSH1 0x1 PUSH1 0x1 PUSH1 0xE0 SHL SUB AND PUSH4 0x16744607 PUSH1 0xE0 SHL OR SWAP1 MSTORE PUSH1 0x10 SLOAD SWAP3 MLOAD PUSH4 0x8065657F PUSH1 0xE0 SHL DUP2 MSTORE SWAP2 SWAP3 PUSH1 0x0 SWAP3 PUSH1 0x1 PUSH1 0x1 PUSH1 0xA0 SHL SUB SWAP1 SWAP2 AND SWAP2 PUSH4 0x8065657F SWAP2 PUSH3 0x1A84 SWAP2 ADDRESS SWAP2 DUP7 SWAP2 DUP9 SWAP2 DUP4 SWAP2 DUP13 SWAP2 ADD PUSH3 0x36A1 JUMP JUMPDEST PUSH1 0x20 PUSH1 0x40 MLOAD DUP1 DUP4 SUB DUP2 DUP7 GAS STATICCALL ISZERO DUP1 ISZERO PUSH3 0x1AA2 JUMPI RETURNDATASIZE PUSH1 0x0 DUP1 RETURNDATACOPY RETURNDATASIZE PUSH1 0x0 REVERT JUMPDEST POP POP POP POP PUSH1 0x40 MLOAD RETURNDATASIZE PUSH1 0x1F NOT PUSH1 0x1F DUP3 ADD AND DUP3 ADD DUP1 PUSH1 0x40 MSTORE POP DUP2 ADD SWAP1 PUSH3 0x1AC8 SWAP2 SWAP1 PUSH3 0x36DE JUMP JUMPDEST PUSH1 0x10 SLOAD PUSH1 0x40 DUP1 MLOAD PUSH4 0x793D0649 PUSH1 0xE1 SHL DUP2 MSTORE SWAP1 MLOAD SWAP3 SWAP4 POP PUSH1 0x1 PUSH1 0x1 PUSH1 0xA0 SHL SUB SWAP1 SWAP2 AND SWAP2 PUSH4 0x1D5062A SWAP2 ADDRESS SWAP2 PUSH1 0x0 SWAP2 DUP8 SWAP2 DUP4 SWAP2 DUP12 SWAP2 DUP9 SWAP2 PUSH4 0xF27A0C92 SWAP2 PUSH1 0x4 DUP1 DUP4 ADD SWAP3 PUSH1 0x20 SWAP3 SWAP2 SWAP1 DUP3 SWAP1 SUB ADD DUP2 DUP7 GAS STATICCALL ISZERO DUP1 ISZERO PUSH3 0x1B28 JUMPI RETURNDATASIZE PUSH1 0x0 DUP1 RETURNDATACOPY RETURNDATASIZE PUSH1 0x0 REVERT JUMPDEST POP POP POP POP PUSH1 0x40 MLOAD RETURNDATASIZE PUSH1 0x1F NOT PUSH1 0x1F DUP3 ADD AND DUP3 ADD DUP1 PUSH1 0x40 MSTORE POP DUP2 ADD SWAP1 PUSH3 0x1B4E SWAP2 SWAP1 PUSH3 0x36DE JUMP JUMPDEST PUSH1 0x40 MLOAD DUP8 PUSH4 0xFFFFFFFF AND PUSH1 0xE0 SHL DUP2 MSTORE PUSH1 0x4 ADD PUSH3 0x1B71 SWAP7 SWAP6 SWAP5 SWAP4 SWAP3 SWAP2 SWAP1 PUSH3 0x36F8 JUMP JUMPDEST PUSH1 0x0 PUSH1 0x40 MLOAD DUP1 DUP4 SUB DUP2 PUSH1 0x0 DUP8 DUP1 EXTCODESIZE ISZERO DUP1 ISZERO PUSH3 0x1B8C JUMPI PUSH1 0x0 DUP1 REVERT JUMPDEST POP GAS CALL ISZERO DUP1 ISZERO PUSH3 0x1BA1 JUMPI RETURNDATASIZE PUSH1 0x0 DUP1 RETURNDATACOPY RETURNDATASIZE PUSH1 0x0 REVERT JUMPDEST POP POP PUSH1 0x40 MLOAD ADDRESS SWAP3 POP DUP4 SWAP2 POP PUSH32 0xDC5403C65537CFCFAC6C555554373C7C7558B8D931AD256056712E94366AA62A SWAP1 PUSH3 0x1BE2 SWAP1 PUSH1 0x0 SWAP1 DUP8 SWAP1 DUP3 SWAP1 DUP12 SWAP1 PUSH3 0x373F JUMP JUMPDEST PUSH1 0x40 MLOAD DUP1 SWAP2 SUB SWAP1 LOG3 POP POP POP POP JUMP JUMPDEST PUSH1 0x0 DUP1 MLOAD PUSH1 0x20 PUSH3 0x5EF9 DUP4 CODECOPY DUP2 MLOAD SWAP2 MSTORE PUSH3 0x1C0B DUP2 PUSH3 0x29C4 JUMP JUMPDEST PUSH1 0xF SLOAD PUSH1 0xFF AND ISZERO PUSH3 0x1C57 JUMPI PUSH1 0x40 MLOAD PUSH3 0x461BCD PUSH1 0xE5 SHL DUP2 MSTORE PUSH1 0x20 PUSH1 0x4 DUP3 ADD MSTORE PUSH1 0x14 PUSH1 0x24 DUP3 ADD MSTORE PUSH20 0x26B0BC1039BAB838363C9034B990333937BD32B7 PUSH1 0x61 SHL PUSH1 0x44 DUP3 ADD MSTORE PUSH1 0x64 ADD PUSH3 0x432 JUMP JUMPDEST PUSH1 0x2 SLOAD DUP3 LT ISZERO PUSH3 0x1CBA JUMPI PUSH1 0x40 MLOAD PUSH3 0x461BCD PUSH1 0xE5 SHL DUP2 MSTORE PUSH1 0x20 PUSH1 0x4 DUP3 ADD MSTORE PUSH1 0x26 PUSH1 0x24 DUP3 ADD MSTORE PUSH32 0x4E6577206D617820737570706C79206D757374206265203E3D20746F74616C20 PUSH1 0x44 DUP3 ADD MSTORE PUSH6 0x737570706C79 PUSH1 0xD0 SHL PUSH1 0x64 DUP3 ADD MSTORE PUSH1 0x84 ADD PUSH3 0x432 JUMP JUMPDEST PUSH1 0xF SLOAD PUSH2 0x100 SWAP1 DIV PUSH1 0x1 PUSH1 0x1 PUSH1 0xA0 SHL SUB AND PUSH3 0x1CEA JUMPI PUSH1 0x40 MLOAD PUSH3 0x461BCD PUSH1 0xE5 SHL DUP2 MSTORE PUSH1 0x4 ADD PUSH3 0x432 SWAP1 PUSH3 0x3930 JUMP JUMPDEST PUSH1 0xE DUP3 SWAP1 SSTORE PUSH1 0x40 MLOAD DUP3 DUP2 MSTORE PUSH32 0x7810BD47DE260C3E9EE10061CF438099DD12256C79485F12F94DBCCC981E806C SWAP1 PUSH1 0x20 ADD JUMPDEST PUSH1 0x40 MLOAD DUP1 SWAP2 SUB SWAP1 LOG1 POP POP JUMP JUMPDEST PUSH1 0x0 DUP1 MLOAD PUSH1 0x20 PUSH3 0x5EB9 DUP4 CODECOPY DUP2 MLOAD SWAP2 MSTORE PUSH3 0x1D42 DUP2 PUSH3 0x29C4 JUMP JUMPDEST PUSH3 0x142A PUSH3 0x2F93 JUMP JUMPDEST PUSH1 0x0 DUP1 MLOAD PUSH1 0x20 PUSH3 0x5EF9 DUP4 CODECOPY DUP2 MLOAD SWAP2 MSTORE PUSH3 0x1D67 DUP2 PUSH3 0x29C4 JUMP JUMPDEST PUSH1 0x1 PUSH1 0x1 PUSH1 0xA0 SHL SUB DUP3 AND PUSH3 0x1D90 JUMPI PUSH1 0x40 MLOAD PUSH3 0x461BCD PUSH1 0xE5 SHL DUP2 MSTORE PUSH1 0x4 ADD PUSH3 0x432 SWAP1 PUSH3 0x3907 JUMP JUMPDEST PUSH1 0x1 PUSH1 0x1 PUSH1 0xA0 SHL SUB DUP3 AND PUSH1 0x0 SWAP1 DUP2 MSTORE PUSH1 0x13 PUSH1 0x20 MSTORE PUSH1 0x40 SWAP1 KECCAK256 SLOAD PUSH1 0xFF AND PUSH3 0x1DEC JUMPI PUSH1 0x40 MLOAD PUSH3 0x461BCD PUSH1 0xE5 SHL DUP2 MSTORE PUSH1 0x20 PUSH1 0x4 DUP3 ADD MSTORE PUSH1 0xF PUSH1 0x24 DUP3 ADD MSTORE PUSH15 0x139BDD081DDA1A5D195B1A5CDD1959 PUSH1 0x8A SHL PUSH1 0x44 DUP3 ADD MSTORE PUSH1 0x64 ADD PUSH3 0x432 JUMP JUMPDEST PUSH1 0x1 PUSH1 0x1 PUSH1 0xA0 SHL SUB DUP3 AND PUSH1 0x0 DUP2 DUP2 MSTORE PUSH1 0x13 PUSH1 0x20 SWAP1 DUP2 MSTORE PUSH1 0x40 DUP1 DUP4 KECCAK256 DUP1 SLOAD PUSH1 0xFF NOT AND SWAP1 SSTORE MLOAD SWAP2 DUP3 MSTORE PUSH32 0xF93F9A76C1BF3444D22400A00CB9FE990E6ABE9DBB333FDA48859CFEE864543D SWAP2 ADD PUSH3 0x182A JUMP JUMPDEST PUSH1 0xD SLOAD PUSH1 0x40 DUP1 MLOAD PUSH4 0x3FABE5A3 PUSH1 0xE2 SHL DUP2 MSTORE SWAP1 MLOAD PUSH1 0x0 SWAP3 PUSH1 0x1 PUSH1 0x1 PUSH1 0xA0 SHL SUB AND SWAP2 PUSH4 0xFEAF968C SWAP2 PUSH1 0x4 DUP1 DUP4 ADD SWAP3 PUSH1 0xA0 SWAP3 SWAP2 SWAP1 DUP3 SWAP1 SUB ADD DUP2 DUP7 GAS STATICCALL SWAP3 POP POP POP DUP1 ISZERO PUSH3 0x1EA5 JUMPI POP PUSH1 0x40 DUP1 MLOAD PUSH1 0x1F RETURNDATASIZE SWAP1 DUP2 ADD PUSH1 0x1F NOT AND DUP3 ADD SWAP1 SWAP3 MSTORE PUSH3 0x1EA2 SWAP2 DUP2 ADD SWAP1 PUSH3 0x397C JUMP JUMPDEST PUSH1 0x1 JUMPDEST PUSH3 0x1EB1 JUMPI POP PUSH1 0x11 SLOAD SWAP1 JUMP JUMPDEST PUSH1 0x0 DUP5 SGT PUSH3 0x1EF8 JUMPI PUSH1 0x40 MLOAD PUSH3 0x461BCD PUSH1 0xE5 SHL DUP2 MSTORE PUSH1 0x20 PUSH1 0x4 DUP3 ADD MSTORE PUSH1 0x12 PUSH1 0x24 DUP3 ADD MSTORE PUSH18 0x125B9D985B1A59081C1C9A58D94819995959 PUSH1 0x72 SHL PUSH1 0x44 DUP3 ADD MSTORE PUSH1 0x64 ADD PUSH3 0x432 JUMP JUMPDEST POP SWAP2 SWAP5 SWAP4 POP POP POP POP JUMP JUMPDEST PUSH1 0x0 DUP1 MLOAD PUSH1 0x20 PUSH3 0x5E99 DUP4 CODECOPY DUP2 MLOAD SWAP2 MSTORE PUSH3 0x1F1D DUP2 PUSH3 0x29C4 JUMP JUMPDEST PUSH3 0x15180 DUP3 LT ISZERO PUSH3 0x1F64 JUMPI PUSH1 0x40 MLOAD PUSH3 0x461BCD PUSH1 0xE5 SHL DUP2 MSTORE PUSH1 0x20 PUSH1 0x4 DUP3 ADD MSTORE PUSH1 0xF PUSH1 0x24 DUP3 ADD MSTORE PUSH15 0x11195B185E481D1BDBC81CDA1BDC9D PUSH1 0x8A SHL PUSH1 0x44 DUP3 ADD MSTORE PUSH1 0x64 ADD PUSH3 0x432 JUMP JUMPDEST PUSH1 0x10 SLOAD PUSH1 0x40 MLOAD PUSH4 0x64D62353 PUSH1 0xE0 SHL DUP2 MSTORE PUSH1 0x4 DUP2 ADD DUP5 SWAP1 MSTORE PUSH1 0x1 PUSH1 0x1 PUSH1 0xA0 SHL SUB SWAP1 SWAP2 AND SWAP1 PUSH4 0x64D62353 SWAP1 PUSH1 0x24 ADD PUSH1 0x0 PUSH1 0x40 MLOAD DUP1 DUP4 SUB DUP2 PUSH1 0x0 DUP8 DUP1 EXTCODESIZE ISZERO DUP1 ISZERO PUSH3 0x1FAB JUMPI PUSH1 0x0 DUP1 REVERT JUMPDEST POP GAS CALL ISZERO DUP1 ISZERO PUSH3 0x1FC0 JUMPI RETURNDATASIZE PUSH1 0x0 DUP1 RETURNDATACOPY RETURNDATASIZE PUSH1 0x0 REVERT JUMPDEST POP POP POP POP PUSH32 0xEDD2C15CB1225CE15CF67EFA55CEA2672BFEA32D9D9CBF34716BD04B76194B53 DUP3 PUSH1 0x40 MLOAD PUSH3 0x1D1B SWAP2 DUP2 MSTORE PUSH1 0x20 ADD SWAP1 JUMP JUMPDEST PUSH1 0x0 SWAP2 DUP3 MSTORE PUSH1 0x5 PUSH1 0x20 SWAP1 DUP2 MSTORE PUSH1 0x40 DUP1 DUP5 KECCAK256 PUSH1 0x1 PUSH1 0x1 PUSH1 0xA0 SHL SUB SWAP4 SWAP1 SWAP4 AND DUP5 MSTORE SWAP2 SWAP1 MSTORE SWAP1 KECCAK256 SLOAD PUSH1 0xFF AND SWAP1 JUMP JUMPDEST PUSH1 0x60 PUSH3 0x1048 PUSH3 0x2FD3 JUMP JUMPDEST PUSH1 0x0 CALLER DUP2 PUSH3 0x203D DUP3 DUP7 PUSH3 0x282B JUMP JUMPDEST SWAP1 POP DUP4 DUP2 LT ISZERO PUSH3 0x209F JUMPI PUSH1 0x40 MLOAD PUSH3 0x461BCD PUSH1 0xE5 SHL DUP2 MSTORE PUSH1 0x20 PUSH1 0x4 DUP3 ADD MSTORE PUSH1 0x25 PUSH1 0x24 DUP3 ADD MSTORE PUSH32 0x45524332303A2064656372656173656420616C6C6F77616E63652062656C6F77 PUSH1 0x44 DUP3 ADD MSTORE PUSH5 0x207A65726F PUSH1 0xD8 SHL PUSH1 0x64 DUP3 ADD MSTORE PUSH1 0x84 ADD PUSH3 0x432 JUMP JUMPDEST PUSH3 0x20AE DUP3 DUP7 DUP7 DUP5 SUB PUSH3 0x2A6A JUMP JUMPDEST POP PUSH1 0x1 SWAP5 SWAP4 POP POP POP POP JUMP JUMPDEST PUSH1 0x0 DUP1 MLOAD PUSH1 0x20 PUSH3 0x5EF9 DUP4 CODECOPY DUP2 MLOAD SWAP2 MSTORE PUSH3 0x20D4 DUP2 PUSH3 0x29C4 JUMP JUMPDEST PUSH1 0x1 PUSH1 0x1 PUSH1 0xA0 SHL SUB DUP3 AND PUSH3 0x20FD JUMPI PUSH1 0x40 MLOAD PUSH3 0x461BCD PUSH1 0xE5 SHL DUP2 MSTORE PUSH1 0x4 ADD PUSH3 0x432 SWAP1 PUSH3 0x3907 JUMP JUMPDEST PUSH1 0xF DUP1 SLOAD PUSH1 0x1 PUSH1 0x1 PUSH1 0xA0 SHL SUB DUP5 DUP2 AND PUSH2 0x100 DUP2 DUP2 MUL PUSH2 0x100 PUSH1 0x1 PUSH1 0xA8 SHL SUB NOT DUP6 AND OR SWAP1 SWAP5 SSTORE PUSH1 0x40 MLOAD SWAP4 SWAP1 SWAP3 DIV AND SWAP2 DUP3 SWAP1 PUSH32 0xA982575859D7AD2F390DC12B23F7DAB8BBDA047F9D0140AC68344B27BF34BFB4 SWAP1 PUSH1 0x0 SWAP1 LOG3 POP POP POP JUMP JUMPDEST CALLER PUSH1 0x0 DUP2 DUP2 MSTORE PUSH1 0x12 PUSH1 0x20 MSTORE PUSH1 0x40 DUP2 KECCAK256 SLOAD SWAP1 SWAP2 SWAP1 PUSH1 0xFF AND ISZERO PUSH3 0x218E JUMPI PUSH1 0x40 MLOAD PUSH3 0x461BCD PUSH1 0xE5 SHL DUP2 MSTORE PUSH1 0x4 ADD PUSH3 0x432 SWAP1 PUSH3 0x376D JUMP JUMPDEST PUSH1 0x1 PUSH1 0x1 PUSH1 0xA0 SHL SUB DUP5 AND PUSH1 0x0 SWAP1 DUP2 MSTORE PUSH1 0x12 PUSH1 0x20 MSTORE PUSH1 0x40 SWAP1 KECCAK256 SLOAD DUP5 SWAP1 PUSH1 0xFF AND ISZERO PUSH3 0x21CC JUMPI PUSH1 0x40 MLOAD PUSH3 0x461BCD PUSH1 0xE5 SHL DUP2 MSTORE PUSH1 0x4 ADD PUSH3 0x432 SWAP1 PUSH3 0x376D JUMP JUMPDEST PUSH3 0x20AE CALLER DUP7 DUP7 PUSH3 0x2B92 JUMP JUMPDEST PUSH1 0x0 DUP1 PUSH3 0x21E6 PUSH3 0x1E3C JUMP JUMPDEST PUSH1 0xD SLOAD SWAP1 SWAP2 POP PUSH3 0x2214 SWAP1 PUSH3 0x2208 SWAP1 PUSH1 0x1 PUSH1 0xA0 SHL SWAP1 DIV PUSH1 0xFF AND PUSH1 0xA PUSH3 0x38F6 JUMP JUMPDEST PUSH3 0x1867 DUP4 DUP7 PUSH3 0x2EB4 JUMP JUMPDEST SWAP4 SWAP3 POP POP POP JUMP JUMPDEST PUSH1 0x0 DUP1 MLOAD PUSH1 0x20 PUSH3 0x5EF9 DUP4 CODECOPY DUP2 MLOAD SWAP2 MSTORE PUSH3 0x2236 DUP2 PUSH3 0x29C4 JUMP JUMPDEST PUSH1 0x18 SLOAD PUSH1 0xFF AND ISZERO PUSH3 0x2281 JUMPI PUSH1 0x40 MLOAD PUSH3 0x461BCD PUSH1 0xE5 SHL DUP2 MSTORE PUSH1 0x20 PUSH1 0x4 DUP3 ADD MSTORE PUSH1 0x13 PUSH1 0x24 DUP3 ADD MSTORE PUSH19 0x105B1C9958591E481A5B9A5D1A585B1A5E9959 PUSH1 0x6A SHL PUSH1 0x44 DUP3 ADD MSTORE PUSH1 0x64 ADD PUSH3 0x432 JUMP JUMPDEST PUSH1 0x1 PUSH1 0x1 PUSH1 0xA0 SHL SUB DUP8 AND PUSH3 0x22D6 JUMPI PUSH1 0x40 MLOAD PUSH3 0x461BCD PUSH1 0xE5 SHL DUP2 MSTORE PUSH1 0x20 PUSH1 0x4 DUP3 ADD MSTORE PUSH1 0x1A PUSH1 0x24 DUP3 ADD MSTORE PUSH26 0x4665652077616C6C6574206973207A65726F2061646472657373 PUSH1 0x30 SHL PUSH1 0x44 DUP3 ADD MSTORE PUSH1 0x64 ADD PUSH3 0x432 JUMP JUMPDEST PUSH1 0x1 PUSH1 0x1 PUSH1 0xA0 SHL SUB DUP3 AND PUSH3 0x232E JUMPI PUSH1 0x40 MLOAD PUSH3 0x461BCD PUSH1 0xE5 SHL DUP2 MSTORE PUSH1 0x20 PUSH1 0x4 DUP3 ADD MSTORE PUSH1 0x1F PUSH1 0x24 DUP3 ADD MSTORE PUSH32 0x4D756C74697369672077616C6C6574206973207A65726F206164647265737300 PUSH1 0x44 DUP3 ADD MSTORE PUSH1 0x64 ADD PUSH3 0x432 JUMP JUMPDEST PUSH1 0x1 PUSH1 0x1 PUSH1 0xA0 SHL SUB DUP7 AND PUSH3 0x2386 JUMPI PUSH1 0x40 MLOAD PUSH3 0x461BCD PUSH1 0xE5 SHL DUP2 MSTORE PUSH1 0x20 PUSH1 0x4 DUP3 ADD MSTORE PUSH1 0x1C PUSH1 0x24 DUP3 ADD MSTORE PUSH32 0x555344542061646472657373206973207A65726F206164647265737300000000 PUSH1 0x44 DUP3 ADD MSTORE PUSH1 0x64 ADD PUSH3 0x432 JUMP JUMPDEST PUSH1 0x1 PUSH1 0x1 PUSH1 0xA0 SHL SUB DUP6 AND PUSH3 0x23DE JUMPI PUSH1 0x40 MLOAD PUSH3 0x461BCD PUSH1 0xE5 SHL DUP2 MSTORE PUSH1 0x20 PUSH1 0x4 DUP3 ADD MSTORE PUSH1 0x1C PUSH1 0x24 DUP3 ADD MSTORE PUSH32 0x555344432061646472657373206973207A65726F206164647265737300000000 PUSH1 0x44 DUP3 ADD MSTORE PUSH1 0x64 ADD PUSH3 0x432 JUMP JUMPDEST PUSH1 0x1 PUSH1 0x1 PUSH1 0xA0 SHL SUB DUP5 AND PUSH3 0x2436 JUMPI PUSH1 0x40 MLOAD PUSH3 0x461BCD PUSH1 0xE5 SHL DUP2 MSTORE PUSH1 0x20 PUSH1 0x4 DUP3 ADD MSTORE PUSH1 0x1E PUSH1 0x24 DUP3 ADD MSTORE PUSH32 0x526F757465722061646472657373206973207A65726F20616464726573730000 PUSH1 0x44 DUP3 ADD MSTORE PUSH1 0x64 ADD PUSH3 0x432 JUMP JUMPDEST PUSH1 0x1 PUSH1 0x1 PUSH1 0xA0 SHL SUB DUP4 AND PUSH3 0x248B JUMPI PUSH1 0x40 MLOAD PUSH3 0x461BCD PUSH1 0xE5 SHL DUP2 MSTORE PUSH1 0x20 PUSH1 0x4 DUP3 ADD MSTORE PUSH1 0x1A PUSH1 0x24 DUP3 ADD MSTORE PUSH26 0x50726963652066656564206973207A65726F2061646472657373 PUSH1 0x30 SHL PUSH1 0x44 DUP3 ADD MSTORE PUSH1 0x64 ADD PUSH3 0x432 JUMP JUMPDEST PUSH1 0x9 DUP1 SLOAD PUSH1 0x1 PUSH1 0x1 PUSH1 0xA0 SHL SUB NOT SWAP1 DUP2 AND PUSH1 0x1 PUSH1 0x1 PUSH1 0xA0 SHL SUB DUP11 DUP2 AND SWAP2 SWAP1 SWAP2 OR SWAP1 SWAP3 SSTORE PUSH1 0x8 DUP1 SLOAD DUP3 AND DUP6 DUP5 AND OR SWAP1 SSTORE PUSH1 0xA DUP1 SLOAD DUP3 AND DUP10 DUP5 AND OR SWAP1 SSTORE PUSH1 0xB DUP1 SLOAD DUP3 AND DUP9 DUP5 AND OR SWAP1 SSTORE PUSH1 0xC DUP1 SLOAD DUP3 AND DUP8 DUP5 AND OR SWAP1 SSTORE PUSH1 0xD DUP1 SLOAD SWAP1 SWAP2 AND SWAP2 DUP6 AND SWAP2 SWAP1 SWAP2 OR SWAP1 SSTORE PUSH1 0x40 DUP1 MLOAD PUSH1 0x1 DUP1 DUP3 MSTORE DUP2 DUP4 ADD SWAP1 SWAP3 MSTORE PUSH1 0x0 SWAP2 PUSH1 0x20 DUP1 DUP4 ADD SWAP1 DUP1 CALLDATASIZE DUP4 CALLDATACOPY POP POP PUSH1 0x40 DUP1 MLOAD PUSH1 0x1 DUP1 DUP3 MSTORE DUP2 DUP4 ADD SWAP1 SWAP3 MSTORE SWAP3 SWAP4 POP PUSH1 0x0 SWAP3 SWAP2 POP PUSH1 0x20 DUP1 DUP4 ADD SWAP1 DUP1 CALLDATASIZE DUP4 CALLDATACOPY ADD SWAP1 POP POP SWAP1 POP CALLER DUP3 PUSH1 0x0 DUP2 MLOAD DUP2 LT PUSH3 0x2549 JUMPI PUSH3 0x2549 PUSH3 0x39E7 JUMP JUMPDEST PUSH1 0x20 MUL PUSH1 0x20 ADD ADD SWAP1 PUSH1 0x1 PUSH1 0x1 PUSH1 0xA0 SHL SUB AND SWAP1 DUP2 PUSH1 0x1 PUSH1 0x1 PUSH1 0xA0 SHL SUB AND DUP2 MSTORE POP POP CALLER DUP2 PUSH1 0x0 DUP2 MLOAD DUP2 LT PUSH3 0x2580 JUMPI PUSH3 0x2580 PUSH3 0x39E7 JUMP JUMPDEST PUSH1 0x20 MUL PUSH1 0x20 ADD ADD SWAP1 PUSH1 0x1 PUSH1 0x1 PUSH1 0xA0 SHL SUB AND SWAP1 DUP2 PUSH1 0x1 PUSH1 0x1 PUSH1 0xA0 SHL SUB AND DUP2 MSTORE POP POP PUSH3 0x2A300 DUP3 DUP3 CALLER PUSH1 0x40 MLOAD PUSH3 0x25B5 SWAP1 PUSH3 0x3425 JUMP JUMPDEST PUSH3 0x25C4 SWAP5 SWAP4 SWAP3 SWAP2 SWAP1 PUSH3 0x3A43 JUMP JUMPDEST PUSH1 0x40 MLOAD DUP1 SWAP2 SUB SWAP1 PUSH1 0x0 CREATE DUP1 ISZERO DUP1 ISZERO PUSH3 0x25E1 JUMPI RETURNDATASIZE PUSH1 0x0 DUP1 RETURNDATACOPY RETURNDATASIZE PUSH1 0x0 REVERT JUMPDEST POP PUSH1 0x10 DUP1 SLOAD PUSH1 0x1 PUSH1 0x1 PUSH1 0xA0 SHL SUB NOT AND PUSH1 0x1 PUSH1 0x1 PUSH1 0xA0 SHL SUB SWAP3 SWAP1 SWAP3 AND SWAP2 DUP3 OR SWAP1 SSTORE PUSH3 0x260F SWAP1 PUSH1 0x0 SWAP1 PUSH3 0x2FE4 JUMP JUMPDEST PUSH1 0x10 SLOAD PUSH3 0x2637 SWAP1 PUSH1 0x0 DUP1 MLOAD PUSH1 0x20 PUSH3 0x5EF9 DUP4 CODECOPY DUP2 MLOAD SWAP2 MSTORE SWAP1 PUSH1 0x1 PUSH1 0x1 PUSH1 0xA0 SHL SUB AND PUSH3 0x2FE4 JUMP JUMPDEST PUSH3 0x2652 PUSH1 0x0 DUP1 MLOAD PUSH1 0x20 PUSH3 0x5ED9 DUP4 CODECOPY DUP2 MLOAD SWAP2 MSTORE CALLER PUSH3 0x2FE4 JUMP JUMPDEST PUSH3 0x267E PUSH32 0x6C0757DC3E6B28B2580C03FD9E96C274ACF4F99D91FBEC9B418FA1D70604FF1C CALLER PUSH3 0x2FE4 JUMP JUMPDEST PUSH3 0x2699 PUSH1 0x0 DUP1 MLOAD PUSH1 0x20 PUSH3 0x5EB9 DUP4 CODECOPY DUP2 MLOAD SWAP2 MSTORE CALLER PUSH3 0x2FE4 JUMP JUMPDEST PUSH3 0x26B4 PUSH1 0x0 DUP1 MLOAD PUSH1 0x20 PUSH3 0x5E99 DUP4 CODECOPY DUP2 MLOAD SWAP2 MSTORE CALLER PUSH3 0x2FE4 JUMP JUMPDEST POP POP PUSH1 0x18 DUP1 SLOAD PUSH1 0xFF NOT AND PUSH1 0x1 OR SWAP1 SSTORE POP POP POP POP POP POP POP JUMP JUMPDEST PUSH3 0x26D6 PUSH3 0x2E01 JUMP JUMPDEST PUSH1 0x0 DUP1 MLOAD PUSH1 0x20 PUSH3 0x5EF9 DUP4 CODECOPY DUP2 MLOAD SWAP2 MSTORE PUSH3 0x26F1 DUP2 PUSH3 0x29C4 JUMP JUMPDEST PUSH3 0xF4240 DUP3 LT ISZERO PUSH3 0x2736 JUMPI PUSH1 0x40 MLOAD PUSH3 0x461BCD PUSH1 0xE5 SHL DUP2 MSTORE PUSH1 0x20 PUSH1 0x4 DUP3 ADD MSTORE PUSH1 0xD PUSH1 0x24 DUP3 ADD MSTORE PUSH13 0x507269636520746F6F206C6F77 PUSH1 0x98 SHL PUSH1 0x44 DUP3 ADD MSTORE PUSH1 0x64 ADD PUSH3 0x432 JUMP JUMPDEST PUSH1 0xF SLOAD PUSH2 0x100 SWAP1 DIV PUSH1 0x1 PUSH1 0x1 PUSH1 0xA0 SHL SUB AND PUSH3 0x2766 JUMPI PUSH1 0x40 MLOAD PUSH3 0x461BCD PUSH1 0xE5 SHL DUP2 MSTORE PUSH1 0x4 ADD PUSH3 0x432 SWAP1 PUSH3 0x3930 JUMP JUMPDEST PUSH1 0x17 SLOAD PUSH1 0x16 SLOAD PUSH3 0x2777 SWAP2 PUSH3 0x2EA6 JUMP JUMPDEST TIMESTAMP LT ISZERO PUSH3 0x27C8 JUMPI PUSH1 0x40 MLOAD PUSH3 0x461BCD PUSH1 0xE5 SHL DUP2 MSTORE PUSH1 0x20 PUSH1 0x4 DUP3 ADD MSTORE PUSH1 0x1C PUSH1 0x24 DUP3 ADD MSTORE PUSH32 0x50726963652075706461746520636F6F6C646F776E2061637469766500000000 PUSH1 0x44 DUP3 ADD MSTORE PUSH1 0x64 ADD PUSH3 0x432 JUMP JUMPDEST TIMESTAMP PUSH1 0x16 SSTORE PUSH1 0x11 DUP3 SWAP1 SSTORE PUSH1 0x40 MLOAD DUP3 DUP2 MSTORE PUSH32 0x5B5342FBBEC47A69C0BA4286F4F2907B43CF46121EB4987F7618AF6DD021F241 SWAP1 PUSH1 0x20 ADD PUSH3 0x1D1B JUMP JUMPDEST PUSH1 0x0 DUP3 DUP2 MSTORE PUSH1 0x5 PUSH1 0x20 MSTORE PUSH1 0x40 SWAP1 KECCAK256 PUSH1 0x1 ADD SLOAD PUSH3 0x281F DUP2 PUSH3 0x29C4 JUMP JUMPDEST PUSH3 0x1203 DUP4 DUP4 PUSH3 0x2D47 JUMP JUMPDEST PUSH1 0x1 PUSH1 0x1 PUSH1 0xA0 SHL SUB SWAP2 DUP3 AND PUSH1 0x0 SWAP1 DUP2 MSTORE PUSH1 0x1 PUSH1 0x20 SWAP1 DUP2 MSTORE PUSH1 0x40 DUP1 DUP4 KECCAK256 SWAP4 SWAP1 SWAP5 AND DUP3 MSTORE SWAP2 SWAP1 SWAP2 MSTORE KECCAK256 SLOAD SWAP1 JUMP JUMPDEST PUSH1 0x0 DUP1 MLOAD PUSH1 0x20 PUSH3 0x5EF9 DUP4 CODECOPY DUP2 MLOAD SWAP2 MSTORE PUSH3 0x2871 DUP2 PUSH3 0x29C4 JUMP JUMPDEST PUSH1 0x1 PUSH1 0x1 PUSH1 0xA0 SHL SUB DUP3 AND PUSH3 0x289A JUMPI PUSH1 0x40 MLOAD PUSH3 0x461BCD PUSH1 0xE5 SHL DUP2 MSTORE PUSH1 0x4 ADD PUSH3 0x432 SWAP1 PUSH3 0x3907 JUMP JUMPDEST PUSH1 0x1 PUSH1 0x1 PUSH1 0xA0 SHL SUB DUP3 AND PUSH1 0x0 SWAP1 DUP2 MSTORE PUSH1 0x13 PUSH1 0x20 MSTORE PUSH1 0x40 SWAP1 KECCAK256 SLOAD PUSH1 0xFF AND ISZERO PUSH3 0x28FB JUMPI PUSH1 0x40 MLOAD PUSH3 0x461BCD PUSH1 0xE5 SHL DUP2 MSTORE PUSH1 0x20 PUSH1 0x4 DUP3 ADD MSTORE PUSH1 0x13 PUSH1 0x24 DUP3 ADD MSTORE PUSH19 0x105B1C9958591E481DDA1A5D195B1A5CDD1959 PUSH1 0x6A SHL PUSH1 0x44 DUP3 ADD MSTORE PUSH1 0x64 ADD PUSH3 0x432 JUMP JUMPDEST PUSH1 0x1 PUSH1 0x1 PUSH1 0xA0 SHL SUB DUP3 AND PUSH1 0x0 DUP2 DUP2 MSTORE PUSH1 0x13 PUSH1 0x20 SWAP1 DUP2 MSTORE PUSH1 0x40 SWAP2 DUP3 SWAP1 KECCAK256 DUP1 SLOAD PUSH1 0xFF NOT AND PUSH1 0x1 SWAP1 DUP2 OR SWAP1 SWAP2 SSTORE SWAP2 MLOAD SWAP2 DUP3 MSTORE PUSH32 0xF93F9A76C1BF3444D22400A00CB9FE990E6ABE9DBB333FDA48859CFEE864543D SWAP2 ADD PUSH3 0x182A JUMP JUMPDEST PUSH1 0x10 SLOAD PUSH1 0x40 DUP1 MLOAD PUSH4 0x793D0649 PUSH1 0xE1 SHL DUP2 MSTORE SWAP1 MLOAD PUSH1 0x0 SWAP3 PUSH1 0x1 PUSH1 0x1 PUSH1 0xA0 SHL SUB AND SWAP2 PUSH4 0xF27A0C92 SWAP2 PUSH1 0x4 DUP1 DUP4 ADD SWAP3 PUSH1 0x20 SWAP3 SWAP2 SWAP1 DUP3 SWAP1 SUB ADD DUP2 DUP7 GAS STATICCALL ISZERO DUP1 ISZERO PUSH3 0x299E JUMPI RETURNDATASIZE PUSH1 0x0 DUP1 RETURNDATACOPY RETURNDATASIZE PUSH1 0x0 REVERT JUMPDEST POP POP POP POP PUSH1 0x40 MLOAD RETURNDATASIZE PUSH1 0x1F NOT PUSH1 0x1F DUP3 ADD AND DUP3 ADD DUP1 PUSH1 0x40 MSTORE POP DUP2 ADD SWAP1 PUSH3 0x1048 SWAP2 SWAP1 PUSH3 0x36DE JUMP JUMPDEST PUSH3 0x142A DUP2 CALLER PUSH3 0x2FF0 JUMP JUMPDEST PUSH1 0x60 PUSH1 0x3 DUP1 SLOAD PUSH3 0x29E1 SWAP1 PUSH3 0x3A8C JUMP JUMPDEST DUP1 PUSH1 0x1F ADD PUSH1 0x20 DUP1 SWAP2 DIV MUL PUSH1 0x20 ADD PUSH1 0x40 MLOAD SWAP1 DUP2 ADD PUSH1 0x40 MSTORE DUP1 SWAP3 SWAP2 SWAP1 DUP2 DUP2 MSTORE PUSH1 0x20 ADD DUP3 DUP1 SLOAD PUSH3 0x2A0F SWAP1 PUSH3 0x3A8C JUMP JUMPDEST DUP1 ISZERO PUSH3 0x2A60 JUMPI DUP1 PUSH1 0x1F LT PUSH3 0x2A34 JUMPI PUSH2 0x100 DUP1 DUP4 SLOAD DIV MUL DUP4 MSTORE SWAP2 PUSH1 0x20 ADD SWAP2 PUSH3 0x2A60 JUMP JUMPDEST DUP3 ADD SWAP2 SWAP1 PUSH1 0x0 MSTORE PUSH1 0x20 PUSH1 0x0 KECCAK256 SWAP1 JUMPDEST DUP2 SLOAD DUP2 MSTORE SWAP1 PUSH1 0x1 ADD SWAP1 PUSH1 0x20 ADD DUP1 DUP4 GT PUSH3 0x2A42 JUMPI DUP3 SWAP1 SUB PUSH1 0x1F AND DUP3 ADD SWAP2 JUMPDEST POP POP POP POP POP SWAP1 POP SWAP1 JUMP JUMPDEST PUSH1 0x1 PUSH1 0x1 PUSH1 0xA0 SHL SUB DUP4 AND PUSH3 0x2ACE JUMPI PUSH1 0x40 MLOAD PUSH3 0x461BCD PUSH1 0xE5 SHL DUP2 MSTORE PUSH1 0x20 PUSH1 0x4 DUP3 ADD MSTORE PUSH1 0x24 DUP1 DUP3 ADD MSTORE PUSH32 0x45524332303A20617070726F76652066726F6D20746865207A65726F20616464 PUSH1 0x44 DUP3 ADD MSTORE PUSH4 0x72657373 PUSH1 0xE0 SHL PUSH1 0x64 DUP3 ADD MSTORE PUSH1 0x84 ADD PUSH3 0x432 JUMP JUMPDEST PUSH1 0x1 PUSH1 0x1 PUSH1 0xA0 SHL SUB DUP3 AND PUSH3 0x2B31 JUMPI PUSH1 0x40 MLOAD PUSH3 0x461BCD PUSH1 0xE5 SHL DUP2 MSTORE PUSH1 0x20 PUSH1 0x4 DUP3 ADD MSTORE PUSH1 0x22 PUSH1 0x24 DUP3 ADD MSTORE PUSH32 0x45524332303A20617070726F766520746F20746865207A65726F206164647265 PUSH1 0x44 DUP3 ADD MSTORE PUSH2 0x7373 PUSH1 0xF0 SHL PUSH1 0x64 DUP3 ADD MSTORE PUSH1 0x84 ADD PUSH3 0x432 JUMP JUMPDEST PUSH1 0x1 PUSH1 0x1 PUSH1 0xA0 SHL SUB DUP4 DUP2 AND PUSH1 0x0 DUP2 DUP2 MSTORE PUSH1 0x1 PUSH1 0x20 SWAP1 DUP2 MSTORE PUSH1 0x40 DUP1 DUP4 KECCAK256 SWAP5 DUP8 AND DUP1 DUP5 MSTORE SWAP5 DUP3 MSTORE SWAP2 DUP3 SWAP1 KECCAK256 DUP6 SWAP1 SSTORE SWAP1 MLOAD DUP5 DUP2 MSTORE PUSH32 0x8C5BE1E5EBEC7D5BD14F71427D1E84F3DD0314C0F7B2291E5B200AC8C7C3B925 SWAP2 ADD PUSH1 0x40 MLOAD DUP1 SWAP2 SUB SWAP1 LOG3 POP POP POP JUMP JUMPDEST PUSH3 0x2B9C PUSH3 0x2E01 JUMP JUMPDEST PUSH1 0x7 SLOAD PUSH1 0x2 SUB PUSH3 0x2BE6 JUMPI PUSH1 0x40 MLOAD PUSH3 0x461BCD PUSH1 0xE5 SHL DUP2 MSTORE PUSH1 0x20 PUSH1 0x4 DUP3 ADD MSTORE PUSH1 0x13 PUSH1 0x24 DUP3 ADD MSTORE PUSH19 0x1499595B9D1C985B98DE4819195D1958DD1959 PUSH1 0x6A SHL PUSH1 0x44 DUP3 ADD MSTORE PUSH1 0x64 ADD PUSH3 0x432 JUMP JUMPDEST PUSH1 0x0 PUSH3 0x2BFB PUSH1 0x64 PUSH3 0x1867 DUP5 PUSH1 0x1 PUSH3 0x2EB4 JUMP JUMPDEST SWAP1 POP PUSH1 0x0 PUSH3 0x2C0B DUP4 DUP4 PUSH3 0x3054 JUMP JUMPDEST PUSH1 0x9 SLOAD SWAP1 SWAP2 POP PUSH3 0x2C28 SWAP1 DUP7 SWAP1 PUSH1 0x1 PUSH1 0x1 PUSH1 0xA0 SHL SUB AND DUP5 PUSH3 0x3062 JUMP JUMPDEST PUSH3 0x2C35 DUP6 DUP6 DUP4 PUSH3 0x3062 JUMP JUMPDEST POP POP POP POP POP JUMP JUMPDEST PUSH1 0x0 PUSH3 0x2C4A DUP5 DUP5 PUSH3 0x282B JUMP JUMPDEST SWAP1 POP PUSH1 0x0 NOT DUP2 EQ PUSH3 0x2CB7 JUMPI DUP2 DUP2 LT ISZERO PUSH3 0x2CA8 JUMPI PUSH1 0x40 MLOAD PUSH3 0x461BCD PUSH1 0xE5 SHL DUP2 MSTORE PUSH1 0x20 PUSH1 0x4 DUP3 ADD MSTORE PUSH1 0x1D PUSH1 0x24 DUP3 ADD MSTORE PUSH32 0x45524332303A20696E73756666696369656E7420616C6C6F77616E6365000000 PUSH1 0x44 DUP3 ADD MSTORE PUSH1 0x64 ADD PUSH3 0x432 JUMP JUMPDEST PUSH3 0x2CB7 DUP5 DUP5 DUP5 DUP5 SUB PUSH3 0x2A6A JUMP JUMPDEST POP POP POP POP JUMP JUMPDEST PUSH3 0x2CC9 DUP3 DUP3 PUSH3 0x1FF6 JUMP JUMPDEST PUSH3 0x13D9 JUMPI PUSH1 0x0 DUP3 DUP2 MSTORE PUSH1 0x5 PUSH1 0x20 SWAP1 DUP2 MSTORE PUSH1 0x40 DUP1 DUP4 KECCAK256 PUSH1 0x1 PUSH1 0x1 PUSH1 0xA0 SHL SUB DUP6 AND DUP5 MSTORE SWAP1 SWAP2 MSTORE SWAP1 KECCAK256 DUP1 SLOAD PUSH1 0xFF NOT AND PUSH1 0x1 OR SWAP1 SSTORE PUSH3 0x2D03 CALLER SWAP1 JUMP JUMPDEST PUSH1 0x1 PUSH1 0x1 PUSH1 0xA0 SHL SUB AND DUP2 PUSH1 0x1 PUSH1 0x1 PUSH1 0xA0 SHL SUB AND DUP4 PUSH32 0x2F8788117E7EFF1D82E926EC794901D17C78024A50270940304540A733656F0D PUSH1 0x40 MLOAD PUSH1 0x40 MLOAD DUP1 SWAP2 SUB SWAP1 LOG4 POP POP JUMP JUMPDEST PUSH3 0x2D53 DUP3 DUP3 PUSH3 0x1FF6 JUMP JUMPDEST ISZERO PUSH3 0x13D9 JUMPI PUSH1 0x0 DUP3 DUP2 MSTORE PUSH1 0x5 PUSH1 0x20 SWAP1 DUP2 MSTORE PUSH1 0x40 DUP1 DUP4 KECCAK256 PUSH1 0x1 PUSH1 0x1 PUSH1 0xA0 SHL SUB DUP6 AND DUP1 DUP6 MSTORE SWAP3 MSTORE DUP1 DUP4 KECCAK256 DUP1 SLOAD PUSH1 0xFF NOT AND SWAP1 SSTORE MLOAD CALLER SWAP3 DUP6 SWAP2 PUSH32 0xF6391F5C32D9C69D2A47EA670B442974B53935D1EDC7FD64EB21E047A839171B SWAP2 SWAP1 LOG4 POP POP JUMP JUMPDEST PUSH3 0x2DBB PUSH3 0x320D JUMP JUMPDEST PUSH1 0x6 DUP1 SLOAD PUSH1 0xFF NOT AND SWAP1 SSTORE PUSH32 0x5DB9EE0A495BF2E6FF9C91A7834C1BA4FDD244A5E8AA4E537BD38AEAE4B073AA CALLER JUMPDEST PUSH1 0x40 MLOAD PUSH3 0x2DF7 SWAP2 SWAP1 PUSH3 0x345F JUMP JUMPDEST PUSH1 0x40 MLOAD DUP1 SWAP2 SUB SWAP1 LOG1 JUMP JUMPDEST PUSH1 0x6 SLOAD PUSH1 0xFF AND ISZERO PUSH3 0x2E49 JUMPI PUSH1 0x40 MLOAD PUSH3 0x461BCD PUSH1 0xE5 SHL DUP2 MSTORE PUSH1 0x20 PUSH1 0x4 DUP3 ADD MSTORE PUSH1 0x10 PUSH1 0x24 DUP3 ADD MSTORE PUSH16 0x14185D5CD8589B194E881C185D5CD959 PUSH1 0x82 SHL PUSH1 0x44 DUP3 ADD MSTORE PUSH1 0x64 ADD PUSH3 0x432 JUMP JUMPDEST JUMP JUMPDEST PUSH1 0x2 PUSH1 0x7 SLOAD SUB PUSH3 0x2E9F JUMPI PUSH1 0x40 MLOAD PUSH3 0x461BCD PUSH1 0xE5 SHL DUP2 MSTORE PUSH1 0x20 PUSH1 0x4 DUP3 ADD MSTORE PUSH1 0x1F PUSH1 0x24 DUP3 ADD MSTORE PUSH32 0x5265656E7472616E637947756172643A207265656E7472616E742063616C6C00 PUSH1 0x44 DUP3 ADD MSTORE PUSH1 0x64 ADD PUSH3 0x432 JUMP JUMPDEST PUSH1 0x2 PUSH1 0x7 SSTORE JUMP JUMPDEST PUSH1 0x0 PUSH3 0x2214 DUP3 DUP5 PUSH3 0x37E3 JUMP JUMPDEST PUSH1 0x0 PUSH3 0x2214 DUP3 DUP5 PUSH3 0x3AC8 JUMP JUMPDEST PUSH1 0x1 PUSH1 0x1 PUSH1 0xA0 SHL SUB DUP3 AND PUSH3 0x2F1A JUMPI PUSH1 0x40 MLOAD PUSH3 0x461BCD PUSH1 0xE5 SHL DUP2 MSTORE PUSH1 0x20 PUSH1 0x4 DUP3 ADD MSTORE PUSH1 0x1F PUSH1 0x24 DUP3 ADD MSTORE PUSH32 0x45524332303A206D696E7420746F20746865207A65726F206164647265737300 PUSH1 0x44 DUP3 ADD MSTORE PUSH1 0x64 ADD PUSH3 0x432 JUMP JUMPDEST DUP1 PUSH1 0x2 PUSH1 0x0 DUP3 DUP3 SLOAD PUSH3 0x2F2E SWAP2 SWAP1 PUSH3 0x37E3 JUMP JUMPDEST SWAP1 SWAP2 SSTORE POP POP PUSH1 0x1 PUSH1 0x1 PUSH1 0xA0 SHL SUB DUP3 AND PUSH1 0x0 DUP2 DUP2 MSTORE PUSH1 0x20 DUP2 DUP2 MSTORE PUSH1 0x40 DUP1 DUP4 KECCAK256 DUP1 SLOAD DUP7 ADD SWAP1 SSTORE MLOAD DUP5 DUP2 MSTORE PUSH32 0xDDF252AD1BE2C89B69C2B068FC378DAA952BA7F163C4A11628F55A4DF523B3EF SWAP2 ADD PUSH1 0x40 MLOAD DUP1 SWAP2 SUB SWAP1 LOG3 POP POP JUMP JUMPDEST PUSH1 0x0 PUSH3 0x2214 DUP3 DUP5 PUSH3 0x3AE2 JUMP JUMPDEST PUSH3 0x2F9D PUSH3 0x2E01 JUMP JUMPDEST PUSH1 0x6 DUP1 SLOAD PUSH1 0xFF NOT AND PUSH1 0x1 OR SWAP1 SSTORE PUSH32 0x62E78CEA01BEE320CD4E420270B5EA74000D11B0C9F74754EBDBFC544B05A258 PUSH3 0x2DE8 CALLER SWAP1 JUMP JUMPDEST PUSH1 0x60 PUSH1 0x4 DUP1 SLOAD PUSH3 0x29E1 SWAP1 PUSH3 0x3A8C JUMP JUMPDEST PUSH3 0x13D9 DUP3 DUP3 PUSH3 0x2CBD JUMP JUMPDEST PUSH3 0x2FFC DUP3 DUP3 PUSH3 0x1FF6 JUMP JUMPDEST PUSH3 0x13D9 JUMPI PUSH3 0x300C DUP2 PUSH3 0x3258 JUMP JUMPDEST PUSH3 0x3019 DUP4 PUSH1 0x20 PUSH3 0x326B JUMP JUMPDEST PUSH1 0x40 MLOAD PUSH1 0x20 ADD PUSH3 0x302C SWAP3 SWAP2 SWAP1 PUSH3 0x3B05 JUMP JUMPDEST PUSH1 0x40 DUP1 MLOAD PUSH1 0x1F NOT DUP2 DUP5 SUB ADD DUP2 MSTORE SWAP1 DUP3 SWAP1 MSTORE PUSH3 0x461BCD PUSH1 0xE5 SHL DUP3 MSTORE PUSH3 0x432 SWAP2 PUSH1 0x4 ADD PUSH3 0x34EA JUMP JUMPDEST PUSH1 0x0 PUSH3 0x2214 DUP3 DUP5 PUSH3 0x3B78 JUMP JUMPDEST PUSH1 0x1 PUSH1 0x1 PUSH1 0xA0 SHL SUB DUP4 AND PUSH3 0x30C8 JUMPI PUSH1 0x40 MLOAD PUSH3 0x461BCD PUSH1 0xE5 SHL DUP2 MSTORE PUSH1 0x20 PUSH1 0x4 DUP3 ADD MSTORE PUSH1 0x25 PUSH1 0x24 DUP3 ADD MSTORE PUSH32 0x45524332303A207472616E736665722066726F6D20746865207A65726F206164 PUSH1 0x44 DUP3 ADD MSTORE PUSH5 0x6472657373 PUSH1 0xD8 SHL PUSH1 0x64 DUP3 ADD MSTORE PUSH1 0x84 ADD PUSH3 0x432 JUMP JUMPDEST PUSH1 0x1 PUSH1 0x1 PUSH1 0xA0 SHL SUB DUP3 AND PUSH3 0x312C JUMPI PUSH1 0x40 MLOAD PUSH3 0x461BCD PUSH1 0xE5 SHL DUP2 MSTORE PUSH1 0x20 PUSH1 0x4 DUP3 ADD MSTORE PUSH1 0x23 PUSH1 0x24 DUP3 ADD MSTORE PUSH32 0x45524332303A207472616E7366657220746F20746865207A65726F2061646472 PUSH1 0x44 DUP3 ADD MSTORE PUSH3 0x657373 PUSH1 0xE8 SHL PUSH1 0x64 DUP3 ADD MSTORE PUSH1 0x84 ADD PUSH3 0x432 JUMP JUMPDEST PUSH1 0x1 PUSH1 0x1 PUSH1 0xA0 SHL SUB DUP4 AND PUSH1 0x0 SWAP1 DUP2 MSTORE PUSH1 0x20 DUP2 SWAP1 MSTORE PUSH1 0x40 SWAP1 KECCAK256 SLOAD DUP2 DUP2 LT ISZERO PUSH3 0x31A6 JUMPI PUSH1 0x40 MLOAD PUSH3 0x461BCD PUSH1 0xE5 SHL DUP2 MSTORE PUSH1 0x20 PUSH1 0x4 DUP3 ADD MSTORE PUSH1 0x26 PUSH1 0x24 DUP3 ADD MSTORE PUSH32 0x45524332303A207472616E7366657220616D6F756E7420657863656564732062 PUSH1 0x44 DUP3 ADD MSTORE PUSH6 0x616C616E6365 PUSH1 0xD0 SHL PUSH1 0x64 DUP3 ADD MSTORE PUSH1 0x84 ADD PUSH3 0x432 JUMP JUMPDEST PUSH1 0x1 PUSH1 0x1 PUSH1 0xA0 SHL SUB DUP5 DUP2 AND PUSH1 0x0 DUP2 DUP2 MSTORE PUSH1 0x20 DUP2 DUP2 MSTORE PUSH1 0x40 DUP1 DUP4 KECCAK256 DUP8 DUP8 SUB SWAP1 SSTORE SWAP4 DUP8 AND DUP1 DUP4 MSTORE SWAP2 DUP5 SWAP1 KECCAK256 DUP1 SLOAD DUP8 ADD SWAP1 SSTORE SWAP3 MLOAD DUP6 DUP2 MSTORE SWAP1 SWAP3 PUSH32 0xDDF252AD1BE2C89B69C2B068FC378DAA952BA7F163C4A11628F55A4DF523B3EF SWAP2 ADD PUSH1 0x40 MLOAD DUP1 SWAP2 SUB SWAP1 LOG3 PUSH3 0x2CB7 JUMP JUMPDEST PUSH1 0x6 SLOAD PUSH1 0xFF AND PUSH3 0x2E49 JUMPI PUSH1 0x40 MLOAD PUSH3 0x461BCD PUSH1 0xE5 SHL DUP2 MSTORE PUSH1 0x20 PUSH1 0x4 DUP3 ADD MSTORE PUSH1 0x14 PUSH1 0x24 DUP3 ADD MSTORE PUSH20 0x14185D5CD8589B194E881B9BDD081C185D5CD959 PUSH1 0x62 SHL PUSH1 0x44 DUP3 ADD MSTORE PUSH1 0x64 ADD PUSH3 0x432 JUMP JUMPDEST PUSH1 0x60 PUSH3 0xE2F PUSH1 0x1 PUSH1 0x1 PUSH1 0xA0 SHL SUB DUP4 AND PUSH1 0x14 JUMPDEST PUSH1 0x60 PUSH1 0x0 PUSH3 0x327C DUP4 PUSH1 0x2 PUSH3 0x3AC8 JUMP JUMPDEST PUSH3 0x3289 SWAP1 PUSH1 0x2 PUSH3 0x37E3 JUMP JUMPDEST PUSH8 0xFFFFFFFFFFFFFFFF DUP2 GT ISZERO PUSH3 0x32A4 JUMPI PUSH3 0x32A4 PUSH3 0x39D1 JUMP JUMPDEST PUSH1 0x40 MLOAD SWAP1 DUP1 DUP3 MSTORE DUP1 PUSH1 0x1F ADD PUSH1 0x1F NOT AND PUSH1 0x20 ADD DUP3 ADD PUSH1 0x40 MSTORE DUP1 ISZERO PUSH3 0x32CF JUMPI PUSH1 0x20 DUP3 ADD DUP2 DUP1 CALLDATASIZE DUP4 CALLDATACOPY ADD SWAP1 POP JUMPDEST POP SWAP1 POP PUSH1 0x3 PUSH1 0xFC SHL DUP2 PUSH1 0x0 DUP2 MLOAD DUP2 LT PUSH3 0x32ED JUMPI PUSH3 0x32ED PUSH3 0x39E7 JUMP JUMPDEST PUSH1 0x20 ADD ADD SWAP1 PUSH1 0x1 PUSH1 0x1 PUSH1 0xF8 SHL SUB NOT AND SWAP1 DUP2 PUSH1 0x0 BYTE SWAP1 MSTORE8 POP PUSH1 0xF PUSH1 0xFB SHL DUP2 PUSH1 0x1 DUP2 MLOAD DUP2 LT PUSH3 0x331F JUMPI PUSH3 0x331F PUSH3 0x39E7 JUMP JUMPDEST PUSH1 0x20 ADD ADD SWAP1 PUSH1 0x1 PUSH1 0x1 PUSH1 0xF8 SHL SUB NOT AND SWAP1 DUP2 PUSH1 0x0 BYTE SWAP1 MSTORE8 POP PUSH1 0x0 PUSH3 0x3345 DUP5 PUSH1 0x2 PUSH3 0x3AC8 JUMP JUMPDEST PUSH3 0x3352 SWAP1 PUSH1 0x1 PUSH3 0x37E3 JUMP JUMPDEST SWAP1 POP JUMPDEST PUSH1 0x1 DUP2 GT ISZERO PUSH3 0x33D4 JUMPI PUSH16 0x181899199A1A9B1B9C1CB0B131B232B3 PUSH1 0x81 SHL DUP6 PUSH1 0xF AND PUSH1 0x10 DUP2 LT PUSH3 0x338A JUMPI PUSH3 0x338A PUSH3 0x39E7 JUMP JUMPDEST BYTE PUSH1 0xF8 SHL DUP3 DUP3 DUP2 MLOAD DUP2 LT PUSH3 0x33A3 JUMPI PUSH3 0x33A3 PUSH3 0x39E7 JUMP JUMPDEST PUSH1 0x20 ADD ADD SWAP1 PUSH1 0x1 PUSH1 0x1 PUSH1 0xF8 SHL SUB NOT AND SWAP1 DUP2 PUSH1 0x0 BYTE SWAP1 MSTORE8 POP PUSH1 0x4 SWAP5 SWAP1 SWAP5 SHR SWAP4 PUSH3 0x33CC DUP2 PUSH3 0x3B8E JUMP JUMPDEST SWAP1 POP PUSH3 0x3355 JUMP JUMPDEST POP DUP4 ISZERO PUSH3 0x2214 JUMPI PUSH1 0x40 MLOAD PUSH3 0x461BCD PUSH1 0xE5 SHL DUP2 MSTORE PUSH1 0x20 PUSH1 0x4 DUP3 ADD DUP2 SWAP1 MSTORE PUSH1 0x24 DUP3 ADD MSTORE PUSH32 0x537472696E67733A20686578206C656E67746820696E73756666696369656E74 PUSH1 0x44 DUP3 ADD MSTORE PUSH1 0x64 ADD PUSH3 0x432 JUMP JUMPDEST PUSH2 0x22F0 DUP1 PUSH3 0x3BA9 DUP4 CODECOPY ADD SWAP1 JUMP JUMPDEST PUSH1 0x0 PUSH1 0x20 DUP3 DUP5 SUB SLT ISZERO PUSH3 0x3446 JUMPI PUSH1 0x0 DUP1 REVERT JUMPDEST DUP2 CALLDATALOAD PUSH1 0x1 PUSH1 0x1 PUSH1 0xE0 SHL SUB NOT DUP2 AND DUP2 EQ PUSH3 0x2214 JUMPI PUSH1 0x0 DUP1 REVERT JUMPDEST PUSH1 0x1 PUSH1 0x1 PUSH1 0xA0 SHL SUB SWAP2 SWAP1 SWAP2 AND DUP2 MSTORE PUSH1 0x20 ADD SWAP1 JUMP JUMPDEST PUSH1 0x0 DUP1 PUSH1 0x40 DUP4 DUP6 SUB SLT ISZERO PUSH3 0x3487 JUMPI PUSH1 0x0 DUP1 REVERT JUMPDEST POP POP DUP1 CALLDATALOAD SWAP3 PUSH1 0x20 SWAP1 SWAP2 ADD CALLDATALOAD SWAP2 POP JUMP JUMPDEST PUSH1 0x0 JUMPDEST DUP4 DUP2 LT ISZERO PUSH3 0x34B3 JUMPI DUP2 DUP2 ADD MLOAD DUP4 DUP3 ADD MSTORE PUSH1 0x20 ADD PUSH3 0x3499 JUMP JUMPDEST POP POP PUSH1 0x0 SWAP2 ADD MSTORE JUMP JUMPDEST PUSH1 0x0 DUP2 MLOAD DUP1 DUP5 MSTORE PUSH3 0x34D6 DUP2 PUSH1 0x20 DUP7 ADD PUSH1 0x20 DUP7 ADD PUSH3 0x3496 JUMP JUMPDEST PUSH1 0x1F ADD PUSH1 0x1F NOT AND SWAP3 SWAP1 SWAP3 ADD PUSH1 0x20 ADD SWAP3 SWAP2 POP POP JUMP JUMPDEST PUSH1 0x20 DUP2 MSTORE PUSH1 0x0 PUSH3 0x2214 PUSH1 0x20 DUP4 ADD DUP5 PUSH3 0x34BC JUMP JUMPDEST DUP1 CALLDATALOAD PUSH1 0x1 PUSH1 0x1 PUSH1 0xA0 SHL SUB DUP2 AND DUP2 EQ PUSH3 0x3517 JUMPI PUSH1 0x0 DUP1 REVERT JUMPDEST SWAP2 SWAP1 POP JUMP JUMPDEST PUSH1 0x0 DUP1 PUSH1 0x40 DUP4 DUP6 SUB SLT ISZERO PUSH3 0x3530 JUMPI PUSH1 0x0 DUP1 REVERT JUMPDEST PUSH3 0x353B DUP4 PUSH3 0x34FF JUMP JUMPDEST SWAP5 PUSH1 0x20 SWAP4 SWAP1 SWAP4 ADD CALLDATALOAD SWAP4 POP POP POP JUMP JUMPDEST PUSH1 0x0 DUP1 PUSH1 0x0 PUSH1 0x60 DUP5 DUP7 SUB SLT ISZERO PUSH3 0x355F JUMPI PUSH1 0x0 DUP1 REVERT JUMPDEST PUSH3 0x356A DUP5 PUSH3 0x34FF JUMP JUMPDEST SWAP3 POP PUSH3 0x357A PUSH1 0x20 DUP6 ADD PUSH3 0x34FF JUMP JUMPDEST SWAP2 POP PUSH1 0x40 DUP5 ADD CALLDATALOAD SWAP1 POP SWAP3 POP SWAP3 POP SWAP3 JUMP JUMPDEST PUSH1 0x0 PUSH1 0x20 DUP3 DUP5 SUB SLT ISZERO PUSH3 0x359D JUMPI PUSH1 0x0 DUP1 REVERT JUMPDEST POP CALLDATALOAD SWAP2 SWAP1 POP JUMP JUMPDEST PUSH1 0x0 DUP1 PUSH1 0x40 DUP4 DUP6 SUB SLT ISZERO PUSH3 0x35B8 JUMPI PUSH1 0x0 DUP1 REVERT JUMPDEST DUP3 CALLDATALOAD SWAP2 POP PUSH3 0x35CA PUSH1 0x20 DUP5 ADD PUSH3 0x34FF JUMP JUMPDEST SWAP1 POP SWAP3 POP SWAP3 SWAP1 POP JUMP JUMPDEST PUSH1 0x0 PUSH1 0x20 DUP3 DUP5 SUB SLT ISZERO PUSH3 0x35E6 JUMPI PUSH1 0x0 DUP1 REVERT JUMPDEST PUSH3 0x2214 DUP3 PUSH3 0x34FF JUMP JUMPDEST PUSH1 0x0 DUP1 PUSH1 0x0 DUP1 PUSH1 0x0 DUP1 PUSH1 0xC0 DUP8 DUP10 SUB SLT ISZERO PUSH3 0x360B JUMPI PUSH1 0x0 DUP1 REVERT JUMPDEST PUSH3 0x3616 DUP8 PUSH3 0x34FF JUMP JUMPDEST SWAP6 POP PUSH3 0x3626 PUSH1 0x20 DUP9 ADD PUSH3 0x34FF JUMP JUMPDEST SWAP5 POP PUSH3 0x3636 PUSH1 0x40 DUP9 ADD PUSH3 0x34FF JUMP JUMPDEST SWAP4 POP PUSH3 0x3646 PUSH1 0x60 DUP9 ADD PUSH3 0x34FF JUMP JUMPDEST SWAP3 POP PUSH3 0x3656 PUSH1 0x80 DUP9 ADD PUSH3 0x34FF JUMP JUMPDEST SWAP2 POP PUSH3 0x3666 PUSH1 0xA0 DUP9 ADD PUSH3 0x34FF JUMP JUMPDEST SWAP1 POP SWAP3 SWAP6 POP SWAP3 SWAP6 POP SWAP3 SWAP6 JUMP JUMPDEST PUSH1 0x0 DUP1 PUSH1 0x40 DUP4 DUP6 SUB SLT ISZERO PUSH3 0x3686 JUMPI PUSH1 0x0 DUP1 REVERT JUMPDEST PUSH3 0x3691 DUP4 PUSH3 0x34FF JUMP JUMPDEST SWAP2 POP PUSH3 0x35CA PUSH1 0x20 DUP5 ADD PUSH3 0x34FF JUMP JUMPDEST PUSH1 0x1 DUP1 PUSH1 0xA0 SHL SUB DUP7 AND DUP2 MSTORE DUP5 PUSH1 0x20 DUP3 ADD MSTORE PUSH1 0xA0 PUSH1 0x40 DUP3 ADD MSTORE PUSH1 0x0 PUSH3 0x36CA PUSH1 0xA0 DUP4 ADD DUP7 PUSH3 0x34BC JUMP JUMPDEST PUSH1 0x60 DUP4 ADD SWAP5 SWAP1 SWAP5 MSTORE POP PUSH1 0x80 ADD MSTORE SWAP4 SWAP3 POP POP POP JUMP JUMPDEST PUSH1 0x0 PUSH1 0x20 DUP3 DUP5 SUB SLT ISZERO PUSH3 0x36F1 JUMPI PUSH1 0x0 DUP1 REVERT JUMPDEST POP MLOAD SWAP2 SWAP1 POP JUMP JUMPDEST PUSH1 0x1 DUP1 PUSH1 0xA0 SHL SUB DUP8 AND DUP2 MSTORE DUP6 PUSH1 0x20 DUP3 ADD MSTORE PUSH1 0xC0 PUSH1 0x40 DUP3 ADD MSTORE PUSH1 0x0 PUSH3 0x3721 PUSH1 0xC0 DUP4 ADD DUP8 PUSH3 0x34BC JUMP JUMPDEST PUSH1 0x60 DUP4 ADD SWAP6 SWAP1 SWAP6 MSTORE POP PUSH1 0x80 DUP2 ADD SWAP3 SWAP1 SWAP3 MSTORE PUSH1 0xA0 SWAP1 SWAP2 ADD MSTORE SWAP4 SWAP3 POP POP POP JUMP JUMPDEST DUP5 DUP2 MSTORE PUSH1 0x80 PUSH1 0x20 DUP3 ADD MSTORE PUSH1 0x0 PUSH3 0x375A PUSH1 0x80 DUP4 ADD DUP7 PUSH3 0x34BC JUMP JUMPDEST PUSH1 0x40 DUP4 ADD SWAP5 SWAP1 SWAP5 MSTORE POP PUSH1 0x60 ADD MSTORE SWAP3 SWAP2 POP POP JUMP JUMPDEST PUSH1 0x20 DUP1 DUP3 MSTORE PUSH1 0x16 SWAP1 DUP3 ADD MSTORE PUSH22 0x1058D8DBDD5B9D081A5CC8189B1858DADB1A5CDD1959 PUSH1 0x52 SHL PUSH1 0x40 DUP3 ADD MSTORE PUSH1 0x60 ADD SWAP1 JUMP JUMPDEST PUSH1 0x20 DUP1 DUP3 MSTORE PUSH1 0x16 SWAP1 DUP3 ADD MSTORE PUSH22 0x436F6F6C646F776E206F7574206F6620626F756E6473 PUSH1 0x50 SHL PUSH1 0x40 DUP3 ADD MSTORE PUSH1 0x60 ADD SWAP1 JUMP JUMPDEST PUSH4 0x4E487B71 PUSH1 0xE0 SHL PUSH1 0x0 MSTORE PUSH1 0x11 PUSH1 0x4 MSTORE PUSH1 0x24 PUSH1 0x0 REVERT JUMPDEST DUP1 DUP3 ADD DUP1 DUP3 GT ISZERO PUSH3 0xE2F JUMPI PUSH3 0xE2F PUSH3 0x37CD JUMP JUMPDEST PUSH1 0x1 DUP2 DUP2 JUMPDEST DUP1 DUP6 GT ISZERO PUSH3 0x383A JUMPI DUP2 PUSH1 0x0 NOT DIV DUP3 GT ISZERO PUSH3 0x381E JUMPI PUSH3 0x381E PUSH3 0x37CD JUMP JUMPDEST DUP1 DUP6 AND ISZERO PUSH3 0x382C JUMPI SWAP2 DUP2 MUL SWAP2 JUMPDEST SWAP4 DUP5 SHR SWAP4 SWAP1 DUP1 MUL SWAP1 PUSH3 0x37FE JUMP JUMPDEST POP SWAP3 POP SWAP3 SWAP1 POP JUMP JUMPDEST PUSH1 0x0 DUP3 PUSH3 0x3853 JUMPI POP PUSH1 0x1 PUSH3 0xE2F JUMP JUMPDEST DUP2 PUSH3 0x3862 JUMPI POP PUSH1 0x0 PUSH3 0xE2F JUMP JUMPDEST DUP2 PUSH1 0x1 DUP2 EQ PUSH3 0x387B JUMPI PUSH1 0x2 DUP2 EQ PUSH3 0x3886 JUMPI PUSH3 0x38A6 JUMP JUMPDEST PUSH1 0x1 SWAP2 POP POP PUSH3 0xE2F JUMP JUMPDEST PUSH1 0xFF DUP5 GT ISZERO PUSH3 0x389A JUMPI PUSH3 0x389A PUSH3 0x37CD JUMP JUMPDEST POP POP PUSH1 0x1 DUP3 SHL PUSH3 0xE2F JUMP JUMPDEST POP PUSH1 0x20 DUP4 LT PUSH2 0x133 DUP4 LT AND PUSH1 0x4E DUP5 LT PUSH1 0xB DUP5 LT AND OR ISZERO PUSH3 0x38CB JUMPI POP DUP2 DUP2 EXP PUSH3 0xE2F JUMP JUMPDEST PUSH3 0x38D7 DUP4 DUP4 PUSH3 0x37F9 JUMP JUMPDEST DUP1 PUSH1 0x0 NOT DIV DUP3 GT ISZERO PUSH3 0x38EE JUMPI PUSH3 0x38EE PUSH3 0x37CD JUMP JUMPDEST MUL SWAP4 SWAP3 POP POP POP JUMP JUMPDEST PUSH1 0x0 PUSH3 0x2214 PUSH1 0xFF DUP5 AND DUP4 PUSH3 0x3842 JUMP JUMPDEST PUSH1 0x20 DUP1 DUP3 MSTORE PUSH1 0xF SWAP1 DUP3 ADD MSTORE PUSH15 0x496E76616C69642061646472657373 PUSH1 0x88 SHL PUSH1 0x40 DUP3 ADD MSTORE PUSH1 0x60 ADD SWAP1 JUMP JUMPDEST PUSH1 0x20 DUP1 DUP3 MSTORE PUSH1 0x17 SWAP1 DUP3 ADD MSTORE PUSH23 0x151C99585CDD5C9E481DD85B1B195D081B9BDD081CD95D PUSH1 0x4A SHL PUSH1 0x40 DUP3 ADD MSTORE PUSH1 0x60 ADD SWAP1 JUMP JUMPDEST DUP1 MLOAD PUSH10 0xFFFFFFFFFFFFFFFFFFFF DUP2 AND DUP2 EQ PUSH3 0x3517 JUMPI PUSH1 0x0 DUP1 REVERT JUMPDEST PUSH1 0x0 DUP1 PUSH1 0x0 DUP1 PUSH1 0x0 PUSH1 0xA0 DUP7 DUP9 SUB SLT ISZERO PUSH3 0x3995 JUMPI PUSH1 0x0 DUP1 REVERT JUMPDEST PUSH3 0x39A0 DUP7 PUSH3 0x3961 JUMP JUMPDEST SWAP5 POP PUSH1 0x20 DUP7 ADD MLOAD SWAP4 POP PUSH1 0x40 DUP7 ADD MLOAD SWAP3 POP PUSH1 0x60 DUP7 ADD MLOAD SWAP2 POP PUSH3 0x39C5 PUSH1 0x80 DUP8 ADD PUSH3 0x3961 JUMP JUMPDEST SWAP1 POP SWAP3 SWAP6 POP SWAP3 SWAP6 SWAP1 SWAP4 POP JUMP JUMPDEST PUSH4 0x4E487B71 PUSH1 0xE0 SHL PUSH1 0x0 MSTORE PUSH1 0x41 PUSH1 0x4 MSTORE PUSH1 0x24 PUSH1 0x0 REVERT JUMPDEST PUSH4 0x4E487B71 PUSH1 0xE0 SHL PUSH1 0x0 MSTORE PUSH1 0x32 PUSH1 0x4 MSTORE PUSH1 0x24 PUSH1 0x0 REVERT JUMPDEST PUSH1 0x0 DUP2 MLOAD DUP1 DUP5 MSTORE PUSH1 0x20 DUP1 DUP6 ADD SWAP5 POP DUP1 DUP5 ADD PUSH1 0x0 JUMPDEST DUP4 DUP2 LT ISZERO PUSH3 0x3A38 JUMPI DUP2 MLOAD PUSH1 0x1 PUSH1 0x1 PUSH1 0xA0 SHL SUB AND DUP8 MSTORE SWAP6 DUP3 ADD SWAP6 SWAP1 DUP3 ADD SWAP1 PUSH1 0x1 ADD PUSH3 0x3A11 JUMP JUMPDEST POP SWAP5 SWAP6 SWAP5 POP POP POP POP POP JUMP JUMPDEST DUP5 DUP2 MSTORE PUSH1 0x80 PUSH1 0x20 DUP3 ADD MSTORE PUSH1 0x0 PUSH3 0x3A5E PUSH1 0x80 DUP4 ADD DUP7 PUSH3 0x39FD JUMP JUMPDEST DUP3 DUP2 SUB PUSH1 0x40 DUP5 ADD MSTORE PUSH3 0x3A72 DUP2 DUP7 PUSH3 0x39FD JUMP JUMPDEST SWAP2 POP POP PUSH1 0x1 DUP1 PUSH1 0xA0 SHL SUB DUP4 AND PUSH1 0x60 DUP4 ADD MSTORE SWAP6 SWAP5 POP POP POP POP POP JUMP JUMPDEST PUSH1 0x1 DUP2 DUP2 SHR SWAP1 DUP3 AND DUP1 PUSH3 0x3AA1 JUMPI PUSH1 0x7F DUP3 AND SWAP2 POP JUMPDEST PUSH1 0x20 DUP3 LT DUP2 SUB PUSH3 0x3AC2 JUMPI PUSH4 0x4E487B71 PUSH1 0xE0 SHL PUSH1 0x0 MSTORE PUSH1 0x22 PUSH1 0x4 MSTORE PUSH1 0x24 PUSH1 0x0 REVERT JUMPDEST POP SWAP2 SWAP1 POP JUMP JUMPDEST DUP1 DUP3 MUL DUP2 ISZERO DUP3 DUP3 DIV DUP5 EQ OR PUSH3 0xE2F JUMPI PUSH3 0xE2F PUSH3 0x37CD JUMP JUMPDEST PUSH1 0x0 DUP3 PUSH3 0x3B00 JUMPI PUSH4 0x4E487B71 PUSH1 0xE0 SHL PUSH1 0x0 MSTORE PUSH1 0x12 PUSH1 0x4 MSTORE PUSH1 0x24 PUSH1 0x0 REVERT JUMPDEST POP DIV SWAP1 JUMP JUMPDEST PUSH23 0x20B1B1B2B9B9A1B7B73A3937B61D1030B1B1B7BAB73A1 PUSH1 0x4D SHL DUP2 MSTORE PUSH1 0x0 DUP4 MLOAD PUSH3 0x3B39 DUP2 PUSH1 0x17 DUP6 ADD PUSH1 0x20 DUP9 ADD PUSH3 0x3496 JUMP JUMPDEST PUSH17 0x1034B99036B4B9B9B4B733903937B6329 PUSH1 0x7D SHL PUSH1 0x17 SWAP2 DUP5 ADD SWAP2 DUP3 ADD MSTORE DUP4 MLOAD PUSH3 0x3B6C DUP2 PUSH1 0x28 DUP5 ADD PUSH1 0x20 DUP9 ADD PUSH3 0x3496 JUMP JUMPDEST ADD PUSH1 0x28 ADD SWAP5 SWAP4 POP POP POP POP JUMP JUMPDEST DUP2 DUP2 SUB DUP2 DUP2 GT ISZERO PUSH3 0xE2F JUMPI PUSH3 0xE2F PUSH3 0x37CD JUMP JUMPDEST PUSH1 0x0 DUP2 PUSH3 0x3BA0 JUMPI PUSH3 0x3BA0 PUSH3 0x37CD JUMP JUMPDEST POP PUSH1 0x0 NOT ADD SWAP1 JUMP INVALID PUSH1 0x80 PUSH1 0x40 MSTORE CALLVALUE DUP1 ISZERO PUSH3 0x11 JUMPI PUSH1 0x0 DUP1 REVERT JUMPDEST POP PUSH1 0x40 MLOAD PUSH3 0x22F0 CODESIZE SUB DUP1 PUSH3 0x22F0 DUP4 CODECOPY DUP2 ADD PUSH1 0x40 DUP2 SWAP1 MSTORE PUSH3 0x34 SWAP2 PUSH3 0x408 JUMP JUMPDEST PUSH3 0x4F PUSH1 0x0 DUP1 MLOAD PUSH1 0x20 PUSH3 0x2270 DUP4 CODECOPY DUP2 MLOAD SWAP2 MSTORE DUP1 PUSH3 0x22D JUMP JUMPDEST PUSH3 0x79 PUSH1 0x0 DUP1 MLOAD PUSH1 0x20 PUSH3 0x2290 DUP4 CODECOPY DUP2 MLOAD SWAP2 MSTORE PUSH1 0x0 DUP1 MLOAD PUSH1 0x20 PUSH3 0x2270 DUP4 CODECOPY DUP2 MLOAD SWAP2 MSTORE PUSH3 0x22D JUMP JUMPDEST PUSH3 0xA3 PUSH1 0x0 DUP1 MLOAD PUSH1 0x20 PUSH3 0x22B0 DUP4 CODECOPY DUP2 MLOAD SWAP2 MSTORE PUSH1 0x0 DUP1 MLOAD PUSH1 0x20 PUSH3 0x2270 DUP4 CODECOPY DUP2 MLOAD SWAP2 MSTORE PUSH3 0x22D JUMP JUMPDEST PUSH3 0xCD PUSH1 0x0 DUP1 MLOAD PUSH1 0x20 PUSH3 0x22D0 DUP4 CODECOPY DUP2 MLOAD SWAP2 MSTORE PUSH1 0x0 DUP1 MLOAD PUSH1 0x20 PUSH3 0x2270 DUP4 CODECOPY DUP2 MLOAD SWAP2 MSTORE PUSH3 0x22D JUMP JUMPDEST PUSH3 0xE8 PUSH1 0x0 DUP1 MLOAD PUSH1 0x20 PUSH3 0x2270 DUP4 CODECOPY DUP2 MLOAD SWAP2 MSTORE ADDRESS PUSH3 0x278 JUMP JUMPDEST PUSH1 0x1 PUSH1 0x1 PUSH1 0xA0 SHL SUB DUP2 AND ISZERO PUSH3 0x113 JUMPI PUSH3 0x113 PUSH1 0x0 DUP1 MLOAD PUSH1 0x20 PUSH3 0x2270 DUP4 CODECOPY DUP2 MLOAD SWAP2 MSTORE DUP3 PUSH3 0x278 JUMP JUMPDEST PUSH1 0x0 JUMPDEST DUP4 MLOAD DUP2 LT ISZERO PUSH3 0x199 JUMPI PUSH3 0x15D PUSH1 0x0 DUP1 MLOAD PUSH1 0x20 PUSH3 0x2290 DUP4 CODECOPY DUP2 MLOAD SWAP2 MSTORE DUP6 DUP4 DUP2 MLOAD DUP2 LT PUSH3 0x149 JUMPI PUSH3 0x149 PUSH3 0x48F JUMP JUMPDEST PUSH1 0x20 MUL PUSH1 0x20 ADD ADD MLOAD PUSH3 0x278 PUSH1 0x20 SHL PUSH1 0x20 SHR JUMP JUMPDEST PUSH3 0x186 PUSH1 0x0 DUP1 MLOAD PUSH1 0x20 PUSH3 0x22D0 DUP4 CODECOPY DUP2 MLOAD SWAP2 MSTORE DUP6 DUP4 DUP2 MLOAD DUP2 LT PUSH3 0x149 JUMPI PUSH3 0x149 PUSH3 0x48F JUMP JUMPDEST PUSH3 0x191 DUP2 PUSH3 0x4A5 JUMP JUMPDEST SWAP1 POP PUSH3 0x116 JUMP JUMPDEST POP PUSH1 0x0 JUMPDEST DUP3 MLOAD DUP2 LT ISZERO PUSH3 0x1E3 JUMPI PUSH3 0x1D0 PUSH1 0x0 DUP1 MLOAD PUSH1 0x20 PUSH3 0x22B0 DUP4 CODECOPY DUP2 MLOAD SWAP2 MSTORE DUP5 DUP4 DUP2 MLOAD DUP2 LT PUSH3 0x149 JUMPI PUSH3 0x149 PUSH3 0x48F JUMP JUMPDEST PUSH3 0x1DB DUP2 PUSH3 0x4A5 JUMP JUMPDEST SWAP1 POP PUSH3 0x19D JUMP JUMPDEST POP PUSH1 0x2 DUP5 SWAP1 SSTORE PUSH1 0x40 DUP1 MLOAD PUSH1 0x0 DUP2 MSTORE PUSH1 0x20 DUP2 ADD DUP7 SWAP1 MSTORE PUSH32 0x11C24F4EAD16507C69AC467FBD5E4EED5FB5C699626D2CC6D66421DF253886D5 SWAP2 ADD PUSH1 0x40 MLOAD DUP1 SWAP2 SUB SWAP1 LOG1 POP POP POP POP PUSH3 0x4CD JUMP JUMPDEST PUSH1 0x0 DUP3 DUP2 MSTORE PUSH1 0x20 DUP2 SWAP1 MSTORE PUSH1 0x40 DUP1 DUP3 KECCAK256 PUSH1 0x1 ADD DUP1 SLOAD SWAP1 DUP5 SWAP1 SSTORE SWAP1 MLOAD SWAP1 SWAP2 DUP4 SWAP2 DUP4 SWAP2 DUP7 SWAP2 PUSH32 0xBD79B86FFE0AB8E8776151514217CD7CACD52C909F66475C3AF44E129F0B00FF SWAP2 SWAP1 LOG4 POP POP POP JUMP JUMPDEST PUSH3 0x284 DUP3 DUP3 PUSH3 0x288 JUMP JUMPDEST POP POP JUMP JUMPDEST PUSH1 0x0 DUP3 DUP2 MSTORE PUSH1 0x20 DUP2 DUP2 MSTORE PUSH1 0x40 DUP1 DUP4 KECCAK256 PUSH1 0x1 PUSH1 0x1 PUSH1 0xA0 SHL SUB DUP6 AND DUP5 MSTORE SWAP1 SWAP2 MSTORE SWAP1 KECCAK256 SLOAD PUSH1 0xFF AND PUSH3 0x284 JUMPI PUSH1 0x0 DUP3 DUP2 MSTORE PUSH1 0x20 DUP2 DUP2 MSTORE PUSH1 0x40 DUP1 DUP4 KECCAK256 PUSH1 0x1 PUSH1 0x1 PUSH1 0xA0 SHL SUB DUP6 AND DUP5 MSTORE SWAP1 SWAP2 MSTORE SWAP1 KECCAK256 DUP1 SLOAD PUSH1 0xFF NOT AND PUSH1 0x1 OR SWAP1 SSTORE PUSH3 0x2E4 CALLER SWAP1 JUMP JUMPDEST PUSH1 0x1 PUSH1 0x1 PUSH1 0xA0 SHL SUB AND DUP2 PUSH1 0x1 PUSH1 0x1 PUSH1 0xA0 SHL SUB AND DUP4 PUSH32 0x2F8788117E7EFF1D82E926EC794901D17C78024A50270940304540A733656F0D PUSH1 0x40 MLOAD PUSH1 0x40 MLOAD DUP1 SWAP2 SUB SWAP1 LOG4 POP POP JUMP JUMPDEST PUSH4 0x4E487B71 PUSH1 0xE0 SHL PUSH1 0x0 MSTORE PUSH1 0x41 PUSH1 0x4 MSTORE PUSH1 0x24 PUSH1 0x0 REVERT JUMPDEST DUP1 MLOAD PUSH1 0x1 PUSH1 0x1 PUSH1 0xA0 SHL SUB DUP2 AND DUP2 EQ PUSH3 0x356 JUMPI PUSH1 0x0 DUP1 REVERT JUMPDEST SWAP2 SWAP1 POP JUMP JUMPDEST PUSH1 0x0 DUP3 PUSH1 0x1F DUP4 ADD SLT PUSH3 0x36D JUMPI PUSH1 0x0 DUP1 REVERT JUMPDEST DUP2 MLOAD PUSH1 0x20 PUSH1 0x1 PUSH1 0x1 PUSH1 0x40 SHL SUB DUP1 DUP4 GT ISZERO PUSH3 0x38C JUMPI PUSH3 0x38C PUSH3 0x328 JUMP JUMPDEST DUP3 PUSH1 0x5 SHL PUSH1 0x40 MLOAD PUSH1 0x1F NOT PUSH1 0x3F DUP4 ADD AND DUP2 ADD DUP2 DUP2 LT DUP5 DUP3 GT OR ISZERO PUSH3 0x3B4 JUMPI PUSH3 0x3B4 PUSH3 0x328 JUMP JUMPDEST PUSH1 0x40 MSTORE SWAP4 DUP5 MSTORE DUP6 DUP2 ADD DUP4 ADD SWAP4 DUP4 DUP2 ADD SWAP3 POP DUP8 DUP6 GT ISZERO PUSH3 0x3D3 JUMPI PUSH1 0x0 DUP1 REVERT JUMPDEST DUP4 DUP8 ADD SWAP2 POP JUMPDEST DUP5 DUP3 LT ISZERO PUSH3 0x3FD JUMPI PUSH3 0x3ED DUP3 PUSH3 0x33E JUMP JUMPDEST DUP4 MSTORE SWAP2 DUP4 ADD SWAP2 SWAP1 DUP4 ADD SWAP1 PUSH3 0x3D9 JUMP JUMPDEST SWAP8 SWAP7 POP POP POP POP POP POP POP JUMP JUMPDEST PUSH1 0x0 DUP1 PUSH1 0x0 DUP1 PUSH1 0x80 DUP6 DUP8 SUB SLT ISZERO PUSH3 0x41F JUMPI PUSH1 0x0 DUP1 REVERT JUMPDEST DUP5 MLOAD PUSH1 0x20 DUP7 ADD MLOAD SWAP1 SWAP5 POP PUSH1 0x1 PUSH1 0x1 PUSH1 0x40 SHL SUB DUP1 DUP3 GT ISZERO PUSH3 0x43F JUMPI PUSH1 0x0 DUP1 REVERT JUMPDEST PUSH3 0x44D DUP9 DUP4 DUP10 ADD PUSH3 0x35B JUMP JUMPDEST SWAP5 POP PUSH1 0x40 DUP8 ADD MLOAD SWAP2 POP DUP1 DUP3 GT ISZERO PUSH3 0x464 JUMPI PUSH1 0x0 DUP1 REVERT JUMPDEST POP PUSH3 0x473 DUP8 DUP3 DUP9 ADD PUSH3 0x35B JUMP JUMPDEST SWAP3 POP POP PUSH3 0x484 PUSH1 0x60 DUP7 ADD PUSH3 0x33E JUMP JUMPDEST SWAP1 POP SWAP3 SWAP6 SWAP2 SWAP5 POP SWAP3 POP JUMP JUMPDEST PUSH4 0x4E487B71 PUSH1 0xE0 SHL PUSH1 0x0 MSTORE PUSH1 0x32 PUSH1 0x4 MSTORE PUSH1 0x24 PUSH1 0x0 REVERT JUMPDEST PUSH1 0x0 PUSH1 0x1 DUP3 ADD PUSH3 0x4C6 JUMPI PUSH4 0x4E487B71 PUSH1 0xE0 SHL PUSH1 0x0 MSTORE PUSH1 0x11 PUSH1 0x4 MSTORE PUSH1 0x24 PUSH1 0x0 REVERT JUMPDEST POP PUSH1 0x1 ADD SWAP1 JUMP JUMPDEST PUSH2 0x1D93 DUP1 PUSH3 0x4DD PUSH1 0x0 CODECOPY PUSH1 0x0 RETURN INVALID PUSH1 0x80 PUSH1 0x40 MSTORE PUSH1 0x4 CALLDATASIZE LT PUSH2 0x15B JUMPI PUSH1 0x0 CALLDATALOAD PUSH1 0xE0 SHR DUP1 PUSH4 0x8065657F GT PUSH2 0xBC JUMPI DUP1 PUSH4 0x8065657F EQ PUSH2 0x39A JUMPI DUP1 PUSH4 0x8F2A0BB0 EQ PUSH2 0x3BA JUMPI DUP1 PUSH4 0x8F61F4F5 EQ PUSH2 0x3DA JUMPI DUP1 PUSH4 0x91D14854 EQ PUSH2 0x3FC JUMPI DUP1 PUSH4 0xA217FDDF EQ PUSH2 0x41C JUMPI DUP1 PUSH4 0xB08E51C0 EQ PUSH2 0x431 JUMPI DUP1 PUSH4 0xB1C5F427 EQ PUSH2 0x465 JUMPI DUP1 PUSH4 0xBC197C81 EQ PUSH2 0x485 JUMPI DUP1 PUSH4 0xC4D252F5 EQ PUSH2 0x4B1 JUMPI DUP1 PUSH4 0xD45C4435 EQ PUSH2 0x4D1 JUMPI DUP1 PUSH4 0xD547741F EQ PUSH2 0x4FE JUMPI DUP1 PUSH4 0xE38335E5 EQ PUSH2 0x51E JUMPI DUP1 PUSH4 0xF23A6E61 EQ PUSH2 0x531 JUMPI DUP1 PUSH4 0xF27A0C92 EQ PUSH2 0x55D JUMPI PUSH1 0x0 DUP1 REVERT JUMPDEST DUP1 PUSH4 0x1D5062A EQ PUSH2 0x167 JUMPI DUP1 PUSH4 0x1FFC9A7 EQ PUSH2 0x189 JUMPI DUP1 PUSH4 0x7BD0265 EQ PUSH2 0x1BE JUMPI DUP1 PUSH4 0xD3CF6FC EQ PUSH2 0x1EE JUMPI DUP1 PUSH4 0x134008D3 EQ PUSH2 0x222 JUMPI DUP1 PUSH4 0x13BC9F20 EQ PUSH2 0x235 JUMPI DUP1 PUSH4 0x150B7A02 EQ PUSH2 0x255 JUMPI DUP1 PUSH4 0x248A9CA3 EQ PUSH2 0x299 JUMPI DUP1 PUSH4 0x2AB0F529 EQ PUSH2 0x2C9 JUMPI DUP1 PUSH4 0x2F2FF15D EQ PUSH2 0x2FA JUMPI DUP1 PUSH4 0x31D50750 EQ PUSH2 0x31A JUMPI DUP1 PUSH4 0x36568ABE EQ PUSH2 0x33A JUMPI DUP1 PUSH4 0x584B153E EQ PUSH2 0x35A JUMPI DUP1 PUSH4 0x64D62353 EQ PUSH2 0x37A JUMPI PUSH1 0x0 DUP1 REVERT JUMPDEST CALLDATASIZE PUSH2 0x162 JUMPI STOP JUMPDEST PUSH1 0x0 DUP1 REVERT JUMPDEST CALLVALUE DUP1 ISZERO PUSH2 0x173 JUMPI PUSH1 0x0 DUP1 REVERT JUMPDEST POP PUSH2 0x187 PUSH2 0x182 CALLDATASIZE PUSH1 0x4 PUSH2 0x1376 JUMP JUMPDEST PUSH2 0x572 JUMP JUMPDEST STOP JUMPDEST CALLVALUE DUP1 ISZERO PUSH2 0x195 JUMPI PUSH1 0x0 DUP1 REVERT JUMPDEST POP PUSH2 0x1A9 PUSH2 0x1A4 CALLDATASIZE PUSH1 0x4 PUSH2 0x13EA JUMP JUMPDEST PUSH2 0x636 JUMP JUMPDEST PUSH1 0x40 MLOAD SWAP1 ISZERO ISZERO DUP2 MSTORE PUSH1 0x20 ADD JUMPDEST PUSH1 0x40 MLOAD DUP1 SWAP2 SUB SWAP1 RETURN JUMPDEST CALLVALUE DUP1 ISZERO PUSH2 0x1CA JUMPI PUSH1 0x0 DUP1 REVERT JUMPDEST POP PUSH2 0x1E0 PUSH1 0x0 DUP1 MLOAD PUSH1 0x20 PUSH2 0x1D3E DUP4 CODECOPY DUP2 MLOAD SWAP2 MSTORE DUP2 JUMP JUMPDEST PUSH1 0x40 MLOAD SWAP1 DUP2 MSTORE PUSH1 0x20 ADD PUSH2 0x1B5 JUMP JUMPDEST CALLVALUE DUP1 ISZERO PUSH2 0x1FA JUMPI PUSH1 0x0 DUP1 REVERT JUMPDEST POP PUSH2 0x1E0 PUSH32 0x5F58E3A2316349923CE3780F8D587DB2D72378AED66A8261C916544FA6846CA5 DUP2 JUMP JUMPDEST PUSH2 0x187 PUSH2 0x230 CALLDATASIZE PUSH1 0x4 PUSH2 0x1414 JUMP JUMPDEST PUSH2 0x661 JUMP JUMPDEST CALLVALUE DUP1 ISZERO PUSH2 0x241 JUMPI PUSH1 0x0 DUP1 REVERT JUMPDEST POP PUSH2 0x1A9 PUSH2 0x250 CALLDATASIZE PUSH1 0x4 PUSH2 0x147F JUMP JUMPDEST PUSH2 0x704 JUMP JUMPDEST CALLVALUE DUP1 ISZERO PUSH2 0x261 JUMPI PUSH1 0x0 DUP1 REVERT JUMPDEST POP PUSH2 0x280 PUSH2 0x270 CALLDATASIZE PUSH1 0x4 PUSH2 0x154D JUMP JUMPDEST PUSH4 0xA85BD01 PUSH1 0xE1 SHL SWAP5 SWAP4 POP POP POP POP JUMP JUMPDEST PUSH1 0x40 MLOAD PUSH1 0x1 PUSH1 0x1 PUSH1 0xE0 SHL SUB NOT SWAP1 SWAP2 AND DUP2 MSTORE PUSH1 0x20 ADD PUSH2 0x1B5 JUMP JUMPDEST CALLVALUE DUP1 ISZERO PUSH2 0x2A5 JUMPI PUSH1 0x0 DUP1 REVERT JUMPDEST POP PUSH2 0x1E0 PUSH2 0x2B4 CALLDATASIZE PUSH1 0x4 PUSH2 0x147F JUMP JUMPDEST PUSH1 0x0 SWAP1 DUP2 MSTORE PUSH1 0x20 DUP2 SWAP1 MSTORE PUSH1 0x40 SWAP1 KECCAK256 PUSH1 0x1 ADD SLOAD SWAP1 JUMP JUMPDEST CALLVALUE DUP1 ISZERO PUSH2 0x2D5 JUMPI PUSH1 0x0 DUP1 REVERT JUMPDEST POP PUSH2 0x1A9 PUSH2 0x2E4 CALLDATASIZE PUSH1 0x4 PUSH2 0x147F JUMP JUMPDEST PUSH1 0x0 SWAP1 DUP2 MSTORE PUSH1 0x1 PUSH1 0x20 DUP2 SWAP1 MSTORE PUSH1 0x40 SWAP1 SWAP2 KECCAK256 SLOAD EQ SWAP1 JUMP JUMPDEST CALLVALUE DUP1 ISZERO PUSH2 0x306 JUMPI PUSH1 0x0 DUP1 REVERT JUMPDEST POP PUSH2 0x187 PUSH2 0x315 CALLDATASIZE PUSH1 0x4 PUSH2 0x15B4 JUMP JUMPDEST PUSH2 0x72A JUMP JUMPDEST CALLVALUE DUP1 ISZERO PUSH2 0x326 JUMPI PUSH1 0x0 DUP1 REVERT JUMPDEST POP PUSH2 0x1A9 PUSH2 0x335 CALLDATASIZE PUSH1 0x4 PUSH2 0x147F JUMP JUMPDEST PUSH2 0x754 JUMP JUMPDEST CALLVALUE DUP1 ISZERO PUSH2 0x346 JUMPI PUSH1 0x0 DUP1 REVERT JUMPDEST POP PUSH2 0x187 PUSH2 0x355 CALLDATASIZE PUSH1 0x4 PUSH2 0x15B4 JUMP JUMPDEST PUSH2 0x76D JUMP JUMPDEST CALLVALUE DUP1 ISZERO PUSH2 0x366 JUMPI PUSH1 0x0 DUP1 REVERT JUMPDEST POP PUSH2 0x1A9 PUSH2 0x375 CALLDATASIZE PUSH1 0x4 PUSH2 0x147F JUMP JUMPDEST PUSH2 0x7F0 JUMP JUMPDEST CALLVALUE DUP1 ISZERO PUSH2 0x386 JUMPI PUSH1 0x0 DUP1 REVERT JUMPDEST POP PUSH2 0x187 PUSH2 0x395 CALLDATASIZE PUSH1 0x4 PUSH2 0x147F JUMP JUMPDEST PUSH2 0x806 JUMP JUMPDEST CALLVALUE DUP1 ISZERO PUSH2 0x3A6 JUMPI PUSH1 0x0 DUP1 REVERT JUMPDEST POP PUSH2 0x1E0 PUSH2 0x3B5 CALLDATASIZE PUSH1 0x4 PUSH2 0x1414 JUMP JUMPDEST PUSH2 0x8AA JUMP JUMPDEST CALLVALUE DUP1 ISZERO PUSH2 0x3C6 JUMPI PUSH1 0x0 DUP1 REVERT JUMPDEST POP PUSH2 0x187 PUSH2 0x3D5 CALLDATASIZE PUSH1 0x4 PUSH2 0x1624 JUMP JUMPDEST PUSH2 0x8E9 JUMP JUMPDEST CALLVALUE DUP1 ISZERO PUSH2 0x3E6 JUMPI PUSH1 0x0 DUP1 REVERT JUMPDEST POP PUSH2 0x1E0 PUSH1 0x0 DUP1 MLOAD PUSH1 0x20 PUSH2 0x1D1E DUP4 CODECOPY DUP2 MLOAD SWAP2 MSTORE DUP2 JUMP JUMPDEST CALLVALUE DUP1 ISZERO PUSH2 0x408 JUMPI PUSH1 0x0 DUP1 REVERT JUMPDEST POP PUSH2 0x1A9 PUSH2 0x417 CALLDATASIZE PUSH1 0x4 PUSH2 0x15B4 JUMP JUMPDEST PUSH2 0xA6A JUMP JUMPDEST CALLVALUE DUP1 ISZERO PUSH2 0x428 JUMPI PUSH1 0x0 DUP1 REVERT JUMPDEST POP PUSH2 0x1E0 PUSH1 0x0 DUP2 JUMP JUMPDEST CALLVALUE DUP1 ISZERO PUSH2 0x43D JUMPI PUSH1 0x0 DUP1 REVERT JUMPDEST POP PUSH2 0x1E0 PUSH32 0xFD643C72710C63C0180259ABA6B2D05451E3591A24E58B62239378085726F783 DUP2 JUMP JUMPDEST CALLVALUE DUP1 ISZERO PUSH2 0x471 JUMPI PUSH1 0x0 DUP1 REVERT JUMPDEST POP PUSH2 0x1E0 PUSH2 0x480 CALLDATASIZE PUSH1 0x4 PUSH2 0x16D5 JUMP JUMPDEST PUSH2 0xA93 JUMP JUMPDEST CALLVALUE DUP1 ISZERO PUSH2 0x491 JUMPI PUSH1 0x0 DUP1 REVERT JUMPDEST POP PUSH2 0x280 PUSH2 0x4A0 CALLDATASIZE PUSH1 0x4 PUSH2 0x17FC JUMP JUMPDEST PUSH4 0xBC197C81 PUSH1 0xE0 SHL SWAP6 SWAP5 POP POP POP POP POP JUMP JUMPDEST CALLVALUE DUP1 ISZERO PUSH2 0x4BD JUMPI PUSH1 0x0 DUP1 REVERT JUMPDEST POP PUSH2 0x187 PUSH2 0x4CC CALLDATASIZE PUSH1 0x4 PUSH2 0x147F JUMP JUMPDEST PUSH2 0xAD8 JUMP JUMPDEST CALLVALUE DUP1 ISZERO PUSH2 0x4DD JUMPI PUSH1 0x0 DUP1 REVERT JUMPDEST POP PUSH2 0x1E0 PUSH2 0x4EC CALLDATASIZE PUSH1 0x4 PUSH2 0x147F JUMP JUMPDEST PUSH1 0x0 SWAP1 DUP2 MSTORE PUSH1 0x1 PUSH1 0x20 MSTORE PUSH1 0x40 SWAP1 KECCAK256 SLOAD SWAP1 JUMP JUMPDEST CALLVALUE DUP1 ISZERO PUSH2 0x50A JUMPI PUSH1 0x0 DUP1 REVERT JUMPDEST POP PUSH2 0x187 PUSH2 0x519 CALLDATASIZE PUSH1 0x4 PUSH2 0x15B4 JUMP JUMPDEST PUSH2 0xBAD JUMP JUMPDEST PUSH2 0x187 PUSH2 0x52C CALLDATASIZE PUSH1 0x4 PUSH2 0x16D5 JUMP JUMPDEST PUSH2 0xBD2 JUMP JUMPDEST CALLVALUE DUP1 ISZERO PUSH2 0x53D JUMPI PUSH1 0x0 DUP1 REVERT JUMPDEST POP PUSH2 0x280 PUSH2 0x54C CALLDATASIZE PUSH1 0x4 PUSH2 0x18A5 JUMP JUMPDEST PUSH4 0xF23A6E61 PUSH1 0xE0 SHL SWAP6 SWAP5 POP POP POP POP POP JUMP JUMPDEST CALLVALUE DUP1 ISZERO PUSH2 0x569 JUMPI PUSH1 0x0 DUP1 REVERT JUMPDEST POP PUSH1 0x2 SLOAD PUSH2 0x1E0 JUMP JUMPDEST PUSH1 0x0 DUP1 MLOAD PUSH1 0x20 PUSH2 0x1D1E DUP4 CODECOPY DUP2 MLOAD SWAP2 MSTORE PUSH2 0x58A DUP2 PUSH2 0xD4A JUMP JUMPDEST PUSH1 0x0 PUSH2 0x59A DUP10 DUP10 DUP10 DUP10 DUP10 DUP10 PUSH2 0x8AA JUMP JUMPDEST SWAP1 POP PUSH2 0x5A6 DUP2 DUP5 PUSH2 0xD57 JUMP JUMPDEST PUSH1 0x0 DUP2 PUSH32 0x4CF4410CC57040E44862EF0F45F3DD5A5E02DB8EB8ADD648D4B0E236F1D07DCA DUP12 DUP12 DUP12 DUP12 DUP12 DUP11 PUSH1 0x40 MLOAD PUSH2 0x5E2 SWAP7 SWAP6 SWAP5 SWAP4 SWAP3 SWAP2 SWAP1 PUSH2 0x1932 JUMP JUMPDEST PUSH1 0x40 MLOAD DUP1 SWAP2 SUB SWAP1 LOG3 DUP4 ISZERO PUSH2 0x62B JUMPI DUP1 PUSH32 0x20FDA5FD27A1EA7BF5B9567F143AC5470BB059374A27E8F67CB44F946F6D0387 DUP6 PUSH1 0x40 MLOAD PUSH2 0x622 SWAP2 DUP2 MSTORE PUSH1 0x20 ADD SWAP1 JUMP JUMPDEST PUSH1 0x40 MLOAD DUP1 SWAP2 SUB SWAP1 LOG2 JUMPDEST POP POP POP POP POP POP POP POP POP JUMP JUMPDEST PUSH1 0x0 PUSH1 0x1 PUSH1 0x1 PUSH1 0xE0 SHL SUB NOT DUP3 AND PUSH4 0x2711897 PUSH1 0xE5 SHL EQ DUP1 PUSH2 0x65B JUMPI POP PUSH2 0x65B DUP3 PUSH2 0xE46 JUMP JUMPDEST SWAP3 SWAP2 POP POP JUMP JUMPDEST PUSH1 0x0 DUP1 MLOAD PUSH1 0x20 PUSH2 0x1D3E DUP4 CODECOPY DUP2 MLOAD SWAP2 MSTORE PUSH2 0x67B DUP2 PUSH1 0x0 PUSH2 0xA6A JUMP JUMPDEST PUSH2 0x689 JUMPI PUSH2 0x689 DUP2 CALLER PUSH2 0xE7B JUMP JUMPDEST PUSH1 0x0 PUSH2 0x699 DUP9 DUP9 DUP9 DUP9 DUP9 DUP9 PUSH2 0x8AA JUMP JUMPDEST SWAP1 POP PUSH2 0x6A5 DUP2 DUP6 PUSH2 0xED4 JUMP JUMPDEST PUSH2 0x6B1 DUP9 DUP9 DUP9 DUP9 PUSH2 0xF70 JUMP JUMPDEST PUSH1 0x0 DUP2 PUSH32 0xC2617EFA69BAB66782FA219543714338489C4E9E178271560A91B82C3F612B58 DUP11 DUP11 DUP11 DUP11 PUSH1 0x40 MLOAD PUSH2 0x6E9 SWAP5 SWAP4 SWAP3 SWAP2 SWAP1 PUSH2 0x196F JUMP JUMPDEST PUSH1 0x40 MLOAD DUP1 SWAP2 SUB SWAP1 LOG3 PUSH2 0x6FA DUP2 PUSH2 0x1043 JUMP JUMPDEST POP POP POP POP POP POP POP POP JUMP JUMPDEST PUSH1 0x0 DUP2 DUP2 MSTORE PUSH1 0x1 PUSH1 0x20 MSTORE PUSH1 0x40 DUP2 KECCAK256 SLOAD PUSH1 0x1 DUP2 GT DUP1 ISZERO PUSH2 0x723 JUMPI POP TIMESTAMP DUP2 GT ISZERO JUMPDEST SWAP4 SWAP3 POP POP POP JUMP JUMPDEST PUSH1 0x0 DUP3 DUP2 MSTORE PUSH1 0x20 DUP2 SWAP1 MSTORE PUSH1 0x40 SWAP1 KECCAK256 PUSH1 0x1 ADD SLOAD PUSH2 0x745 DUP2 PUSH2 0xD4A JUMP JUMPDEST PUSH2 0x74F DUP4 DUP4 PUSH2 0x107C JUMP JUMPDEST POP POP POP JUMP JUMPDEST PUSH1 0x0 DUP2 DUP2 MSTORE PUSH1 0x1 PUSH1 0x20 MSTORE PUSH1 0x40 DUP2 KECCAK256 SLOAD DUP2 SWAP1 JUMPDEST GT SWAP3 SWAP2 POP POP JUMP JUMPDEST PUSH1 0x1 PUSH1 0x1 PUSH1 0xA0 SHL SUB DUP2 AND CALLER EQ PUSH2 0x7E2 JUMPI PUSH1 0x40 MLOAD PUSH3 0x461BCD PUSH1 0xE5 SHL DUP2 MSTORE PUSH1 0x20 PUSH1 0x4 DUP3 ADD MSTORE PUSH1 0x2F PUSH1 0x24 DUP3 ADD MSTORE PUSH32 0x416363657373436F6E74726F6C3A2063616E206F6E6C792072656E6F756E6365 PUSH1 0x44 DUP3 ADD MSTORE PUSH15 0x103937B632B9903337B91039B2B633 PUSH1 0x89 SHL PUSH1 0x64 DUP3 ADD MSTORE PUSH1 0x84 ADD JUMPDEST PUSH1 0x40 MLOAD DUP1 SWAP2 SUB SWAP1 REVERT JUMPDEST PUSH2 0x7EC DUP3 DUP3 PUSH2 0x1100 JUMP JUMPDEST POP POP JUMP JUMPDEST PUSH1 0x0 DUP2 DUP2 MSTORE PUSH1 0x1 PUSH1 0x20 DUP2 SWAP1 MSTORE PUSH1 0x40 DUP3 KECCAK256 SLOAD PUSH2 0x766 JUMP JUMPDEST CALLER ADDRESS EQ PUSH2 0x869 JUMPI PUSH1 0x40 MLOAD PUSH3 0x461BCD PUSH1 0xE5 SHL DUP2 MSTORE PUSH1 0x20 PUSH1 0x4 DUP3 ADD MSTORE PUSH1 0x2B PUSH1 0x24 DUP3 ADD MSTORE PUSH32 0x54696D656C6F636B436F6E74726F6C6C65723A2063616C6C6572206D75737420 PUSH1 0x44 DUP3 ADD MSTORE PUSH11 0x62652074696D656C6F636B PUSH1 0xA8 SHL PUSH1 0x64 DUP3 ADD MSTORE PUSH1 0x84 ADD PUSH2 0x7D9 JUMP JUMPDEST PUSH1 0x2 SLOAD PUSH1 0x40 DUP1 MLOAD SWAP2 DUP3 MSTORE PUSH1 0x20 DUP3 ADD DUP4 SWAP1 MSTORE PUSH32 0x11C24F4EAD16507C69AC467FBD5E4EED5FB5C699626D2CC6D66421DF253886D5 SWAP2 ADD PUSH1 0x40 MLOAD DUP1 SWAP2 SUB SWAP1 LOG1 PUSH1 0x2 SSTORE JUMP JUMPDEST PUSH1 0x0 DUP7 DUP7 DUP7 DUP7 DUP7 DUP7 PUSH1 0x40 MLOAD PUSH1 0x20 ADD PUSH2 0x8C7 SWAP7 SWAP6 SWAP5 SWAP4 SWAP3 SWAP2 SWAP1 PUSH2 0x1932 JUMP JUMPDEST PUSH1 0x40 MLOAD PUSH1 0x20 DUP2 DUP4 SUB SUB DUP2 MSTORE SWAP1 PUSH1 0x40 MSTORE DUP1 MLOAD SWAP1 PUSH1 0x20 ADD KECCAK256 SWAP1 POP SWAP7 SWAP6 POP POP POP POP POP POP JUMP JUMPDEST PUSH1 0x0 DUP1 MLOAD PUSH1 0x20 PUSH2 0x1D1E DUP4 CODECOPY DUP2 MLOAD SWAP2 MSTORE PUSH2 0x901 DUP2 PUSH2 0xD4A JUMP JUMPDEST DUP9 DUP8 EQ PUSH2 0x920 JUMPI PUSH1 0x40 MLOAD PUSH3 0x461BCD PUSH1 0xE5 SHL DUP2 MSTORE PUSH1 0x4 ADD PUSH2 0x7D9 SWAP1 PUSH2 0x19A1 JUMP JUMPDEST DUP9 DUP6 EQ PUSH2 0x93F JUMPI PUSH1 0x40 MLOAD PUSH3 0x461BCD PUSH1 0xE5 SHL DUP2 MSTORE PUSH1 0x4 ADD PUSH2 0x7D9 SWAP1 PUSH2 0x19A1 JUMP JUMPDEST PUSH1 0x0 PUSH2 0x951 DUP12 DUP12 DUP12 DUP12 DUP12 DUP12 DUP12 DUP12 PUSH2 0xA93 JUMP JUMPDEST SWAP1 POP PUSH2 0x95D DUP2 DUP5 PUSH2 0xD57 JUMP JUMPDEST PUSH1 0x0 JUMPDEST DUP11 DUP2 LT ISZERO PUSH2 0xA1B JUMPI DUP1 DUP3 PUSH32 0x4CF4410CC57040E44862EF0F45F3DD5A5E02DB8EB8ADD648D4B0E236F1D07DCA DUP15 DUP15 DUP6 DUP2 DUP2 LT PUSH2 0x99D JUMPI PUSH2 0x99D PUSH2 0x19E4 JUMP JUMPDEST SWAP1 POP PUSH1 0x20 MUL ADD PUSH1 0x20 DUP2 ADD SWAP1 PUSH2 0x9B2 SWAP2 SWAP1 PUSH2 0x19FA JUMP JUMPDEST DUP14 DUP14 DUP7 DUP2 DUP2 LT PUSH2 0x9C4 JUMPI PUSH2 0x9C4 PUSH2 0x19E4 JUMP JUMPDEST SWAP1 POP PUSH1 0x20 MUL ADD CALLDATALOAD DUP13 DUP13 DUP8 DUP2 DUP2 LT PUSH2 0x9DD JUMPI PUSH2 0x9DD PUSH2 0x19E4 JUMP JUMPDEST SWAP1 POP PUSH1 0x20 MUL DUP2 ADD SWAP1 PUSH2 0x9EF SWAP2 SWAP1 PUSH2 0x1A15 JUMP JUMPDEST DUP13 DUP12 PUSH1 0x40 MLOAD PUSH2 0xA03 SWAP7 SWAP6 SWAP5 SWAP4 SWAP3 SWAP2 SWAP1 PUSH2 0x1932 JUMP JUMPDEST PUSH1 0x40 MLOAD DUP1 SWAP2 SUB SWAP1 LOG3 PUSH2 0xA14 DUP2 PUSH2 0x1A71 JUMP JUMPDEST SWAP1 POP PUSH2 0x960 JUMP JUMPDEST POP DUP4 ISZERO PUSH2 0xA5D JUMPI DUP1 PUSH32 0x20FDA5FD27A1EA7BF5B9567F143AC5470BB059374A27E8F67CB44F946F6D0387 DUP6 PUSH1 0x40 MLOAD PUSH2 0xA54 SWAP2 DUP2 MSTORE PUSH1 0x20 ADD SWAP1 JUMP JUMPDEST PUSH1 0x40 MLOAD DUP1 SWAP2 SUB SWAP1 LOG2 JUMPDEST POP POP POP POP POP POP POP POP POP POP POP JUMP JUMPDEST PUSH1 0x0 SWAP2 DUP3 MSTORE PUSH1 0x20 DUP3 DUP2 MSTORE PUSH1 0x40 DUP1 DUP5 KECCAK256 PUSH1 0x1 PUSH1 0x1 PUSH1 0xA0 SHL SUB SWAP4 SWAP1 SWAP4 AND DUP5 MSTORE SWAP2 SWAP1 MSTORE SWAP1 KECCAK256 SLOAD PUSH1 0xFF AND SWAP1 JUMP JUMPDEST PUSH1 0x0 DUP9 DUP9 DUP9 DUP9 DUP9 DUP9 DUP9 DUP9 PUSH1 0x40 MLOAD PUSH1 0x20 ADD PUSH2 0xAB4 SWAP9 SWAP8 SWAP7 SWAP6 SWAP5 SWAP4 SWAP3 SWAP2 SWAP1 PUSH2 0x1B1B JUMP JUMPDEST PUSH1 0x40 MLOAD PUSH1 0x20 DUP2 DUP4 SUB SUB DUP2 MSTORE SWAP1 PUSH1 0x40 MSTORE DUP1 MLOAD SWAP1 PUSH1 0x20 ADD KECCAK256 SWAP1 POP SWAP9 SWAP8 POP POP POP POP POP POP POP POP JUMP JUMPDEST PUSH32 0xFD643C72710C63C0180259ABA6B2D05451E3591A24E58B62239378085726F783 PUSH2 0xB02 DUP2 PUSH2 0xD4A JUMP JUMPDEST PUSH2 0xB0B DUP3 PUSH2 0x7F0 JUMP JUMPDEST PUSH2 0xB71 JUMPI PUSH1 0x40 MLOAD PUSH3 0x461BCD PUSH1 0xE5 SHL DUP2 MSTORE PUSH1 0x20 PUSH1 0x4 DUP3 ADD MSTORE PUSH1 0x31 PUSH1 0x24 DUP3 ADD MSTORE PUSH32 0x54696D656C6F636B436F6E74726F6C6C65723A206F7065726174696F6E206361 PUSH1 0x44 DUP3 ADD MSTORE PUSH17 0x1B9B9BDD0818994818D85B98D95B1B1959 PUSH1 0x7A SHL PUSH1 0x64 DUP3 ADD MSTORE PUSH1 0x84 ADD PUSH2 0x7D9 JUMP JUMPDEST PUSH1 0x0 DUP3 DUP2 MSTORE PUSH1 0x1 PUSH1 0x20 MSTORE PUSH1 0x40 DUP1 DUP3 KECCAK256 DUP3 SWAP1 SSTORE MLOAD DUP4 SWAP2 PUSH32 0xBAA1EB22F2A492BA1A5FEA61B8DF4D27C6C8B5F3971E63BB58FA14FF72EEDB70 SWAP2 LOG2 POP POP JUMP JUMPDEST PUSH1 0x0 DUP3 DUP2 MSTORE PUSH1 0x20 DUP2 SWAP1 MSTORE PUSH1 0x40 SWAP1 KECCAK256 PUSH1 0x1 ADD SLOAD PUSH2 0xBC8 DUP2 PUSH2 0xD4A JUMP JUMPDEST PUSH2 0x74F DUP4 DUP4 PUSH2 0x1100 JUMP JUMPDEST PUSH1 0x0 DUP1 MLOAD PUSH1 0x20 PUSH2 0x1D3E DUP4 CODECOPY DUP2 MLOAD SWAP2 MSTORE PUSH2 0xBEC DUP2 PUSH1 0x0 PUSH2 0xA6A JUMP JUMPDEST PUSH2 0xBFA JUMPI PUSH2 0xBFA DUP2 CALLER PUSH2 0xE7B JUMP JUMPDEST DUP8 DUP7 EQ PUSH2 0xC19 JUMPI PUSH1 0x40 MLOAD PUSH3 0x461BCD PUSH1 0xE5 SHL DUP2 MSTORE PUSH1 0x4 ADD PUSH2 0x7D9 SWAP1 PUSH2 0x19A1 JUMP JUMPDEST DUP8 DUP5 EQ PUSH2 0xC38 JUMPI PUSH1 0x40 MLOAD PUSH3 0x461BCD PUSH1 0xE5 SHL DUP2 MSTORE PUSH1 0x4 ADD PUSH2 0x7D9 SWAP1 PUSH2 0x19A1 JUMP JUMPDEST PUSH1 0x0 PUSH2 0xC4A DUP11 DUP11 DUP11 DUP11 DUP11 DUP11 DUP11 DUP11 PUSH2 0xA93 JUMP JUMPDEST SWAP1 POP PUSH2 0xC56 DUP2 DUP6 PUSH2 0xED4 JUMP JUMPDEST PUSH1 0x0 JUMPDEST DUP10 DUP2 LT ISZERO PUSH2 0xD34 JUMPI PUSH1 0x0 DUP12 DUP12 DUP4 DUP2 DUP2 LT PUSH2 0xC75 JUMPI PUSH2 0xC75 PUSH2 0x19E4 JUMP JUMPDEST SWAP1 POP PUSH1 0x20 MUL ADD PUSH1 0x20 DUP2 ADD SWAP1 PUSH2 0xC8A SWAP2 SWAP1 PUSH2 0x19FA JUMP JUMPDEST SWAP1 POP PUSH1 0x0 DUP11 DUP11 DUP5 DUP2 DUP2 LT PUSH2 0xCA0 JUMPI PUSH2 0xCA0 PUSH2 0x19E4 JUMP JUMPDEST SWAP1 POP PUSH1 0x20 MUL ADD CALLDATALOAD SWAP1 POP CALLDATASIZE PUSH1 0x0 DUP11 DUP11 DUP7 DUP2 DUP2 LT PUSH2 0xCBE JUMPI PUSH2 0xCBE PUSH2 0x19E4 JUMP JUMPDEST SWAP1 POP PUSH1 0x20 MUL DUP2 ADD SWAP1 PUSH2 0xCD0 SWAP2 SWAP1 PUSH2 0x1A15 JUMP JUMPDEST SWAP2 POP SWAP2 POP PUSH2 0xCE0 DUP5 DUP5 DUP5 DUP5 PUSH2 0xF70 JUMP JUMPDEST DUP5 DUP7 PUSH32 0xC2617EFA69BAB66782FA219543714338489C4E9E178271560A91B82C3F612B58 DUP7 DUP7 DUP7 DUP7 PUSH1 0x40 MLOAD PUSH2 0xD17 SWAP5 SWAP4 SWAP3 SWAP2 SWAP1 PUSH2 0x196F JUMP JUMPDEST PUSH1 0x40 MLOAD DUP1 SWAP2 SUB SWAP1 LOG3 POP POP POP POP DUP1 PUSH2 0xD2D SWAP1 PUSH2 0x1A71 JUMP JUMPDEST SWAP1 POP PUSH2 0xC59 JUMP JUMPDEST POP PUSH2 0xD3E DUP2 PUSH2 0x1043 JUMP JUMPDEST POP POP POP POP POP POP POP POP POP POP JUMP JUMPDEST PUSH2 0xD54 DUP2 CALLER PUSH2 0xE7B JUMP JUMPDEST POP JUMP JUMPDEST PUSH2 0xD60 DUP3 PUSH2 0x754 JUMP JUMPDEST ISZERO PUSH2 0xDC5 JUMPI PUSH1 0x40 MLOAD PUSH3 0x461BCD PUSH1 0xE5 SHL DUP2 MSTORE PUSH1 0x20 PUSH1 0x4 DUP3 ADD MSTORE PUSH1 0x2F PUSH1 0x24 DUP3 ADD MSTORE PUSH32 0x54696D656C6F636B436F6E74726F6C6C65723A206F7065726174696F6E20616C PUSH1 0x44 DUP3 ADD MSTORE PUSH15 0x1C9958591E481CD8DA19591D5B1959 PUSH1 0x8A SHL PUSH1 0x64 DUP3 ADD MSTORE PUSH1 0x84 ADD PUSH2 0x7D9 JUMP JUMPDEST PUSH1 0x2 SLOAD DUP2 LT ISZERO PUSH2 0xE26 JUMPI PUSH1 0x40 MLOAD PUSH3 0x461BCD PUSH1 0xE5 SHL DUP2 MSTORE PUSH1 0x20 PUSH1 0x4 DUP3 ADD MSTORE PUSH1 0x26 PUSH1 0x24 DUP3 ADD MSTORE PUSH32 0x54696D656C6F636B436F6E74726F6C6C65723A20696E73756666696369656E74 PUSH1 0x44 DUP3 ADD MSTORE PUSH6 0x2064656C6179 PUSH1 0xD0 SHL PUSH1 0x64 DUP3 ADD MSTORE PUSH1 0x84 ADD PUSH2 0x7D9 JUMP JUMPDEST PUSH2 0xE30 DUP2 TIMESTAMP PUSH2 0x1BBC JUMP JUMPDEST PUSH1 0x0 SWAP3 DUP4 MSTORE PUSH1 0x1 PUSH1 0x20 MSTORE PUSH1 0x40 SWAP1 SWAP3 KECCAK256 SWAP2 SWAP1 SWAP2 SSTORE POP JUMP JUMPDEST PUSH1 0x0 PUSH1 0x1 PUSH1 0x1 PUSH1 0xE0 SHL SUB NOT DUP3 AND PUSH4 0x7965DB0B PUSH1 0xE0 SHL EQ DUP1 PUSH2 0x65B JUMPI POP PUSH4 0x1FFC9A7 PUSH1 0xE0 SHL PUSH1 0x1 PUSH1 0x1 PUSH1 0xE0 SHL SUB NOT DUP4 AND EQ PUSH2 0x65B JUMP JUMPDEST PUSH2 0xE85 DUP3 DUP3 PUSH2 0xA6A JUMP JUMPDEST PUSH2 0x7EC JUMPI PUSH2 0xE92 DUP2 PUSH2 0x1165 JUMP JUMPDEST PUSH2 0xE9D DUP4 PUSH1 0x20 PUSH2 0x1177 JUMP JUMPDEST PUSH1 0x40 MLOAD PUSH1 0x20 ADD PUSH2 0xEAE SWAP3 SWAP2 SWAP1 PUSH2 0x1BF3 JUMP JUMPDEST PUSH1 0x40 DUP1 MLOAD PUSH1 0x1F NOT DUP2 DUP5 SUB ADD DUP2 MSTORE SWAP1 DUP3 SWAP1 MSTORE PUSH3 0x461BCD PUSH1 0xE5 SHL DUP3 MSTORE PUSH2 0x7D9 SWAP2 PUSH1 0x4 ADD PUSH2 0x1C62 JUMP JUMPDEST PUSH2 0xEDD DUP3 PUSH2 0x704 JUMP JUMPDEST PUSH2 0xEF9 JUMPI PUSH1 0x40 MLOAD PUSH3 0x461BCD PUSH1 0xE5 SHL DUP2 MSTORE PUSH1 0x4 ADD PUSH2 0x7D9 SWAP1 PUSH2 0x1C95 JUMP JUMPDEST DUP1 ISZERO DUP1 PUSH2 0xF15 JUMPI POP PUSH1 0x0 DUP2 DUP2 MSTORE PUSH1 0x1 PUSH1 0x20 DUP2 SWAP1 MSTORE PUSH1 0x40 SWAP1 SWAP2 KECCAK256 SLOAD EQ JUMPDEST PUSH2 0x7EC JUMPI PUSH1 0x40 MLOAD PUSH3 0x461BCD PUSH1 0xE5 SHL DUP2 MSTORE PUSH1 0x20 PUSH1 0x4 DUP3 ADD MSTORE PUSH1 0x26 PUSH1 0x24 DUP3 ADD MSTORE PUSH32 0x54696D656C6F636B436F6E74726F6C6C65723A206D697373696E672064657065 PUSH1 0x44 DUP3 ADD MSTORE PUSH6 0x6E64656E6379 PUSH1 0xD0 SHL PUSH1 0x64 DUP3 ADD MSTORE PUSH1 0x84 ADD PUSH2 0x7D9 JUMP JUMPDEST PUSH1 0x0 DUP5 PUSH1 0x1 PUSH1 0x1 PUSH1 0xA0 SHL SUB AND DUP5 DUP5 DUP5 PUSH1 0x40 MLOAD PUSH2 0xF8D SWAP3 SWAP2 SWAP1 PUSH2 0x1CDF JUMP JUMPDEST PUSH1 0x0 PUSH1 0x40 MLOAD DUP1 DUP4 SUB DUP2 DUP6 DUP8 GAS CALL SWAP3 POP POP POP RETURNDATASIZE DUP1 PUSH1 0x0 DUP2 EQ PUSH2 0xFCA JUMPI PUSH1 0x40 MLOAD SWAP2 POP PUSH1 0x1F NOT PUSH1 0x3F RETURNDATASIZE ADD AND DUP3 ADD PUSH1 0x40 MSTORE RETURNDATASIZE DUP3 MSTORE RETURNDATASIZE PUSH1 0x0 PUSH1 0x20 DUP5 ADD RETURNDATACOPY PUSH2 0xFCF JUMP JUMPDEST PUSH1 0x60 SWAP2 POP JUMPDEST POP POP SWAP1 POP DUP1 PUSH2 0x103C JUMPI PUSH1 0x40 MLOAD PUSH3 0x461BCD PUSH1 0xE5 SHL DUP2 MSTORE PUSH1 0x20 PUSH1 0x4 DUP3 ADD MSTORE PUSH1 0x33 PUSH1 0x24 DUP3 ADD MSTORE PUSH32 0x54696D656C6F636B436F6E74726F6C6C65723A20756E6465726C79696E672074 PUSH1 0x44 DUP3 ADD MSTORE PUSH19 0x1C985B9CD858DD1A5BDB881C995D995C9D1959 PUSH1 0x6A SHL PUSH1 0x64 DUP3 ADD MSTORE PUSH1 0x84 ADD PUSH2 0x7D9 JUMP JUMPDEST POP POP POP POP POP JUMP JUMPDEST PUSH2 0x104C DUP2 PUSH2 0x704 JUMP JUMPDEST PUSH2 0x1068 JUMPI PUSH1 0x40 MLOAD PUSH3 0x461BCD PUSH1 0xE5 SHL DUP2 MSTORE PUSH1 0x4 ADD PUSH2 0x7D9 SWAP1 PUSH2 0x1C95 JUMP JUMPDEST PUSH1 0x0 SWAP1 DUP2 MSTORE PUSH1 0x1 PUSH1 0x20 DUP2 SWAP1 MSTORE PUSH1 0x40 SWAP1 SWAP2 KECCAK256 SSTORE JUMP JUMPDEST PUSH2 0x1086 DUP3 DUP3 PUSH2 0xA6A JUMP JUMPDEST PUSH2 0x7EC JUMPI PUSH1 0x0 DUP3 DUP2 MSTORE PUSH1 0x20 DUP2 DUP2 MSTORE PUSH1 0x40 DUP1 DUP4 KECCAK256 PUSH1 0x1 PUSH1 0x1 PUSH1 0xA0 SHL SUB DUP6 AND DUP5 MSTORE SWAP1 SWAP2 MSTORE SWAP1 KECCAK256 DUP1 SLOAD PUSH1 0xFF NOT AND PUSH1 0x1 OR SWAP1 SSTORE PUSH2 0x10BC CALLER SWAP1 JUMP JUMPDEST PUSH1 0x1 PUSH1 0x1 PUSH1 0xA0 SHL SUB AND DUP2 PUSH1 0x1 PUSH1 0x1 PUSH1 0xA0 SHL SUB AND DUP4 PUSH32 0x2F8788117E7EFF1D82E926EC794901D17C78024A50270940304540A733656F0D PUSH1 0x40 MLOAD PUSH1 0x40 MLOAD DUP1 SWAP2 SUB SWAP1 LOG4 POP POP JUMP JUMPDEST PUSH2 0x110A DUP3 DUP3 PUSH2 0xA6A JUMP JUMPDEST ISZERO PUSH2 0x7EC JUMPI PUSH1 0x0 DUP3 DUP2 MSTORE PUSH1 0x20 DUP2 DUP2 MSTORE PUSH1 0x40 DUP1 DUP4 KECCAK256 PUSH1 0x1 PUSH1 0x1 PUSH1 0xA0 SHL SUB DUP6 AND DUP1 DUP6 MSTORE SWAP3 MSTORE DUP1 DUP4 KECCAK256 DUP1 SLOAD PUSH1 0xFF NOT AND SWAP1 SSTORE MLOAD CALLER SWAP3 DUP6 SWAP2 PUSH32 0xF6391F5C32D9C69D2A47EA670B442974B53935D1EDC7FD64EB21E047A839171B SWAP2 SWAP1 LOG4 POP POP JUMP JUMPDEST PUSH1 0x60 PUSH2 0x65B PUSH1 0x1 PUSH1 0x1 PUSH1 0xA0 SHL SUB DUP4 AND PUSH1 0x14 JUMPDEST PUSH1 0x60 PUSH1 0x0 PUSH2 0x1186 DUP4 PUSH1 0x2 PUSH2 0x1CEF JUMP JUMPDEST PUSH2 0x1191 SWAP1 PUSH1 0x2 PUSH2 0x1BBC JUMP JUMPDEST PUSH1 0x1 PUSH1 0x1 PUSH1 0x40 SHL SUB DUP2 GT ISZERO PUSH2 0x11A8 JUMPI PUSH2 0x11A8 PUSH2 0x1498 JUMP JUMPDEST PUSH1 0x40 MLOAD SWAP1 DUP1 DUP3 MSTORE DUP1 PUSH1 0x1F ADD PUSH1 0x1F NOT AND PUSH1 0x20 ADD DUP3 ADD PUSH1 0x40 MSTORE DUP1 ISZERO PUSH2 0x11D2 JUMPI PUSH1 0x20 DUP3 ADD DUP2 DUP1 CALLDATASIZE DUP4 CALLDATACOPY ADD SWAP1 POP JUMPDEST POP SWAP1 POP PUSH1 0x3 PUSH1 0xFC SHL DUP2 PUSH1 0x0 DUP2 MLOAD DUP2 LT PUSH2 0x11ED JUMPI PUSH2 0x11ED PUSH2 0x19E4 JUMP JUMPDEST PUSH1 0x20 ADD ADD SWAP1 PUSH1 0x1 PUSH1 0x1 PUSH1 0xF8 SHL SUB NOT AND SWAP1 DUP2 PUSH1 0x0 BYTE SWAP1 MSTORE8 POP PUSH1 0xF PUSH1 0xFB SHL DUP2 PUSH1 0x1 DUP2 MLOAD DUP2 LT PUSH2 0x121C JUMPI PUSH2 0x121C PUSH2 0x19E4 JUMP JUMPDEST PUSH1 0x20 ADD ADD SWAP1 PUSH1 0x1 PUSH1 0x1 PUSH1 0xF8 SHL SUB NOT AND SWAP1 DUP2 PUSH1 0x0 BYTE SWAP1 MSTORE8 POP PUSH1 0x0 PUSH2 0x1240 DUP5 PUSH1 0x2 PUSH2 0x1CEF JUMP JUMPDEST PUSH2 0x124B SWAP1 PUSH1 0x1 PUSH2 0x1BBC JUMP JUMPDEST SWAP1 POP JUMPDEST PUSH1 0x1 DUP2 GT ISZERO PUSH2 0x12C3 JUMPI PUSH16 0x181899199A1A9B1B9C1CB0B131B232B3 PUSH1 0x81 SHL DUP6 PUSH1 0xF AND PUSH1 0x10 DUP2 LT PUSH2 0x127F JUMPI PUSH2 0x127F PUSH2 0x19E4 JUMP JUMPDEST BYTE PUSH1 0xF8 SHL DUP3 DUP3 DUP2 MLOAD DUP2 LT PUSH2 0x1295 JUMPI PUSH2 0x1295 PUSH2 0x19E4 JUMP JUMPDEST PUSH1 0x20 ADD ADD SWAP1 PUSH1 0x1 PUSH1 0x1 PUSH1 0xF8 SHL SUB NOT AND SWAP1 DUP2 PUSH1 0x0 BYTE SWAP1 MSTORE8 POP PUSH1 0x4 SWAP5 SWAP1 SWAP5 SHR SWAP4 PUSH2 0x12BC DUP2 PUSH2 0x1D06 JUMP JUMPDEST SWAP1 POP PUSH2 0x124E JUMP JUMPDEST POP DUP4 ISZERO PUSH2 0x723 JUMPI PUSH1 0x40 MLOAD PUSH3 0x461BCD PUSH1 0xE5 SHL DUP2 MSTORE PUSH1 0x20 PUSH1 0x4 DUP3 ADD DUP2 SWAP1 MSTORE PUSH1 0x24 DUP3 ADD MSTORE PUSH32 0x537472696E67733A20686578206C656E67746820696E73756666696369656E74 PUSH1 0x44 DUP3 ADD MSTORE PUSH1 0x64 ADD PUSH2 0x7D9 JUMP JUMPDEST DUP1 CALLDATALOAD PUSH1 0x1 PUSH1 0x1 PUSH1 0xA0 SHL SUB DUP2 AND DUP2 EQ PUSH2 0x1329 JUMPI PUSH1 0x0 DUP1 REVERT JUMPDEST SWAP2 SWAP1 POP JUMP JUMPDEST PUSH1 0x0 DUP1 DUP4 PUSH1 0x1F DUP5 ADD SLT PUSH2 0x1340 JUMPI PUSH1 0x0 DUP1 REVERT JUMPDEST POP DUP2 CALLDATALOAD PUSH1 0x1 PUSH1 0x1 PUSH1 0x40 SHL SUB DUP2 GT ISZERO PUSH2 0x1357 JUMPI PUSH1 0x0 DUP1 REVERT JUMPDEST PUSH1 0x20 DUP4 ADD SWAP2 POP DUP4 PUSH1 0x20 DUP3 DUP6 ADD ADD GT ISZERO PUSH2 0x136F JUMPI PUSH1 0x0 DUP1 REVERT JUMPDEST SWAP3 POP SWAP3 SWAP1 POP JUMP JUMPDEST PUSH1 0x0 DUP1 PUSH1 0x0 DUP1 PUSH1 0x0 DUP1 PUSH1 0x0 PUSH1 0xC0 DUP9 DUP11 SUB SLT ISZERO PUSH2 0x1391 JUMPI PUSH1 0x0 DUP1 REVERT JUMPDEST PUSH2 0x139A DUP9 PUSH2 0x1312 JUMP JUMPDEST SWAP7 POP PUSH1 0x20 DUP9 ADD CALLDATALOAD SWAP6 POP PUSH1 0x40 DUP9 ADD CALLDATALOAD PUSH1 0x1 PUSH1 0x1 PUSH1 0x40 SHL SUB DUP2 GT ISZERO PUSH2 0x13BC JUMPI PUSH1 0x0 DUP1 REVERT JUMPDEST PUSH2 0x13C8 DUP11 DUP3 DUP12 ADD PUSH2 0x132E JUMP JUMPDEST SWAP9 SWAP12 SWAP8 SWAP11 POP SWAP9 PUSH1 0x60 DUP2 ADD CALLDATALOAD SWAP8 PUSH1 0x80 DUP3 ADD CALLDATALOAD SWAP8 POP PUSH1 0xA0 SWAP1 SWAP2 ADD CALLDATALOAD SWAP6 POP SWAP4 POP POP POP POP JUMP JUMPDEST PUSH1 0x0 PUSH1 0x20 DUP3 DUP5 SUB SLT ISZERO PUSH2 0x13FC JUMPI PUSH1 0x0 DUP1 REVERT JUMPDEST DUP2 CALLDATALOAD PUSH1 0x1 PUSH1 0x1 PUSH1 0xE0 SHL SUB NOT DUP2 AND DUP2 EQ PUSH2 0x723 JUMPI PUSH1 0x0 DUP1 REVERT JUMPDEST PUSH1 0x0 DUP1 PUSH1 0x0 DUP1 PUSH1 0x0 DUP1 PUSH1 0xA0 DUP8 DUP10 SUB SLT ISZERO PUSH2 0x142D JUMPI PUSH1 0x0 DUP1 REVERT JUMPDEST PUSH2 0x1436 DUP8 PUSH2 0x1312 JUMP JUMPDEST SWAP6 POP PUSH1 0x20 DUP8 ADD CALLDATALOAD SWAP5 POP PUSH1 0x40 DUP8 ADD CALLDATALOAD PUSH1 0x1 PUSH1 0x1 PUSH1 0x40 SHL SUB DUP2 GT ISZERO PUSH2 0x1458 JUMPI PUSH1 0x0 DUP1 REVERT JUMPDEST PUSH2 0x1464 DUP10 DUP3 DUP11 ADD PUSH2 0x132E JUMP JUMPDEST SWAP8 SWAP11 SWAP7 SWAP10 POP SWAP8 PUSH1 0x60 DUP2 ADD CALLDATALOAD SWAP7 PUSH1 0x80 SWAP1 SWAP2 ADD CALLDATALOAD SWAP6 POP SWAP4 POP POP POP POP JUMP JUMPDEST PUSH1 0x0 PUSH1 0x20 DUP3 DUP5 SUB SLT ISZERO PUSH2 0x1491 JUMPI PUSH1 0x0 DUP1 REVERT JUMPDEST POP CALLDATALOAD SWAP2 SWAP1 POP JUMP JUMPDEST PUSH4 0x4E487B71 PUSH1 0xE0 SHL PUSH1 0x0 MSTORE PUSH1 0x41 PUSH1 0x4 MSTORE PUSH1 0x24 PUSH1 0x0 REVERT JUMPDEST PUSH1 0x40 MLOAD PUSH1 0x1F DUP3 ADD PUSH1 0x1F NOT AND DUP2 ADD PUSH1 0x1 PUSH1 0x1 PUSH1 0x40 SHL SUB DUP2 GT DUP3 DUP3 LT OR ISZERO PUSH2 0x14D6 JUMPI PUSH2 0x14D6 PUSH2 0x1498 JUMP JUMPDEST PUSH1 0x40 MSTORE SWAP2 SWAP1 POP JUMP JUMPDEST PUSH1 0x0 DUP3 PUSH1 0x1F DUP4 ADD SLT PUSH2 0x14EF JUMPI PUSH1 0x0 DUP1 REVERT JUMPDEST DUP2 CALLDATALOAD PUSH1 0x1 PUSH1 0x1 PUSH1 0x40 SHL SUB DUP2 GT ISZERO PUSH2 0x1508 JUMPI PUSH2 0x1508 PUSH2 0x1498 JUMP JUMPDEST PUSH2 0x151B PUSH1 0x1F DUP3 ADD PUSH1 0x1F NOT AND PUSH1 0x20 ADD PUSH2 0x14AE JUMP JUMPDEST DUP2 DUP2 MSTORE DUP5 PUSH1 0x20 DUP4 DUP7 ADD ADD GT ISZERO PUSH2 0x1530 JUMPI PUSH1 0x0 DUP1 REVERT JUMPDEST DUP2 PUSH1 0x20 DUP6 ADD PUSH1 0x20 DUP4 ADD CALLDATACOPY PUSH1 0x0 SWAP2 DUP2 ADD PUSH1 0x20 ADD SWAP2 SWAP1 SWAP2 MSTORE SWAP4 SWAP3 POP POP POP JUMP JUMPDEST PUSH1 0x0 DUP1 PUSH1 0x0 DUP1 PUSH1 0x80 DUP6 DUP8 SUB SLT ISZERO PUSH2 0x1563 JUMPI PUSH1 0x0 DUP1 REVERT JUMPDEST PUSH2 0x156C DUP6 PUSH2 0x1312 JUMP JUMPDEST SWAP4 POP PUSH2 0x157A PUSH1 0x20 DUP7 ADD PUSH2 0x1312 JUMP JUMPDEST SWAP3 POP PUSH1 0x40 DUP6 ADD CALLDATALOAD SWAP2 POP PUSH1 0x60 DUP6 ADD CALLDATALOAD PUSH1 0x1 PUSH1 0x1 PUSH1 0x40 SHL SUB DUP2 GT ISZERO PUSH2 0x159C JUMPI PUSH1 0x0 DUP1 REVERT JUMPDEST PUSH2 0x15A8 DUP8 DUP3 DUP9 ADD PUSH2 0x14DE JUMP JUMPDEST SWAP2 POP POP SWAP3 SWAP6 SWAP2 SWAP5 POP SWAP3 POP JUMP JUMPDEST PUSH1 0x0 DUP1 PUSH1 0x40 DUP4 DUP6 SUB SLT ISZERO PUSH2 0x15C7 JUMPI PUSH1 0x0 DUP1 REVERT JUMPDEST DUP3 CALLDATALOAD SWAP2 POP PUSH2 0x15D7 PUSH1 0x20 DUP5 ADD PUSH2 0x1312 JUMP JUMPDEST SWAP1 POP SWAP3 POP SWAP3 SWAP1 POP JUMP JUMPDEST PUSH1 0x0 DUP1 DUP4 PUSH1 0x1F DUP5 ADD SLT PUSH2 0x15F2 JUMPI PUSH1 0x0 DUP1 REVERT JUMPDEST POP DUP2 CALLDATALOAD PUSH1 0x1 PUSH1 0x1 PUSH1 0x40 SHL SUB DUP2 GT ISZERO PUSH2 0x1609 JUMPI PUSH1 0x0 DUP1 REVERT JUMPDEST PUSH1 0x20 DUP4 ADD SWAP2 POP DUP4 PUSH1 0x20 DUP3 PUSH1 0x5 SHL DUP6 ADD ADD GT ISZERO PUSH2 0x136F JUMPI PUSH1 0x0 DUP1 REVERT JUMPDEST PUSH1 0x0 DUP1 PUSH1 0x0 DUP1 PUSH1 0x0 DUP1 PUSH1 0x0 DUP1 PUSH1 0x0 PUSH1 0xC0 DUP11 DUP13 SUB SLT ISZERO PUSH2 0x1642 JUMPI PUSH1 0x0 DUP1 REVERT JUMPDEST DUP10 CALLDATALOAD PUSH1 0x1 PUSH1 0x1 PUSH1 0x40 SHL SUB DUP1 DUP3 GT ISZERO PUSH2 0x1659 JUMPI PUSH1 0x0 DUP1 REVERT JUMPDEST PUSH2 0x1665 DUP14 DUP4 DUP15 ADD PUSH2 0x15E0 JUMP JUMPDEST SWAP1 SWAP12 POP SWAP10 POP PUSH1 0x20 DUP13 ADD CALLDATALOAD SWAP2 POP DUP1 DUP3 GT ISZERO PUSH2 0x167E JUMPI PUSH1 0x0 DUP1 REVERT JUMPDEST PUSH2 0x168A DUP14 DUP4 DUP15 ADD PUSH2 0x15E0 JUMP JUMPDEST SWAP1 SWAP10 POP SWAP8 POP PUSH1 0x40 DUP13 ADD CALLDATALOAD SWAP2 POP DUP1 DUP3 GT ISZERO PUSH2 0x16A3 JUMPI PUSH1 0x0 DUP1 REVERT JUMPDEST POP PUSH2 0x16B0 DUP13 DUP3 DUP14 ADD PUSH2 0x15E0 JUMP JUMPDEST SWAP11 SWAP14 SWAP10 SWAP13 POP SWAP8 SWAP11 SWAP7 SWAP10 SWAP8 SWAP9 PUSH1 0x60 DUP9 ADD CALLDATALOAD SWAP8 PUSH1 0x80 DUP2 ADD CALLDATALOAD SWAP8 POP PUSH1 0xA0 ADD CALLDATALOAD SWAP6 POP SWAP4 POP POP POP POP JUMP JUMPDEST PUSH1 0x0 DUP1 PUSH1 0x0 DUP1 PUSH1 0x0 DUP1 PUSH1 0x0 DUP1 PUSH1 0xA0 DUP10 DUP12 SUB SLT ISZERO PUSH2 0x16F1 JUMPI PUSH1 0x0 DUP1 REVERT JUMPDEST DUP9 CALLDATALOAD PUSH1 0x1 PUSH1 0x1 PUSH1 0x40 SHL SUB DUP1 DUP3 GT ISZERO PUSH2 0x1708 JUMPI PUSH1 0x0 DUP1 REVERT JUMPDEST PUSH2 0x1714 DUP13 DUP4 DUP14 ADD PUSH2 0x15E0 JUMP JUMPDEST SWAP1 SWAP11 POP SWAP9 POP PUSH1 0x20 DUP12 ADD CALLDATALOAD SWAP2 POP DUP1 DUP3 GT ISZERO PUSH2 0x172D JUMPI PUSH1 0x0 DUP1 REVERT JUMPDEST PUSH2 0x1739 DUP13 DUP4 DUP14 ADD PUSH2 0x15E0 JUMP JUMPDEST SWAP1 SWAP9 POP SWAP7 POP PUSH1 0x40 DUP12 ADD CALLDATALOAD SWAP2 POP DUP1 DUP3 GT ISZERO PUSH2 0x1752 JUMPI PUSH1 0x0 DUP1 REVERT JUMPDEST POP PUSH2 0x175F DUP12 DUP3 DUP13 ADD PUSH2 0x15E0 JUMP JUMPDEST SWAP10 SWAP13 SWAP9 SWAP12 POP SWAP7 SWAP10 SWAP6 SWAP9 SWAP7 SWAP8 PUSH1 0x60 DUP8 ADD CALLDATALOAD SWAP7 PUSH1 0x80 ADD CALLDATALOAD SWAP6 POP SWAP4 POP POP POP POP JUMP JUMPDEST PUSH1 0x0 DUP3 PUSH1 0x1F DUP4 ADD SLT PUSH2 0x178E JUMPI PUSH1 0x0 DUP1 REVERT JUMPDEST DUP2 CALLDATALOAD PUSH1 0x20 PUSH1 0x1 PUSH1 0x1 PUSH1 0x40 SHL SUB DUP3 GT ISZERO PUSH2 0x17A9 JUMPI PUSH2 0x17A9 PUSH2 0x1498 JUMP JUMPDEST DUP2 PUSH1 0x5 SHL PUSH2 0x17B8 DUP3 DUP3 ADD PUSH2 0x14AE JUMP JUMPDEST SWAP3 DUP4 MSTORE DUP5 DUP2 ADD DUP3 ADD SWAP3 DUP3 DUP2 ADD SWAP1 DUP8 DUP6 GT ISZERO PUSH2 0x17D2 JUMPI PUSH1 0x0 DUP1 REVERT JUMPDEST DUP4 DUP8 ADD SWAP3 POP JUMPDEST DUP5 DUP4 LT ISZERO PUSH2 0x17F1 JUMPI DUP3 CALLDATALOAD DUP3 MSTORE SWAP2 DUP4 ADD SWAP2 SWAP1 DUP4 ADD SWAP1 PUSH2 0x17D8 JUMP JUMPDEST SWAP8 SWAP7 POP POP POP POP POP POP POP JUMP JUMPDEST PUSH1 0x0 DUP1 PUSH1 0x0 DUP1 PUSH1 0x0 PUSH1 0xA0 DUP7 DUP9 SUB SLT ISZERO PUSH2 0x1814 JUMPI PUSH1 0x0 DUP1 REVERT JUMPDEST PUSH2 0x181D DUP7 PUSH2 0x1312 JUMP JUMPDEST SWAP5 POP PUSH2 0x182B PUSH1 0x20 DUP8 ADD PUSH2 0x1312 JUMP JUMPDEST SWAP4 POP PUSH1 0x40 DUP7 ADD CALLDATALOAD PUSH1 0x1 PUSH1 0x1 PUSH1 0x40 SHL SUB DUP1 DUP3 GT ISZERO PUSH2 0x1847 JUMPI PUSH1 0x0 DUP1 REVERT JUMPDEST PUSH2 0x1853 DUP10 DUP4 DUP11 ADD PUSH2 0x177D JUMP JUMPDEST SWAP5 POP PUSH1 0x60 DUP9 ADD CALLDATALOAD SWAP2 POP DUP1 DUP3 GT ISZERO PUSH2 0x1869 JUMPI PUSH1 0x0 DUP1 REVERT JUMPDEST PUSH2 0x1875 DUP10 DUP4 DUP11 ADD PUSH2 0x177D JUMP JUMPDEST SWAP4 POP PUSH1 0x80 DUP9 ADD CALLDATALOAD SWAP2 POP DUP1 DUP3 GT ISZERO PUSH2 0x188B JUMPI PUSH1 0x0 DUP1 REVERT JUMPDEST POP PUSH2 0x1898 DUP9 DUP3 DUP10 ADD PUSH2 0x14DE JUMP JUMPDEST SWAP2 POP POP SWAP3 SWAP6 POP SWAP3 SWAP6 SWAP1 SWAP4 POP JUMP JUMPDEST PUSH1 0x0 DUP1 PUSH1 0x0 DUP1 PUSH1 0x0 PUSH1 0xA0 DUP7 DUP9 SUB SLT ISZERO PUSH2 0x18BD JUMPI PUSH1 0x0 DUP1 REVERT JUMPDEST PUSH2 0x18C6 DUP7 PUSH2 0x1312 JUMP JUMPDEST SWAP5 POP PUSH2 0x18D4 PUSH1 0x20 DUP8 ADD PUSH2 0x1312 JUMP JUMPDEST SWAP4 POP PUSH1 0x40 DUP7 ADD CALLDATALOAD SWAP3 POP PUSH1 0x60 DUP7 ADD CALLDATALOAD SWAP2 POP PUSH1 0x80 DUP7 ADD CALLDATALOAD PUSH1 0x1 PUSH1 0x1 PUSH1 0x40 SHL SUB DUP2 GT ISZERO PUSH2 0x18FD JUMPI PUSH1 0x0 DUP1 REVERT JUMPDEST PUSH2 0x1898 DUP9 DUP3 DUP10 ADD PUSH2 0x14DE JUMP JUMPDEST DUP2 DUP4 MSTORE DUP2 DUP2 PUSH1 0x20 DUP6 ADD CALLDATACOPY POP PUSH1 0x0 DUP3 DUP3 ADD PUSH1 0x20 SWAP1 DUP2 ADD SWAP2 SWAP1 SWAP2 MSTORE PUSH1 0x1F SWAP1 SWAP2 ADD PUSH1 0x1F NOT AND SWAP1 SWAP2 ADD ADD SWAP1 JUMP JUMPDEST PUSH1 0x1 DUP1 PUSH1 0xA0 SHL SUB DUP8 AND DUP2 MSTORE DUP6 PUSH1 0x20 DUP3 ADD MSTORE PUSH1 0xA0 PUSH1 0x40 DUP3 ADD MSTORE PUSH1 0x0 PUSH2 0x195A PUSH1 0xA0 DUP4 ADD DUP7 DUP9 PUSH2 0x1909 JUMP JUMPDEST PUSH1 0x60 DUP4 ADD SWAP5 SWAP1 SWAP5 MSTORE POP PUSH1 0x80 ADD MSTORE SWAP5 SWAP4 POP POP POP POP JUMP JUMPDEST PUSH1 0x1 DUP1 PUSH1 0xA0 SHL SUB DUP6 AND DUP2 MSTORE DUP4 PUSH1 0x20 DUP3 ADD MSTORE PUSH1 0x60 PUSH1 0x40 DUP3 ADD MSTORE PUSH1 0x0 PUSH2 0x1997 PUSH1 0x60 DUP4 ADD DUP5 DUP7 PUSH2 0x1909 JUMP JUMPDEST SWAP7 SWAP6 POP POP POP POP POP POP JUMP JUMPDEST PUSH1 0x20 DUP1 DUP3 MSTORE PUSH1 0x23 SWAP1 DUP3 ADD MSTORE PUSH32 0x54696D656C6F636B436F6E74726F6C6C65723A206C656E677468206D69736D61 PUSH1 0x40 DUP3 ADD MSTORE PUSH3 0xE8C6D PUSH1 0xEB SHL PUSH1 0x60 DUP3 ADD MSTORE PUSH1 0x80 ADD SWAP1 JUMP JUMPDEST PUSH4 0x4E487B71 PUSH1 0xE0 SHL PUSH1 0x0 MSTORE PUSH1 0x32 PUSH1 0x4 MSTORE PUSH1 0x24 PUSH1 0x0 REVERT JUMPDEST PUSH1 0x0 PUSH1 0x20 DUP3 DUP5 SUB SLT ISZERO PUSH2 0x1A0C JUMPI PUSH1 0x0 DUP1 REVERT JUMPDEST PUSH2 0x723 DUP3 PUSH2 0x1312 JUMP JUMPDEST PUSH1 0x0 DUP1 DUP4 CALLDATALOAD PUSH1 0x1E NOT DUP5 CALLDATASIZE SUB ADD DUP2 SLT PUSH2 0x1A2C JUMPI PUSH1 0x0 DUP1 REVERT JUMPDEST DUP4 ADD DUP1 CALLDATALOAD SWAP2 POP PUSH1 0x1 PUSH1 0x1 PUSH1 0x40 SHL SUB DUP3 GT ISZERO PUSH2 0x1A46 JUMPI PUSH1 0x0 DUP1 REVERT JUMPDEST PUSH1 0x20 ADD SWAP2 POP CALLDATASIZE DUP2 SWAP1 SUB DUP3 SGT ISZERO PUSH2 0x136F JUMPI PUSH1 0x0 DUP1 REVERT JUMPDEST PUSH4 0x4E487B71 PUSH1 0xE0 SHL PUSH1 0x0 MSTORE PUSH1 0x11 PUSH1 0x4 MSTORE PUSH1 0x24 PUSH1 0x0 REVERT JUMPDEST PUSH1 0x0 PUSH1 0x1 DUP3 ADD PUSH2 0x1A83 JUMPI PUSH2 0x1A83 PUSH2 0x1A5B JUMP JUMPDEST POP PUSH1 0x1 ADD SWAP1 JUMP JUMPDEST DUP2 DUP4 MSTORE PUSH1 0x0 PUSH1 0x20 DUP1 DUP6 ADD DUP1 DUP2 SWAP7 POP DUP6 PUSH1 0x5 SHL DUP2 ADD SWAP2 POP DUP5 PUSH1 0x0 JUMPDEST DUP8 DUP2 LT ISZERO PUSH2 0x1B0E JUMPI DUP3 DUP5 SUB DUP10 MSTORE DUP2 CALLDATALOAD PUSH1 0x1E NOT DUP9 CALLDATASIZE SUB ADD DUP2 SLT PUSH2 0x1AC5 JUMPI PUSH1 0x0 DUP1 REVERT JUMPDEST DUP8 ADD DUP6 DUP2 ADD SWAP1 CALLDATALOAD PUSH1 0x1 PUSH1 0x1 PUSH1 0x40 SHL SUB DUP2 GT ISZERO PUSH2 0x1AE0 JUMPI PUSH1 0x0 DUP1 REVERT JUMPDEST DUP1 CALLDATASIZE SUB DUP3 SGT ISZERO PUSH2 0x1AEF JUMPI PUSH1 0x0 DUP1 REVERT JUMPDEST PUSH2 0x1AFA DUP7 DUP3 DUP5 PUSH2 0x1909 JUMP JUMPDEST SWAP11 DUP8 ADD SWAP11 SWAP6 POP POP POP SWAP1 DUP5 ADD SWAP1 PUSH1 0x1 ADD PUSH2 0x1AA4 JUMP JUMPDEST POP SWAP2 SWAP8 SWAP7 POP POP POP POP POP POP POP JUMP JUMPDEST PUSH1 0xA0 DUP1 DUP3 MSTORE DUP2 ADD DUP9 SWAP1 MSTORE PUSH1 0x0 DUP10 PUSH1 0xC0 DUP4 ADD DUP3 JUMPDEST DUP12 DUP2 LT ISZERO PUSH2 0x1B5C JUMPI PUSH1 0x1 PUSH1 0x1 PUSH1 0xA0 SHL SUB PUSH2 0x1B47 DUP5 PUSH2 0x1312 JUMP JUMPDEST AND DUP3 MSTORE PUSH1 0x20 SWAP3 DUP4 ADD SWAP3 SWAP1 SWAP2 ADD SWAP1 PUSH1 0x1 ADD PUSH2 0x1B2E JUMP JUMPDEST POP DUP4 DUP2 SUB PUSH1 0x20 DUP6 ADD MSTORE DUP9 DUP2 MSTORE PUSH1 0x1 PUSH1 0x1 PUSH1 0xFB SHL SUB DUP10 GT ISZERO PUSH2 0x1B7C JUMPI PUSH1 0x0 DUP1 REVERT JUMPDEST DUP9 PUSH1 0x5 SHL SWAP2 POP DUP2 DUP11 PUSH1 0x20 DUP4 ADD CALLDATACOPY ADD DUP3 DUP2 SUB PUSH1 0x20 SWAP1 DUP2 ADD PUSH1 0x40 DUP6 ADD MSTORE PUSH2 0x1BA4 SWAP1 DUP3 ADD DUP8 DUP10 PUSH2 0x1A8A JUMP JUMPDEST PUSH1 0x60 DUP5 ADD SWAP6 SWAP1 SWAP6 MSTORE POP POP PUSH1 0x80 ADD MSTORE SWAP7 SWAP6 POP POP POP POP POP POP JUMP JUMPDEST DUP1 DUP3 ADD DUP1 DUP3 GT ISZERO PUSH2 0x65B JUMPI PUSH2 0x65B PUSH2 0x1A5B JUMP JUMPDEST PUSH1 0x0 JUMPDEST DUP4 DUP2 LT ISZERO PUSH2 0x1BEA JUMPI DUP2 DUP2 ADD MLOAD DUP4 DUP3 ADD MSTORE PUSH1 0x20 ADD PUSH2 0x1BD2 JUMP JUMPDEST POP POP PUSH1 0x0 SWAP2 ADD MSTORE JUMP JUMPDEST PUSH23 0x20B1B1B2B9B9A1B7B73A3937B61D1030B1B1B7BAB73A1 PUSH1 0x4D SHL DUP2 MSTORE PUSH1 0x0 DUP4 MLOAD PUSH2 0x1C25 DUP2 PUSH1 0x17 DUP6 ADD PUSH1 0x20 DUP9 ADD PUSH2 0x1BCF JUMP JUMPDEST PUSH17 0x1034B99036B4B9B9B4B733903937B6329 PUSH1 0x7D SHL PUSH1 0x17 SWAP2 DUP5 ADD SWAP2 DUP3 ADD MSTORE DUP4 MLOAD PUSH2 0x1C56 DUP2 PUSH1 0x28 DUP5 ADD PUSH1 0x20 DUP9 ADD PUSH2 0x1BCF JUMP JUMPDEST ADD PUSH1 0x28 ADD SWAP5 SWAP4 POP POP POP POP JUMP JUMPDEST PUSH1 0x20 DUP2 MSTORE PUSH1 0x0 DUP3 MLOAD DUP1 PUSH1 0x20 DUP5 ADD MSTORE PUSH2 0x1C81 DUP2 PUSH1 0x40 DUP6 ADD PUSH1 0x20 DUP8 ADD PUSH2 0x1BCF JUMP JUMPDEST PUSH1 0x1F ADD PUSH1 0x1F NOT AND SWAP2 SWAP1 SWAP2 ADD PUSH1 0x40 ADD SWAP3 SWAP2 POP POP JUMP JUMPDEST PUSH1 0x20 DUP1 DUP3 MSTORE PUSH1 0x2A SWAP1 DUP3 ADD MSTORE PUSH32 0x54696D656C6F636B436F6E74726F6C6C65723A206F7065726174696F6E206973 PUSH1 0x40 DUP3 ADD MSTORE PUSH10 0x206E6F74207265616479 PUSH1 0xB0 SHL PUSH1 0x60 DUP3 ADD MSTORE PUSH1 0x80 ADD SWAP1 JUMP JUMPDEST DUP2 DUP4 DUP3 CALLDATACOPY PUSH1 0x0 SWAP2 ADD SWAP1 DUP2 MSTORE SWAP2 SWAP1 POP JUMP JUMPDEST DUP1 DUP3 MUL DUP2 ISZERO DUP3 DUP3 DIV DUP5 EQ OR PUSH2 0x65B JUMPI PUSH2 0x65B PUSH2 0x1A5B JUMP JUMPDEST PUSH1 0x0 DUP2 PUSH2 0x1D15 JUMPI PUSH2 0x1D15 PUSH2 0x1A5B JUMP JUMPDEST POP PUSH1 0x0 NOT ADD SWAP1 JUMP INVALID 0xB0 SWAP11 0xA5 0xAE 0xB3 PUSH17 0x2CFD50B6B62BC4532604938F21248A27A1 0xD5 0xCA PUSH20 0x6082B6819CC1D8AA0F3194971A2A116679F7C209 0xF PUSH10 0x39C8D4E01A2A8D7E41D5 0x5E MSTORE8 MLOAD CHAINID SWAP15 PUSH4 0xA2646970 PUSH7 0x73582212202808 CREATE2 EQ MOD 0xEB 0x1F LOG3 0xC3 0xD1 PUSH28 0xB673219A6658602723B96AB3E10960D1825D6B9F3264736F6C634300 ADDMOD EQ STOP CALLER PUSH0 PC 0xE3 LOG2 BALANCE PUSH4 0x49923CE3 PUSH25 0xF8D587DB2D72378AED66A8261C916544FA6846CA5B09AA5AE 0xB3 PUSH17 0x2CFD50B6B62BC4532604938F21248A27A1 0xD5 0xCA PUSH20 0x6082B6819CC1D8AA0F3194971A2A116679F7C209 0xF PUSH10 0x39C8D4E01A2A8D7E41D5 0x5E MSTORE8 MLOAD CHAINID SWAP15 PUSH4 0xFD643C72 PUSH18 0xC63C0180259ABA6B2D05451E3591A24E58B PUSH3 0x239378 ADDMOD JUMPI 0x26 0xF7 DUP4 PUSH0 PC 0xE3 LOG2 BALANCE PUSH4 0x49923CE3 PUSH25 0xF8D587DB2D72378AED66A8261C916544FA6846CA565D7A28E ORIGIN PUSH6 0xB37A6474929F CALLER PUSH6 0x21B332C1681B SWAP4 EXTCODEHASH PUSH13 0xB9F3376673440D862A9F2DF0FE 0xD2 0xC7 PUSH23 0x48DE5860A4CC508CD0818C85B8B8A1AB4CEEEF8D981C89 JUMP 0xA6 LOG4 SWAP9 SMOD KECCAK256 0x5C 0xE4 0xD3 SSTORE MULMOD 0x2E CREATE2 0xA8 LOG1 DUP16 JUMP 0xE8 SWAP2 EXTCODECOPY DELEGATECALL LOG2 ADD 0xFB 0xE2 DUP8 DUP3 JUMPDEST MULMOD JUMP SWAP4 0xC2 OR PUSH22 0xA264697066735822122036B43FE6873F9B5CF220021B BALANCE SLT RETURN 0xEE 0xB2 0xC6 CALLVALUE 0xC9 0xFC SUB 0x4B 0x1E SWAP11 0xBC PUSH1 0x23 0x26 SWAP16 0x2E STOP PUSH5 0x736F6C6343 STOP ADDMOD EQ STOP CALLER "},"methodIdentifiers":{"ADMIN_ROLE()":"75b238fc","DEFAULT_ADMIN_ROLE()":"a217fddf","FEE_DENOMINATOR()":"d73792a9","FEE_MANAGER_ROLE()":"05db2f41","FEE_PERCENTAGE()":"000b46f8","MAX_COOLDOWN()":"8b41d35f","MINTER_ROLE()":"d5391393","MIN_COOLDOWN()":"f714cb44","MIN_PRICE()":"ad9f20a6","PAUSER_ROLE()":"e63ab1e9","PRICE_PRECISION()":"95082d25","TIMELOCK_ADMIN_ROLE()":"0d3cf6fc","addToBlacklist(address)":"44337ea1","addToWhitelist(address)":"e43252d7","allowance(address,address)":"dd62ed3e","approve(address,uint256)":"095ea7b3","balanceOf(address)":"70a08231","blacklist(address)":"f9f92be4","decimals()":"313ce567","decreaseAllowance(address,uint256)":"a457c2d7","feeWallet()":"f25f4b56","fixedUSDPrice()":"b377f569","freezeMaxSupply()":"16744607","getLatestPrice()":"8e15f473","getRoleAdmin(bytes32)":"248a9ca3","grantRole(bytes32,address)":"2f2ff15d","hasRole(bytes32,address)":"91d14854","increaseAllowance(address,uint256)":"39509351","initialize(address,address,address,address,address,address)":"cc2a9a5b","justMoneyRouter()":"6f6556ac","lastMintTimestamp()":"8e80ff5d","lastPriceUpdateTimestamp()":"23b1f8e4","latestAnswer()":"50d25bcd","liveUSDValue(uint256)":"cbca75cb","maxSupply()":"d5abeb01","maxSupplyFrozen()":"f384702f","mint(address,uint256)":"40c10f19","mintCooldown()":"2000d430","multisigWallet()":"9075becf","name()":"06fdde03","pause()":"8456cb59","paused()":"5c975abb","priceFeed()":"741bef1a","priceUpdateCooldown()":"039f091c","removeFromBlacklist(address)":"537df3b6","removeFromWhitelist(address)":"8ab1d681","renounceRole(bytes32,address)":"36568abe","revokeRole(bytes32,address)":"d547741f","scheduleFreezeMaxSupply(bytes32)":"5d9cdbe8","scheduleSetFixedUSDPrice(uint256,bytes32)":"58ce469b","scheduleSetMaxSupply(uint256,bytes32)":"06b4ec48","setFixedUSDPrice(uint256)":"cdc45c06","setMaxSupply(uint256)":"6f8b44b0","setMintCooldown(uint256)":"344a681e","setPriceUpdateCooldown(uint256)":"3281ee71","setTreasuryWallet(address)":"a8602fea","supportsInterface(bytes4)":"01ffc9a7","symbol()":"95d89b41","timelock()":"d33219b4","timelockDelay()":"eef09bad","totalSupply()":"18160ddd","transfer(address,uint256)":"a9059cbb","transferFrom(address,address,uint256)":"23b872dd","treasuryWallet()":"4626402b","unpause()":"3f4ba83a","updateTimelockDelay(uint256)":"8e52d9d3","usdValue(uint256)":"453d105f","usdcAddress()":"02d45457","usdtAddress()":"9ab4a445","whitelist(address)":"9b19251a"}}}}}