{
  "_format": "hh-sol-artifact-1",
  "contractName": "MockFeedPrice",
  "sourceName": "contracts/MockFeedPrice.sol",
  "abi": [
    {
      "inputs": [
        {
          "internalType": "int256",
          "name": "initialPrice",
          "type": "int256"
        }
      ],
      "stateMutability": "nonpayable",
      "type": "constructor"
    },
    {
      "inputs": [],
      "name": "decimals",
      "outputs": [
        {
          "internalType": "uint8",
          "name": "",
          "type": "uint8"
        }
      ],
      "stateMutability": "pure",
      "type": "function"
    },
    {
      "inputs": [],
      "name": "description",
      "outputs": [
        {
          "internalType": "string",
          "name": "",
          "type": "string"
        }
      ],
      "stateMutability": "pure",
      "type": "function"
    },
    {
      "inputs": [
        {
          "internalType": "uint80",
          "name": "",
          "type": "uint80"
        }
      ],
      "name": "getRoundData",
      "outputs": [
        {
          "internalType": "uint80",
          "name": "",
          "type": "uint80"
        },
        {
          "internalType": "int256",
          "name": "",
          "type": "int256"
        },
        {
          "internalType": "uint256",
          "name": "",
          "type": "uint256"
        },
        {
          "internalType": "uint256",
          "name": "",
          "type": "uint256"
        },
        {
          "internalType": "uint80",
          "name": "",
          "type": "uint80"
        }
      ],
      "stateMutability": "pure",
      "type": "function"
    },
    {
      "inputs": [],
      "name": "latestRoundData",
      "outputs": [
        {
          "internalType": "uint80",
          "name": "",
          "type": "uint80"
        },
        {
          "internalType": "int256",
          "name": "",
          "type": "int256"
        },
        {
          "internalType": "uint256",
          "name": "",
          "type": "uint256"
        },
        {
          "internalType": "uint256",
          "name": "",
          "type": "uint256"
        },
        {
          "internalType": "uint80",
          "name": "",
          "type": "uint80"
        }
      ],
      "stateMutability": "view",
      "type": "function"
    },
    {
      "inputs": [
        {
          "internalType": "int256",
          "name": "newPrice",
          "type": "int256"
        }
      ],
      "name": "setPrice",
      "outputs": [],
      "stateMutability": "nonpayable",
      "type": "function"
    },
    {
      "inputs": [],
      "name": "version",
      "outputs": [
        {
          "internalType": "uint256",
          "name": "",
          "type": "uint256"
        }
      ],
      "stateMutability": "pure",
      "type": "function"
    }
  ],
  "bytecode": "0x608060405234801561001057600080fd5b5060405161025438038061025483398101604081905261002f91610037565b600055610050565b60006020828403121561004957600080fd5b5051919050565b6101f58061005f6000396000f3fe608060405234801561001057600080fd5b50600436106100625760003560e01c8063313ce5671461006757806354fd4d501461007b5780637284e4161461008a5780639a6fc8f5146100b7578063f7a3080614610107578063feaf968c1461011c575b600080fd5b604051600881526020015b60405180910390f35b60405160018152602001610072565b604080518082018252600b81526a4d6f636b204f7261636c6560a81b602082015290516100729190610128565b6100d36100c5366004610176565b506000908190819081908190565b604080516001600160501b03968716815260208101959095528401929092526060830152909116608082015260a001610072565b61011a6101153660046101a6565b600055565b005b600080548180806100d3565b600060208083528351808285015260005b8181101561015557858101830151858201604001528201610139565b506000604082860101526040601f19601f8301168501019250505092915050565b60006020828403121561018857600080fd5b81356001600160501b038116811461019f57600080fd5b9392505050565b6000602082840312156101b857600080fd5b503591905056fea2646970667358221220d349aa11e0103e725b40b21a9627e53052d5dfc3944c8ebaeb96154adafd2d6364736f6c63430008140033",
  "linkReferences": {},
  "deployedLinkReferences": {}
}