{
  "_format": "hh-sol-artifact-1",
  "contractName": "USDTgOracleWrapper",
  "sourceName": "contracts/USDTgOracleWrapper.sol",
  "abi": [
    {
      "inputs": [
        {
          "internalType": "address",
          "name": "_usdtg",
          "type": "address"
        }
      ],
      "stateMutability": "nonpayable",
      "type": "constructor"
    },
    {
      "inputs": [],
      "name": "decimals",
      "outputs": [
        {
          "internalType": "uint8",
          "name": "",
          "type": "uint8"
        }
      ],
      "stateMutability": "view",
      "type": "function"
    },
    {
      "inputs": [],
      "name": "latestAnswer",
      "outputs": [
        {
          "internalType": "int256",
          "name": "",
          "type": "int256"
        }
      ],
      "stateMutability": "view",
      "type": "function"
    },
    {
      "inputs": [],
      "name": "priceDecimals",
      "outputs": [
        {
          "internalType": "uint8",
          "name": "",
          "type": "uint8"
        }
      ],
      "stateMutability": "view",
      "type": "function"
    },
    {
      "inputs": [],
      "name": "usdtg",
      "outputs": [
        {
          "internalType": "address",
          "name": "",
          "type": "address"
        }
      ],
      "stateMutability": "view",
      "type": "function"
    }
  ],
  "bytecode": "0x60c060405234801561001057600080fd5b506040516103af3803806103af83398101604081905261002f91610103565b6001600160a01b0381166100895760405162461bcd60e51b815260206004820152601560248201527f496e76616c696420746f6b656e20616464726573730000000000000000000000604482015260640160405180910390fd5b6001600160a01b03811660808190526040805163313ce56760e01b8152905163313ce567916004808201926020929091908290030181865afa1580156100d3573d6000803e3d6000fd5b505050506040513d601f19601f820116820180604052508101906100f79190610133565b60ff1660a05250610156565b60006020828403121561011557600080fd5b81516001600160a01b038116811461012c57600080fd5b9392505050565b60006020828403121561014557600080fd5b815160ff8116811461012c57600080fd5b60805160a0516102296101866000396000818160560152609101526000818160d0015261010f01526102296000f3fe608060405234801561001057600080fd5b506004361061004c5760003560e01c806305300b2814610051578063313ce5671461008f57806350d25bcd146100b557806358d0d1d1146100cb575b600080fd5b6100787f000000000000000000000000000000000000000000000000000000000000000081565b60405160ff90911681526020015b60405180910390f35b7f0000000000000000000000000000000000000000000000000000000000000000610078565b6100bd61010a565b604051908152602001610086565b6100f27f000000000000000000000000000000000000000000000000000000000000000081565b6040516001600160a01b039091168152602001610086565b6000807f00000000000000000000000000000000000000000000000000000000000000006001600160a01b0316638e15f4736040518163ffffffff1660e01b8152600401602060405180830381865afa15801561016b573d6000803e3d6000fd5b505050506040513d601f19601f8201168201806040525081019061018f91906101da565b9050600081116101d55760405162461bcd60e51b815260206004820152600d60248201526c496e76616c696420707269636560981b604482015260640160405180910390fd5b919050565b6000602082840312156101ec57600080fd5b505191905056fea264697066735822122008f6de7b9983d4ef1be6fa2ab644d88c1465200e75af75ea46e820a6120757f464736f6c63430008140033",
  "linkReferences": {},
  "deployedLinkReferences": {}
}