{
  "_format": "hh-sol-artifact-1",
  "contractName": "MockPriceFeed",
  "sourceName": "contracts/MockPriceFeed.sol",
  "abi": [
    {
      "inputs": [
        {
          "internalType": "int256",
          "name": "_initialPrice",
          "type": "int256"
        }
      ],
      "stateMutability": "nonpayable",
      "type": "constructor"
    },
    {
      "inputs": [],
      "name": "decimals",
      "outputs": [
        {
          "internalType": "uint8",
          "name": "",
          "type": "uint8"
        }
      ],
      "stateMutability": "pure",
      "type": "function"
    },
    {
      "inputs": [],
      "name": "description",
      "outputs": [
        {
          "internalType": "string",
          "name": "",
          "type": "string"
        }
      ],
      "stateMutability": "pure",
      "type": "function"
    },
    {
      "inputs": [
        {
          "internalType": "uint80",
          "name": "_roundId",
          "type": "uint80"
        }
      ],
      "name": "getRoundData",
      "outputs": [
        {
          "internalType": "uint80",
          "name": "",
          "type": "uint80"
        },
        {
          "internalType": "int256",
          "name": "",
          "type": "int256"
        },
        {
          "internalType": "uint256",
          "name": "",
          "type": "uint256"
        },
        {
          "internalType": "uint256",
          "name": "",
          "type": "uint256"
        },
        {
          "internalType": "uint80",
          "name": "",
          "type": "uint80"
        }
      ],
      "stateMutability": "pure",
      "type": "function"
    },
    {
      "inputs": [],
      "name": "latestRoundData",
      "outputs": [
        {
          "internalType": "uint80",
          "name": "",
          "type": "uint80"
        },
        {
          "internalType": "int256",
          "name": "answer",
          "type": "int256"
        },
        {
          "internalType": "uint256",
          "name": "",
          "type": "uint256"
        },
        {
          "internalType": "uint256",
          "name": "",
          "type": "uint256"
        },
        {
          "internalType": "uint80",
          "name": "",
          "type": "uint80"
        }
      ],
      "stateMutability": "view",
      "type": "function"
    },
    {
      "inputs": [
        {
          "internalType": "int256",
          "name": "_newPrice",
          "type": "int256"
        }
      ],
      "name": "updatePrice",
      "outputs": [],
      "stateMutability": "nonpayable",
      "type": "function"
    },
    {
      "inputs": [],
      "name": "version",
      "outputs": [
        {
          "internalType": "uint256",
          "name": "",
          "type": "uint256"
        }
      ],
      "stateMutability": "pure",
      "type": "function"
    }
  ],
  "bytecode": "0x608060405234801561001057600080fd5b506040516105243803806105248339818101604052810190610032919061007a565b80600081905550506100a7565b600080fd5b6000819050919050565b61005781610044565b811461006257600080fd5b50565b6000815190506100748161004e565b92915050565b6000602082840312156100905761008f61003f565b5b600061009e84828501610065565b91505092915050565b61046e806100b66000396000f3fe608060405234801561001057600080fd5b50600436106100625760003560e01c8063313ce5671461006757806354fd4d50146100855780637284e416146100a35780639a6fc8f5146100c1578063d4c19bda146100f5578063feaf968c14610111575b600080fd5b61006f610133565b60405161007c91906101ef565b60405180910390f35b61008d61013c565b60405161009a9190610223565b60405180910390f35b6100ab610145565b6040516100b891906102ce565b60405180910390f35b6100db60048036038101906100d69190610337565b610182565b6040516100ec95949392919061038c565b60405180910390f35b61010f600480360381019061010a919061040b565b6101a7565b005b6101196101b1565b60405161012a95949392919061038c565b60405180910390f35b60006008905090565b60006001905090565b60606040518060400160405280600f81526020017f4d6f636b20507269636520466565640000000000000000000000000000000000815250905090565b6000806000806000856305f5e100600080899450945094509450945091939590929450565b8060008190555050565b6000806000806000806000546000806000945094509450945094509091929394565b600060ff82169050919050565b6101e9816101d3565b82525050565b600060208201905061020460008301846101e0565b92915050565b6000819050919050565b61021d8161020a565b82525050565b60006020820190506102386000830184610214565b92915050565b600081519050919050565b600082825260208201905092915050565b60005b8381101561027857808201518184015260208101905061025d565b60008484015250505050565b6000601f19601f8301169050919050565b60006102a08261023e565b6102aa8185610249565b93506102ba81856020860161025a565b6102c381610284565b840191505092915050565b600060208201905081810360008301526102e88184610295565b905092915050565b600080fd5b600069ffffffffffffffffffff82169050919050565b610314816102f5565b811461031f57600080fd5b50565b6000813590506103318161030b565b92915050565b60006020828403121561034d5761034c6102f0565b5b600061035b84828501610322565b91505092915050565b61036d816102f5565b82525050565b6000819050919050565b61038681610373565b82525050565b600060a0820190506103a16000830188610364565b6103ae602083018761037d565b6103bb6040830186610214565b6103c86060830185610214565b6103d56080830184610364565b9695505050505050565b6103e881610373565b81146103f357600080fd5b50565b600081359050610405816103df565b92915050565b600060208284031215610421576104206102f0565b5b600061042f848285016103f6565b9150509291505056fea264697066735822122047a08639f7da12e538e5bca63ba6b92c9c66cb2ebf5fd4103058ce19a122b08264736f6c63430008140033",
  "linkReferences": {},
  "deployedLinkReferences": {}
}