{
  "_format": "hh-sol-artifact-1",
  "contractName": "TetherGroundUSD",
  "sourceName": "contracts/USDTGTokenUpdate.sol",
  "abi": [
    {
      "inputs": [],
      "stateMutability": "nonpayable",
      "type": "constructor"
    },
    {
      "anonymous": false,
      "inputs": [
        {
          "indexed": true,
          "internalType": "address",
          "name": "owner",
          "type": "address"
        },
        {
          "indexed": true,
          "internalType": "address",
          "name": "spender",
          "type": "address"
        },
        {
          "indexed": false,
          "internalType": "uint256",
          "name": "value",
          "type": "uint256"
        }
      ],
      "name": "Approval",
      "type": "event"
    },
    {
      "anonymous": false,
      "inputs": [
        {
          "indexed": true,
          "internalType": "address",
          "name": "previousOwner",
          "type": "address"
        },
        {
          "indexed": true,
          "internalType": "address",
          "name": "newOwner",
          "type": "address"
        }
      ],
      "name": "OwnershipTransferred",
      "type": "event"
    },
    {
      "anonymous": false,
      "inputs": [
        {
          "indexed": false,
          "internalType": "address",
          "name": "account",
          "type": "address"
        }
      ],
      "name": "Paused",
      "type": "event"
    },
    {
      "anonymous": false,
      "inputs": [
        {
          "indexed": false,
          "internalType": "uint256",
          "name": "newPrice",
          "type": "uint256"
        },
        {
          "indexed": false,
          "internalType": "uint256",
          "name": "timestamp",
          "type": "uint256"
        }
      ],
      "name": "PriceUpdated",
      "type": "event"
    },
    {
      "anonymous": false,
      "inputs": [
        {
          "indexed": false,
          "internalType": "string",
          "name": "key",
          "type": "string"
        },
        {
          "indexed": false,
          "internalType": "string",
          "name": "value",
          "type": "string"
        }
      ],
      "name": "TokenInfoUpdated",
      "type": "event"
    },
    {
      "anonymous": false,
      "inputs": [
        {
          "indexed": true,
          "internalType": "address",
          "name": "from",
          "type": "address"
        },
        {
          "indexed": true,
          "internalType": "address",
          "name": "to",
          "type": "address"
        },
        {
          "indexed": false,
          "internalType": "uint256",
          "name": "value",
          "type": "uint256"
        }
      ],
      "name": "Transfer",
      "type": "event"
    },
    {
      "anonymous": false,
      "inputs": [
        {
          "indexed": false,
          "internalType": "address",
          "name": "account",
          "type": "address"
        }
      ],
      "name": "Unpaused",
      "type": "event"
    },
    {
      "inputs": [],
      "name": "TOKEN_DESCRIPTION",
      "outputs": [
        {
          "internalType": "string",
          "name": "",
          "type": "string"
        }
      ],
      "stateMutability": "view",
      "type": "function"
    },
    {
      "inputs": [],
      "name": "TOKEN_LOGO",
      "outputs": [
        {
          "internalType": "string",
          "name": "",
          "type": "string"
        }
      ],
      "stateMutability": "view",
      "type": "function"
    },
    {
      "inputs": [],
      "name": "TOKEN_WEBSITE",
      "outputs": [
        {
          "internalType": "string",
          "name": "",
          "type": "string"
        }
      ],
      "stateMutability": "view",
      "type": "function"
    },
    {
      "inputs": [
        {
          "internalType": "address",
          "name": "owner",
          "type": "address"
        },
        {
          "internalType": "address",
          "name": "spender",
          "type": "address"
        }
      ],
      "name": "allowance",
      "outputs": [
        {
          "internalType": "uint256",
          "name": "",
          "type": "uint256"
        }
      ],
      "stateMutability": "view",
      "type": "function"
    },
    {
      "inputs": [
        {
          "internalType": "address",
          "name": "spender",
          "type": "address"
        },
        {
          "internalType": "uint256",
          "name": "amount",
          "type": "uint256"
        }
      ],
      "name": "approve",
      "outputs": [
        {
          "internalType": "bool",
          "name": "",
          "type": "bool"
        }
      ],
      "stateMutability": "nonpayable",
      "type": "function"
    },
    {
      "inputs": [
        {
          "internalType": "address",
          "name": "account",
          "type": "address"
        }
      ],
      "name": "balanceOf",
      "outputs": [
        {
          "internalType": "uint256",
          "name": "",
          "type": "uint256"
        }
      ],
      "stateMutability": "view",
      "type": "function"
    },
    {
      "inputs": [],
      "name": "decimals",
      "outputs": [
        {
          "internalType": "uint8",
          "name": "",
          "type": "uint8"
        }
      ],
      "stateMutability": "pure",
      "type": "function"
    },
    {
      "inputs": [
        {
          "internalType": "address",
          "name": "spender",
          "type": "address"
        },
        {
          "internalType": "uint256",
          "name": "subtractedValue",
          "type": "uint256"
        }
      ],
      "name": "decreaseAllowance",
      "outputs": [
        {
          "internalType": "bool",
          "name": "",
          "type": "bool"
        }
      ],
      "stateMutability": "nonpayable",
      "type": "function"
    },
    {
      "inputs": [],
      "name": "getTokenMetadata",
      "outputs": [
        {
          "internalType": "string",
          "name": "",
          "type": "string"
        }
      ],
      "stateMutability": "view",
      "type": "function"
    },
    {
      "inputs": [
        {
          "internalType": "address",
          "name": "spender",
          "type": "address"
        },
        {
          "internalType": "uint256",
          "name": "addedValue",
          "type": "uint256"
        }
      ],
      "name": "increaseAllowance",
      "outputs": [
        {
          "internalType": "bool",
          "name": "",
          "type": "bool"
        }
      ],
      "stateMutability": "nonpayable",
      "type": "function"
    },
    {
      "inputs": [],
      "name": "lastPriceUpdate",
      "outputs": [
        {
          "internalType": "uint256",
          "name": "",
          "type": "uint256"
        }
      ],
      "stateMutability": "view",
      "type": "function"
    },
    {
      "inputs": [],
      "name": "name",
      "outputs": [
        {
          "internalType": "string",
          "name": "",
          "type": "string"
        }
      ],
      "stateMutability": "view",
      "type": "function"
    },
    {
      "inputs": [],
      "name": "owner",
      "outputs": [
        {
          "internalType": "address",
          "name": "",
          "type": "address"
        }
      ],
      "stateMutability": "view",
      "type": "function"
    },
    {
      "inputs": [],
      "name": "paused",
      "outputs": [
        {
          "internalType": "bool",
          "name": "",
          "type": "bool"
        }
      ],
      "stateMutability": "view",
      "type": "function"
    },
    {
      "inputs": [],
      "name": "renounceOwnership",
      "outputs": [],
      "stateMutability": "nonpayable",
      "type": "function"
    },
    {
      "inputs": [],
      "name": "symbol",
      "outputs": [
        {
          "internalType": "string",
          "name": "",
          "type": "string"
        }
      ],
      "stateMutability": "view",
      "type": "function"
    },
    {
      "inputs": [
        {
          "internalType": "string",
          "name": "",
          "type": "string"
        }
      ],
      "name": "tokenInfo",
      "outputs": [
        {
          "internalType": "string",
          "name": "",
          "type": "string"
        }
      ],
      "stateMutability": "view",
      "type": "function"
    },
    {
      "inputs": [],
      "name": "tokenPrice",
      "outputs": [
        {
          "internalType": "uint256",
          "name": "",
          "type": "uint256"
        }
      ],
      "stateMutability": "view",
      "type": "function"
    },
    {
      "inputs": [],
      "name": "totalSupply",
      "outputs": [
        {
          "internalType": "uint256",
          "name": "",
          "type": "uint256"
        }
      ],
      "stateMutability": "view",
      "type": "function"
    },
    {
      "inputs": [
        {
          "internalType": "address",
          "name": "to",
          "type": "address"
        },
        {
          "internalType": "uint256",
          "name": "amount",
          "type": "uint256"
        }
      ],
      "name": "transfer",
      "outputs": [
        {
          "internalType": "bool",
          "name": "",
          "type": "bool"
        }
      ],
      "stateMutability": "nonpayable",
      "type": "function"
    },
    {
      "inputs": [
        {
          "internalType": "address",
          "name": "from",
          "type": "address"
        },
        {
          "internalType": "address",
          "name": "to",
          "type": "address"
        },
        {
          "internalType": "uint256",
          "name": "amount",
          "type": "uint256"
        }
      ],
      "name": "transferFrom",
      "outputs": [
        {
          "internalType": "bool",
          "name": "",
          "type": "bool"
        }
      ],
      "stateMutability": "nonpayable",
      "type": "function"
    },
    {
      "inputs": [
        {
          "internalType": "address",
          "name": "newOwner",
          "type": "address"
        }
      ],
      "name": "transferOwnership",
      "outputs": [],
      "stateMutability": "nonpayable",
      "type": "function"
    },
    {
      "inputs": [
        {
          "internalType": "uint256",
          "name": "_newPrice",
          "type": "uint256"
        }
      ],
      "name": "updatePrice",
      "outputs": [],
      "stateMutability": "nonpayable",
      "type": "function"
    },
    {
      "inputs": [
        {
          "internalType": "string",
          "name": "key",
          "type": "string"
        },
        {
          "internalType": "string",
          "name": "value",
          "type": "string"
        }
      ],
      "name": "updateTokenInfo",
      "outputs": [],
      "stateMutability": "nonpayable",
      "type": "function"
    }
  ],
  "bytecode": "0x6080604052620f42406006553480156200001857600080fd5b506040518060400160405280601081526020016f15195d1a195c91dc9bdd5b99081554d160821b81525060405180604001604052806005815260200164555344546760d81b8152508160039081620000719190620004af565b506004620000808282620004af565b5050506200009d62000097620002ea60201b60201c565b620002ee565b6005805460ff60a01b19169055620000bd3366038d7ea4c6800062000340565b604080518082018252601b81527f54657468657247726f756e642055534420537461626c65636f696e0000000000602082015281516a3232b9b1b934b83a34b7b760a91b81526008600b820152915191829003602b0190912090620001239082620004af565b50604080518082018252601881527f68747470733a2f2f74657468657267726f756e642e636f6d000000000000000060208201528151667765627369746560c81b81526008600782015291519182900360270190912090620001869082620004af565b50604051806060016040528060228152602001620019b96022913960408051636c6f676f60e01b815260086004820152905190819003602401902090620001ce9082620004af565b50604080518082018252601881527f636f6e746163744074657468657267726f756e642e636f6d00000000000000006020820152815164195b585a5b60da1b815260086005820152915191829003602501909120906200022f9082620004af565b50604080518082018252601f81527f68747470733a2f2f6769746875622e636f6d2f74657468657267726f756e6400602082015281516533b4ba343ab160d11b81526008600682015291519182900360260190912090620002919082620004af565b50604051806060016040528060238152602001620019966023913960408051693bb434ba32b830b832b960b11b81526008600a820152905190819003602a01902090620002df9082620004af565b5042600755620005a3565b3390565b600580546001600160a01b038381166001600160a01b0319831681179093556040519116919082907f8be0079c531659141344cd1fd0a4f28419497f9722a3daafe3b4186f6b6457e090600090a35050565b6001600160a01b0382166200039b5760405162461bcd60e51b815260206004820152601f60248201527f45524332303a206d696e7420746f20746865207a65726f206164647265737300604482015260640160405180910390fd5b8060026000828254620003af91906200057b565b90915550506001600160a01b038216600081815260208181526040808320805486019055518481527fddf252ad1be2c89b69c2b068fc378daa952ba7f163c4a11628f55a4df523b3ef910160405180910390a35050565b505050565b634e487b7160e01b600052604160045260246000fd5b600181811c908216806200043657607f821691505b6020821081036200045757634e487b7160e01b600052602260045260246000fd5b50919050565b601f8211156200040657600081815260208120601f850160051c81016020861015620004865750805b601f850160051c820191505b81811015620004a75782815560010162000492565b505050505050565b81516001600160401b03811115620004cb57620004cb6200040b565b620004e381620004dc845462000421565b846200045d565b602080601f8311600181146200051b5760008415620005025750858301515b600019600386901b1c1916600185901b178555620004a7565b600085815260208120601f198616915b828110156200054c578886015182559484019460019091019084016200052b565b50858210156200056b5787850151600019600388901b60f8161c191681555b5050505050600190811b01905550565b808201808211156200059d57634e487b7160e01b600052601160045260246000fd5b92915050565b6113e380620005b36000396000f3fe608060405234801561001057600080fd5b50600436106101385760003560e01c8063715018a6116100b3578063715018a6146102395780637a3e615f146102415780637ff9b596146102495780638d6cc56d146102525780638da5cb5b1461026557806395d89b4114610280578063978f5492146102885780639f9d221b146102c2578063a457c2d7146102f9578063a9059cbb1461030c578063dd62ed3e1461031f578063f2fde38b1461033257600080fd5b806306fdde031461013d578063095ea7b31461015b578063124d5ac01461017e57806318160ddd1461018657806323b872dd146101985780632f71d022146101ab578063313ce567146101c057806339509351146101cf578063587bbca2146101e25780635c975abb146101f55780636949faeb1461020757806370a0823114610210575b600080fd5b610145610345565b6040516101529190610d55565b60405180910390f35b61016e610169366004610d8b565b6103d7565b6040519015158152602001610152565b6101456103f1565b6002545b604051908152602001610152565b61016e6101a6366004610db5565b6104ad565b6101be6101b9366004610e93565b6104d1565b005b60405160068152602001610152565b61016e6101dd366004610d8b565b610542565b6101456101f0366004610ef6565b610564565b600554600160a01b900460ff1661016e565b61018a60075481565b61018a61021e366004610f2a565b6001600160a01b031660009081526020819052604090205490565b6101be610609565b61014561061d565b61018a60065481565b6101be610260366004610f45565b610639565b6005546040516001600160a01b039091168152602001610152565b6101456106ce565b6101456040518060400160405280601b81526020017a2a32ba3432b923b937bab732102aa9a21029ba30b13632b1b7b4b760291b81525081565b6101456040518060400160405280601881526020017768747470733a2f2f74657468657267726f756e642e636f6d60401b81525081565b61016e610307366004610d8b565b6106dd565b61016e61031a366004610d8b565b610758565b61018a61032d366004610f5e565b610766565b6101be610340366004610f2a565b610791565b60606003805461035490610f91565b80601f016020809104026020016040519081016040528092919081815260200182805461038090610f91565b80156103cd5780601f106103a2576101008083540402835291602001916103cd565b820191906000526020600020905b8154815290600101906020018083116103b057829003601f168201915b5050505050905090565b6000336103e581858561080a565b60019150505b92915050565b60606103fb610345565b6104036106ce565b61040d600661092e565b604051636c6f676f60e01b8152600890600401908152604051908190036020018120667765627369746560c81b8252906008906007019081526040519081900360200181206a3232b9b1b934b83a34b7b760a91b825290600890600b01908152602001604051809103902061048360065461092e565b604051602001610499979695949392919061105a565b604051602081830303815290604052905090565b6000336104bb858285610a36565b6104c6858585610ab0565b506001949350505050565b6104d9610c54565b806008836040516104ea919061118b565b9081526020016040518091039020908161050491906111f5565b507f0858765c007173eefd0c7d006dbabfa031554929e9fff1d057b370654a40f21782826040516105369291906112b4565b60405180910390a15050565b6000336103e58185856105558383610766565b61055f91906112f8565b61080a565b80516020818301810180516008825292820191909301209152805461058890610f91565b80601f01602080910402602001604051908101604052809291908181526020018280546105b490610f91565b80156106015780601f106105d657610100808354040283529160200191610601565b820191906000526020600020905b8154815290600101906020018083116105e457829003601f168201915b505050505081565b610611610c54565b61061b6000610cae565b565b60405180606001604052806022815260200161138c6022913981565b610641610c54565b600081116106865760405162461bcd60e51b815260206004820152600d60248201526c496e76616c696420707269636560981b60448201526064015b60405180910390fd5b60068190554260078190556040805183815260208101929092527f945c1c4e99aa89f648fbfe3df471b916f719e16d960fcec0737d4d56bd696838910160405180910390a150565b60606004805461035490610f91565b600033816106eb8286610766565b90508381101561074b5760405162461bcd60e51b815260206004820152602560248201527f45524332303a2064656372656173656420616c6c6f77616e63652062656c6f77604482015264207a65726f60d81b606482015260840161067d565b6104c6828686840361080a565b6000336103e5818585610ab0565b6001600160a01b03918216600090815260016020908152604080832093909416825291909152205490565b610799610c54565b6001600160a01b0381166107fe5760405162461bcd60e51b815260206004820152602660248201527f4f776e61626c653a206e6577206f776e657220697320746865207a65726f206160448201526564647265737360d01b606482015260840161067d565b61080781610cae565b50565b6001600160a01b03831661086c5760405162461bcd60e51b8152602060048201526024808201527f45524332303a20617070726f76652066726f6d20746865207a65726f206164646044820152637265737360e01b606482015260840161067d565b6001600160a01b0382166108cd5760405162461bcd60e51b815260206004820152602260248201527f45524332303a20617070726f766520746f20746865207a65726f206164647265604482015261737360f01b606482015260840161067d565b6001600160a01b0383811660008181526001602090815260408083209487168084529482529182902085905590518481527f8c5be1e5ebec7d5bd14f71427d1e84f3dd0314c0f7b2291e5b200ac8c7c3b925910160405180910390a3505050565b6060816000036109555750506040805180820190915260018152600360fc1b602082015290565b8160005b811561097f57806109698161130b565b91506109789050600a8361133a565b9150610959565b6000816001600160401b0381111561099957610999610df1565b6040519080825280601f01601f1916602001820160405280156109c3576020820181803683370190505b5090505b8415610a2e576109d860018361134e565b91506109e5600a86611361565b6109f09060306112f8565b60f81b818381518110610a0557610a05611375565b60200101906001600160f81b031916908160001a905350610a27600a8661133a565b94506109c7565b949350505050565b6000610a428484610766565b90506000198114610aaa5781811015610a9d5760405162461bcd60e51b815260206004820152601d60248201527f45524332303a20696e73756666696369656e7420616c6c6f77616e6365000000604482015260640161067d565b610aaa848484840361080a565b50505050565b6001600160a01b038316610b145760405162461bcd60e51b815260206004820152602560248201527f45524332303a207472616e736665722066726f6d20746865207a65726f206164604482015264647265737360d81b606482015260840161067d565b6001600160a01b038216610b765760405162461bcd60e51b815260206004820152602360248201527f45524332303a207472616e7366657220746f20746865207a65726f206164647260448201526265737360e81b606482015260840161067d565b6001600160a01b03831660009081526020819052604090205481811015610bee5760405162461bcd60e51b815260206004820152602660248201527f45524332303a207472616e7366657220616d6f756e7420657863656564732062604482015265616c616e636560d01b606482015260840161067d565b6001600160a01b03848116600081815260208181526040808320878703905593871680835291849020805487019055925185815290927fddf252ad1be2c89b69c2b068fc378daa952ba7f163c4a11628f55a4df523b3ef910160405180910390a3610aaa565b6005546001600160a01b0316331461061b5760405162461bcd60e51b815260206004820181905260248201527f4f776e61626c653a2063616c6c6572206973206e6f7420746865206f776e6572604482015260640161067d565b600580546001600160a01b038381166001600160a01b0319831681179093556040519116919082907f8be0079c531659141344cd1fd0a4f28419497f9722a3daafe3b4186f6b6457e090600090a35050565b505050565b60005b83811015610d20578181015183820152602001610d08565b50506000910152565b60008151808452610d41816020860160208601610d05565b601f01601f19169290920160200192915050565b602081526000610d686020830184610d29565b9392505050565b80356001600160a01b0381168114610d8657600080fd5b919050565b60008060408385031215610d9e57600080fd5b610da783610d6f565b946020939093013593505050565b600080600060608486031215610dca57600080fd5b610dd384610d6f565b9250610de160208501610d6f565b9150604084013590509250925092565b634e487b7160e01b600052604160045260246000fd5b600082601f830112610e1857600080fd5b81356001600160401b0380821115610e3257610e32610df1565b604051601f8301601f19908116603f01168101908282118183101715610e5a57610e5a610df1565b81604052838152866020858801011115610e7357600080fd5b836020870160208301376000602085830101528094505050505092915050565b60008060408385031215610ea657600080fd5b82356001600160401b0380821115610ebd57600080fd5b610ec986838701610e07565b93506020850135915080821115610edf57600080fd5b50610eec85828601610e07565b9150509250929050565b600060208284031215610f0857600080fd5b81356001600160401b03811115610f1e57600080fd5b610a2e84828501610e07565b600060208284031215610f3c57600080fd5b610d6882610d6f565b600060208284031215610f5757600080fd5b5035919050565b60008060408385031215610f7157600080fd5b610f7a83610d6f565b9150610f8860208401610d6f565b90509250929050565b600181811c90821680610fa557607f821691505b602082108103610fc557634e487b7160e01b600052602260045260246000fd5b50919050565b60008151610fdd818560208601610d05565b9290920192915050565b60008154610ff481610f91565b6001828116801561100c576001811461102157611050565b60ff1984168752821515830287019450611050565b8560005260208060002060005b858110156110475781548a82015290840190820161102e565b50505082870194505b5050505092915050565b683d913730b6b2911d1160b91b8152875160009061107f816009850160208d01610d05565b6b11161139bcb6b137b6111d1160a11b60099184019182015288516110ab816015840160208d01610d05565b6c1116113232b1b4b6b0b639911d60991b6015929091019182015287516110d9816022840160208c01610d05565b6816113637b3b7911d1160b91b602292909101918201526110fd602b820188610fe7565b6c1116113bb2b139b4ba32911d1160991b8152905061111f600d820187610fe7565b701116113232b9b1b934b83a34b7b7111d1160791b8152905061117d61116f61116961114e6011850189610fe7565b6e111611383934b1b2afbab9b2111d1160891b8152600f0190565b86610fcb565b61227d60f01b815260020190565b9a9950505050505050505050565b6000825161119d818460208701610d05565b9190910192915050565b601f821115610d0057600081815260208120601f850160051c810160208610156111ce5750805b601f850160051c820191505b818110156111ed578281556001016111da565b505050505050565b81516001600160401b0381111561120e5761120e610df1565b6112228161121c8454610f91565b846111a7565b602080601f831160018114611257576000841561123f5750858301515b600019600386901b1c1916600185901b1785556111ed565b600085815260208120601f198616915b8281101561128657888601518255948401946001909101908401611267565b50858210156112a45787850151600019600388901b60f8161c191681555b5050505050600190811b01905550565b6040815260006112c76040830185610d29565b82810360208401526112d98185610d29565b95945050505050565b634e487b7160e01b600052601160045260246000fd5b808201808211156103eb576103eb6112e2565b60006001820161131d5761131d6112e2565b5060010190565b634e487b7160e01b600052601260045260246000fd5b60008261134957611349611324565b500490565b818103818111156103eb576103eb6112e2565b60008261137057611370611324565b500690565b634e487b7160e01b600052603260045260246000fdfe68747470733a2f2f796f75722d6c6f676f2d75726c2e636f6d2f6c6f676f2e706e67a2646970667358221220d8c2ff8783910624e05122f14058946cd0625dfc76a44ffa51c82263fa32472764736f6c6343000814003368747470733a2f2f74657468657267726f756e642e636f6d2f7768697465706170657268747470733a2f2f796f75722d6c6f676f2d75726c2e636f6d2f6c6f676f2e706e67",
  "linkReferences": {},
  "deployedLinkReferences": {}
}