{
  "_format": "hh-sol-artifact-1",
  "contractName": "USDTgTokenTRC20",
  "sourceName": "contracts/USDTgTokenTRC20.sol",
  "abi": [
    {
      "inputs": [
        {
          "internalType": "string",
          "name": "name_",
          "type": "string"
        },
        {
          "internalType": "string",
          "name": "symbol_",
          "type": "string"
        },
        {
          "internalType": "address",
          "name": "_feeWallet",
          "type": "address"
        },
        {
          "internalType": "address",
          "name": "_usdtAddress",
          "type": "address"
        },
        {
          "internalType": "address",
          "name": "_usdcAddress",
          "type": "address"
        },
        {
          "internalType": "address",
          "name": "_router",
          "type": "address"
        },
        {
          "internalType": "address",
          "name": "_priceFeed",
          "type": "address"
        },
        {
          "internalType": "address",
          "name": "_multisigWallet",
          "type": "address"
        }
      ],
      "stateMutability": "nonpayable",
      "type": "constructor"
    },
    {
      "anonymous": false,
      "inputs": [
        {
          "indexed": true,
          "internalType": "address",
          "name": "owner",
          "type": "address"
        },
        {
          "indexed": true,
          "internalType": "address",
          "name": "spender",
          "type": "address"
        },
        {
          "indexed": false,
          "internalType": "uint256",
          "name": "value",
          "type": "uint256"
        }
      ],
      "name": "Approval",
      "type": "event"
    },
    {
      "anonymous": false,
      "inputs": [
        {
          "indexed": true,
          "internalType": "address",
          "name": "account",
          "type": "address"
        },
        {
          "indexed": false,
          "internalType": "bool",
          "name": "blacklisted",
          "type": "bool"
        }
      ],
      "name": "BlacklistUpdated",
      "type": "event"
    },
    {
      "anonymous": false,
      "inputs": [
        {
          "indexed": false,
          "internalType": "string",
          "name": "cooldownType",
          "type": "string"
        },
        {
          "indexed": false,
          "internalType": "uint256",
          "name": "newCooldown",
          "type": "uint256"
        }
      ],
      "name": "CooldownUpdated",
      "type": "event"
    },
    {
      "anonymous": false,
      "inputs": [
        {
          "indexed": false,
          "internalType": "uint256",
          "name": "newPrice",
          "type": "uint256"
        }
      ],
      "name": "FixedUSDPriceUpdated",
      "type": "event"
    },
    {
      "anonymous": false,
      "inputs": [
        {
          "indexed": false,
          "internalType": "uint256",
          "name": "newMaxSupply",
          "type": "uint256"
        }
      ],
      "name": "MaxSupplyUpdated",
      "type": "event"
    },
    {
      "anonymous": false,
      "inputs": [
        {
          "indexed": false,
          "internalType": "address",
          "name": "account",
          "type": "address"
        }
      ],
      "name": "Paused",
      "type": "event"
    },
    {
      "anonymous": false,
      "inputs": [
        {
          "indexed": false,
          "internalType": "uint256",
          "name": "timestamp",
          "type": "uint256"
        },
        {
          "indexed": false,
          "internalType": "uint256",
          "name": "fallbackPrice",
          "type": "uint256"
        }
      ],
      "name": "PriceFeedFallbackUsed",
      "type": "event"
    },
    {
      "anonymous": false,
      "inputs": [
        {
          "indexed": true,
          "internalType": "bytes32",
          "name": "role",
          "type": "bytes32"
        },
        {
          "indexed": true,
          "internalType": "bytes32",
          "name": "previousAdminRole",
          "type": "bytes32"
        },
        {
          "indexed": true,
          "internalType": "bytes32",
          "name": "newAdminRole",
          "type": "bytes32"
        }
      ],
      "name": "RoleAdminChanged",
      "type": "event"
    },
    {
      "anonymous": false,
      "inputs": [
        {
          "indexed": true,
          "internalType": "bytes32",
          "name": "role",
          "type": "bytes32"
        },
        {
          "indexed": true,
          "internalType": "address",
          "name": "account",
          "type": "address"
        },
        {
          "indexed": true,
          "internalType": "address",
          "name": "sender",
          "type": "address"
        }
      ],
      "name": "RoleGranted",
      "type": "event"
    },
    {
      "anonymous": false,
      "inputs": [
        {
          "indexed": true,
          "internalType": "bytes32",
          "name": "role",
          "type": "bytes32"
        },
        {
          "indexed": true,
          "internalType": "address",
          "name": "account",
          "type": "address"
        },
        {
          "indexed": true,
          "internalType": "address",
          "name": "sender",
          "type": "address"
        }
      ],
      "name": "RoleRevoked",
      "type": "event"
    },
    {
      "anonymous": false,
      "inputs": [],
      "name": "SupplyFrozen",
      "type": "event"
    },
    {
      "anonymous": false,
      "inputs": [
        {
          "indexed": false,
          "internalType": "uint256",
          "name": "newDelay",
          "type": "uint256"
        }
      ],
      "name": "TimelockDelayUpdated",
      "type": "event"
    },
    {
      "anonymous": false,
      "inputs": [
        {
          "indexed": true,
          "internalType": "bytes32",
          "name": "id",
          "type": "bytes32"
        },
        {
          "indexed": true,
          "internalType": "address",
          "name": "target",
          "type": "address"
        },
        {
          "indexed": false,
          "internalType": "uint256",
          "name": "value",
          "type": "uint256"
        },
        {
          "indexed": false,
          "internalType": "bytes",
          "name": "data",
          "type": "bytes"
        },
        {
          "indexed": false,
          "internalType": "bytes32",
          "name": "predecessor",
          "type": "bytes32"
        },
        {
          "indexed": false,
          "internalType": "bytes32",
          "name": "salt",
          "type": "bytes32"
        }
      ],
      "name": "TimelockOperationScheduled",
      "type": "event"
    },
    {
      "anonymous": false,
      "inputs": [
        {
          "indexed": true,
          "internalType": "address",
          "name": "to",
          "type": "address"
        },
        {
          "indexed": false,
          "internalType": "uint256",
          "name": "amount",
          "type": "uint256"
        }
      ],
      "name": "TokensMinted",
      "type": "event"
    },
    {
      "anonymous": false,
      "inputs": [
        {
          "indexed": true,
          "internalType": "address",
          "name": "from",
          "type": "address"
        },
        {
          "indexed": true,
          "internalType": "address",
          "name": "to",
          "type": "address"
        },
        {
          "indexed": false,
          "internalType": "uint256",
          "name": "value",
          "type": "uint256"
        }
      ],
      "name": "Transfer",
      "type": "event"
    },
    {
      "anonymous": false,
      "inputs": [
        {
          "indexed": true,
          "internalType": "address",
          "name": "oldWallet",
          "type": "address"
        },
        {
          "indexed": true,
          "internalType": "address",
          "name": "newWallet",
          "type": "address"
        }
      ],
      "name": "TreasuryWalletUpdated",
      "type": "event"
    },
    {
      "anonymous": false,
      "inputs": [
        {
          "indexed": false,
          "internalType": "address",
          "name": "account",
          "type": "address"
        }
      ],
      "name": "Unpaused",
      "type": "event"
    },
    {
      "anonymous": false,
      "inputs": [
        {
          "indexed": true,
          "internalType": "address",
          "name": "account",
          "type": "address"
        },
        {
          "indexed": false,
          "internalType": "bool",
          "name": "whitelisted",
          "type": "bool"
        }
      ],
      "name": "WhitelistUpdated",
      "type": "event"
    },
    {
      "stateMutability": "payable",
      "type": "fallback"
    },
    {
      "inputs": [],
      "name": "ADMIN_ROLE",
      "outputs": [
        {
          "internalType": "bytes32",
          "name": "",
          "type": "bytes32"
        }
      ],
      "stateMutability": "view",
      "type": "function"
    },
    {
      "inputs": [],
      "name": "DEFAULT_ADMIN_ROLE",
      "outputs": [
        {
          "internalType": "bytes32",
          "name": "",
          "type": "bytes32"
        }
      ],
      "stateMutability": "view",
      "type": "function"
    },
    {
      "inputs": [],
      "name": "FEE_DENOMINATOR",
      "outputs": [
        {
          "internalType": "uint256",
          "name": "",
          "type": "uint256"
        }
      ],
      "stateMutability": "view",
      "type": "function"
    },
    {
      "inputs": [],
      "name": "FEE_MANAGER_ROLE",
      "outputs": [
        {
          "internalType": "bytes32",
          "name": "",
          "type": "bytes32"
        }
      ],
      "stateMutability": "view",
      "type": "function"
    },
    {
      "inputs": [],
      "name": "FEE_PERCENTAGE",
      "outputs": [
        {
          "internalType": "uint256",
          "name": "",
          "type": "uint256"
        }
      ],
      "stateMutability": "view",
      "type": "function"
    },
    {
      "inputs": [],
      "name": "MAX_COOLDOWN",
      "outputs": [
        {
          "internalType": "uint256",
          "name": "",
          "type": "uint256"
        }
      ],
      "stateMutability": "view",
      "type": "function"
    },
    {
      "inputs": [],
      "name": "MINTER_ROLE",
      "outputs": [
        {
          "internalType": "bytes32",
          "name": "",
          "type": "bytes32"
        }
      ],
      "stateMutability": "view",
      "type": "function"
    },
    {
      "inputs": [],
      "name": "MIN_COOLDOWN",
      "outputs": [
        {
          "internalType": "uint256",
          "name": "",
          "type": "uint256"
        }
      ],
      "stateMutability": "view",
      "type": "function"
    },
    {
      "inputs": [],
      "name": "MIN_PRICE",
      "outputs": [
        {
          "internalType": "uint256",
          "name": "",
          "type": "uint256"
        }
      ],
      "stateMutability": "view",
      "type": "function"
    },
    {
      "inputs": [],
      "name": "PAUSER_ROLE",
      "outputs": [
        {
          "internalType": "bytes32",
          "name": "",
          "type": "bytes32"
        }
      ],
      "stateMutability": "view",
      "type": "function"
    },
    {
      "inputs": [],
      "name": "PRICE_PRECISION",
      "outputs": [
        {
          "internalType": "uint256",
          "name": "",
          "type": "uint256"
        }
      ],
      "stateMutability": "view",
      "type": "function"
    },
    {
      "inputs": [],
      "name": "TIMELOCK_ADMIN_ROLE",
      "outputs": [
        {
          "internalType": "bytes32",
          "name": "",
          "type": "bytes32"
        }
      ],
      "stateMutability": "view",
      "type": "function"
    },
    {
      "inputs": [
        {
          "internalType": "address",
          "name": "_account",
          "type": "address"
        }
      ],
      "name": "addToBlacklist",
      "outputs": [],
      "stateMutability": "nonpayable",
      "type": "function"
    },
    {
      "inputs": [
        {
          "internalType": "address",
          "name": "_account",
          "type": "address"
        }
      ],
      "name": "addToWhitelist",
      "outputs": [],
      "stateMutability": "nonpayable",
      "type": "function"
    },
    {
      "inputs": [
        {
          "internalType": "address",
          "name": "owner",
          "type": "address"
        },
        {
          "internalType": "address",
          "name": "spender",
          "type": "address"
        }
      ],
      "name": "allowance",
      "outputs": [
        {
          "internalType": "uint256",
          "name": "",
          "type": "uint256"
        }
      ],
      "stateMutability": "view",
      "type": "function"
    },
    {
      "inputs": [
        {
          "internalType": "address",
          "name": "spender",
          "type": "address"
        },
        {
          "internalType": "uint256",
          "name": "amount",
          "type": "uint256"
        }
      ],
      "name": "approve",
      "outputs": [
        {
          "internalType": "bool",
          "name": "",
          "type": "bool"
        }
      ],
      "stateMutability": "nonpayable",
      "type": "function"
    },
    {
      "inputs": [
        {
          "internalType": "address",
          "name": "account",
          "type": "address"
        }
      ],
      "name": "balanceOf",
      "outputs": [
        {
          "internalType": "uint256",
          "name": "",
          "type": "uint256"
        }
      ],
      "stateMutability": "view",
      "type": "function"
    },
    {
      "inputs": [
        {
          "internalType": "address",
          "name": "",
          "type": "address"
        }
      ],
      "name": "blacklist",
      "outputs": [
        {
          "internalType": "bool",
          "name": "",
          "type": "bool"
        }
      ],
      "stateMutability": "view",
      "type": "function"
    },
    {
      "inputs": [],
      "name": "decimals",
      "outputs": [
        {
          "internalType": "uint8",
          "name": "",
          "type": "uint8"
        }
      ],
      "stateMutability": "view",
      "type": "function"
    },
    {
      "inputs": [
        {
          "internalType": "address",
          "name": "spender",
          "type": "address"
        },
        {
          "internalType": "uint256",
          "name": "subtractedValue",
          "type": "uint256"
        }
      ],
      "name": "decreaseAllowance",
      "outputs": [
        {
          "internalType": "bool",
          "name": "",
          "type": "bool"
        }
      ],
      "stateMutability": "nonpayable",
      "type": "function"
    },
    {
      "inputs": [],
      "name": "feeWallet",
      "outputs": [
        {
          "internalType": "address",
          "name": "",
          "type": "address"
        }
      ],
      "stateMutability": "view",
      "type": "function"
    },
    {
      "inputs": [],
      "name": "fixedUSDPrice",
      "outputs": [
        {
          "internalType": "uint256",
          "name": "",
          "type": "uint256"
        }
      ],
      "stateMutability": "view",
      "type": "function"
    },
    {
      "inputs": [],
      "name": "freezeMaxSupply",
      "outputs": [],
      "stateMutability": "nonpayable",
      "type": "function"
    },
    {
      "inputs": [],
      "name": "getLatestPrice",
      "outputs": [
        {
          "internalType": "uint256",
          "name": "",
          "type": "uint256"
        }
      ],
      "stateMutability": "view",
      "type": "function"
    },
    {
      "inputs": [
        {
          "internalType": "bytes32",
          "name": "role",
          "type": "bytes32"
        }
      ],
      "name": "getRoleAdmin",
      "outputs": [
        {
          "internalType": "bytes32",
          "name": "",
          "type": "bytes32"
        }
      ],
      "stateMutability": "view",
      "type": "function"
    },
    {
      "inputs": [
        {
          "internalType": "bytes32",
          "name": "role",
          "type": "bytes32"
        },
        {
          "internalType": "address",
          "name": "account",
          "type": "address"
        }
      ],
      "name": "grantRole",
      "outputs": [],
      "stateMutability": "nonpayable",
      "type": "function"
    },
    {
      "inputs": [
        {
          "internalType": "bytes32",
          "name": "role",
          "type": "bytes32"
        },
        {
          "internalType": "address",
          "name": "account",
          "type": "address"
        }
      ],
      "name": "hasRole",
      "outputs": [
        {
          "internalType": "bool",
          "name": "",
          "type": "bool"
        }
      ],
      "stateMutability": "view",
      "type": "function"
    },
    {
      "inputs": [
        {
          "internalType": "address",
          "name": "spender",
          "type": "address"
        },
        {
          "internalType": "uint256",
          "name": "addedValue",
          "type": "uint256"
        }
      ],
      "name": "increaseAllowance",
      "outputs": [
        {
          "internalType": "bool",
          "name": "",
          "type": "bool"
        }
      ],
      "stateMutability": "nonpayable",
      "type": "function"
    },
    {
      "inputs": [],
      "name": "justMoneyRouter",
      "outputs": [
        {
          "internalType": "contract IJustMoneyRouter",
          "name": "",
          "type": "address"
        }
      ],
      "stateMutability": "view",
      "type": "function"
    },
    {
      "inputs": [],
      "name": "lastMintTimestamp",
      "outputs": [
        {
          "internalType": "uint256",
          "name": "",
          "type": "uint256"
        }
      ],
      "stateMutability": "view",
      "type": "function"
    },
    {
      "inputs": [],
      "name": "lastPriceUpdateTimestamp",
      "outputs": [
        {
          "internalType": "uint256",
          "name": "",
          "type": "uint256"
        }
      ],
      "stateMutability": "view",
      "type": "function"
    },
    {
      "inputs": [],
      "name": "latestAnswer",
      "outputs": [
        {
          "internalType": "int256",
          "name": "",
          "type": "int256"
        }
      ],
      "stateMutability": "view",
      "type": "function"
    },
    {
      "inputs": [
        {
          "internalType": "uint256",
          "name": "tokenAmount",
          "type": "uint256"
        }
      ],
      "name": "liveUSDValue",
      "outputs": [
        {
          "internalType": "uint256",
          "name": "",
          "type": "uint256"
        }
      ],
      "stateMutability": "view",
      "type": "function"
    },
    {
      "inputs": [],
      "name": "maxSupply",
      "outputs": [
        {
          "internalType": "uint256",
          "name": "",
          "type": "uint256"
        }
      ],
      "stateMutability": "view",
      "type": "function"
    },
    {
      "inputs": [],
      "name": "maxSupplyFrozen",
      "outputs": [
        {
          "internalType": "bool",
          "name": "",
          "type": "bool"
        }
      ],
      "stateMutability": "view",
      "type": "function"
    },
    {
      "inputs": [
        {
          "internalType": "address",
          "name": "to",
          "type": "address"
        },
        {
          "internalType": "uint256",
          "name": "amount",
          "type": "uint256"
        }
      ],
      "name": "mint",
      "outputs": [],
      "stateMutability": "nonpayable",
      "type": "function"
    },
    {
      "inputs": [],
      "name": "mintCooldown",
      "outputs": [
        {
          "internalType": "uint256",
          "name": "",
          "type": "uint256"
        }
      ],
      "stateMutability": "view",
      "type": "function"
    },
    {
      "inputs": [],
      "name": "multisigWallet",
      "outputs": [
        {
          "internalType": "address",
          "name": "",
          "type": "address"
        }
      ],
      "stateMutability": "view",
      "type": "function"
    },
    {
      "inputs": [],
      "name": "name",
      "outputs": [
        {
          "internalType": "string",
          "name": "",
          "type": "string"
        }
      ],
      "stateMutability": "view",
      "type": "function"
    },
    {
      "inputs": [],
      "name": "pause",
      "outputs": [],
      "stateMutability": "nonpayable",
      "type": "function"
    },
    {
      "inputs": [],
      "name": "paused",
      "outputs": [
        {
          "internalType": "bool",
          "name": "",
          "type": "bool"
        }
      ],
      "stateMutability": "view",
      "type": "function"
    },
    {
      "inputs": [],
      "name": "priceFeed",
      "outputs": [
        {
          "internalType": "contract AggregatorV3Interface",
          "name": "",
          "type": "address"
        }
      ],
      "stateMutability": "view",
      "type": "function"
    },
    {
      "inputs": [],
      "name": "priceUpdateCooldown",
      "outputs": [
        {
          "internalType": "uint256",
          "name": "",
          "type": "uint256"
        }
      ],
      "stateMutability": "view",
      "type": "function"
    },
    {
      "inputs": [
        {
          "internalType": "address",
          "name": "_account",
          "type": "address"
        }
      ],
      "name": "removeFromBlacklist",
      "outputs": [],
      "stateMutability": "nonpayable",
      "type": "function"
    },
    {
      "inputs": [
        {
          "internalType": "address",
          "name": "_account",
          "type": "address"
        }
      ],
      "name": "removeFromWhitelist",
      "outputs": [],
      "stateMutability": "nonpayable",
      "type": "function"
    },
    {
      "inputs": [
        {
          "internalType": "bytes32",
          "name": "role",
          "type": "bytes32"
        },
        {
          "internalType": "address",
          "name": "account",
          "type": "address"
        }
      ],
      "name": "renounceRole",
      "outputs": [],
      "stateMutability": "nonpayable",
      "type": "function"
    },
    {
      "inputs": [
        {
          "internalType": "bytes32",
          "name": "role",
          "type": "bytes32"
        },
        {
          "internalType": "address",
          "name": "account",
          "type": "address"
        }
      ],
      "name": "revokeRole",
      "outputs": [],
      "stateMutability": "nonpayable",
      "type": "function"
    },
    {
      "inputs": [
        {
          "internalType": "bytes32",
          "name": "salt",
          "type": "bytes32"
        }
      ],
      "name": "scheduleFreezeMaxSupply",
      "outputs": [],
      "stateMutability": "nonpayable",
      "type": "function"
    },
    {
      "inputs": [
        {
          "internalType": "uint256",
          "name": "newPrice",
          "type": "uint256"
        },
        {
          "internalType": "bytes32",
          "name": "salt",
          "type": "bytes32"
        }
      ],
      "name": "scheduleSetFixedUSDPrice",
      "outputs": [],
      "stateMutability": "nonpayable",
      "type": "function"
    },
    {
      "inputs": [
        {
          "internalType": "uint256",
          "name": "newMaxSupply",
          "type": "uint256"
        },
        {
          "internalType": "bytes32",
          "name": "salt",
          "type": "bytes32"
        }
      ],
      "name": "scheduleSetMaxSupply",
      "outputs": [],
      "stateMutability": "nonpayable",
      "type": "function"
    },
    {
      "inputs": [
        {
          "internalType": "uint256",
          "name": "newPrice",
          "type": "uint256"
        }
      ],
      "name": "setFixedUSDPrice",
      "outputs": [],
      "stateMutability": "nonpayable",
      "type": "function"
    },
    {
      "inputs": [
        {
          "internalType": "uint256",
          "name": "newMaxSupply",
          "type": "uint256"
        }
      ],
      "name": "setMaxSupply",
      "outputs": [],
      "stateMutability": "nonpayable",
      "type": "function"
    },
    {
      "inputs": [
        {
          "internalType": "uint256",
          "name": "newCooldown",
          "type": "uint256"
        }
      ],
      "name": "setMintCooldown",
      "outputs": [],
      "stateMutability": "nonpayable",
      "type": "function"
    },
    {
      "inputs": [
        {
          "internalType": "uint256",
          "name": "newCooldown",
          "type": "uint256"
        }
      ],
      "name": "setPriceUpdateCooldown",
      "outputs": [],
      "stateMutability": "nonpayable",
      "type": "function"
    },
    {
      "inputs": [
        {
          "internalType": "address",
          "name": "_wallet",
          "type": "address"
        }
      ],
      "name": "setTreasuryWallet",
      "outputs": [],
      "stateMutability": "nonpayable",
      "type": "function"
    },
    {
      "inputs": [
        {
          "internalType": "bytes4",
          "name": "interfaceId",
          "type": "bytes4"
        }
      ],
      "name": "supportsInterface",
      "outputs": [
        {
          "internalType": "bool",
          "name": "",
          "type": "bool"
        }
      ],
      "stateMutability": "view",
      "type": "function"
    },
    {
      "inputs": [],
      "name": "symbol",
      "outputs": [
        {
          "internalType": "string",
          "name": "",
          "type": "string"
        }
      ],
      "stateMutability": "view",
      "type": "function"
    },
    {
      "inputs": [],
      "name": "timelock",
      "outputs": [
        {
          "internalType": "contract TimelockController",
          "name": "",
          "type": "address"
        }
      ],
      "stateMutability": "view",
      "type": "function"
    },
    {
      "inputs": [],
      "name": "timelockDelay",
      "outputs": [
        {
          "internalType": "uint256",
          "name": "",
          "type": "uint256"
        }
      ],
      "stateMutability": "view",
      "type": "function"
    },
    {
      "inputs": [],
      "name": "totalSupply",
      "outputs": [
        {
          "internalType": "uint256",
          "name": "",
          "type": "uint256"
        }
      ],
      "stateMutability": "view",
      "type": "function"
    },
    {
      "inputs": [
        {
          "internalType": "address",
          "name": "recipient",
          "type": "address"
        },
        {
          "internalType": "uint256",
          "name": "amount",
          "type": "uint256"
        }
      ],
      "name": "transfer",
      "outputs": [
        {
          "internalType": "bool",
          "name": "",
          "type": "bool"
        }
      ],
      "stateMutability": "nonpayable",
      "type": "function"
    },
    {
      "inputs": [
        {
          "internalType": "address",
          "name": "sender",
          "type": "address"
        },
        {
          "internalType": "address",
          "name": "recipient",
          "type": "address"
        },
        {
          "internalType": "uint256",
          "name": "amount",
          "type": "uint256"
        }
      ],
      "name": "transferFrom",
      "outputs": [
        {
          "internalType": "bool",
          "name": "",
          "type": "bool"
        }
      ],
      "stateMutability": "nonpayable",
      "type": "function"
    },
    {
      "inputs": [],
      "name": "treasuryWallet",
      "outputs": [
        {
          "internalType": "address",
          "name": "",
          "type": "address"
        }
      ],
      "stateMutability": "view",
      "type": "function"
    },
    {
      "inputs": [],
      "name": "unpause",
      "outputs": [],
      "stateMutability": "nonpayable",
      "type": "function"
    },
    {
      "inputs": [
        {
          "internalType": "uint256",
          "name": "newDelay",
          "type": "uint256"
        }
      ],
      "name": "updateTimelockDelay",
      "outputs": [],
      "stateMutability": "nonpayable",
      "type": "function"
    },
    {
      "inputs": [
        {
          "internalType": "uint256",
          "name": "tokenAmount",
          "type": "uint256"
        }
      ],
      "name": "usdValue",
      "outputs": [
        {
          "internalType": "uint256",
          "name": "",
          "type": "uint256"
        }
      ],
      "stateMutability": "view",
      "type": "function"
    },
    {
      "inputs": [],
      "name": "usdcAddress",
      "outputs": [
        {
          "internalType": "address",
          "name": "",
          "type": "address"
        }
      ],
      "stateMutability": "view",
      "type": "function"
    },
    {
      "inputs": [],
      "name": "usdtAddress",
      "outputs": [
        {
          "internalType": "address",
          "name": "",
          "type": "address"
        }
      ],
      "stateMutability": "view",
      "type": "function"
    },
    {
      "inputs": [
        {
          "internalType": "address",
          "name": "",
          "type": "address"
        }
      ],
      "name": "whitelist",
      "outputs": [
        {
          "internalType": "bool",
          "name": "",
          "type": "bool"
        }
      ],
      "stateMutability": "view",
      "type": "function"
    },
    {
      "stateMutability": "payable",
      "type": "receive"
    }
  ],
  "bytecode": "0x6101406040526008805460ff1990811660061790915567016345785d8a0000600955600a805490911690556305f5e100600c55603c60108190556012553480156200004957600080fd5b50604051620060cd380380620060cd8339810160408190526200006c91620006c3565b878760036200007c83826200082c565b5060046200008b82826200082c565b50506006805460ff191690555060016007556001600160a01b038616620000f95760405162461bcd60e51b815260206004820152601a60248201527f4665652077616c6c6574206973207a65726f206164647265737300000000000060448201526064015b60405180910390fd5b6001600160a01b038116620001515760405162461bcd60e51b815260206004820152601f60248201527f4d756c74697369672077616c6c6574206973207a65726f2061646472657373006044820152606401620000f0565b6001600160a01b038516620001a95760405162461bcd60e51b815260206004820152601c60248201527f555344542061646472657373206973207a65726f2061646472657373000000006044820152606401620000f0565b6001600160a01b038416620002015760405162461bcd60e51b815260206004820152601c60248201527f555344432061646472657373206973207a65726f2061646472657373000000006044820152606401620000f0565b6001600160a01b038316620002595760405162461bcd60e51b815260206004820152601e60248201527f526f757465722061646472657373206973207a65726f206164647265737300006044820152606401620000f0565b6001600160a01b038216620002b15760405162461bcd60e51b815260206004820152601a60248201527f50726963652066656564206973207a65726f20616464726573730000000000006044820152606401620000f0565b620002cc600080516020620060ad833981519152336200051f565b6001600160a01b0386811660a05281811660805285811660c05284811660e05283811661010090815290831661012052600a8054610100600160a81b031916339092029190911790556040805160018082528183019092526000916020828101908036833750506040805160018082528183019092529293506000929150602080830190803683370190505090503382600081518110620003715762000371620008f8565b60200260200101906001600160a01b031690816001600160a01b0316815250503381600081518110620003a857620003a8620008f8565b60200260200101906001600160a01b031690816001600160a01b0316815250506202a300828233604051620003dd90620005d3565b620003ec949392919062000954565b604051809103906000f08015801562000409573d6000803e3d6000fd5b50600b80546001600160a01b0319166001600160a01b0392909216918217905562000437906000906200051f565b600b546200045f90600080516020620060ad833981519152906001600160a01b03166200051f565b6200048b7f9f2df0fed2c77648de5860a4cc508cd0818c85b8b8a1ab4ceeef8d981c8956a6336200051f565b620004b77f6c0757dc3e6b28b2580c03fd9e96c274acf4f99d91fbec9b418fa1d70604ff1c336200051f565b620004e37f65d7a28e3265b37a6474929f336521b332c1681b933f6cb9f3376673440d862a336200051f565b6200050f7f5f58e3a2316349923ce3780f8d587db2d72378aed66a8261c916544fa6846ca5336200051f565b505050505050505050506200099d565b6200052b82826200052f565b5050565b60008281526005602090815260408083206001600160a01b038516845290915290205460ff166200052b5760008281526005602090815260408083206001600160a01b03851684529091529020805460ff191660011790556200058f3390565b6001600160a01b0316816001600160a01b0316837f2f8788117e7eff1d82e926ec794901d17c78024a50270940304540a733656f0d60405160405180910390a45050565b6122f08062003dbd83390190565b634e487b7160e01b600052604160045260246000fd5b600082601f8301126200060957600080fd5b81516001600160401b0380821115620006265762000626620005e1565b604051601f8301601f19908116603f01168101908282118183101715620006515762000651620005e1565b816040528381526020925086838588010111156200066e57600080fd5b600091505b8382101562000692578582018301518183018401529082019062000673565b600093810190920192909252949350505050565b80516001600160a01b0381168114620006be57600080fd5b919050565b600080600080600080600080610100898b031215620006e157600080fd5b88516001600160401b0380821115620006f957600080fd5b620007078c838d01620005f7565b995060208b01519150808211156200071e57600080fd5b506200072d8b828c01620005f7565b9750506200073e60408a01620006a6565b95506200074e60608a01620006a6565b94506200075e60808a01620006a6565b93506200076e60a08a01620006a6565b92506200077e60c08a01620006a6565b91506200078e60e08a01620006a6565b90509295985092959890939650565b600181811c90821680620007b257607f821691505b602082108103620007d357634e487b7160e01b600052602260045260246000fd5b50919050565b601f8211156200082757600081815260208120601f850160051c81016020861015620008025750805b601f850160051c820191505b8181101562000823578281556001016200080e565b5050505b505050565b81516001600160401b03811115620008485762000848620005e1565b62000860816200085984546200079d565b84620007d9565b602080601f8311600181146200089857600084156200087f5750858301515b600019600386901b1c1916600185901b17855562000823565b600085815260208120601f198616915b82811015620008c957888601518255948401946001909101908401620008a8565b5085821015620008e85787850151600019600388901b60f8161c191681555b5050505050600190811b01905550565b634e487b7160e01b600052603260045260246000fd5b600081518084526020808501945080840160005b83811015620009495781516001600160a01b03168752958201959082019060010162000922565b509495945050505050565b8481526080602082015260006200096f60808301866200090e565b82810360408401526200098381866200090e565b91505060018060a01b038316606083015295945050505050565b60805160a05160c05160e05161010051610120516133c2620009fb600039600081816108c70152611ca40152600061083d0152600061048b01526000610a35015260008181610c910152612586015260006109b401526133c26000f3fe60806040526004361061037d5760003560e01c8063741bef1a116101d3578063a9059cbb11610103578063d73792a91161009b578063d73792a914610bf3578063dd62ed3e14610c08578063e43252d714610c28578063e63ab1e914610c48578063eef09bad14610c6a578063f25f4b5614610c7f578063f384702f14610cb3578063f714cb4414610ccd578063f9f92be414610ce3576103d9565b8063a9059cbb14610adc578063ad9f20a614610afc578063b377f56914610b13578063cbca75cb14610b29578063cdc45c0614610b49578063d33219b414610b69578063d539139314610b89578063d547741f14610bbd578063d5abeb0114610bdd576103d9565b80639075becf116101765780639075becf146109a257806391d14854146109d657806395082d25146109f657806395d89b4114610a0e5780639ab4a44514610a235780639b19251a14610a57578063a217fddf14610a87578063a457c2d714610a9c578063a8602fea14610abc576103d9565b8063741bef1a146108b557806375b238fc146108e95780638456cb591461090b5780638ab1d681146109205780638b41d35f146109405780638e15f473146109575780638e52d9d31461096c5780638e80ff5d1461098c576103d9565b80633281ee71116102ae5780634626402b116102515780634626402b1461077957806350d25bcd1461079e578063537df3b6146107b357806358ce469b146107d35780635c975abb146107f35780635d9cdbe81461080b5780636f6556ac1461082b5780636f8b44b01461085f57806370a082311461087f576103d9565b80633281ee7114610684578063344a681e146106a457806336568abe146106c457806339509351146106e45780633f4ba83a1461070457806340c10f191461071957806344337ea114610739578063453d105f14610759576103d9565b80630d3cf6fc116103215780630d3cf6fc14610568578063167446071461059c57806318160ddd146105b15780632000d430146105c657806323b1f8e4146105dc57806323b872dd146105f2578063248a9ca3146106125780632f2ff15d14610642578063313ce56714610662576103d9565b80620b46f81461042157806301ffc9a71461044957806302d4545714610479578063039f091c146104ba57806305db2f41146104d057806306b4ec481461050457806306fdde0314610526578063095ea7b314610548576103d9565b366103d95760405162461bcd60e51b815260206004820152602160248201527f44697265637420545258207472616e7366657273206e6f7420616363657074656044820152601960fa1b60648201526084015b60405180910390fd5b60405162461bcd60e51b815260206004820152601f60248201527f46616c6c6261636b2066756e6374696f6e206e6f74207065726d69747465640060448201526064016103d0565b34801561042d57600080fd5b50610436600181565b6040519081526020015b60405180910390f35b34801561045557600080fd5b50610469610464366004612d40565b610d13565b6040519015158152602001610440565b34801561048557600080fd5b506104ad7f000000000000000000000000000000000000000000000000000000000000000081565b6040516104409190612d6a565b3480156104c657600080fd5b5061043660125481565b3480156104dc57600080fd5b506104367f6c0757dc3e6b28b2580c03fd9e96c274acf4f99d91fbec9b418fa1d70604ff1c81565b34801561051057600080fd5b5061052461051f366004612d7e565b610d4a565b005b34801561053257600080fd5b5061053b610f3f565b6040516104409190612df0565b34801561055457600080fd5b50610469610563366004612e1f565b610f4e565b34801561057457600080fd5b506104367f5f58e3a2316349923ce3780f8d587db2d72378aed66a8261c916544fa6846ca581565b3480156105a857600080fd5b50610524610f66565b3480156105bd57600080fd5b50600254610436565b3480156105d257600080fd5b5061043660105481565b3480156105e857600080fd5b5061043660115481565b3480156105fe57600080fd5b5061046961060d366004612e49565b610ffb565b34801561061e57600080fd5b5061043661062d366004612e85565b60009081526005602052604090206001015490565b34801561064e57600080fd5b5061052461065d366004612e9e565b6110c7565b34801561066e57600080fd5b5060085460405160ff9091168152602001610440565b34801561069057600080fd5b5061052461069f366004612e85565b6110f1565b3480156106b057600080fd5b506105246106bf366004612e85565b611198565b3480156106d057600080fd5b506105246106df366004612e9e565b611235565b3480156106f057600080fd5b506104696106ff366004612e1f565b6112b3565b34801561071057600080fd5b506105246112d5565b34801561072557600080fd5b50610524610734366004612e1f565b6112f8565b34801561074557600080fd5b50610524610754366004612eca565b6115e5565b34801561076557600080fd5b50610436610774366004612e85565b6116e1565b34801561078557600080fd5b50600a546104ad9061010090046001600160a01b031681565b3480156107aa57600080fd5b5061043661170c565b3480156107bf57600080fd5b506105246107ce366004612eca565b611716565b3480156107df57600080fd5b506105246107ee366004612d7e565b6117fd565b3480156107ff57600080fd5b5060065460ff16610469565b34801561081757600080fd5b50610524610826366004612e85565b611891565b34801561083757600080fd5b506104ad7f000000000000000000000000000000000000000000000000000000000000000081565b34801561086b57600080fd5b5061052461087a366004612e85565b611a6c565b34801561088b57600080fd5b5061043661089a366004612eca565b6001600160a01b031660009081526020819052604090205490565b3480156108c157600080fd5b506104ad7f000000000000000000000000000000000000000000000000000000000000000081565b3480156108f557600080fd5b5061043660008051602061336d83398151915281565b34801561091757600080fd5b50610524611b99565b34801561092c57600080fd5b5061052461093b366004612eca565b611bb9565b34801561094c57600080fd5b506104366201518081565b34801561096357600080fd5b50610436611ca0565b34801561097857600080fd5b50610524610987366004612e85565b611d76565b34801561099857600080fd5b50610436600f5481565b3480156109ae57600080fd5b506104ad7f000000000000000000000000000000000000000000000000000000000000000081565b3480156109e257600080fd5b506104696109f1366004612e9e565b611e74565b348015610a0257600080fd5b506104366305f5e10081565b348015610a1a57600080fd5b5061053b611e9f565b348015610a2f57600080fd5b506104ad7f000000000000000000000000000000000000000000000000000000000000000081565b348015610a6357600080fd5b50610469610a72366004612eca565b600e6020526000908152604090205460ff1681565b348015610a9357600080fd5b50610436600081565b348015610aa857600080fd5b50610469610ab7366004612e1f565b611ea9565b348015610ac857600080fd5b50610524610ad7366004612eca565b611f2f565b348015610ae857600080fd5b50610469610af7366004612e1f565b611fc8565b348015610b0857600080fd5b50610436620f424081565b348015610b1f57600080fd5b50610436600c5481565b348015610b3557600080fd5b50610436610b44366004612e85565b612041565b348015610b5557600080fd5b50610524610b64366004612e85565b612075565b348015610b7557600080fd5b50600b546104ad906001600160a01b031681565b348015610b9557600080fd5b506104367f9f2df0fed2c77648de5860a4cc508cd0818c85b8b8a1ab4ceeef8d981c8956a681565b348015610bc957600080fd5b50610524610bd8366004612e9e565b61219c565b348015610be957600080fd5b5061043660095481565b348015610bff57600080fd5b50610436606481565b348015610c1457600080fd5b50610436610c23366004612ee5565b6121c1565b348015610c3457600080fd5b50610524610c43366004612eca565b6121ec565b348015610c5457600080fd5b5061043660008051602061334d83398151915281565b348015610c7657600080fd5b506104366122e0565b348015610c8b57600080fd5b506104ad7f000000000000000000000000000000000000000000000000000000000000000081565b348015610cbf57600080fd5b50600a546104699060ff1681565b348015610cd957600080fd5b5061043661012c81565b348015610cef57600080fd5b50610469610cfe366004612eca565b600d6020526000908152604090205460ff1681565b60006001600160e01b03198216637965db0b60e01b1480610d4457506301ffc9a760e01b6001600160e01b03198316145b92915050565b60008051602061336d833981519152610d628161234e565b600083604051602401610d7791815260200190565b60408051601f198184030181529181526020820180516001600160e01b03166306f8b44b60e41b179052600b549051638065657f60e01b81529192506000916001600160a01b0390911690638065657f90610dde9030908590879082908b90600401612f0f565b602060405180830381865afa158015610dfb573d6000803e3d6000fd5b505050506040513d601f19601f82011682018060405250810190610e1f9190612f4a565b600b546040805163793d064960e11b815290519293506001600160a01b03909116916301d5062a913091600091879183918b91889163f27a0c929160048083019260209291908290030181865afa158015610e7e573d6000803e3d6000fd5b505050506040513d601f19601f82011682018060405250810190610ea29190612f4a565b6040518763ffffffff1660e01b8152600401610ec396959493929190612f63565b600060405180830381600087803b158015610edd57600080fd5b505af1158015610ef1573d6000803e3d6000fd5b50506040513092508391507fdc5403c65537cfcfac6c555554373c7c7558b8d931ad256056712e94366aa62a90610f3090600090879082908b90612fa8565b60405180910390a35050505050565b6060610f49612358565b905090565b600033610f5c8185856123ea565b5060019392505050565b60008051602061336d833981519152610f7e8161234e565b600a5460ff1615610fc25760405162461bcd60e51b815260206004820152600e60248201526d20b63932b0b23c90333937bd32b760911b60448201526064016103d0565b600a805460ff191660011790556040517fd87fd8bf05bc559633953df4700f4561a93f0d9d554514647f7bbe5cb334edd090600090a150565b336000818152600d602052604081205490919060ff161561102e5760405162461bcd60e51b81526004016103d090612fd4565b6001600160a01b0385166000908152600d6020526040902054859060ff16156110695760405162461bcd60e51b81526004016103d090612fd4565b6001600160a01b0385166000908152600d6020526040902054859060ff16156110a45760405162461bcd60e51b81526004016103d090612fd4565b6110af87878761250e565b6110ba8733876125bd565b5060019695505050505050565b6000828152600560205260409020600101546110e28161234e565b6110ec8383612637565b505050565b60008051602061336d8339815191526111098161234e565b8161012c811015801561111f5750620151808111155b61113b5760405162461bcd60e51b81526004016103d090613004565b60128390556040805181815260059181019190915264707269636560d81b6060820152602081018490527fe150ae9e3b22a5374d8f19e5fe8fdeda39e961587672a97caaee45e814b0c1ba906080015b60405180910390a1505050565b60008051602061336d8339815191526111b08161234e565b8161012c81101580156111c65750620151808111155b6111e25760405162461bcd60e51b81526004016103d090613004565b601083905560408051818152600491810191909152631b5a5b9d60e21b6060820152602081018490527fe150ae9e3b22a5374d8f19e5fe8fdeda39e961587672a97caaee45e814b0c1ba9060800161118b565b6001600160a01b03811633146112a55760405162461bcd60e51b815260206004820152602f60248201527f416363657373436f6e74726f6c3a2063616e206f6e6c792072656e6f756e636560448201526e103937b632b9903337b91039b2b63360891b60648201526084016103d0565b6112af82826126bd565b5050565b600033610f5c8185856112c683836121c1565b6112d0919061304a565b6123ea565b60008051602061334d8339815191526112ed8161234e565b6112f5612724565b50565b611300612770565b6113086127b8565b336000818152600d602052604090205460ff16156113385760405162461bcd60e51b81526004016103d090612fd4565b7f9f2df0fed2c77648de5860a4cc508cd0818c85b8b8a1ab4ceeef8d981c8956a66113628161234e565b600083116113c05760405162461bcd60e51b815260206004820152602560248201527f4d696e7420616d6f756e74206d7573742062652067726561746572207468616e604482015264207a65726f60d81b60648201526084016103d0565b3332146114075760405162461bcd60e51b815260206004820152601560248201527410dbdb9d1c9858dd1cc818d85b9b9bdd081b5a5b9d605a1b60448201526064016103d0565b601054600f5461141691612811565b42101561145c5760405162461bcd60e51b81526020600482015260146024820152734d696e7420636f6f6c646f776e2061637469766560601b60448201526064016103d0565b6001600160a01b0384166114a95760405162461bcd60e51b81526020600482015260146024820152734d696e7420746f207a65726f206164647265737360601b60448201526064016103d0565b6001600160a01b0384166000908152600e602052604090205460ff1661150d5760405162461bcd60e51b8152602060048201526019602482015278149958da5c1a595b9d081b9bdd081dda1a5d195b1a5cdd1959603a1b60448201526064016103d0565b60085460009061152c906115259060ff16600a613141565b859061281d565b90506009546115448261153e60025490565b90612811565b11156115875760405162461bcd60e51b815260206004820152601260248201527145786365656473206d617820737570706c7960701b60448201526064016103d0565b42600f556115958582612829565b846001600160a01b03167f3f2c9d57c068687834f0de942a9babb9e5acab57d516d3480a3c16ee165a4273826040516115d091815260200190565b60405180910390a25050506112af6001600755565b60008051602061336d8339815191526115fd8161234e565b6001600160a01b0382166116235760405162461bcd60e51b81526004016103d090613150565b6001600160a01b0382166000908152600d602052604090205460ff16156116825760405162461bcd60e51b8152602060048201526013602482015272105b1c9958591e48189b1858dadb1a5cdd1959606a1b60448201526064016103d0565b6001600160a01b0382166000818152600d6020908152604091829020805460ff1916600190811790915591519182527f6a12b3df6cba4203bd7fd06b816789f87de8c594299aed5717ae070fac781bac91015b60405180910390a25050565b600854600090610d44906116f99060ff16600a613141565b600c54611706908561281d565b906128e8565b6000610f49611ca0565b60008051602061336d83398151915261172e8161234e565b6001600160a01b0382166117545760405162461bcd60e51b81526004016103d090613150565b6001600160a01b0382166000908152600d602052604090205460ff166117ae5760405162461bcd60e51b815260206004820152600f60248201526e139bdd08189b1858dadb1a5cdd1959608a1b60448201526064016103d0565b6001600160a01b0382166000818152600d60209081526040808320805460ff19169055519182527f6a12b3df6cba4203bd7fd06b816789f87de8c594299aed5717ae070fac781bac91016116d5565b60008051602061336d8339815191526118158161234e565b60008360405160240161182a91815260200190565b60408051601f198184030181529181526020820180516001600160e01b03166366e22e0360e11b179052600b549051638065657f60e01b81529192506000916001600160a01b0390911690638065657f90610dde9030908590879082908b90600401612f0f565b60008051602061336d8339815191526118a98161234e565b6040805160048082526024820183526020820180516001600160e01b0316631674460760e01b179052600b549251638065657f60e01b815291926000926001600160a01b0390911691638065657f9161190c9130918691889183918c9101612f0f565b602060405180830381865afa158015611929573d6000803e3d6000fd5b505050506040513d601f19601f8201168201806040525081019061194d9190612f4a565b600b546040805163793d064960e11b815290519293506001600160a01b03909116916301d5062a913091600091879183918b91889163f27a0c929160048083019260209291908290030181865afa1580156119ac573d6000803e3d6000fd5b505050506040513d601f19601f820116820180604052508101906119d09190612f4a565b6040518763ffffffff1660e01b81526004016119f196959493929190612f63565b600060405180830381600087803b158015611a0b57600080fd5b505af1158015611a1f573d6000803e3d6000fd5b50506040513092508391507fdc5403c65537cfcfac6c555554373c7c7558b8d931ad256056712e94366aa62a90611a5e90600090879082908b90612fa8565b60405180910390a350505050565b60008051602061336d833981519152611a848161234e565b600a5460ff1615611ace5760405162461bcd60e51b815260206004820152601460248201527326b0bc1039bab838363c9034b990333937bd32b760611b60448201526064016103d0565b600254821015611b2f5760405162461bcd60e51b815260206004820152602660248201527f4e6577206d617820737570706c79206d757374206265203e3d20746f74616c20604482015265737570706c7960d01b60648201526084016103d0565b600a5461010090046001600160a01b0316611b5c5760405162461bcd60e51b81526004016103d090613179565b60098290556040518281527f7810bd47de260c3e9ee10061cf438099dd12256c79485f12f94dbccc981e806c906020015b60405180910390a15050565b60008051602061334d833981519152611bb18161234e565b6112f56128f4565b60008051602061336d833981519152611bd18161234e565b6001600160a01b038216611bf75760405162461bcd60e51b81526004016103d090613150565b6001600160a01b0382166000908152600e602052604090205460ff16611c515760405162461bcd60e51b815260206004820152600f60248201526e139bdd081dda1a5d195b1a5cdd1959608a1b60448201526064016103d0565b6001600160a01b0382166000818152600e60209081526040808320805460ff19169055519182527ff93f9a76c1bf3444d22400a00cb9fe990e6abe9dbb333fda48859cfee864543d91016116d5565b60007f00000000000000000000000000000000000000000000000000000000000000006001600160a01b031663feaf968c6040518163ffffffff1660e01b815260040160a060405180830381865afa925050508015611d1c575060408051601f3d908101601f19168201909252611d19918101906131c4565b60015b611d275750600c5490565b60008413611d6c5760405162461bcd60e51b8152602060048201526012602482015271125b9d985b1a59081c1c9a58d9481999595960721b60448201526064016103d0565b5091949350505050565b7f5f58e3a2316349923ce3780f8d587db2d72378aed66a8261c916544fa6846ca5611da08161234e565b62015180821015611de55760405162461bcd60e51b815260206004820152600f60248201526e11195b185e481d1bdbc81cda1bdc9d608a1b60448201526064016103d0565b600b546040516364d6235360e01b8152600481018490526001600160a01b03909116906364d6235390602401600060405180830381600087803b158015611e2b57600080fd5b505af1158015611e3f573d6000803e3d6000fd5b505050507fedd2c15cb1225ce15cf67efa55cea2672bfea32d9d9cbf34716bd04b76194b5382604051611b8d91815260200190565b60009182526005602090815260408084206001600160a01b0393909316845291905290205460ff1690565b6060610f49612931565b60003381611eb782866121c1565b905083811015611f175760405162461bcd60e51b815260206004820152602560248201527f45524332303a2064656372656173656420616c6c6f77616e63652062656c6f77604482015264207a65726f60d81b60648201526084016103d0565b611f2482868684036123ea565b506001949350505050565b60008051602061336d833981519152611f478161234e565b6001600160a01b038216611f6d5760405162461bcd60e51b81526004016103d090613150565b600a80546001600160a01b03848116610100818102610100600160a81b031985161790945560405193909204169182907fa982575859d7ad2f390dc12b23f7dab8bbda047f9d0140ac68344b27bf34bfb490600090a3505050565b336000818152600d602052604081205490919060ff1615611ffb5760405162461bcd60e51b81526004016103d090612fd4565b6001600160a01b0384166000908152600d6020526040902054849060ff16156120365760405162461bcd60e51b81526004016103d090612fd4565b611f2433868661250e565b60008061204c611ca0565b60085490915061206e906120649060ff16600a613141565b611706838661281d565b9392505050565b61207d612770565b60008051602061336d8339815191526120958161234e565b620f42408210156120d85760405162461bcd60e51b815260206004820152600d60248201526c507269636520746f6f206c6f7760981b60448201526064016103d0565b600a5461010090046001600160a01b03166121055760405162461bcd60e51b81526004016103d090613179565b60125460115461211491612811565b4210156121635760405162461bcd60e51b815260206004820152601c60248201527f50726963652075706461746520636f6f6c646f776e206163746976650000000060448201526064016103d0565b42601155600c8290556040518281527f5b5342fbbec47a69c0ba4286f4f2907b43cf46121eb4987f7618af6dd021f24190602001611b8d565b6000828152600560205260409020600101546121b78161234e565b6110ec83836126bd565b6001600160a01b03918216600090815260016020908152604080832093909416825291909152205490565b60008051602061336d8339815191526122048161234e565b6001600160a01b03821661222a5760405162461bcd60e51b81526004016103d090613150565b6001600160a01b0382166000908152600e602052604090205460ff16156122895760405162461bcd60e51b8152602060048201526013602482015272105b1c9958591e481dda1a5d195b1a5cdd1959606a1b60448201526064016103d0565b6001600160a01b0382166000818152600e6020908152604091829020805460ff1916600190811790915591519182527ff93f9a76c1bf3444d22400a00cb9fe990e6abe9dbb333fda48859cfee864543d91016116d5565b600b546040805163793d064960e11b815290516000926001600160a01b03169163f27a0c929160048083019260209291908290030181865afa15801561232a573d6000803e3d6000fd5b505050506040513d601f19601f82011682018060405250810190610f499190612f4a565b6112f58133612940565b60606003805461236790613214565b80601f016020809104026020016040519081016040528092919081815260200182805461239390613214565b80156123e05780601f106123b5576101008083540402835291602001916123e0565b820191906000526020600020905b8154815290600101906020018083116123c357829003601f168201915b5050505050905090565b6001600160a01b03831661244c5760405162461bcd60e51b8152602060048201526024808201527f45524332303a20617070726f76652066726f6d20746865207a65726f206164646044820152637265737360e01b60648201526084016103d0565b6001600160a01b0382166124ad5760405162461bcd60e51b815260206004820152602260248201527f45524332303a20617070726f766520746f20746865207a65726f206164647265604482015261737360f01b60648201526084016103d0565b6001600160a01b0383811660008181526001602090815260408083209487168084529482529182902085905590518481527f8c5be1e5ebec7d5bd14f71427d1e84f3dd0314c0f7b2291e5b200ac8c7c3b925910160405180910390a3505050565b612516612770565b60075460020361255e5760405162461bcd60e51b81526020600482015260136024820152721499595b9d1c985b98de4819195d1958dd1959606a1b60448201526064016103d0565b6000612570606461170684600161281d565b9050600061257e8383612999565b90506125ab857f0000000000000000000000000000000000000000000000000000000000000000846129a5565b6125b68585836129a5565b5050505050565b60006125c984846121c1565b9050600019811461263157818110156126245760405162461bcd60e51b815260206004820152601d60248201527f45524332303a20696e73756666696369656e7420616c6c6f77616e636500000060448201526064016103d0565b61263184848484036123ea565b50505050565b6126418282611e74565b6112af5760008281526005602090815260408083206001600160a01b03851684529091529020805460ff191660011790556126793390565b6001600160a01b0316816001600160a01b0316837f2f8788117e7eff1d82e926ec794901d17c78024a50270940304540a733656f0d60405160405180910390a45050565b6126c78282611e74565b156112af5760008281526005602090815260408083206001600160a01b0385168085529252808320805460ff1916905551339285917ff6391f5c32d9c69d2a47ea670b442974b53935d1edc7fd64eb21e047a839171b9190a45050565b61272c612b49565b6006805460ff191690557f5db9ee0a495bf2e6ff9c91a7834c1ba4fdd244a5e8aa4e537bd38aeae4b073aa335b6040516127669190612d6a565b60405180910390a1565b60065460ff16156127b65760405162461bcd60e51b815260206004820152601060248201526f14185d5cd8589b194e881c185d5cd95960821b60448201526064016103d0565b565b60026007540361280a5760405162461bcd60e51b815260206004820152601f60248201527f5265656e7472616e637947756172643a207265656e7472616e742063616c6c0060448201526064016103d0565b6002600755565b600061206e828461304a565b600061206e828461324e565b6001600160a01b03821661287f5760405162461bcd60e51b815260206004820152601f60248201527f45524332303a206d696e7420746f20746865207a65726f20616464726573730060448201526064016103d0565b8060026000828254612891919061304a565b90915550506001600160a01b038216600081815260208181526040808320805486019055518481527fddf252ad1be2c89b69c2b068fc378daa952ba7f163c4a11628f55a4df523b3ef910160405180910390a35050565b600061206e8284613265565b6128fc612770565b6006805460ff191660011790557f62e78cea01bee320cd4e420270b5ea74000d11b0c9f74754ebdbfc544b05a2586127593390565b60606004805461236790613214565b61294a8282611e74565b6112af5761295781612b92565b612962836020612ba4565b604051602001612973929190613287565b60408051601f198184030181529082905262461bcd60e51b82526103d091600401612df0565b600061206e82846132f6565b6001600160a01b038316612a095760405162461bcd60e51b815260206004820152602560248201527f45524332303a207472616e736665722066726f6d20746865207a65726f206164604482015264647265737360d81b60648201526084016103d0565b6001600160a01b038216612a6b5760405162461bcd60e51b815260206004820152602360248201527f45524332303a207472616e7366657220746f20746865207a65726f206164647260448201526265737360e81b60648201526084016103d0565b6001600160a01b03831660009081526020819052604090205481811015612ae35760405162461bcd60e51b815260206004820152602660248201527f45524332303a207472616e7366657220616d6f756e7420657863656564732062604482015265616c616e636560d01b60648201526084016103d0565b6001600160a01b03848116600081815260208181526040808320878703905593871680835291849020805487019055925185815290927fddf252ad1be2c89b69c2b068fc378daa952ba7f163c4a11628f55a4df523b3ef910160405180910390a3612631565b60065460ff166127b65760405162461bcd60e51b815260206004820152601460248201527314185d5cd8589b194e881b9bdd081c185d5cd95960621b60448201526064016103d0565b6060610d446001600160a01b03831660145b60606000612bb383600261324e565b612bbe90600261304a565b67ffffffffffffffff811115612bd657612bd6613309565b6040519080825280601f01601f191660200182016040528015612c00576020820181803683370190505b509050600360fc1b81600081518110612c1b57612c1b61331f565b60200101906001600160f81b031916908160001a905350600f60fb1b81600181518110612c4a57612c4a61331f565b60200101906001600160f81b031916908160001a9053506000612c6e84600261324e565b612c7990600161304a565b90505b6001811115612cf1576f181899199a1a9b1b9c1cb0b131b232b360811b85600f1660108110612cad57612cad61331f565b1a60f81b828281518110612cc357612cc361331f565b60200101906001600160f81b031916908160001a90535060049490941c93612cea81613335565b9050612c7c565b50831561206e5760405162461bcd60e51b815260206004820181905260248201527f537472696e67733a20686578206c656e67746820696e73756666696369656e7460448201526064016103d0565b600060208284031215612d5257600080fd5b81356001600160e01b03198116811461206e57600080fd5b6001600160a01b0391909116815260200190565b60008060408385031215612d9157600080fd5b50508035926020909101359150565b60005b83811015612dbb578181015183820152602001612da3565b50506000910152565b60008151808452612ddc816020860160208601612da0565b601f01601f19169290920160200192915050565b60208152600061206e6020830184612dc4565b80356001600160a01b0381168114612e1a57600080fd5b919050565b60008060408385031215612e3257600080fd5b612e3b83612e03565b946020939093013593505050565b600080600060608486031215612e5e57600080fd5b612e6784612e03565b9250612e7560208501612e03565b9150604084013590509250925092565b600060208284031215612e9757600080fd5b5035919050565b60008060408385031215612eb157600080fd5b82359150612ec160208401612e03565b90509250929050565b600060208284031215612edc57600080fd5b61206e82612e03565b60008060408385031215612ef857600080fd5b612f0183612e03565b9150612ec160208401612e03565b60018060a01b038616815284602082015260a060408201526000612f3660a0830186612dc4565b606083019490945250608001529392505050565b600060208284031215612f5c57600080fd5b5051919050565b60018060a01b038716815285602082015260c060408201526000612f8a60c0830187612dc4565b606083019590955250608081019290925260a0909101529392505050565b848152608060208201526000612fc16080830186612dc4565b6040830194909452506060015292915050565b6020808252601690820152751058d8dbdd5b9d081a5cc8189b1858dadb1a5cdd195960521b604082015260600190565b602080825260169082015275436f6f6c646f776e206f7574206f6620626f756e647360501b604082015260600190565b634e487b7160e01b600052601160045260246000fd5b80820180821115610d4457610d44613034565b600181815b8085111561309857816000190482111561307e5761307e613034565b8085161561308b57918102915b93841c9390800290613062565b509250929050565b6000826130af57506001610d44565b816130bc57506000610d44565b81600181146130d257600281146130dc576130f8565b6001915050610d44565b60ff8411156130ed576130ed613034565b50506001821b610d44565b5060208310610133831016604e8410600b841016171561311b575081810a610d44565b613125838361305d565b806000190482111561313957613139613034565b029392505050565b600061206e60ff8416836130a0565b6020808252600f908201526e496e76616c6964206164647265737360881b604082015260600190565b602080825260179082015276151c99585cdd5c9e481dd85b1b195d081b9bdd081cd95d604a1b604082015260600190565b805169ffffffffffffffffffff81168114612e1a57600080fd5b600080600080600060a086880312156131dc57600080fd5b6131e5866131aa565b9450602086015193506040860151925060608601519150613208608087016131aa565b90509295509295909350565b600181811c9082168061322857607f821691505b60208210810361324857634e487b7160e01b600052602260045260246000fd5b50919050565b8082028115828204841417610d4457610d44613034565b60008261328257634e487b7160e01b600052601260045260246000fd5b500490565b76020b1b1b2b9b9a1b7b73a3937b61d1030b1b1b7bab73a1604d1b8152600083516132b9816017850160208801612da0565b7001034b99036b4b9b9b4b733903937b6329607d1b60179184019182015283516132ea816028840160208801612da0565b01602801949350505050565b81810381811115610d4457610d44613034565b634e487b7160e01b600052604160045260246000fd5b634e487b7160e01b600052603260045260246000fd5b60008161334457613344613034565b50600019019056fe65d7a28e3265b37a6474929f336521b332c1681b933f6cb9f3376673440d862aa49807205ce4d355092ef5a8a18f56e8913cf4a201fbe287825b095693c21775a264697066735822122040bc8e076969441309e822a94ab19f3ec17ab1b220cd5232a627ab0173ccb38564736f6c6343000814003360806040523480156200001157600080fd5b50604051620022f0380380620022f0833981016040819052620000349162000408565b6200004f60008051602062002270833981519152806200022d565b6200007960008051602062002290833981519152600080516020620022708339815191526200022d565b620000a3600080516020620022b0833981519152600080516020620022708339815191526200022d565b620000cd600080516020620022d0833981519152600080516020620022708339815191526200022d565b620000e8600080516020620022708339815191523062000278565b6001600160a01b03811615620001135762000113600080516020620022708339815191528262000278565b60005b835181101562000199576200015d600080516020620022908339815191528583815181106200014957620001496200048f565b60200260200101516200027860201b60201c565b62000186600080516020620022d08339815191528583815181106200014957620001496200048f565b6200019181620004a5565b905062000116565b5060005b8251811015620001e357620001d0600080516020620022b08339815191528483815181106200014957620001496200048f565b620001db81620004a5565b90506200019d565b5060028490556040805160008152602081018690527f11c24f4ead16507c69ac467fbd5e4eed5fb5c699626d2cc6d66421df253886d5910160405180910390a150505050620004cd565b600082815260208190526040808220600101805490849055905190918391839186917fbd79b86ffe0ab8e8776151514217cd7cacd52c909f66475c3af44e129f0b00ff9190a4505050565b62000284828262000288565b5050565b6000828152602081815260408083206001600160a01b038516845290915290205460ff1662000284576000828152602081815260408083206001600160a01b03851684529091529020805460ff19166001179055620002e43390565b6001600160a01b0316816001600160a01b0316837f2f8788117e7eff1d82e926ec794901d17c78024a50270940304540a733656f0d60405160405180910390a45050565b634e487b7160e01b600052604160045260246000fd5b80516001600160a01b03811681146200035657600080fd5b919050565b600082601f8301126200036d57600080fd5b815160206001600160401b03808311156200038c576200038c62000328565b8260051b604051601f19603f83011681018181108482111715620003b457620003b462000328565b604052938452858101830193838101925087851115620003d357600080fd5b83870191505b84821015620003fd57620003ed826200033e565b83529183019190830190620003d9565b979650505050505050565b600080600080608085870312156200041f57600080fd5b845160208601519094506001600160401b03808211156200043f57600080fd5b6200044d888389016200035b565b945060408701519150808211156200046457600080fd5b5062000473878288016200035b565b92505062000484606086016200033e565b905092959194509250565b634e487b7160e01b600052603260045260246000fd5b600060018201620004c657634e487b7160e01b600052601160045260246000fd5b5060010190565b611d9380620004dd6000396000f3fe60806040526004361061015b5760003560e01c80638065657f116100bc5780638065657f1461039a5780638f2a0bb0146103ba5780638f61f4f5146103da57806391d14854146103fc578063a217fddf1461041c578063b08e51c014610431578063b1c5f42714610465578063bc197c8114610485578063c4d252f5146104b1578063d45c4435146104d1578063d547741f146104fe578063e38335e51461051e578063f23a6e6114610531578063f27a0c921461055d57600080fd5b806301d5062a1461016757806301ffc9a71461018957806307bd0265146101be5780630d3cf6fc146101ee578063134008d31461022257806313bc9f2014610235578063150b7a0214610255578063248a9ca3146102995780632ab0f529146102c95780632f2ff15d146102fa57806331d507501461031a57806336568abe1461033a578063584b153e1461035a57806364d623531461037a57600080fd5b3661016257005b600080fd5b34801561017357600080fd5b50610187610182366004611376565b610572565b005b34801561019557600080fd5b506101a96101a43660046113ea565b610636565b60405190151581526020015b60405180910390f35b3480156101ca57600080fd5b506101e0600080516020611d3e83398151915281565b6040519081526020016101b5565b3480156101fa57600080fd5b506101e07f5f58e3a2316349923ce3780f8d587db2d72378aed66a8261c916544fa6846ca581565b610187610230366004611414565b610661565b34801561024157600080fd5b506101a961025036600461147f565b610704565b34801561026157600080fd5b5061028061027036600461154d565b630a85bd0160e11b949350505050565b6040516001600160e01b031990911681526020016101b5565b3480156102a557600080fd5b506101e06102b436600461147f565b60009081526020819052604090206001015490565b3480156102d557600080fd5b506101a96102e436600461147f565b6000908152600160208190526040909120541490565b34801561030657600080fd5b506101876103153660046115b4565b61072a565b34801561032657600080fd5b506101a961033536600461147f565b610754565b34801561034657600080fd5b506101876103553660046115b4565b61076d565b34801561036657600080fd5b506101a961037536600461147f565b6107f0565b34801561038657600080fd5b5061018761039536600461147f565b610806565b3480156103a657600080fd5b506101e06103b5366004611414565b6108aa565b3480156103c657600080fd5b506101876103d5366004611624565b6108e9565b3480156103e657600080fd5b506101e0600080516020611d1e83398151915281565b34801561040857600080fd5b506101a96104173660046115b4565b610a6a565b34801561042857600080fd5b506101e0600081565b34801561043d57600080fd5b506101e07ffd643c72710c63c0180259aba6b2d05451e3591a24e58b62239378085726f78381565b34801561047157600080fd5b506101e06104803660046116d5565b610a93565b34801561049157600080fd5b506102806104a03660046117fc565b63bc197c8160e01b95945050505050565b3480156104bd57600080fd5b506101876104cc36600461147f565b610ad8565b3480156104dd57600080fd5b506101e06104ec36600461147f565b60009081526001602052604090205490565b34801561050a57600080fd5b506101876105193660046115b4565b610bad565b61018761052c3660046116d5565b610bd2565b34801561053d57600080fd5b5061028061054c3660046118a5565b63f23a6e6160e01b95945050505050565b34801561056957600080fd5b506002546101e0565b600080516020611d1e83398151915261058a81610d4a565b600061059a8989898989896108aa565b90506105a68184610d57565b6000817f4cf4410cc57040e44862ef0f45f3dd5a5e02db8eb8add648d4b0e236f1d07dca8b8b8b8b8b8a6040516105e296959493929190611932565b60405180910390a3831561062b57807f20fda5fd27a1ea7bf5b9567f143ac5470bb059374a27e8f67cb44f946f6d03878560405161062291815260200190565b60405180910390a25b505050505050505050565b60006001600160e01b03198216630271189760e51b148061065b575061065b82610e46565b92915050565b600080516020611d3e83398151915261067b816000610a6a565b610689576106898133610e7b565b60006106998888888888886108aa565b90506106a58185610ed4565b6106b188888888610f70565b6000817fc2617efa69bab66782fa219543714338489c4e9e178271560a91b82c3f612b588a8a8a8a6040516106e9949392919061196f565b60405180910390a36106fa81611043565b5050505050505050565b6000818152600160205260408120546001811180156107235750428111155b9392505050565b60008281526020819052604090206001015461074581610d4a565b61074f838361107c565b505050565b60008181526001602052604081205481905b1192915050565b6001600160a01b03811633146107e25760405162461bcd60e51b815260206004820152602f60248201527f416363657373436f6e74726f6c3a2063616e206f6e6c792072656e6f756e636560448201526e103937b632b9903337b91039b2b63360891b60648201526084015b60405180910390fd5b6107ec8282611100565b5050565b6000818152600160208190526040822054610766565b3330146108695760405162461bcd60e51b815260206004820152602b60248201527f54696d656c6f636b436f6e74726f6c6c65723a2063616c6c6572206d7573742060448201526a62652074696d656c6f636b60a81b60648201526084016107d9565b60025460408051918252602082018390527f11c24f4ead16507c69ac467fbd5e4eed5fb5c699626d2cc6d66421df253886d5910160405180910390a1600255565b60008686868686866040516020016108c796959493929190611932565b6040516020818303038152906040528051906020012090509695505050505050565b600080516020611d1e83398151915261090181610d4a565b8887146109205760405162461bcd60e51b81526004016107d9906119a1565b88851461093f5760405162461bcd60e51b81526004016107d9906119a1565b60006109518b8b8b8b8b8b8b8b610a93565b905061095d8184610d57565b60005b8a811015610a1b5780827f4cf4410cc57040e44862ef0f45f3dd5a5e02db8eb8add648d4b0e236f1d07dca8e8e8581811061099d5761099d6119e4565b90506020020160208101906109b291906119fa565b8d8d868181106109c4576109c46119e4565b905060200201358c8c878181106109dd576109dd6119e4565b90506020028101906109ef9190611a15565b8c8b604051610a0396959493929190611932565b60405180910390a3610a1481611a71565b9050610960565b508315610a5d57807f20fda5fd27a1ea7bf5b9567f143ac5470bb059374a27e8f67cb44f946f6d038785604051610a5491815260200190565b60405180910390a25b5050505050505050505050565b6000918252602082815260408084206001600160a01b0393909316845291905290205460ff1690565b60008888888888888888604051602001610ab4989796959493929190611b1b565b60405160208183030381529060405280519060200120905098975050505050505050565b7ffd643c72710c63c0180259aba6b2d05451e3591a24e58b62239378085726f783610b0281610d4a565b610b0b826107f0565b610b715760405162461bcd60e51b815260206004820152603160248201527f54696d656c6f636b436f6e74726f6c6c65723a206f7065726174696f6e2063616044820152701b9b9bdd0818994818d85b98d95b1b1959607a1b60648201526084016107d9565b6000828152600160205260408082208290555183917fbaa1eb22f2a492ba1a5fea61b8df4d27c6c8b5f3971e63bb58fa14ff72eedb7091a25050565b600082815260208190526040902060010154610bc881610d4a565b61074f8383611100565b600080516020611d3e833981519152610bec816000610a6a565b610bfa57610bfa8133610e7b565b878614610c195760405162461bcd60e51b81526004016107d9906119a1565b878414610c385760405162461bcd60e51b81526004016107d9906119a1565b6000610c4a8a8a8a8a8a8a8a8a610a93565b9050610c568185610ed4565b60005b89811015610d345760008b8b83818110610c7557610c756119e4565b9050602002016020810190610c8a91906119fa565b905060008a8a84818110610ca057610ca06119e4565b9050602002013590503660008a8a86818110610cbe57610cbe6119e4565b9050602002810190610cd09190611a15565b91509150610ce084848484610f70565b84867fc2617efa69bab66782fa219543714338489c4e9e178271560a91b82c3f612b5886868686604051610d17949392919061196f565b60405180910390a35050505080610d2d90611a71565b9050610c59565b50610d3e81611043565b50505050505050505050565b610d548133610e7b565b50565b610d6082610754565b15610dc55760405162461bcd60e51b815260206004820152602f60248201527f54696d656c6f636b436f6e74726f6c6c65723a206f7065726174696f6e20616c60448201526e1c9958591e481cd8da19591d5b1959608a1b60648201526084016107d9565b600254811015610e265760405162461bcd60e51b815260206004820152602660248201527f54696d656c6f636b436f6e74726f6c6c65723a20696e73756666696369656e746044820152652064656c617960d01b60648201526084016107d9565b610e308142611bbc565b6000928352600160205260409092209190915550565b60006001600160e01b03198216637965db0b60e01b148061065b57506301ffc9a760e01b6001600160e01b031983161461065b565b610e858282610a6a565b6107ec57610e9281611165565b610e9d836020611177565b604051602001610eae929190611bf3565b60408051601f198184030181529082905262461bcd60e51b82526107d991600401611c62565b610edd82610704565b610ef95760405162461bcd60e51b81526004016107d990611c95565b801580610f155750600081815260016020819052604090912054145b6107ec5760405162461bcd60e51b815260206004820152602660248201527f54696d656c6f636b436f6e74726f6c6c65723a206d697373696e6720646570656044820152656e64656e637960d01b60648201526084016107d9565b6000846001600160a01b0316848484604051610f8d929190611cdf565b60006040518083038185875af1925050503d8060008114610fca576040519150601f19603f3d011682016040523d82523d6000602084013e610fcf565b606091505b505090508061103c5760405162461bcd60e51b815260206004820152603360248201527f54696d656c6f636b436f6e74726f6c6c65723a20756e6465726c79696e6720746044820152721c985b9cd858dd1a5bdb881c995d995c9d1959606a1b60648201526084016107d9565b5050505050565b61104c81610704565b6110685760405162461bcd60e51b81526004016107d990611c95565b600090815260016020819052604090912055565b6110868282610a6a565b6107ec576000828152602081815260408083206001600160a01b03851684529091529020805460ff191660011790556110bc3390565b6001600160a01b0316816001600160a01b0316837f2f8788117e7eff1d82e926ec794901d17c78024a50270940304540a733656f0d60405160405180910390a45050565b61110a8282610a6a565b156107ec576000828152602081815260408083206001600160a01b0385168085529252808320805460ff1916905551339285917ff6391f5c32d9c69d2a47ea670b442974b53935d1edc7fd64eb21e047a839171b9190a45050565b606061065b6001600160a01b03831660145b60606000611186836002611cef565b611191906002611bbc565b6001600160401b038111156111a8576111a8611498565b6040519080825280601f01601f1916602001820160405280156111d2576020820181803683370190505b509050600360fc1b816000815181106111ed576111ed6119e4565b60200101906001600160f81b031916908160001a905350600f60fb1b8160018151811061121c5761121c6119e4565b60200101906001600160f81b031916908160001a9053506000611240846002611cef565b61124b906001611bbc565b90505b60018111156112c3576f181899199a1a9b1b9c1cb0b131b232b360811b85600f166010811061127f5761127f6119e4565b1a60f81b828281518110611295576112956119e4565b60200101906001600160f81b031916908160001a90535060049490941c936112bc81611d06565b905061124e565b5083156107235760405162461bcd60e51b815260206004820181905260248201527f537472696e67733a20686578206c656e67746820696e73756666696369656e7460448201526064016107d9565b80356001600160a01b038116811461132957600080fd5b919050565b60008083601f84011261134057600080fd5b5081356001600160401b0381111561135757600080fd5b60208301915083602082850101111561136f57600080fd5b9250929050565b600080600080600080600060c0888a03121561139157600080fd5b61139a88611312565b96506020880135955060408801356001600160401b038111156113bc57600080fd5b6113c88a828b0161132e565b989b979a50986060810135976080820135975060a09091013595509350505050565b6000602082840312156113fc57600080fd5b81356001600160e01b03198116811461072357600080fd5b60008060008060008060a0878903121561142d57600080fd5b61143687611312565b95506020870135945060408701356001600160401b0381111561145857600080fd5b61146489828a0161132e565b979a9699509760608101359660809091013595509350505050565b60006020828403121561149157600080fd5b5035919050565b634e487b7160e01b600052604160045260246000fd5b604051601f8201601f191681016001600160401b03811182821017156114d6576114d6611498565b604052919050565b600082601f8301126114ef57600080fd5b81356001600160401b0381111561150857611508611498565b61151b601f8201601f19166020016114ae565b81815284602083860101111561153057600080fd5b816020850160208301376000918101602001919091529392505050565b6000806000806080858703121561156357600080fd5b61156c85611312565b935061157a60208601611312565b92506040850135915060608501356001600160401b0381111561159c57600080fd5b6115a8878288016114de565b91505092959194509250565b600080604083850312156115c757600080fd5b823591506115d760208401611312565b90509250929050565b60008083601f8401126115f257600080fd5b5081356001600160401b0381111561160957600080fd5b6020830191508360208260051b850101111561136f57600080fd5b600080600080600080600080600060c08a8c03121561164257600080fd5b89356001600160401b038082111561165957600080fd5b6116658d838e016115e0565b909b50995060208c013591508082111561167e57600080fd5b61168a8d838e016115e0565b909950975060408c01359150808211156116a357600080fd5b506116b08c828d016115e0565b9a9d999c50979a969997986060880135976080810135975060a0013595509350505050565b60008060008060008060008060a0898b0312156116f157600080fd5b88356001600160401b038082111561170857600080fd5b6117148c838d016115e0565b909a50985060208b013591508082111561172d57600080fd5b6117398c838d016115e0565b909850965060408b013591508082111561175257600080fd5b5061175f8b828c016115e0565b999c989b509699959896976060870135966080013595509350505050565b600082601f83011261178e57600080fd5b813560206001600160401b038211156117a9576117a9611498565b8160051b6117b88282016114ae565b92835284810182019282810190878511156117d257600080fd5b83870192505b848310156117f1578235825291830191908301906117d8565b979650505050505050565b600080600080600060a0868803121561181457600080fd5b61181d86611312565b945061182b60208701611312565b935060408601356001600160401b038082111561184757600080fd5b61185389838a0161177d565b9450606088013591508082111561186957600080fd5b61187589838a0161177d565b9350608088013591508082111561188b57600080fd5b50611898888289016114de565b9150509295509295909350565b600080600080600060a086880312156118bd57600080fd5b6118c686611312565b94506118d460208701611312565b9350604086013592506060860135915060808601356001600160401b038111156118fd57600080fd5b611898888289016114de565b81835281816020850137506000828201602090810191909152601f909101601f19169091010190565b60018060a01b038716815285602082015260a06040820152600061195a60a083018688611909565b60608301949094525060800152949350505050565b60018060a01b0385168152836020820152606060408201526000611997606083018486611909565b9695505050505050565b60208082526023908201527f54696d656c6f636b436f6e74726f6c6c65723a206c656e677468206d69736d616040820152620e8c6d60eb1b606082015260800190565b634e487b7160e01b600052603260045260246000fd5b600060208284031215611a0c57600080fd5b61072382611312565b6000808335601e19843603018112611a2c57600080fd5b8301803591506001600160401b03821115611a4657600080fd5b60200191503681900382131561136f57600080fd5b634e487b7160e01b600052601160045260246000fd5b600060018201611a8357611a83611a5b565b5060010190565b81835260006020808501808196508560051b810191508460005b87811015611b0e5782840389528135601e19883603018112611ac557600080fd5b870185810190356001600160401b03811115611ae057600080fd5b803603821315611aef57600080fd5b611afa868284611909565b9a87019a9550505090840190600101611aa4565b5091979650505050505050565b60a0808252810188905260008960c08301825b8b811015611b5c576001600160a01b03611b4784611312565b16825260209283019290910190600101611b2e565b5083810360208501528881526001600160fb1b03891115611b7c57600080fd5b8860051b9150818a60208301370182810360209081016040850152611ba49082018789611a8a565b60608401959095525050608001529695505050505050565b8082018082111561065b5761065b611a5b565b60005b83811015611bea578181015183820152602001611bd2565b50506000910152565b76020b1b1b2b9b9a1b7b73a3937b61d1030b1b1b7bab73a1604d1b815260008351611c25816017850160208801611bcf565b7001034b99036b4b9b9b4b733903937b6329607d1b6017918401918201528351611c56816028840160208801611bcf565b01602801949350505050565b6020815260008251806020840152611c81816040850160208701611bcf565b601f01601f19169190910160400192915050565b6020808252602a908201527f54696d656c6f636b436f6e74726f6c6c65723a206f7065726174696f6e206973604082015269206e6f7420726561647960b01b606082015260800190565b8183823760009101908152919050565b808202811582820484141761065b5761065b611a5b565b600081611d1557611d15611a5b565b50600019019056feb09aa5aeb3702cfd50b6b62bc4532604938f21248a27a1d5ca736082b6819cc1d8aa0f3194971a2a116679f7c2090f6939c8d4e01a2a8d7e41d55e5351469e63a26469706673582212202808f51406eb1fa3c3d17bb673219a6658602723b96ab3e10960d1825d6b9f3264736f6c634300081400335f58e3a2316349923ce3780f8d587db2d72378aed66a8261c916544fa6846ca5b09aa5aeb3702cfd50b6b62bc4532604938f21248a27a1d5ca736082b6819cc1d8aa0f3194971a2a116679f7c2090f6939c8d4e01a2a8d7e41d55e5351469e63fd643c72710c63c0180259aba6b2d05451e3591a24e58b62239378085726f783a49807205ce4d355092ef5a8a18f56e8913cf4a201fbe287825b095693c21775",
  "linkReferences": {},
  "deployedLinkReferences": {}
}