{
  "_format": "hh-sol-artifact-1",
  "contractName": "USDTgStaking",
  "sourceName": "contracts/USDTgStaking.sol",
  "abi": [
    {
      "inputs": [
        {
          "internalType": "address",
          "name": "_tokenAddress",
          "type": "address"
        }
      ],
      "stateMutability": "nonpayable",
      "type": "constructor"
    },
    {
      "inputs": [
        {
          "internalType": "address",
          "name": "staker",
          "type": "address"
        }
      ],
      "name": "calculateReward",
      "outputs": [
        {
          "internalType": "uint256",
          "name": "",
          "type": "uint256"
        }
      ],
      "stateMutability": "view",
      "type": "function"
    },
    {
      "inputs": [],
      "name": "owner",
      "outputs": [
        {
          "internalType": "address",
          "name": "",
          "type": "address"
        }
      ],
      "stateMutability": "view",
      "type": "function"
    },
    {
      "inputs": [],
      "name": "rewardRatePerSecond",
      "outputs": [
        {
          "internalType": "uint256",
          "name": "",
          "type": "uint256"
        }
      ],
      "stateMutability": "view",
      "type": "function"
    },
    {
      "inputs": [
        {
          "internalType": "uint256",
          "name": "amount",
          "type": "uint256"
        }
      ],
      "name": "stake",
      "outputs": [],
      "stateMutability": "nonpayable",
      "type": "function"
    },
    {
      "inputs": [
        {
          "internalType": "address",
          "name": "",
          "type": "address"
        }
      ],
      "name": "stakes",
      "outputs": [
        {
          "internalType": "uint256",
          "name": "amount",
          "type": "uint256"
        },
        {
          "internalType": "uint256",
          "name": "timestamp",
          "type": "uint256"
        },
        {
          "internalType": "uint256",
          "name": "rewardClaimed",
          "type": "uint256"
        }
      ],
      "stateMutability": "view",
      "type": "function"
    },
    {
      "inputs": [],
      "name": "token",
      "outputs": [
        {
          "internalType": "contract ITRC20",
          "name": "",
          "type": "address"
        }
      ],
      "stateMutability": "view",
      "type": "function"
    },
    {
      "inputs": [],
      "name": "unstake",
      "outputs": [],
      "stateMutability": "nonpayable",
      "type": "function"
    },
    {
      "inputs": [
        {
          "internalType": "uint256",
          "name": "newRate",
          "type": "uint256"
        }
      ],
      "name": "updateRewardRate",
      "outputs": [],
      "stateMutability": "nonpayable",
      "type": "function"
    },
    {
      "inputs": [
        {
          "internalType": "uint256",
          "name": "amount",
          "type": "uint256"
        }
      ],
      "name": "withdrawTokens",
      "outputs": [],
      "stateMutability": "nonpayable",
      "type": "function"
    }
  ],
  "bytecode": "0x608060405261027b60025534801561001657600080fd5b506040516108b63803806108b683398101604081905261003591610063565b600080546001600160a01b039092166001600160a01b03199283161790556001805490911633179055610093565b60006020828403121561007557600080fd5b81516001600160a01b038116811461008c57600080fd5b9392505050565b610814806100a26000396000f3fe608060405234801561001057600080fd5b50600436106100835760003560e01c806316934fc4146100885780632def6620146100d7578063315a095d146100e15780635d773b2c146100f45780638da5cb5b1461010b5780639ef3a26114610136578063a694fc3a14610149578063d82e39621461015c578063fc0c546a1461016f575b600080fd5b6100b76100963660046106af565b60036020526000908152604090208054600182015460029092015490919083565b604080519384526020840192909252908201526060015b60405180910390f35b6100df610182565b005b6100df6100ef3660046106df565b61039e565b6100fd60025481565b6040519081526020016100ce565b60015461011e906001600160a01b031681565b6040516001600160a01b0390911681526020016100ce565b6100df6101443660046106df565b610482565b6100df6101573660046106df565b6104b1565b6100fd61016a3660046106af565b610616565b60005461011e906001600160a01b031681565b33600090815260036020526040902080546101e15760405162461bcd60e51b815260206004820152601a6024820152792cb0ba34b93234b3b4b7103134b91039b2bc903cb7b59035b49760311b60448201526064015b60405180910390fd5b60006101ec33610616565b90506000818360020154610200919061070e565b835433600081815260036020526040808220828155600181018390556002018290559054905163a9059cbb60e01b815293945091926001600160a01b039092169163a9059cbb91610255918590600401610727565b6020604051808303816000875af1158015610274573d6000803e3d6000fd5b505050506040513d601f19601f820116820180604052508101906102989190610740565b6102df5760405162461bcd60e51b815260206004820152601860248201527720b730903830b930b7349033b7b73232b932b6b2b234b59760411b60448201526064016101d8565b60005460405163a9059cbb60e01b81526001600160a01b039091169063a9059cbb906103119033908690600401610727565b6020604051808303816000875af1158015610330573d6000803e3d6000fd5b505050506040513d601f19601f820116820180604052508101906103549190610740565b6103985760405162461bcd60e51b815260206004820152601560248201527427b23ab63ab73a9033b7b73232b932b6b2b234b59760591b60448201526064016101d8565b50505050565b6001546001600160a01b031633146103c85760405162461bcd60e51b81526004016101d890610762565b60005460015460405163a9059cbb60e01b81526001600160a01b039283169263a9059cbb926103fe929116908590600401610727565b6020604051808303816000875af115801561041d573d6000803e3d6000fd5b505050506040513d601f19601f820116820180604052508101906104419190610740565b61047f5760405162461bcd60e51b815260206004820152600f60248201526e21b2b5b2b6b2b234b69035b930b61760891b60448201526064016101d8565b50565b6001546001600160a01b031633146104ac5760405162461bcd60e51b81526004016101d890610762565b600255565b600081116104f85760405162461bcd60e51b8152602060048201526014602482015273426f732079617469726d61206d69206f6c75723f60601b60448201526064016101d8565b6000546040516323b872dd60e01b8152336004820152306024820152604481018390526001600160a01b03909116906323b872dd906064016020604051808303816000875af115801561054f573d6000803e3d6000fd5b505050506040513d601f19601f820116820180604052508101906105739190610740565b6105b55760405162461bcd60e51b81526020600482015260136024820152722a3930b739b332b9103130b9b0b934b9b4bd1760691b60448201526064016101d8565b3360009081526003602052604090208054156105f35760006105d633610616565b9050808260020160008282546105ec919061070e565b9091555050505b81816000016000828254610607919061070e565b90915550504260019091015550565b6001600160a01b038116600090815260036020908152604080832081516060810183528154808252600183015494820194909452600290910154918101919091529082036106675750600092915050565b60008160200151426106799190610792565b90506305f5e10081600254846000015161069391906107a5565b61069d91906107a5565b6106a791906107bc565b949350505050565b6000602082840312156106c157600080fd5b81356001600160a01b03811681146106d857600080fd5b9392505050565b6000602082840312156106f157600080fd5b5035919050565b634e487b7160e01b600052601160045260246000fd5b80820180821115610721576107216106f8565b92915050565b6001600160a01b03929092168252602082015260400190565b60006020828403121561075257600080fd5b815180151581146106d857600080fd5b60208082526016908201527529b0b232b1b29035b930b6103cb0b830b134b634b91760511b604082015260600190565b81810381811115610721576107216106f8565b8082028115828204841417610721576107216106f8565b6000826107d957634e487b7160e01b600052601260045260246000fd5b50049056fea2646970667358221220cadc7016d7d697bdde659e44517362e478c73e03c04f07654aef579c30d7814b64736f6c63430008140033",
  "linkReferences": {},
  "deployedLinkReferences": {}
}