{
  "contractName": "USDTgTokenTRC20",
  "abi": [
    {
      "inputs": [
        {
          "internalType": "string",
          "name": "name_",
          "type": "string"
        },
        {
          "internalType": "string",
          "name": "symbol_",
          "type": "string"
        },
        {
          "internalType": "address",
          "name": "_feeWallet",
          "type": "address"
        },
        {
          "internalType": "address",
          "name": "_usdtAddress",
          "type": "address"
        },
        {
          "internalType": "address",
          "name": "_usdcAddress",
          "type": "address"
        },
        {
          "internalType": "address",
          "name": "_router",
          "type": "address"
        }
      ],
      "stateMutability": "nonpayable",
      "type": "constructor"
    },
    {
      "anonymous": false,
      "inputs": [
        {
          "indexed": true,
          "internalType": "address",
          "name": "owner",
          "type": "address"
        },
        {
          "indexed": true,
          "internalType": "address",
          "name": "spender",
          "type": "address"
        },
        {
          "indexed": false,
          "internalType": "uint256",
          "name": "value",
          "type": "uint256"
        }
      ],
      "name": "Approval",
      "type": "event"
    },
    {
      "anonymous": false,
      "inputs": [
        {
          "indexed": true,
          "internalType": "address",
          "name": "previousOwner",
          "type": "address"
        },
        {
          "indexed": true,
          "internalType": "address",
          "name": "newOwner",
          "type": "address"
        }
      ],
      "name": "OwnershipTransferred",
      "type": "event"
    },
    {
      "anonymous": false,
      "inputs": [
        {
          "indexed": false,
          "internalType": "address",
          "name": "account",
          "type": "address"
        }
      ],
      "name": "Paused",
      "type": "event"
    },
    {
      "anonymous": false,
      "inputs": [
        {
          "indexed": true,
          "internalType": "address",
          "name": "from",
          "type": "address"
        },
        {
          "indexed": true,
          "internalType": "address",
          "name": "to",
          "type": "address"
        },
        {
          "indexed": false,
          "internalType": "uint256",
          "name": "value",
          "type": "uint256"
        }
      ],
      "name": "Transfer",
      "type": "event"
    },
    {
      "anonymous": false,
      "inputs": [
        {
          "indexed": false,
          "internalType": "address",
          "name": "account",
          "type": "address"
        }
      ],
      "name": "Unpaused",
      "type": "event"
    },
    {
      "inputs": [
        {
          "internalType": "address",
          "name": "owner",
          "type": "address"
        },
        {
          "internalType": "address",
          "name": "spender",
          "type": "address"
        }
      ],
      "name": "allowance",
      "outputs": [
        {
          "internalType": "uint256",
          "name": "",
          "type": "uint256"
        }
      ],
      "stateMutability": "view",
      "type": "function"
    },
    {
      "inputs": [
        {
          "internalType": "address",
          "name": "spender",
          "type": "address"
        },
        {
          "internalType": "uint256",
          "name": "amount",
          "type": "uint256"
        }
      ],
      "name": "approve",
      "outputs": [
        {
          "internalType": "bool",
          "name": "",
          "type": "bool"
        }
      ],
      "stateMutability": "nonpayable",
      "type": "function"
    },
    {
      "inputs": [
        {
          "internalType": "address",
          "name": "account",
          "type": "address"
        }
      ],
      "name": "balanceOf",
      "outputs": [
        {
          "internalType": "uint256",
          "name": "",
          "type": "uint256"
        }
      ],
      "stateMutability": "view",
      "type": "function"
    },
    {
      "inputs": [],
      "name": "decimals",
      "outputs": [
        {
          "internalType": "uint8",
          "name": "",
          "type": "uint8"
        }
      ],
      "stateMutability": "view",
      "type": "function"
    },
    {
      "inputs": [
        {
          "internalType": "address",
          "name": "spender",
          "type": "address"
        },
        {
          "internalType": "uint256",
          "name": "subtractedValue",
          "type": "uint256"
        }
      ],
      "name": "decreaseAllowance",
      "outputs": [
        {
          "internalType": "bool",
          "name": "",
          "type": "bool"
        }
      ],
      "stateMutability": "nonpayable",
      "type": "function"
    },
    {
      "inputs": [],
      "name": "feeWallet",
      "outputs": [
        {
          "internalType": "address",
          "name": "",
          "type": "address"
        }
      ],
      "stateMutability": "view",
      "type": "function"
    },
    {
      "inputs": [],
      "name": "fixedUSDPrice",
      "outputs": [
        {
          "internalType": "uint256",
          "name": "",
          "type": "uint256"
        }
      ],
      "stateMutability": "view",
      "type": "function"
    },
    {
      "inputs": [],
      "name": "freezeMaxSupply",
      "outputs": [],
      "stateMutability": "nonpayable",
      "type": "function"
    },
    {
      "inputs": [],
      "name": "getLatestPrice",
      "outputs": [
        {
          "internalType": "uint256",
          "name": "",
          "type": "uint256"
        }
      ],
      "stateMutability": "view",
      "type": "function"
    },
    {
      "inputs": [
        {
          "internalType": "address",
          "name": "spender",
          "type": "address"
        },
        {
          "internalType": "uint256",
          "name": "addedValue",
          "type": "uint256"
        }
      ],
      "name": "increaseAllowance",
      "outputs": [
        {
          "internalType": "bool",
          "name": "",
          "type": "bool"
        }
      ],
      "stateMutability": "nonpayable",
      "type": "function"
    },
    {
      "inputs": [],
      "name": "justMoneyRouter",
      "outputs": [
        {
          "internalType": "contract IJustMoneyRouter",
          "name": "",
          "type": "address"
        }
      ],
      "stateMutability": "view",
      "type": "function"
    },
    {
      "inputs": [
        {
          "internalType": "uint256",
          "name": "tokenAmount",
          "type": "uint256"
        }
      ],
      "name": "liveUSDValue",
      "outputs": [
        {
          "internalType": "uint256",
          "name": "",
          "type": "uint256"
        }
      ],
      "stateMutability": "view",
      "type": "function"
    },
    {
      "inputs": [],
      "name": "maxSupply",
      "outputs": [
        {
          "internalType": "uint256",
          "name": "",
          "type": "uint256"
        }
      ],
      "stateMutability": "view",
      "type": "function"
    },
    {
      "inputs": [],
      "name": "maxSupplyFrozen",
      "outputs": [
        {
          "internalType": "bool",
          "name": "",
          "type": "bool"
        }
      ],
      "stateMutability": "view",
      "type": "function"
    },
    {
      "inputs": [
        {
          "internalType": "address",
          "name": "to",
          "type": "address"
        },
        {
          "internalType": "uint256",
          "name": "amount",
          "type": "uint256"
        }
      ],
      "name": "mint",
      "outputs": [],
      "stateMutability": "nonpayable",
      "type": "function"
    },
    {
      "inputs": [],
      "name": "name",
      "outputs": [
        {
          "internalType": "string",
          "name": "",
          "type": "string"
        }
      ],
      "stateMutability": "view",
      "type": "function"
    },
    {
      "inputs": [],
      "name": "owner",
      "outputs": [
        {
          "internalType": "address",
          "name": "",
          "type": "address"
        }
      ],
      "stateMutability": "view",
      "type": "function"
    },
    {
      "inputs": [],
      "name": "pause",
      "outputs": [],
      "stateMutability": "nonpayable",
      "type": "function"
    },
    {
      "inputs": [],
      "name": "paused",
      "outputs": [
        {
          "internalType": "bool",
          "name": "",
          "type": "bool"
        }
      ],
      "stateMutability": "view",
      "type": "function"
    },
    {
      "inputs": [],
      "name": "renounceOwnership",
      "outputs": [],
      "stateMutability": "nonpayable",
      "type": "function"
    },
    {
      "inputs": [
        {
          "internalType": "uint256",
          "name": "newPrice",
          "type": "uint256"
        }
      ],
      "name": "setFixedUSDPrice",
      "outputs": [],
      "stateMutability": "nonpayable",
      "type": "function"
    },
    {
      "inputs": [
        {
          "internalType": "uint256",
          "name": "newMaxSupply",
          "type": "uint256"
        }
      ],
      "name": "setMaxSupply",
      "outputs": [],
      "stateMutability": "nonpayable",
      "type": "function"
    },
    {
      "inputs": [
        {
          "internalType": "address",
          "name": "_wallet",
          "type": "address"
        }
      ],
      "name": "setTreasuryWallet",
      "outputs": [],
      "stateMutability": "nonpayable",
      "type": "function"
    },
    {
      "inputs": [],
      "name": "symbol",
      "outputs": [
        {
          "internalType": "string",
          "name": "",
          "type": "string"
        }
      ],
      "stateMutability": "view",
      "type": "function"
    },
    {
      "inputs": [],
      "name": "totalSupply",
      "outputs": [
        {
          "internalType": "uint256",
          "name": "",
          "type": "uint256"
        }
      ],
      "stateMutability": "view",
      "type": "function"
    },
    {
      "inputs": [
        {
          "internalType": "address",
          "name": "recipient",
          "type": "address"
        },
        {
          "internalType": "uint256",
          "name": "amount",
          "type": "uint256"
        }
      ],
      "name": "transfer",
      "outputs": [
        {
          "internalType": "bool",
          "name": "",
          "type": "bool"
        }
      ],
      "stateMutability": "nonpayable",
      "type": "function"
    },
    {
      "inputs": [
        {
          "internalType": "address",
          "name": "sender",
          "type": "address"
        },
        {
          "internalType": "address",
          "name": "recipient",
          "type": "address"
        },
        {
          "internalType": "uint256",
          "name": "amount",
          "type": "uint256"
        }
      ],
      "name": "transferFrom",
      "outputs": [
        {
          "internalType": "bool",
          "name": "",
          "type": "bool"
        }
      ],
      "stateMutability": "nonpayable",
      "type": "function"
    },
    {
      "inputs": [
        {
          "internalType": "address",
          "name": "newOwner",
          "type": "address"
        }
      ],
      "name": "transferOwnership",
      "outputs": [],
      "stateMutability": "nonpayable",
      "type": "function"
    },
    {
      "inputs": [],
      "name": "treasuryWallet",
      "outputs": [
        {
          "internalType": "address",
          "name": "",
          "type": "address"
        }
      ],
      "stateMutability": "view",
      "type": "function"
    },
    {
      "inputs": [],
      "name": "unpause",
      "outputs": [],
      "stateMutability": "nonpayable",
      "type": "function"
    },
    {
      "inputs": [
        {
          "internalType": "uint256",
          "name": "tokenAmount",
          "type": "uint256"
        }
      ],
      "name": "usdValue",
      "outputs": [
        {
          "internalType": "uint256",
          "name": "",
          "type": "uint256"
        }
      ],
      "stateMutability": "view",
      "type": "function"
    },
    {
      "inputs": [],
      "name": "usdcAddress",
      "outputs": [
        {
          "internalType": "address",
          "name": "",
          "type": "address"
        }
      ],
      "stateMutability": "view",
      "type": "function"
    },
    {
      "inputs": [],
      "name": "usdtAddress",
      "outputs": [
        {
          "internalType": "address",
          "name": "",
          "type": "address"
        }
      ],
      "stateMutability": "view",
      "type": "function"
    }
  ],
  "bytecode": "0x60806040526007805460ff1990811660061790915567016345785d8a00006008556009805490911690556305f5e100600e553480156200003d575f80fd5b50d380156200004a575f80fd5b50d2801562000057575f80fd5b50604051620019fc380380620019fc8339810160408190526200007a9162000271565b858560036200008a8382620003aa565b506004620000998282620003aa565b505050620000b6620000b06200013660201b60201c565b6200013a565b6005805460ff60a01b19169055600160065560098054610100600160a81b0319166101006001600160a01b0396871602179055600a8054336001600160a01b031991821617909155600b8054821694861694909417909355600c8054841692851692909217909155600d8054909216921691909117905550620004729050565b3390565b600580546001600160a01b038381166001600160a01b0319831681179093556040519116919082907f8be0079c531659141344cd1fd0a4f28419497f9722a3daafe3b4186f6b6457e0905f90a35050565b634e487b7160e01b5f52604160045260245ffd5b5f82601f830112620001af575f80fd5b81516001600160401b0380821115620001cc57620001cc6200018b565b604051601f8301601f19908116603f01168101908282118183101715620001f757620001f76200018b565b8160405283815260209250868385880101111562000213575f80fd5b5f91505b8382101562000236578582018301518183018401529082019062000217565b5f93810190920192909252949350505050565b80515f906001600160a81b038116811462000262575f80fd5b6001600160a01b031692915050565b5f805f805f8060c0878903121562000287575f80fd5b86516001600160401b03808211156200029e575f80fd5b620002ac8a838b016200019f565b97506020890151915080821115620002c2575f80fd5b50620002d189828a016200019f565b955050620002e26040880162000249565b9350620002f26060880162000249565b9250620003026080880162000249565b91506200031260a0880162000249565b90509295509295509295565b600181811c908216806200033357607f821691505b6020821081036200035257634e487b7160e01b5f52602260045260245ffd5b50919050565b601f821115620003a5575f81815260208120601f850160051c81016020861015620003805750805b601f850160051c820191505b81811015620003a1578281556001016200038c565b5050505b505050565b81516001600160401b03811115620003c657620003c66200018b565b620003de81620003d784546200031e565b8462000358565b602080601f83116001811462000414575f8415620003fc5750858301515b5f19600386901b1c1916600185901b178555620003a1565b5f85815260208120601f198616915b82811015620004445788860151825594840194600190910190840162000423565b50858210156200046257878501515f19600388901b60f8161c191681555b5050505050600190811b01905550565b61157c80620004805f395ff3fe608060405234801561000f575f80fd5b50d3801561001b575f80fd5b50d28015610027575f80fd5b506004361061020a575f3560e01c8063715018a61161012c578063a9059cbb116100c1578063d5abeb0111610091578063d5abeb011461041a578063dd62ed3e14610423578063f25f4b5614610436578063f2fde38b1461044e578063f384702f14610461575f80fd5b8063a9059cbb146103d8578063b377f569146103eb578063cbca75cb146103f4578063cdc45c0614610407575f80fd5b806395d89b41116100fc57806395d89b41146103975780639ab4a4451461039f578063a457c2d7146103b2578063a8602fea146103c5575f80fd5b8063715018a61461036e5780638456cb59146103765780638da5cb5b1461037e5780638e15f4731461038f575f80fd5b80633f4ba83a116101a25780635c975abb116101725780635c975abb1461030e5780636f6556ac146103205780636f8b44b01461033357806370a0823114610346575f80fd5b80633f4ba83a146102cd57806340c10f19146102d5578063453d105f146102e85780634626402b146102fb575f80fd5b806318160ddd116101dd57806318160ddd1461028057806323b872dd14610292578063313ce567146102a557806339509351146102ba575f80fd5b806302d454571461020e57806306fdde031461023e578063095ea7b3146102535780631674460714610276575b5f80fd5b600c54610221906001600160a01b031681565b6040516001600160a01b0390911681526020015b60405180910390f35b61024661046e565b6040516102359190611147565b6102666102613660046111b8565b61047d565b6040519015158152602001610235565b61027e610496565b005b6002545b604051908152602001610235565b6102666102a03660046111e0565b6104f6565b60075460405160ff9091168152602001610235565b6102666102c83660046111b8565b61052b565b61027e610547565b61027e6102e33660046111b8565b610559565b6102846102f6366004611219565b6105f1565b600a54610221906001600160a01b031681565b600554600160a01b900460ff16610266565b600d54610221906001600160a01b031681565b61027e610341366004611219565b61061c565b610284610354366004611230565b6001600160a01b03165f9081526020819052604090205490565b61027e6106d4565b61027e6106e5565b6005546001600160a01b0316610221565b6102846106f5565b610246610830565b600b54610221906001600160a01b031681565b6102666103c03660046111b8565b61083a565b61027e6103d3366004611230565b6108bf565b6102666103e63660046111b8565b610931565b610284600e5481565b610284610402366004611219565b610946565b61027e610415366004611219565b61097f565b61028460085481565b610284610431366004611249565b6109db565b6009546102219061010090046001600160a01b031681565b61027e61045c366004611230565b610a05565b6009546102669060ff1681565b6060610478610a7e565b905090565b5f3361048a818585610b0e565b60019150505b92915050565b61049e610c31565b60095460ff16156104e75760405162461bcd60e51b815260206004820152600e60248201526d20b63932b0b23c90333937bd32b760911b60448201526064015b60405180910390fd5b6009805460ff19166001179055565b5f61051684338461050788336109db565b610511919061128e565b610b0e565b610521848484610c8b565b5060019392505050565b5f3361048a81858561053d83836109db565b61051191906112a1565b61054f610c31565b610557610cf9565b565b610561610c31565b610569610d4e565b6007545f9061057c9060ff16600a611394565b61058690836113a2565b90506008548161059560025490565b61059f91906112a1565b11156105e25760405162461bcd60e51b815260206004820152601260248201527145786365656473206d617820737570706c7960701b60448201526064016104de565b6105ec8382610d9b565b505050565b6007545f906106049060ff16600a611394565b82600e5461061291906113a2565b61049091906113b9565b610624610c31565b60095460ff161561066e5760405162461bcd60e51b815260206004820152601460248201527326b0bc1039bab838363c9034b990333937bd32b760611b60448201526064016104de565b6002548110156106cf5760405162461bcd60e51b815260206004820152602660248201527f4e6577206d617820737570706c79206d757374206265203e3d20746f74616c20604482015265737570706c7960d01b60648201526084016104de565b600855565b6106dc610c31565b6105575f610e58565b6106ed610c31565b610557610ea9565b6040805160028082526060820183525f928392919060208301908036833701905050905030815f8151811061072c5761072c6113ec565b6001600160a01b039283166020918202929092010152600b5482519116908290600190811061075d5761075d6113ec565b6001600160a01b03909216602092830291909101909101526007545f906107889060ff16600a611394565b6107939060016113a2565b600d5460405163d06ca61f60e01b81529192505f916001600160a01b039091169063d06ca61f906107ca9085908790600401611400565b5f60405180830381865afa1580156107e4573d5f803e3d5ffd5b505050506040513d5f823e601f3d908101601f1916820160405261080b9190810190611455565b905080600181518110610820576108206113ec565b6020026020010151935050505090565b6060610478610eec565b5f338161084782866109db565b9050838110156108a75760405162461bcd60e51b815260206004820152602560248201527f45524332303a2064656372656173656420616c6c6f77616e63652062656c6f77604482015264207a65726f60d81b60648201526084016104de565b6108b48286868403610b0e565b506001949350505050565b6108c7610c31565b6001600160a01b03811661090f5760405162461bcd60e51b815260206004820152600f60248201526e496e76616c6964206164647265737360881b60448201526064016104de565b600a80546001600160a01b0319166001600160a01b0392909216919091179055565b5f61093d338484610c8b565b50600192915050565b5f806109506106f5565b6007549091506109649060ff16600a611394565b61096e84836113a2565b61097891906113b9565b9392505050565b610987610c31565b5f81116109d65760405162461bcd60e51b815260206004820152601f60248201527f5072696365206d7573742062652067726561746572207468616e207a65726f0060448201526064016104de565b600e55565b6001600160a01b039182165f90815260016020908152604080832093909416825291909152205490565b610a0d610c31565b6001600160a01b038116610a725760405162461bcd60e51b815260206004820152602660248201527f4f776e61626c653a206e6577206f776e657220697320746865207a65726f206160448201526564647265737360d01b60648201526084016104de565b610a7b81610e58565b50565b606060038054610a8d9061150e565b80601f0160208091040260200160405190810160405280929190818152602001828054610ab99061150e565b8015610b045780601f10610adb57610100808354040283529160200191610b04565b820191905f5260205f20905b815481529060010190602001808311610ae757829003601f168201915b5050505050905090565b6001600160a01b038316610b705760405162461bcd60e51b8152602060048201526024808201527f45524332303a20617070726f76652066726f6d20746865207a65726f206164646044820152637265737360e01b60648201526084016104de565b6001600160a01b038216610bd15760405162461bcd60e51b815260206004820152602260248201527f45524332303a20617070726f766520746f20746865207a65726f206164647265604482015261737360f01b60648201526084016104de565b6001600160a01b038381165f8181526001602090815260408083209487168084529482529182902085905590518481527f8c5be1e5ebec7d5bd14f71427d1e84f3dd0314c0f7b2291e5b200ac8c7c3b925910160405180910390a3505050565b6005546001600160a01b031633146105575760405162461bcd60e51b815260206004820181905260248201527f4f776e61626c653a2063616c6c6572206973206e6f7420746865206f776e657260448201526064016104de565b610c93610d4e565b610c9b610efb565b5f6064610ca98360016113a2565b610cb391906113b9565b90505f610cc0828461128e565b9050610ce285600960019054906101000a90046001600160a01b031684610f54565b610ced858583610f54565b50506105ec6001600655565b610d016110f7565b6005805460ff60a01b191690557f5db9ee0a495bf2e6ff9c91a7834c1ba4fdd244a5e8aa4e537bd38aeae4b073aa335b6040516001600160a01b03909116815260200160405180910390a1565b600554600160a01b900460ff16156105575760405162461bcd60e51b815260206004820152601060248201526f14185d5cd8589b194e881c185d5cd95960821b60448201526064016104de565b6001600160a01b038216610df15760405162461bcd60e51b815260206004820152601f60248201527f45524332303a206d696e7420746f20746865207a65726f20616464726573730060448201526064016104de565b8060025f828254610e0291906112a1565b90915550506001600160a01b0382165f81815260208181526040808320805486019055518481527fddf252ad1be2c89b69c2b068fc378daa952ba7f163c4a11628f55a4df523b3ef910160405180910390a35050565b600580546001600160a01b038381166001600160a01b0319831681179093556040519116919082907f8be0079c531659141344cd1fd0a4f28419497f9722a3daafe3b4186f6b6457e0905f90a35050565b610eb1610d4e565b6005805460ff60a01b1916600160a01b1790557f62e78cea01bee320cd4e420270b5ea74000d11b0c9f74754ebdbfc544b05a258610d313390565b606060048054610a8d9061150e565b600260065403610f4d5760405162461bcd60e51b815260206004820152601f60248201527f5265656e7472616e637947756172643a207265656e7472616e742063616c6c0060448201526064016104de565b6002600655565b6001600160a01b038316610fb85760405162461bcd60e51b815260206004820152602560248201527f45524332303a207472616e736665722066726f6d20746865207a65726f206164604482015264647265737360d81b60648201526084016104de565b6001600160a01b03821661101a5760405162461bcd60e51b815260206004820152602360248201527f45524332303a207472616e7366657220746f20746865207a65726f206164647260448201526265737360e81b60648201526084016104de565b6001600160a01b0383165f90815260208190526040902054818110156110915760405162461bcd60e51b815260206004820152602660248201527f45524332303a207472616e7366657220616d6f756e7420657863656564732062604482015265616c616e636560d01b60648201526084016104de565b6001600160a01b038481165f81815260208181526040808320878703905593871680835291849020805487019055925185815290927fddf252ad1be2c89b69c2b068fc378daa952ba7f163c4a11628f55a4df523b3ef910160405180910390a350505050565b600554600160a01b900460ff166105575760405162461bcd60e51b815260206004820152601460248201527314185d5cd8589b194e881b9bdd081c185d5cd95960621b60448201526064016104de565b5f6020808352835180828501525f5b8181101561117257858101830151858201604001528201611156565b505f604082860101526040601f19601f8301168501019250505092915050565b5f81356001600160a81b03811681146111a9575f80fd5b6001600160a01b031692915050565b5f80604083850312156111c9575f80fd5b6111d283611192565b946020939093013593505050565b5f805f606084860312156111f2575f80fd5b6111fb84611192565b925061120960208501611192565b9150604084013590509250925092565b5f60208284031215611229575f80fd5b5035919050565b5f60208284031215611240575f80fd5b61097882611192565b5f806040838503121561125a575f80fd5b61126383611192565b915061127160208401611192565b90509250929050565b634e487b7160e01b5f52601160045260245ffd5b818103818111156104905761049061127a565b808201808211156104905761049061127a565b600181815b808511156112ee57815f19048211156112d4576112d461127a565b808516156112e157918102915b93841c93908002906112b9565b509250929050565b5f8261130457506001610490565b8161131057505f610490565b816001811461132657600281146113305761134c565b6001915050610490565b60ff8411156113415761134161127a565b50506001821b610490565b5060208310610133831016604e8410600b841016171561136f575081810a610490565b61137983836112b4565b805f190482111561138c5761138c61127a565b029392505050565b5f61097860ff8416836112f6565b80820281158282048414176104905761049061127a565b5f826113d357634e487b7160e01b5f52601260045260245ffd5b500490565b634e487b7160e01b5f52604160045260245ffd5b634e487b7160e01b5f52603260045260245ffd5b5f60408201848352602060408185015281855180845260608601915082870193505f5b818110156114485784516001600160a01b031683529383019391830191600101611423565b5090979650505050505050565b5f6020808385031215611466575f80fd5b825167ffffffffffffffff8082111561147d575f80fd5b818501915085601f830112611490575f80fd5b8151818111156114a2576114a26113d8565b8060051b604051601f19603f830116810181811085821117156114c7576114c76113d8565b6040529182528482019250838101850191888311156114e4575f80fd5b938501935b82851015611502578451845293850193928501926114e9565b98975050505050505050565b600181811c9082168061152257607f821691505b60208210810361154057634e487b7160e01b5f52602260045260245ffd5b5091905056fea26474726f6e58221220192603185949aa8def5e3f1abdcace994dae809d20945726a79afa128584e96064736f6c63430008140033",
  "source": "// SPDX-License-Identifier: MIT\npragma solidity ^0.8.20;\n\nimport \"@openzeppelin/contracts/token/ERC20/ERC20.sol\";\nimport \"@openzeppelin/contracts/access/Ownable.sol\";\nimport \"@openzeppelin/contracts/security/Pausable.sol\";\nimport \"@openzeppelin/contracts/security/ReentrancyGuard.sol\";\nimport \"@openzeppelin/contracts/token/ERC20/IERC20.sol\";\nimport \"./interfaces/IJustMoneyRouter.sol\";\n\ncontract USDTgTokenTRC20 is ERC20, Ownable, Pausable, ReentrancyGuard {\n    uint8 private _decimals = 6;\n    uint256 public maxSupply = 100_000_000_000 * (10 ** 6); // 100B\n    bool public maxSupplyFrozen = false; // changed from true to false\n\n    address public feeWallet;\n    address public treasuryWallet;\n    address public usdtAddress;\n    address public usdcAddress;\n    IJustMoneyRouter public justMoneyRouter;\n\n    uint256 public fixedUSDPrice = 1e8;\n\n    constructor(\n        string memory name_,\n        string memory symbol_,\n        address _feeWallet,\n        address _usdtAddress,\n        address _usdcAddress,\n        address _router\n    ) ERC20(name_, symbol_) Ownable() {\n        feeWallet = _feeWallet;\n        treasuryWallet = msg.sender;\n        usdtAddress = _usdtAddress;\n        usdcAddress = _usdcAddress;\n        justMoneyRouter = IJustMoneyRouter(_router);\n    }\n\n    function decimals() public view virtual override returns (uint8) {\n        return _decimals;\n    }\n\n    function mint(address to, uint256 amount) external onlyOwner whenNotPaused {\n        uint256 scaledAmount = amount * (10 ** _decimals);\n        require(totalSupply() + scaledAmount <= maxSupply, \"Exceeds max supply\");\n        _mint(to, scaledAmount);\n    }\n\n    function usdValue(uint256 tokenAmount) public view returns (uint256) {\n        return (fixedUSDPrice * tokenAmount) / (10 ** _decimals);\n    }\n\n    function getLatestPrice() public view returns (uint256) {\n        address[] memory path = new address[](2);\n        path[0] = address(this);\n        path[1] = usdtAddress;\n\n        uint256 amountIn = 1 * (10 ** _decimals);\n        uint256[] memory amountsOut = justMoneyRouter.getAmountsOut(amountIn, path);\n        return amountsOut[1];\n    }\n\n    function liveUSDValue(uint256 tokenAmount) public view returns (uint256) {\n        uint256 price = getLatestPrice();\n        return (price * tokenAmount) / (10 ** _decimals);\n    }\n\n    function setFixedUSDPrice(uint256 newPrice) external onlyOwner {\n        require(newPrice > 0, \"Price must be greater than zero\");\n        fixedUSDPrice = newPrice;\n    }\n\n    function setMaxSupply(uint256 newMaxSupply) external onlyOwner {\n        require(!maxSupplyFrozen, \"Max supply is frozen\");\n        require(newMaxSupply >= totalSupply(), \"New max supply must be >= total supply\");\n        maxSupply = newMaxSupply;\n    }\n\n    function freezeMaxSupply() external onlyOwner {\n        require(!maxSupplyFrozen, \"Already frozen\");\n        maxSupplyFrozen = true;\n    }\n\n    function transfer(address recipient, uint256 amount) public override returns (bool) {\n        _customTransfer(_msgSender(), recipient, amount);\n        return true;\n    }\n\n    function transferFrom(address sender, address recipient, uint256 amount) public override returns (bool) {\n        _approve(sender, _msgSender(), allowance(sender, _msgSender()) - amount);\n        _customTransfer(sender, recipient, amount);\n        return true;\n    }\n\n    function _customTransfer(address sender, address recipient, uint256 amount) internal whenNotPaused nonReentrant {\n        uint256 fee = (amount * 1) / 100;\n        uint256 amountAfterFee = amount - fee;\n\n        _transfer(sender, feeWallet, fee);\n        _transfer(sender, recipient, amountAfterFee);\n    }\n\n    function setTreasuryWallet(address _wallet) external onlyOwner {\n        require(_wallet != address(0), \"Invalid address\");\n        treasuryWallet = _wallet;\n    }\n\n    function pause() external onlyOwner {\n        _pause();\n    }\n\n    function unpause() external onlyOwner {\n        _unpause();\n    }\n\n    function name() public view override returns (string memory) {\n        return super.name();\n    }\n\n    function symbol() public view override returns (string memory) {\n        return super.symbol();\n    }\n}\n",
  "sourcePath": "/Users/irfangedik/TetherGround USD/contracts/USDTgTokenTRC20.sol",
  "compiler": {
    "name": "solc",
    "version": "0.8.20+commit.5f1834bc.Emscripten.clang"
  },
  "schemaVersion": "2.0.1",
  "updatedAt": "2025-04-14T21:20:01.148Z"
}