{
  "_format": "hh-sol-artifact-1",
  "contractName": "USDTgSimplePriceOracle",
  "sourceName": "contracts/USDTgPriceOracle.sol",
  "abi": [
    {
      "inputs": [
        {
          "internalType": "int256",
          "name": "initialPrice",
          "type": "int256"
        }
      ],
      "stateMutability": "nonpayable",
      "type": "constructor"
    },
    {
      "inputs": [],
      "name": "decimals",
      "outputs": [
        {
          "internalType": "uint8",
          "name": "",
          "type": "uint8"
        }
      ],
      "stateMutability": "pure",
      "type": "function"
    },
    {
      "inputs": [],
      "name": "getPrice",
      "outputs": [
        {
          "internalType": "int256",
          "name": "",
          "type": "int256"
        }
      ],
      "stateMutability": "view",
      "type": "function"
    },
    {
      "inputs": [],
      "name": "latestRoundData",
      "outputs": [
        {
          "internalType": "uint80",
          "name": "roundId",
          "type": "uint80"
        },
        {
          "internalType": "int256",
          "name": "answer",
          "type": "int256"
        },
        {
          "internalType": "uint256",
          "name": "startedAt",
          "type": "uint256"
        },
        {
          "internalType": "uint256",
          "name": "updatedAt",
          "type": "uint256"
        },
        {
          "internalType": "uint80",
          "name": "answeredInRound",
          "type": "uint80"
        }
      ],
      "stateMutability": "view",
      "type": "function"
    },
    {
      "inputs": [
        {
          "internalType": "int256",
          "name": "newPrice",
          "type": "int256"
        }
      ],
      "name": "setPrice",
      "outputs": [],
      "stateMutability": "nonpayable",
      "type": "function"
    }
  ],
  "bytecode": "0x608060405234801561001057600080fd5b506040516101ba3803806101ba83398101604081905261002f91610037565b600055610050565b60006020828403121561004957600080fd5b5051919050565b61015b8061005f6000396000f3fe608060405234801561001057600080fd5b506004361061004c5760003560e01c8063313ce5671461005157806398d5fdca14610065578063f7a3080614610076578063feaf968c1461008b575b600080fd5b604051600881526020015b60405180910390f35b60005460405190815260200161005c565b61008961008436600461010c565b6100ba565b005b60008054604080518381526020810192909252429082018190526060820152608081019190915260a00161005c565b600081136101075760405162461bcd60e51b81526020600482015260166024820152755072696365206d75737420626520706f73697469766560501b604482015260640160405180910390fd5b600055565b60006020828403121561011e57600080fd5b503591905056fea26469706673582212203490aab9e5464352f8f95e700708e1fdb18c58e373ecc75ba6622ec3143595be64736f6c63430008140033",
  "linkReferences": {},
  "deployedLinkReferences": {}
}